{
  "contractName": "BasicOutboundChannel",
  "abi": [
    {
      "anonymous": false,
      "inputs": [
        {
          "indexed": false,
          "internalType": "address",
          "name": "source",
          "type": "address"
        },
        {
          "indexed": false,
          "internalType": "uint64",
          "name": "nonce",
          "type": "uint64"
        },
        {
          "indexed": false,
          "internalType": "bytes",
          "name": "payload",
          "type": "bytes"
        }
      ],
      "name": "Message",
      "type": "event"
    },
    {
      "inputs": [],
      "name": "nonce",
      "outputs": [
        {
          "internalType": "uint64",
          "name": "",
          "type": "uint64"
        }
      ],
      "stateMutability": "view",
      "type": "function",
      "constant": true
    },
    {
      "inputs": [
        {
          "internalType": "address",
          "name": "",
          "type": "address"
        },
        {
          "internalType": "bytes",
          "name": "payload",
          "type": "bytes"
        }
      ],
      "name": "submit",
      "outputs": [],
      "stateMutability": "nonpayable",
      "type": "function"
    }
  ],
  "bytecode": "0x608060405234801561001057600080fd5b50610379806100206000396000f3fe608060405234801561001057600080fd5b50600436106100365760003560e01c806376846edd1461003b578063affed0e014610057575b600080fd5b61005560048036038101906100509190610181565b610075565b005b61005f61010a565b60405161006c9190610264565b60405180910390f35b600160008054906101000a900467ffffffffffffffff16016000806101000a81548167ffffffffffffffff021916908367ffffffffffffffff1602179055507f779b38144a38cfc4351816442048b17fe24ba2b0e0c63446b576e8281160b15b3360008054906101000a900467ffffffffffffffff1684846040516100fd9493929190610224565b60405180910390a1505050565b60008054906101000a900467ffffffffffffffff1681565b6000813590506101318161032c565b92915050565b60008083601f84011261014957600080fd5b8235905067ffffffffffffffff81111561016257600080fd5b60208301915083600182028301111561017a57600080fd5b9250929050565b60008060006040848603121561019657600080fd5b60006101a486828701610122565b935050602084013567ffffffffffffffff8111156101c157600080fd5b6101cd86828701610137565b92509250509250925092565b6101e2816102d6565b82525050565b60006101f4838561027f565b935061020183858461030c565b61020a8361031b565b840190509392505050565b61021e816102c2565b82525050565b600060608201905061023960008301876101d9565b6102466020830186610215565b81810360408301526102598184866101e8565b905095945050505050565b60006020820190506102796000830184610215565b92915050565b600082825260208201905092915050565b600061029b826102a2565b9050919050565b600073ffffffffffffffffffffffffffffffffffffffff82169050919050565b600067ffffffffffffffff82169050919050565b60006102e1826102e8565b9050919050565b60006102f3826102fa565b9050919050565b6000610305826102a2565b9050919050565b82818337600083830152505050565b6000601f19601f8301169050919050565b61033581610290565b811461034057600080fd5b5056fea2646970667358221220c6b42b68a3ff9223112fe7753aa403e91dcd8b51a3553c501fcb5df87647d7f864736f6c63430007060033",
  "immutableReferences": {},
  "source": "// SPDX-License-Identifier: MIT\npragma solidity >=0.7.6;\npragma experimental ABIEncoderV2;\n\nimport \"./OutboundChannel.sol\";\n\n// BasicOutboundChannel is a basic channel that just sends messages with a nonce.\ncontract BasicOutboundChannel is OutboundChannel {\n\n    uint64 public nonce;\n\n    event Message(\n        address source,\n        uint64 nonce,\n        bytes payload\n    );\n\n    /**\n     * @dev Sends a message across the channel\n     */\n    function submit(address, bytes calldata payload) external override {\n        nonce = nonce + 1;\n        emit Message(msg.sender, nonce, payload);\n    }\n}\n",
  "sourcePath": "/home/jamie/dev/crypto/snowfork/polkadot-ethereum/ethereum/contracts/BasicOutboundChannel.sol",
  "compiler": {
    "name": "solc",
    "version": "0.7.6+commit.7338295f.Emscripten.clang"
  },
  "schemaVersion": "3.2.5",
  "updatedAt": "2021-04-08T14:21:04.495Z",
  "networkType": "ethereum",
  "devdoc": {
    "kind": "dev",
    "methods": {
      "submit(address,bytes)": {
        "details": "Sends a message across the channel"
      }
    },
    "version": 1
  },
  "userdoc": {
    "kind": "user",
    "methods": {},
    "version": 1
  }
}