{
  "contractName": "BasicInboundChannel",
  "abi": [
    {
      "inputs": [
        {
          "internalType": "contract BeefyLightClient",
          "name": "_beefyLightClient",
          "type": "address"
        }
      ],
      "stateMutability": "nonpayable",
      "type": "constructor"
    },
    {
      "anonymous": false,
      "inputs": [
        {
          "indexed": false,
          "internalType": "uint64",
          "name": "nonce",
          "type": "uint64"
        },
        {
          "indexed": false,
          "internalType": "bool",
          "name": "result",
          "type": "bool"
        }
      ],
      "name": "MessageDispatched",
      "type": "event"
    },
    {
      "inputs": [],
      "name": "GAS_BUFFER",
      "outputs": [
        {
          "internalType": "uint256",
          "name": "",
          "type": "uint256"
        }
      ],
      "stateMutability": "view",
      "type": "function",
      "constant": true
    },
    {
      "inputs": [],
      "name": "MAX_GAS_PER_MESSAGE",
      "outputs": [
        {
          "internalType": "uint256",
          "name": "",
          "type": "uint256"
        }
      ],
      "stateMutability": "view",
      "type": "function",
      "constant": true
    },
    {
      "inputs": [],
      "name": "beefyLightClient",
      "outputs": [
        {
          "internalType": "contract BeefyLightClient",
          "name": "",
          "type": "address"
        }
      ],
      "stateMutability": "view",
      "type": "function",
      "constant": true
    },
    {
      "inputs": [],
      "name": "nonce",
      "outputs": [
        {
          "internalType": "uint64",
          "name": "",
          "type": "uint64"
        }
      ],
      "stateMutability": "view",
      "type": "function",
      "constant": true
    },
    {
      "inputs": [
        {
          "components": [
            {
              "internalType": "address",
              "name": "target",
              "type": "address"
            },
            {
              "internalType": "uint64",
              "name": "nonce",
              "type": "uint64"
            },
            {
              "internalType": "bytes",
              "name": "payload",
              "type": "bytes"
            }
          ],
          "internalType": "struct BasicInboundChannel.Message[]",
          "name": "_messages",
          "type": "tuple[]"
        },
        {
          "components": [
            {
              "internalType": "bytes32",
              "name": "parentHash",
              "type": "bytes32"
            },
            {
              "internalType": "uint32",
              "name": "number",
              "type": "uint32"
            },
            {
              "internalType": "bytes32",
              "name": "stateRoot",
              "type": "bytes32"
            },
            {
              "internalType": "bytes32",
              "name": "extrinsicsRoot",
              "type": "bytes32"
            }
          ],
          "internalType": "struct ParachainLightClient.OwnParachainHeadPartial",
          "name": "_ownParachainHeadPartial",
          "type": "tuple"
        },
        {
          "components": [
            {
              "internalType": "uint256",
              "name": "pos",
              "type": "uint256"
            },
            {
              "internalType": "uint256",
              "name": "width",
              "type": "uint256"
            },
            {
              "internalType": "bytes32[]",
              "name": "proof",
              "type": "bytes32[]"
            }
          ],
          "internalType": "struct ParachainLightClient.ParachainHeadProof",
          "name": "_parachainHeadProof",
          "type": "tuple"
        },
        {
          "components": [
            {
              "internalType": "uint32",
              "name": "parentNumber",
              "type": "uint32"
            },
            {
              "internalType": "bytes32",
              "name": "parentHash",
              "type": "bytes32"
            },
            {
              "internalType": "uint64",
              "name": "nextAuthoritySetId",
              "type": "uint64"
            },
            {
              "internalType": "uint32",
              "name": "nextAuthoritySetLen",
              "type": "uint32"
            },
            {
              "internalType": "bytes32",
              "name": "nextAuthoritySetRoot",
              "type": "bytes32"
            }
          ],
          "internalType": "struct ParachainLightClient.BeefyMMRLeafPartial",
          "name": "_beefyMMRLeafPartial",
          "type": "tuple"
        },
        {
          "internalType": "uint256",
          "name": "_beefyMMRLeafIndex",
          "type": "uint256"
        },
        {
          "internalType": "uint256",
          "name": "_beefyMMRLeafCount",
          "type": "uint256"
        },
        {
          "internalType": "bytes32[]",
          "name": "_beefyMMRLeafProof",
          "type": "bytes32[]"
        }
      ],
      "name": "submit",
      "outputs": [],
      "stateMutability": "nonpayable",
      "type": "function"
    }
  ],
  "bytecode": "0x60806040523480156200001157600080fd5b50604051620019a6380380620019a68339818101604052810190620000379190620000bf565b60008060006101000a81548167ffffffffffffffff021916908367ffffffffffffffff16021790555080600060086101000a81548173ffffffffffffffffffffffffffffffffffffffff021916908373ffffffffffffffffffffffffffffffffffffffff1602179055505062000158565b600081519050620000b9816200013e565b92915050565b600060208284031215620000d857620000d762000139565b5b6000620000e884828501620000a8565b91505092915050565b6000620000fe8262000119565b9050919050565b60006200011282620000f1565b9050919050565b600073ffffffffffffffffffffffffffffffffffffffff82169050919050565b600080fd5b620001498162000105565b81146200015557600080fd5b50565b61183e80620001686000396000f3fe608060405234801561001057600080fd5b50600436106100575760003560e01c8063022f6d951461005c57806349bee57414610078578063af41c33e14610096578063affed0e0146100b4578063c7e67360146100d2575b600080fd5b610076600480360381019061007191906109c8565b6100f0565b005b6100806101c7565b60405161008d91906110d3565b60405180910390f35b61009e6101ce565b6040516100ab919061105d565b60405180910390f35b6100bc6101f4565b6040516100c99190611124565b60405180910390f35b6100da61020c565b6040516100e791906110d3565b60405180910390f35b60008989604051602001610105929190610feb565b6040516020818303038152906040528051906020012090506101508189898989898989600060089054906101000a900473ffffffffffffffffffffffffffffffffffffffff16610212565b61ea60620186a08b8b90506101659190611414565b61016f9190611380565b5a10156101b1576040517f08c379a00000000000000000000000000000000000000000000000000000000081526004016101a890611098565b60405180910390fd5b6101bb8a8a6102e5565b50505050505050505050565b620186a081565b600060089054906101000a900473ffffffffffffffffffffffffffffffffffffffff1681565b60008054906101000a900467ffffffffffffffff1681565b61ea6081565b600061021e898b61054e565b9050600073__MerkleProof___________________________6340752949838b600001358c602001358d80604001906102579190611168565b6040518663ffffffff1660e01b815260040161027795949392919061100f565b60206040518083038186803b15801561028f57600080fd5b505af41580156102a3573d6000803e3d6000fd5b505050506040513d601f19601f820116820180604052508101906102c79190610aca565b905060006102d589836105c9565b9050505050505050505050505050565b60005b8282905081101561054957600160008054906101000a900467ffffffffffffffff1661031491906113d6565b67ffffffffffffffff168383838181106103315761033061166e565b5b9050602002810190610343919061122e565b60200160208101906103559190610b7e565b67ffffffffffffffff161461039f576040517f08c379a000000000000000000000000000000000000000000000000000000000815260040161039690611078565b60405180910390fd5b600160008054906101000a900467ffffffffffffffff166103c091906113d6565b6000806101000a81548167ffffffffffffffff021916908367ffffffffffffffff16021790555060008383838181106103fc576103fb61166e565b5b905060200281019061040e919061122e565b6000016020810190610420919061099b565b73ffffffffffffffffffffffffffffffffffffffff166000620186a0908686868181106104505761044f61166e565b5b9050602002810190610462919061122e565b806040019061047191906111cb565b60405161047f929190610fd2565b600060405180830381858888f193505050503d80600081146104bd576040519150601f19603f3d011682016040523d82523d6000602084013e6104c2565b606091505b505090507f504b093d860dc827c72a879d052fd8ac6b4c2af80c5f3a634654f172690bf10a8484848181106104fa576104f961166e565b5b905060200281019061050c919061122e565b602001602081019061051e9190610b7e565b8260405161052d92919061113f565b60405180910390a1508080610541906115ce565b9150506102e8565b505050565b60006040518060a00160405280846000013581526020018460200160208101906105789190610b51565b63ffffffff1681526020018460400135815260200184606001358152602001838152506040516020016105ab91906110b8565b60405160208183030381529060405280519060200120905092915050565b60008073__ScaleCodec____________________________63381f760d8560000160208101906105f99190610b51565b6040518263ffffffff1660e01b815260040161061591906110ee565b60206040518083038186803b15801561062d57600080fd5b505af4158015610641573d6000803e3d6000fd5b505050506040513d601f19601f820116820180604052508101906106659190610af7565b84602001358473__ScaleCodec____________________________63f83d7d5f8860400160208101906106989190610b7e565b6040518263ffffffff1660e01b81526004016106b49190611109565b60206040518083038186803b1580156106cc57600080fd5b505af41580156106e0573d6000803e3d6000fd5b505050506040513d601f19601f820116820180604052508101906107049190610b24565b73__ScaleCodec____________________________63381f760d8960600160208101906107319190610b51565b6040518263ffffffff1660e01b815260040161074d91906110ee565b60206040518083038186803b15801561076557600080fd5b505af4158015610779573d6000803e3d6000fd5b505050506040513d601f19601f8201168201806040525081019061079d9190610af7565b88608001356040516020016107b796959493929190610f62565b604051602081830303815290604052905061c10160f01b816040516020016107e0929190610f3a565b6040516020818303038152906040528051906020012091505092915050565b60008135905061080e81611767565b92915050565b60008083601f84011261082a576108296116a7565b5b8235905067ffffffffffffffff811115610847576108466116a2565b5b602083019150836020820283011115610863576108626116c0565b5b9250929050565b60008083601f8401126108805761087f6116a7565b5b8235905067ffffffffffffffff81111561089d5761089c6116a2565b5b6020830191508360208202830111156108b9576108b86116c0565b5b9250929050565b6000815190506108cf8161177e565b92915050565b6000815190506108e481611795565b92915050565b6000815190506108f9816117ac565b92915050565b600060a08284031215610915576109146116b1565b5b81905092915050565b600060808284031215610934576109336116b1565b5b81905092915050565b600060608284031215610953576109526116b1565b5b81905092915050565b60008135905061096b816117c3565b92915050565b600081359050610980816117da565b92915050565b600081359050610995816117f1565b92915050565b6000602082840312156109b1576109b06116d9565b5b60006109bf848285016107ff565b91505092915050565b60008060008060008060008060006101c08a8c0312156109eb576109ea6116d9565b5b60008a013567ffffffffffffffff811115610a0957610a086116ca565b5b610a158c828d0161086a565b99509950506020610a288c828d0161091e565b97505060a08a013567ffffffffffffffff811115610a4957610a486116ca565b5b610a558c828d0161093d565b96505060c0610a668c828d016108ff565b955050610160610a788c828d0161095c565b945050610180610a8a8c828d0161095c565b9350506101a08a013567ffffffffffffffff811115610aac57610aab6116ca565b5b610ab88c828d01610814565b92509250509295985092959850929598565b600060208284031215610ae057610adf6116d9565b5b6000610aee848285016108c0565b91505092915050565b600060208284031215610b0d57610b0c6116d9565b5b6000610b1b848285016108d5565b91505092915050565b600060208284031215610b3a57610b396116d9565b5b6000610b48848285016108ea565b91505092915050565b600060208284031215610b6757610b666116d9565b5b6000610b7584828501610971565b91505092915050565b600060208284031215610b9457610b936116d9565b5b6000610ba284828501610986565b91505092915050565b6000610bb78383610dff565b905092915050565b610bc88161146e565b82525050565b6000610bda8385611278565b93507f07ffffffffffffffffffffffffffffffffffffffffffffffffffffffffffffff831115610c0d57610c0c6116cf565b5b602083029250610c1e83858461158c565b82840190509392505050565b6000610c368385611289565b935083602084028501610c4884611256565b8060005b87811015610c8c578484038952610c638284611341565b610c6d8582610bab565b9450610c788361126b565b925060208a01995050600181019050610c4c565b50829750879450505050509392505050565b610ca781611480565b82525050565b610cbe610cb98261148c565b611617565b82525050565b610ccd816114b8565b82525050565b610cdc816114b8565b82525050565b610cf3610cee826114b8565b611621565b82525050565b610d0a610d05826114c2565b61162b565b82525050565b610d21610d1c826114ee565b611635565b82525050565b6000610d33838561129a565b9350610d4083858461158c565b610d49836116de565b840190509392505050565b6000610d6083856112ab565b9350610d6d83858461158c565b82840190509392505050565b6000610d8482611260565b610d8e81856112ab565b9350610d9e81856020860161159b565b80840191505092915050565b610db381611568565b82525050565b6000610dc6600d836112b6565b9150610dd1826116ef565b602082019050919050565b6000610de9602d836112b6565b9150610df482611718565b604082019050919050565b600060608301610e1260008401846112c7565b610e1f6000860182610bbf565b50610e2d6020840184611369565b610e3a6020860182610f0d565b50610e4860408401846112de565b8583036040870152610e5b838284610d27565b925050508091505092915050565b60a082016000820151610e7f6000850182610cc4565b506020820151610e926020850182610eef565b506040820151610ea56040850182610cc4565b506060820151610eb86060850182610cc4565b506080820151610ecb6080850182610cc4565b50505050565b610eda8161153a565b82525050565b610ee98161153a565b82525050565b610ef881611544565b82525050565b610f0781611544565b82525050565b610f1681611554565b82525050565b610f2581611554565b82525050565b610f3481611554565b82525050565b6000610f468285610cad565b600282019150610f568284610d79565b91508190509392505050565b6000610f6e8289610cf9565b600482019150610f7e8288610ce2565b602082019150610f8e8287610ce2565b602082019150610f9e8286610d10565b600882019150610fae8285610cf9565b600482019150610fbe8284610ce2565b602082019150819050979650505050505050565b6000610fdf828486610d54565b91508190509392505050565b60006020820190508181036000830152611006818486610c2a565b90509392505050565b60006080820190506110246000830188610cd3565b6110316020830187610ee0565b61103e6040830186610ee0565b8181036060830152611051818486610bce565b90509695505050505050565b60006020820190506110726000830184610daa565b92915050565b6000602082019050818103600083015261109181610db9565b9050919050565b600060208201905081810360008301526110b181610ddc565b9050919050565b600060a0820190506110cd6000830184610e69565b92915050565b60006020820190506110e86000830184610ed1565b92915050565b60006020820190506111036000830184610efe565b92915050565b600060208201905061111e6000830184610f2b565b92915050565b60006020820190506111396000830184610f1c565b92915050565b60006040820190506111546000830185610f1c565b6111616020830184610c9e565b9392505050565b60008083356001602003843603038112611185576111846116b6565b5b80840192508235915067ffffffffffffffff8211156111a7576111a66116ac565b5b6020830192506020820236038313156111c3576111c26116c5565b5b509250929050565b600080833560016020038436030381126111e8576111e76116b6565b5b80840192508235915067ffffffffffffffff82111561120a576112096116ac565b5b602083019250600182023603831315611226576112256116c5565b5b509250929050565b60008235600160600383360303811261124a576112496116b6565b5b80830191505092915050565b6000819050919050565b600081519050919050565b6000602082019050919050565b600082825260208201905092915050565b600082825260208201905092915050565b600082825260208201905092915050565b600081905092915050565b600082825260208201905092915050565b60006112d660208401846107ff565b905092915050565b600080833560016020038436030381126112fb576112fa6116d4565b5b83810192508235915060208301925067ffffffffffffffff8211156113235761132261169d565b5b600182023603841315611339576113386116bb565b5b509250929050565b60008235600160600383360303811261135d5761135c6116d4565b5b82810191505092915050565b60006113786020840184610986565b905092915050565b600061138b8261153a565b91506113968361153a565b9250827fffffffffffffffffffffffffffffffffffffffffffffffffffffffffffffffff038211156113cb576113ca61163f565b5b828201905092915050565b60006113e182611554565b91506113ec83611554565b92508267ffffffffffffffff038211156114095761140861163f565b5b828201905092915050565b600061141f8261153a565b915061142a8361153a565b9250817fffffffffffffffffffffffffffffffffffffffffffffffffffffffffffffffff04831182151516156114635761146261163f565b5b828202905092915050565b60006114798261151a565b9050919050565b60008115159050919050565b60007fffff00000000000000000000000000000000000000000000000000000000000082169050919050565b6000819050919050565b60007fffffffff0000000000000000000000000000000000000000000000000000000082169050919050565b60007fffffffffffffffff00000000000000000000000000000000000000000000000082169050919050565b600073ffffffffffffffffffffffffffffffffffffffff82169050919050565b6000819050919050565b600063ffffffff82169050919050565b600067ffffffffffffffff82169050919050565b60006115738261157a565b9050919050565b60006115858261151a565b9050919050565b82818337600083830152505050565b60005b838110156115b957808201518184015260208101905061159e565b838111156115c8576000848401525b50505050565b60006115d98261153a565b91507fffffffffffffffffffffffffffffffffffffffffffffffffffffffffffffffff82141561160c5761160b61163f565b5b600182019050919050565b6000819050919050565b6000819050919050565b6000819050919050565b6000819050919050565b7f4e487b7100000000000000000000000000000000000000000000000000000000600052601160045260246000fd5b7f4e487b7100000000000000000000000000000000000000000000000000000000600052603260045260246000fd5b600080fd5b600080fd5b600080fd5b600080fd5b600080fd5b600080fd5b600080fd5b600080fd5b600080fd5b600080fd5b600080fd5b600080fd5b600080fd5b6000601f19601f8301169050919050565b7f696e76616c6964206e6f6e636500000000000000000000000000000000000000600082015250565b7f696e73756666696369656e742067617320666f722064656c6976657279206f6660008201527f20616c6c206d6573736167657300000000000000000000000000000000000000602082015250565b6117708161146e565b811461177b57600080fd5b50565b611787816114b8565b811461179257600080fd5b50565b61179e816114c2565b81146117a957600080fd5b50565b6117b5816114ee565b81146117c057600080fd5b50565b6117cc8161153a565b81146117d757600080fd5b50565b6117e381611544565b81146117ee57600080fd5b50565b6117fa81611554565b811461180557600080fd5b5056fea2646970667358221220334a4ac41233352f7cb1c200d50967114eed44f7d08ed7d6cf067ed319d9777c64736f6c63430008060033",
  "immutableReferences": {},
  "source": "// SPDX-License-Identifier: MIT\npragma solidity ^0.8.5;\npragma experimental ABIEncoderV2;\n\nimport \"./ParachainLightClient.sol\";\nimport \"./BeefyLightClient.sol\";\n\ncontract BasicInboundChannel {\n    uint256 public constant MAX_GAS_PER_MESSAGE = 100000;\n    uint256 public constant GAS_BUFFER = 60000;\n\n    uint64 public nonce;\n\n    BeefyLightClient public beefyLightClient;\n\n    struct Message {\n        address target;\n        uint64 nonce; // TODO: this might cause an error, we use uint256 when encoding on Parachain\n        bytes payload;\n    }\n\n    event MessageDispatched(uint64 nonce, bool result);\n\n    constructor(BeefyLightClient _beefyLightClient) {\n        nonce = 0;\n        beefyLightClient = _beefyLightClient;\n    }\n\n    // TODO: add docs\n    function submit(\n        Message[] calldata _messages,\n        ParachainLightClient.OwnParachainHeadPartial\n            calldata _ownParachainHeadPartial,\n        ParachainLightClient.ParachainHeadProof calldata _parachainHeadProof,\n        ParachainLightClient.BeefyMMRLeafPartial calldata _beefyMMRLeafPartial,\n        uint256 _beefyMMRLeafIndex,\n        uint256 _beefyMMRLeafCount,\n        bytes32[] calldata _beefyMMRLeafProof\n    ) public {\n        // Proof\n        // 1. Compute our parachain's message `commitment` by ABI encoding and hashing the `_messages`\n        bytes32 commitment = keccak256(abi.encode(_messages));\n\n        ParachainLightClient.verifyCommitmentInParachain(\n            commitment,\n            _ownParachainHeadPartial,\n            _parachainHeadProof,\n            _beefyMMRLeafPartial,\n            _beefyMMRLeafIndex,\n            _beefyMMRLeafCount,\n            _beefyMMRLeafProof,\n            beefyLightClient\n        );\n\n        // Require there is enough gas to play all messages\n        require(\n            gasleft() >= (_messages.length * MAX_GAS_PER_MESSAGE) + GAS_BUFFER,\n            \"insufficient gas for delivery of all messages\"\n        );\n\n        processMessages(_messages);\n    }\n\n    function processMessages(Message[] calldata _messages) internal {\n        for (uint256 i = 0; i < _messages.length; i++) {\n            // Check message nonce is correct and increment nonce for replay protection\n            require(_messages[i].nonce == nonce + 1, \"invalid nonce\");\n\n            nonce = nonce + 1;\n\n            // Deliver the message to the target\n            (bool success, ) = _messages[i].target.call{\n                value: 0,\n                gas: MAX_GAS_PER_MESSAGE\n            }(_messages[i].payload);\n\n            emit MessageDispatched(_messages[i].nonce, success);\n        }\n    }\n}\n",
  "sourcePath": "/home/jamie/dev/clients/snowfork/snowbridge/ethereum/contracts/BasicInboundChannel.sol",
  "compiler": {
    "name": "solc",
    "version": "0.8.6+commit.11564f7e.Emscripten.clang"
  },
  "schemaVersion": "3.4.1",
  "updatedAt": "2021-07-19T08:57:32.607Z",
  "networkType": "ethereum",
  "devdoc": {
    "kind": "dev",
    "methods": {},
    "version": 1
  },
  "userdoc": {
    "kind": "user",
    "methods": {},
    "version": 1
  }
}