{
  "contractName": "BasicOutboundChannel",
  "abi": [
    {
      "inputs": [],
      "stateMutability": "nonpayable",
      "type": "constructor"
    },
    {
      "anonymous": false,
      "inputs": [
        {
          "indexed": false,
          "internalType": "address",
          "name": "source",
          "type": "address"
        },
        {
          "indexed": false,
          "internalType": "uint64",
          "name": "nonce",
          "type": "uint64"
        },
        {
          "indexed": false,
          "internalType": "bytes",
          "name": "payload",
          "type": "bytes"
        }
      ],
      "name": "Message",
      "type": "event"
    },
    {
      "inputs": [],
      "name": "nonce",
      "outputs": [
        {
          "internalType": "uint64",
          "name": "",
          "type": "uint64"
        }
      ],
      "stateMutability": "view",
      "type": "function",
      "constant": true
    },
    {
      "inputs": [
        {
          "internalType": "bytes",
          "name": "payload",
          "type": "bytes"
        }
      ],
      "name": "submit",
      "outputs": [],
      "stateMutability": "nonpayable",
      "type": "function"
    }
  ],
  "bytecode": "0x608060405234801561001057600080fd5b5060008060006101000a81548167ffffffffffffffff021916908367ffffffffffffffff1602179055506103e9806100496000396000f3fe608060405234801561001057600080fd5b50600436106100365760003560e01c8063affed0e01461003b578063ef7fa71b14610059575b600080fd5b610043610075565b604051610050919061025c565b60405180910390f35b610073600480360381019061006e9190610186565b61008d565b005b60008054906101000a900467ffffffffffffffff1681565b7f779b38144a38cfc4351816442048b17fe24ba2b0e0c63446b576e8281160b15b3360008054906101000a900467ffffffffffffffff16836040516100d49392919061021e565b60405180910390a1600160008054906101000a900467ffffffffffffffff16016000806101000a81548167ffffffffffffffff021916908367ffffffffffffffff16021790555050565b600061013161012c846102a8565b610277565b90508281526020810184848401111561014957600080fd5b61015484828561035e565b509392505050565b600082601f83011261016d57600080fd5b813561017d84826020860161011e565b91505092915050565b60006020828403121561019857600080fd5b600082013567ffffffffffffffff8111156101b257600080fd5b6101be8482850161015c565b91505092915050565b6101d081610328565b82525050565b60006101e1826102d8565b6101eb81856102e3565b93506101fb81856020860161036d565b610204816103a2565b840191505092915050565b61021881610314565b82525050565b600060608201905061023360008301866101c7565b610240602083018561020f565b818103604083015261025281846101d6565b9050949350505050565b6000602082019050610271600083018461020f565b92915050565b6000604051905081810181811067ffffffffffffffff8211171561029e5761029d6103a0565b5b8060405250919050565b600067ffffffffffffffff8211156102c3576102c26103a0565b5b601f19601f8301169050602081019050919050565b600081519050919050565b600082825260208201905092915050565b600073ffffffffffffffffffffffffffffffffffffffff82169050919050565b600067ffffffffffffffff82169050919050565b60006103338261033a565b9050919050565b60006103458261034c565b9050919050565b6000610357826102f4565b9050919050565b82818337600083830152505050565b60005b8381101561038b578082015181840152602081019050610370565b8381111561039a576000848401525b50505050565bfe5b6000601f19601f830116905091905056fea2646970667358221220b8de03a220105dbdc3621cb7d99bfd24531546e6685895aadd46db4790d57dc264736f6c63430007060033",
  "immutableReferences": {},
  "source": "// SPDX-License-Identifier: MIT\npragma solidity >=0.7.6;\npragma experimental ABIEncoderV2;\n\nimport \"./OutboundChannel.sol\";\n\n// BasicOutboundChannel is a basic channel that just sends messages with a nonce.\ncontract BasicOutboundChannel is OutboundChannel {\n    constructor() {\n        nonce = 0;\n    }\n\n    /**\n     * @dev Sends a message across the channel\n     */\n    function submit(bytes memory payload) public override {\n        emit Message(msg.sender, nonce, payload);\n        nonce = nonce + 1;\n    }\n}\n",
  "sourcePath": "/Users/aidanmusnitzky/code/snowfork/polkadot-ethereum/ethereum/contracts/BasicOutboundChannel.sol",
  "compiler": {
    "name": "solc",
    "version": "0.7.6+commit.7338295f.Emscripten.clang"
  },
  "schemaVersion": "3.3.3",
  "updatedAt": "2021-02-03T12:14:46.063Z",
  "networkType": "ethereum",
  "devdoc": {
    "kind": "dev",
    "methods": {
      "submit(bytes)": {
        "details": "Sends a message across the channel"
      }
    },
    "version": 1
  },
  "userdoc": {
    "kind": "user",
    "methods": {},
    "version": 1
  }
}