{
  "contractName": "BasicInboundChannel",
  "abi": [
    {
      "inputs": [],
      "stateMutability": "nonpayable",
      "type": "constructor"
    },
    {
      "anonymous": false,
      "inputs": [
        {
          "indexed": false,
          "internalType": "uint64",
          "name": "nonce",
          "type": "uint64"
        },
        {
          "indexed": false,
          "internalType": "bool",
          "name": "result",
          "type": "bool"
        }
      ],
      "name": "MessageDelivered",
      "type": "event"
    },
    {
      "inputs": [],
      "name": "EXTERNAL_CALL_COST",
      "outputs": [
        {
          "internalType": "uint256",
          "name": "",
          "type": "uint256"
        }
      ],
      "stateMutability": "view",
      "type": "function",
      "constant": true
    },
    {
      "inputs": [],
      "name": "MAX_GAS_PER_MESSAGE",
      "outputs": [
        {
          "internalType": "uint256",
          "name": "",
          "type": "uint256"
        }
      ],
      "stateMutability": "view",
      "type": "function",
      "constant": true
    },
    {
      "inputs": [],
      "name": "MAX_PAYLOAD_BYTE_SIZE",
      "outputs": [
        {
          "internalType": "uint256",
          "name": "",
          "type": "uint256"
        }
      ],
      "stateMutability": "view",
      "type": "function",
      "constant": true
    },
    {
      "inputs": [],
      "name": "MAX_PAYLOAD_GAS_COST",
      "outputs": [
        {
          "internalType": "uint256",
          "name": "",
          "type": "uint256"
        }
      ],
      "stateMutability": "view",
      "type": "function",
      "constant": true
    },
    {
      "inputs": [],
      "name": "nonce",
      "outputs": [
        {
          "internalType": "uint64",
          "name": "",
          "type": "uint64"
        }
      ],
      "stateMutability": "view",
      "type": "function",
      "constant": true
    },
    {
      "inputs": [
        {
          "components": [
            {
              "internalType": "address",
              "name": "target",
              "type": "address"
            },
            {
              "internalType": "uint64",
              "name": "nonce",
              "type": "uint64"
            },
            {
              "internalType": "bytes",
              "name": "payload",
              "type": "bytes"
            }
          ],
          "internalType": "struct InboundChannel.Message[]",
          "name": "_messages",
          "type": "tuple[]"
        }
      ],
      "name": "submit",
      "outputs": [],
      "stateMutability": "nonpayable",
      "type": "function"
    }
  ],
  "bytecode": "0x60806040526103e86001556207a120600255615208600355600354600154600354010160045534801561003157600080fd5b5060008060006101000a81548167ffffffffffffffff021916908367ffffffffffffffff1602179055506107b08061006a6000396000f3fe608060405234801561001057600080fd5b50600436106100625760003560e01c80630517e0f01461006757806321d168681461008557806349bee574146100a15780637f490716146100bf578063a3e30f91146100dd578063affed0e0146100fb575b600080fd5b61006f610119565b60405161007c9190610599565b60405180910390f35b61009f600480360381019061009a9190610483565b61011f565b005b6100a961012b565b6040516100b69190610599565b60405180910390f35b6100c7610131565b6040516100d49190610599565b60405180910390f35b6100e5610137565b6040516100f29190610599565b60405180910390f35b61010361013d565b60405161011091906105b4565b60405180910390f35b60025481565b61012881610155565b50565b60045481565b60035481565b60015481565b60008054906101000a900467ffffffffffffffff1681565b60005b81518110156102ee57600082828151811061016f57fe5b6020026020010151905060008054906101000a900467ffffffffffffffff1667ffffffffffffffff16816020015167ffffffffffffffff16146101e7576040517f08c379a00000000000000000000000000000000000000000000000000000000081526004016101de90610579565b60405180910390fd5b600160008054906101000a900467ffffffffffffffff16016000806101000a81548167ffffffffffffffff021916908367ffffffffffffffff1602179055506000816000015173ffffffffffffffffffffffffffffffffffffffff16600060045490846040015160405161025b9190610562565b600060405180830381858888f193505050503d8060008114610299576040519150601f19603f3d011682016040523d82523d6000602084013e61029e565b606091505b505090507feac05dca6c4c48e5ae5dec4abf2582d89ac78bdb125c7e91b8515fea6f2106068260200151826040516102d79291906105cf565b60405180910390a150508080600101915050610158565b5050565b600061030561030084610629565b6105f8565b9050808382526020820190508260005b85811015610345578135850161032b88826103f6565b845260208401935060208301925050600181019050610315565b5050509392505050565b600061036261035d84610655565b6105f8565b90508281526020810184848401111561037a57600080fd5b610385848285610708565b509392505050565b60008135905061039c8161074c565b92915050565b600082601f8301126103b357600080fd5b81356103c38482602086016102f2565b91505092915050565b600082601f8301126103dd57600080fd5b81356103ed84826020860161034f565b91505092915050565b60006060828403121561040857600080fd5b61041260606105f8565b905060006104228482850161038d565b60008301525060206104368482850161046e565b602083015250604082013567ffffffffffffffff81111561045657600080fd5b610462848285016103cc565b60408301525092915050565b60008135905061047d81610763565b92915050565b60006020828403121561049557600080fd5b600082013567ffffffffffffffff8111156104af57600080fd5b6104bb848285016103a2565b91505092915050565b6104cd816106be565b82525050565b60006104de82610685565b6104e88185610690565b93506104f8818560208601610717565b80840191505092915050565b6000610511600d8361069b565b91507f696e76616c6964206e6f6e6365000000000000000000000000000000000000006000830152602082019050919050565b61054d816106ea565b82525050565b61055c816106f4565b82525050565b600061056e82846104d3565b915081905092915050565b6000602082019050818103600083015261059281610504565b9050919050565b60006020820190506105ae6000830184610544565b92915050565b60006020820190506105c96000830184610553565b92915050565b60006040820190506105e46000830185610553565b6105f160208301846104c4565b9392505050565b6000604051905081810181811067ffffffffffffffff8211171561061f5761061e61074a565b5b8060405250919050565b600067ffffffffffffffff8211156106445761064361074a565b5b602082029050602081019050919050565b600067ffffffffffffffff8211156106705761066f61074a565b5b601f19601f8301169050602081019050919050565b600081519050919050565b600081905092915050565b600082825260208201905092915050565b60006106b7826106ca565b9050919050565b60008115159050919050565b600073ffffffffffffffffffffffffffffffffffffffff82169050919050565b6000819050919050565b600067ffffffffffffffff82169050919050565b82818337600083830152505050565b60005b8381101561073557808201518184015260208101905061071a565b83811115610744576000848401525b50505050565bfe5b610755816106ac565b811461076057600080fd5b50565b61076c816106f4565b811461077757600080fd5b5056fea26469706673582212207da357f2e5bedb3945ef3f055ff37eb07b5d6efade8377bf6a70505e9bebc3c864736f6c63430007060033",
  "immutableReferences": {},
  "source": "// SPDX-License-Identifier: MIT\npragma solidity >=0.7.6;\npragma experimental ABIEncoderV2;\n\nimport \"@openzeppelin/contracts/math/SafeMath.sol\";\nimport \"./InboundChannel.sol\";\n\ncontract BasicInboundChannel is InboundChannel {\n    uint256 public MAX_PAYLOAD_BYTE_SIZE = 1000;\n    uint256 public MAX_PAYLOAD_GAS_COST = 500000;\n    uint256 public EXTERNAL_CALL_COST = 21000;\n    uint256 public MAX_GAS_PER_MESSAGE =\n        EXTERNAL_CALL_COST + MAX_PAYLOAD_BYTE_SIZE + EXTERNAL_CALL_COST;\n\n    constructor() {\n        nonce = 0;\n    }\n\n    // TODO: Submit should take in all inputs required for verification,\n    // including eg: _commitment, _parachainBlockNumber, _parachainMerkleProof, parachainHeadsMMRProof\n    function submit(Message[] memory _messages) public override {\n        //TODO: Verify messages\n        //verifyMessages(_messages, _commitment, ...);\n        processMessages(_messages);\n    }\n\n    //TODO: verifyMessages should accept all needed proofs\n    function verifyMessages(Message[] memory _messages, bytes32 _commitment)\n        internal\n        view\n        returns (bool success)\n    {\n        // Prove we can get the MMRLeaf that is claimed to contain our Parachain Block Header\n        // BEEFYLightClient.verifyMMRLeaf(parachainHeadsMMRProof)\n        // BeefyLightClient{\n        //   verifyMMRLeaf(parachainHeadsMMRProof) {\n        //   MMRVerification.verifyInclusionProof(latestMMRRoot, parachainHeadsMMRProof)\n        // }\n        //}\n        //}\n        // returns mmrLeaf;\n\n        // Prove we can get the claimed parachain block header from the MMRLeaf\n        // allParachainHeadsMerkleTreeRoot = mmrLeaf.parachain_heads;\n        // MerkeTree.verify(allParachainHeadsMerkleTreeRoot, ourParachainMerkleProof)\n        // returns parachainBlockHeader\n\n        // Prove that the commitment is in fact in the parachain block header\n        // require(parachainBlockHeader.commitment == commitment)\n\n        // Validate that the commitment matches the commitment contents\n        require(\n            validateMessagesMatchCommitment(_messages, _commitment),\n            \"invalid commitment\"\n        );\n\n        // Require there is enough gas to play all messages\n        require(\n            gasleft() >= _messages.length * MAX_GAS_PER_MESSAGE,\n            \"insufficient gas for delivery of all messages\"\n        );\n\n        // Require all payloads are smaller than max_payload_size\n        for (uint256 i = 0; i < _messages.length; i++) {\n            require(\n                _messages[i].payload.length <= MAX_PAYLOAD_BYTE_SIZE,\n                \"message payload bytesize exceeds maximum payload size\"\n            );\n        }\n        return true;\n    }\n\n    function processMessages(Message[] memory _messages) internal {\n        for (uint256 i = 0; i < _messages.length; i++) {\n            // Check message nonce is correct and increment nonce for replay protection\n            Message memory message = _messages[i];\n            require(message.nonce == nonce, \"invalid nonce\");\n\n            nonce = nonce + 1;\n\n            // Deliver the message to the target\n            // Delivery will have fixed maximum gas allowed for the target app\n            (bool success, ) =\n                message.target.call{value: 0, gas: MAX_GAS_PER_MESSAGE}(\n                    message.payload\n                );\n\n            emit MessageDelivered(message.nonce, success);\n        }\n    }\n\n    function validateMessagesMatchCommitment(\n        Message[] memory _messages,\n        bytes32 _commitment\n    ) internal pure returns (bool) {\n        bytes memory messagesBytes;\n        for (uint256 i = 0; i < _messages.length; i++) {\n            bytes memory messageBytes =\n                abi.encodePacked(\n                    _messages[i].target,\n                    _messages[i].nonce,\n                    _messages[i].payload\n                );\n            messagesBytes = abi.encodePacked(messagesBytes, messageBytes);\n        }\n        return keccak256(messagesBytes) == _commitment;\n    }\n}\n",
  "sourcePath": "/Users/aidanmusnitzky/code/snowfork/polkadot-ethereum/ethereum/contracts/BasicInboundChannel.sol",
  "compiler": {
    "name": "solc",
    "version": "0.7.6+commit.7338295f.Emscripten.clang"
  },
  "schemaVersion": "3.3.3",
  "updatedAt": "2021-02-03T12:14:46.057Z",
  "networkType": "ethereum",
  "devdoc": {
    "kind": "dev",
    "methods": {},
    "version": 1
  },
  "userdoc": {
    "kind": "user",
    "methods": {},
    "version": 1
  }
}