{
  "contractName": "BasicInboundChannel",
  "abi": [
    {
      "inputs": [],
      "stateMutability": "nonpayable",
      "type": "constructor"
    },
    {
      "anonymous": false,
      "inputs": [
        {
          "indexed": false,
          "internalType": "uint64",
          "name": "nonce",
          "type": "uint64"
        },
        {
          "indexed": false,
          "internalType": "bool",
          "name": "result",
          "type": "bool"
        }
      ],
      "name": "MessageDispatched",
      "type": "event"
    },
    {
      "inputs": [],
      "name": "MAX_GAS_PER_MESSAGE",
      "outputs": [
        {
          "internalType": "uint256",
          "name": "",
          "type": "uint256"
        }
      ],
      "stateMutability": "view",
      "type": "function",
      "constant": true
    },
    {
      "inputs": [],
      "name": "nonce",
      "outputs": [
        {
          "internalType": "uint64",
          "name": "",
          "type": "uint64"
        }
      ],
      "stateMutability": "view",
      "type": "function",
      "constant": true
    },
    {
      "inputs": [
        {
          "components": [
            {
              "internalType": "address",
              "name": "target",
              "type": "address"
            },
            {
              "internalType": "uint64",
              "name": "nonce",
              "type": "uint64"
            },
            {
              "internalType": "bytes",
              "name": "payload",
              "type": "bytes"
            }
          ],
          "internalType": "struct InboundChannel.Message[]",
          "name": "_messages",
          "type": "tuple[]"
        },
        {
          "internalType": "bytes32",
          "name": "_commitment",
          "type": "bytes32"
        }
      ],
      "name": "submit",
      "outputs": [],
      "stateMutability": "nonpayable",
      "type": "function"
    }
  ],
  "bytecode": "0x608060405234801561001057600080fd5b5060008060006101000a81548167ffffffffffffffff021916908367ffffffffffffffff160217905550610b03806100496000396000f3fe608060405234801561001057600080fd5b50600436106100415760003560e01c806349bee574146100465780636f8bfa3414610064578063affed0e014610080575b600080fd5b61004e61009e565b60405161005b919061082a565b60405180910390f35b61007e60048036038101906100799190610497565b6100a5565b005b6100886100c0565b6040516100959190610845565b60405180910390f35b620186a081565b6100b08383836100d8565b506100bb838361017a565b505050565b60008054906101000a900467ffffffffffffffff1681565b60006100e58484846103af565b610124576040517f08c379a000000000000000000000000000000000000000000000000000000000815260040161011b906107ca565b60405180910390fd5b620186a084849050025a101561016f576040517f08c379a00000000000000000000000000000000000000000000000000000000081526004016101669061080a565b60405180910390fd5b600190509392505050565b60005b828290508110156103aa57600160008054906101000a900467ffffffffffffffff160167ffffffffffffffff168383838181106101b657fe5b90506020028101906101c891906108e0565b60200160208101906101da91906104ef565b67ffffffffffffffff1614610224576040517f08c379a000000000000000000000000000000000000000000000000000000000815260040161021b906107ea565b60405180910390fd5b600160008054906101000a900467ffffffffffffffff16016000806101000a81548167ffffffffffffffff021916908367ffffffffffffffff160217905550600083838381811061027157fe5b905060200281019061028391906108e0565b6000016020810190610295919061046e565b73ffffffffffffffffffffffffffffffffffffffff166000620186a0908686868181106102be57fe5b90506020028101906102d091906108e0565b80604001906102df9190610889565b6040516102ed92919061078d565b600060405180830381858888f193505050503d806000811461032b576040519150601f19603f3d011682016040523d82523d6000602084013e610330565b606091505b505090507f504b093d860dc827c72a879d052fd8ac6b4c2af80c5f3a634654f172690bf10a84848481811061036157fe5b905060200281019061037391906108e0565b602001602081019061038591906104ef565b82604051610394929190610860565b60405180910390a150808060010191505061017d565b505050565b60008184846040516020016103c59291906107a6565b604051602081830303815290604052805190602001201490509392505050565b6000813590506103f481610a88565b92915050565b60008083601f84011261040c57600080fd5b8235905067ffffffffffffffff81111561042557600080fd5b60208301915083602082028301111561043d57600080fd5b9250929050565b60008135905061045381610a9f565b92915050565b60008135905061046881610ab6565b92915050565b60006020828403121561048057600080fd5b600061048e848285016103e5565b91505092915050565b6000806000604084860312156104ac57600080fd5b600084013567ffffffffffffffff8111156104c657600080fd5b6104d2868287016103fa565b935093505060206104e586828701610444565b9150509250925092565b60006020828403121561050157600080fd5b600061050f84828501610459565b91505092915050565b600061052483836106f6565b905092915050565b61053581610a02565b82525050565b6000610547838561091b565b93508360208402850161055984610904565b8060005b8781101561059d57848403895261057482846109c7565b61057e8582610518565b94506105898361090e565b925060208a0199505060018101905061055d565b50829750879450505050509392505050565b6105b881610a14565b82525050565b60006105ca838561092c565b93506105d7838584610a68565b6105e083610a77565b840190509392505050565b60006105f7838561093d565b9350610604838584610a68565b82840190509392505050565b600061061d601283610948565b91507f696e76616c696420636f6d6d69746d656e7400000000000000000000000000006000830152602082019050919050565b600061065d600d83610948565b91507f696e76616c6964206e6f6e6365000000000000000000000000000000000000006000830152602082019050919050565b600061069d602d83610948565b91507f696e73756666696369656e742067617320666f722064656c6976657279206f6660008301527f20616c6c206d65737361676573000000000000000000000000000000000000006020830152604082019050919050565b6000606083016107096000840184610959565b610716600086018261052c565b5061072460208401846109eb565b610731602086018261076f565b5061073f6040840184610970565b85830360408701526107528382846105be565b925050508091505092915050565b61076981610a4a565b82525050565b61077881610a54565b82525050565b61078781610a54565b82525050565b600061079a8284866105eb565b91508190509392505050565b600060208201905081810360008301526107c181848661053b565b90509392505050565b600060208201905081810360008301526107e381610610565b9050919050565b6000602082019050818103600083015261080381610650565b9050919050565b6000602082019050818103600083015261082381610690565b9050919050565b600060208201905061083f6000830184610760565b92915050565b600060208201905061085a600083018461077e565b92915050565b6000604082019050610875600083018561077e565b61088260208301846105af565b9392505050565b600080833560016020038436030381126108a257600080fd5b80840192508235915067ffffffffffffffff8211156108c057600080fd5b6020830192506001820236038313156108d857600080fd5b509250929050565b6000823560016060038336030381126108f857600080fd5b80830191505092915050565b6000819050919050565b6000602082019050919050565b600082825260208201905092915050565b600082825260208201905092915050565b600081905092915050565b600082825260208201905092915050565b600061096860208401846103e5565b905092915050565b6000808335600160200384360303811261098957600080fd5b83810192508235915060208301925067ffffffffffffffff8211156109ad57600080fd5b6001820236038413156109bf57600080fd5b509250929050565b6000823560016060038336030381126109df57600080fd5b82810191505092915050565b60006109fa6020840184610459565b905092915050565b6000610a0d82610a2a565b9050919050565b60008115159050919050565b6000819050919050565b600073ffffffffffffffffffffffffffffffffffffffff82169050919050565b6000819050919050565b600067ffffffffffffffff82169050919050565b82818337600083830152505050565b6000601f19601f8301169050919050565b610a9181610a02565b8114610a9c57600080fd5b50565b610aa881610a20565b8114610ab357600080fd5b50565b610abf81610a54565b8114610aca57600080fd5b5056fea26469706673582212208dff3c1215e7cf122d0cf8359b24c8dee502ea4368438fd72cbf8244634ac8b264736f6c63430007060033",
  "immutableReferences": {},
  "source": "// SPDX-License-Identifier: MIT\npragma solidity >=0.7.6;\npragma experimental ABIEncoderV2;\n\nimport \"@openzeppelin/contracts/math/SafeMath.sol\";\nimport \"./InboundChannel.sol\";\n\ncontract BasicInboundChannel is InboundChannel {\n    uint256 constant public MAX_GAS_PER_MESSAGE = 100000;\n\n    constructor() {\n        nonce = 0;\n    }\n\n    // TODO: Submit should take in all inputs required for verification,\n    // including eg: _parachainBlockNumber, _parachainMerkleProof, parachainHeadsMMRProof\n    function submit(Message[] calldata _messages, bytes32 _commitment)\n        public\n        override\n    {\n        verifyMessages(_messages, _commitment);\n        processMessages(_messages);\n    }\n\n    //TODO: verifyMessages should accept all needed proofs\n    function verifyMessages(Message[] calldata _messages, bytes32 _commitment)\n        internal\n        view\n        returns (bool success)\n    {\n        // Prove we can get the MMRLeaf that is claimed to contain our Parachain Block Header\n        // BEEFYLightClient.verifyMMRLeaf(parachainHeadsMMRProof)\n        // BeefyLightClient{\n        //   verifyMMRLeaf(parachainHeadsMMRProof) {\n        //   MMRVerification.verifyInclusionProof(latestMMRRoot, parachainHeadsMMRProof)\n        // }\n        //}\n        //}\n        // returns mmrLeaf;\n\n        // Prove we can get the claimed parachain block header from the MMRLeaf\n        // allParachainHeadsMerkleTreeRoot = mmrLeaf.parachain_heads;\n        // MerkeTree.verify(allParachainHeadsMerkleTreeRoot, ourParachainMerkleProof)\n        // returns parachainBlockHeader\n\n        // Prove that the commitment is in fact in the parachain block header\n        // require(parachainBlockHeader.commitment == commitment)\n\n        // Validate that the commitment matches the commitment contents\n        require(\n            validateMessagesMatchCommitment(_messages, _commitment),\n            \"invalid commitment\"\n        );\n\n        // Require there is enough gas to play all messages\n        require(\n            gasleft() >= _messages.length * MAX_GAS_PER_MESSAGE,\n            \"insufficient gas for delivery of all messages\"\n        );\n\n        return true;\n    }\n\n    function processMessages(Message[] calldata _messages) internal {\n        for (uint256 i = 0; i < _messages.length; i++) {\n            // Check message nonce is correct and increment nonce for replay protection\n            require(_messages[i].nonce == nonce + 1, \"invalid nonce\");\n\n            nonce = nonce + 1;\n\n            // Deliver the message to the target\n            (bool success, ) =\n                _messages[i].target.call{value: 0, gas: MAX_GAS_PER_MESSAGE}(_messages[i].payload);\n\n            emit MessageDispatched(_messages[i].nonce, success);\n        }\n    }\n\n    function validateMessagesMatchCommitment(\n        Message[] calldata _messages,\n        bytes32 _commitment\n    ) internal pure returns (bool) {\n        return keccak256(abi.encode(_messages)) == _commitment;\n    }\n}\n",
  "sourcePath": "/home/jamie/dev/crypto/snowfork/polkadot-ethereum/ethereum/contracts/BasicInboundChannel.sol",
  "compiler": {
    "name": "solc",
    "version": "0.7.6+commit.7338295f.Emscripten.clang"
  },
  "schemaVersion": "3.2.5",
  "updatedAt": "2021-04-08T14:21:04.492Z",
  "networkType": "ethereum",
  "devdoc": {
    "kind": "dev",
    "methods": {},
    "version": 1
  },
  "userdoc": {
    "kind": "user",
    "methods": {},
    "version": 1
  }
}