{
  "_format": "hh-sol-artifact-1",
  "contractName": "BasicOutboundChannel",
  "sourceName": "contracts/BasicOutboundChannel.sol",
  "abi": [
    {
      "inputs": [],
      "stateMutability": "nonpayable",
      "type": "constructor"
    },
    {
      "anonymous": false,
      "inputs": [
        {
          "indexed": false,
          "internalType": "address",
          "name": "source",
          "type": "address"
        },
        {
          "indexed": false,
          "internalType": "uint64",
          "name": "nonce",
          "type": "uint64"
        },
        {
          "indexed": false,
          "internalType": "bytes",
          "name": "payload",
          "type": "bytes"
        }
      ],
      "name": "Message",
      "type": "event"
    },
    {
      "anonymous": false,
      "inputs": [
        {
          "indexed": false,
          "internalType": "address",
          "name": "operator",
          "type": "address"
        },
        {
          "indexed": false,
          "internalType": "address",
          "name": "user",
          "type": "address"
        }
      ],
      "name": "OperatorAuthorized",
      "type": "event"
    },
    {
      "anonymous": false,
      "inputs": [
        {
          "indexed": false,
          "internalType": "address",
          "name": "operator",
          "type": "address"
        },
        {
          "indexed": false,
          "internalType": "address",
          "name": "user",
          "type": "address"
        }
      ],
      "name": "OperatorRevoked",
      "type": "event"
    },
    {
      "anonymous": false,
      "inputs": [
        {
          "indexed": true,
          "internalType": "bytes32",
          "name": "role",
          "type": "bytes32"
        },
        {
          "indexed": true,
          "internalType": "bytes32",
          "name": "previousAdminRole",
          "type": "bytes32"
        },
        {
          "indexed": true,
          "internalType": "bytes32",
          "name": "newAdminRole",
          "type": "bytes32"
        }
      ],
      "name": "RoleAdminChanged",
      "type": "event"
    },
    {
      "anonymous": false,
      "inputs": [
        {
          "indexed": true,
          "internalType": "bytes32",
          "name": "role",
          "type": "bytes32"
        },
        {
          "indexed": true,
          "internalType": "address",
          "name": "account",
          "type": "address"
        },
        {
          "indexed": true,
          "internalType": "address",
          "name": "sender",
          "type": "address"
        }
      ],
      "name": "RoleGranted",
      "type": "event"
    },
    {
      "anonymous": false,
      "inputs": [
        {
          "indexed": true,
          "internalType": "bytes32",
          "name": "role",
          "type": "bytes32"
        },
        {
          "indexed": true,
          "internalType": "address",
          "name": "account",
          "type": "address"
        },
        {
          "indexed": true,
          "internalType": "address",
          "name": "sender",
          "type": "address"
        }
      ],
      "name": "RoleRevoked",
      "type": "event"
    },
    {
      "inputs": [],
      "name": "CONFIG_UPDATE_ROLE",
      "outputs": [
        {
          "internalType": "bytes32",
          "name": "",
          "type": "bytes32"
        }
      ],
      "stateMutability": "view",
      "type": "function"
    },
    {
      "inputs": [],
      "name": "DEFAULT_ADMIN_ROLE",
      "outputs": [
        {
          "internalType": "bytes32",
          "name": "",
          "type": "bytes32"
        }
      ],
      "stateMutability": "view",
      "type": "function"
    },
    {
      "inputs": [
        {
          "internalType": "address",
          "name": "operator",
          "type": "address"
        }
      ],
      "name": "authorizeDefaultOperator",
      "outputs": [],
      "stateMutability": "nonpayable",
      "type": "function"
    },
    {
      "inputs": [
        {
          "internalType": "address",
          "name": "operator",
          "type": "address"
        }
      ],
      "name": "authorizeOperator",
      "outputs": [],
      "stateMutability": "nonpayable",
      "type": "function"
    },
    {
      "inputs": [
        {
          "internalType": "bytes32",
          "name": "role",
          "type": "bytes32"
        }
      ],
      "name": "getRoleAdmin",
      "outputs": [
        {
          "internalType": "bytes32",
          "name": "",
          "type": "bytes32"
        }
      ],
      "stateMutability": "view",
      "type": "function"
    },
    {
      "inputs": [
        {
          "internalType": "bytes32",
          "name": "role",
          "type": "bytes32"
        },
        {
          "internalType": "address",
          "name": "account",
          "type": "address"
        }
      ],
      "name": "grantRole",
      "outputs": [],
      "stateMutability": "nonpayable",
      "type": "function"
    },
    {
      "inputs": [
        {
          "internalType": "bytes32",
          "name": "role",
          "type": "bytes32"
        },
        {
          "internalType": "address",
          "name": "account",
          "type": "address"
        }
      ],
      "name": "hasRole",
      "outputs": [
        {
          "internalType": "bool",
          "name": "",
          "type": "bool"
        }
      ],
      "stateMutability": "view",
      "type": "function"
    },
    {
      "inputs": [
        {
          "internalType": "address",
          "name": "_configUpdater",
          "type": "address"
        },
        {
          "internalType": "address",
          "name": "_principal",
          "type": "address"
        },
        {
          "internalType": "address[]",
          "name": "defaultOperators",
          "type": "address[]"
        }
      ],
      "name": "initialize",
      "outputs": [],
      "stateMutability": "nonpayable",
      "type": "function"
    },
    {
      "inputs": [
        {
          "internalType": "address",
          "name": "_operator",
          "type": "address"
        },
        {
          "internalType": "address",
          "name": "_origin",
          "type": "address"
        }
      ],
      "name": "isOperatorFor",
      "outputs": [
        {
          "internalType": "bool",
          "name": "",
          "type": "bool"
        }
      ],
      "stateMutability": "view",
      "type": "function"
    },
    {
      "inputs": [],
      "name": "nonce",
      "outputs": [
        {
          "internalType": "uint64",
          "name": "",
          "type": "uint64"
        }
      ],
      "stateMutability": "view",
      "type": "function"
    },
    {
      "inputs": [],
      "name": "principal",
      "outputs": [
        {
          "internalType": "address",
          "name": "",
          "type": "address"
        }
      ],
      "stateMutability": "view",
      "type": "function"
    },
    {
      "inputs": [
        {
          "internalType": "bytes32",
          "name": "role",
          "type": "bytes32"
        },
        {
          "internalType": "address",
          "name": "account",
          "type": "address"
        }
      ],
      "name": "renounceRole",
      "outputs": [],
      "stateMutability": "nonpayable",
      "type": "function"
    },
    {
      "inputs": [
        {
          "internalType": "address",
          "name": "operator",
          "type": "address"
        }
      ],
      "name": "revokeDefaultOperator",
      "outputs": [],
      "stateMutability": "nonpayable",
      "type": "function"
    },
    {
      "inputs": [
        {
          "internalType": "address",
          "name": "operator",
          "type": "address"
        }
      ],
      "name": "revokeOperator",
      "outputs": [],
      "stateMutability": "nonpayable",
      "type": "function"
    },
    {
      "inputs": [
        {
          "internalType": "bytes32",
          "name": "role",
          "type": "bytes32"
        },
        {
          "internalType": "address",
          "name": "account",
          "type": "address"
        }
      ],
      "name": "revokeRole",
      "outputs": [],
      "stateMutability": "nonpayable",
      "type": "function"
    },
    {
      "inputs": [
        {
          "internalType": "address",
          "name": "_principal",
          "type": "address"
        }
      ],
      "name": "setPrincipal",
      "outputs": [],
      "stateMutability": "nonpayable",
      "type": "function"
    },
    {
      "inputs": [
        {
          "internalType": "address",
          "name": "_origin",
          "type": "address"
        },
        {
          "internalType": "bytes",
          "name": "_payload",
          "type": "bytes"
        }
      ],
      "name": "submit",
      "outputs": [],
      "stateMutability": "nonpayable",
      "type": "function"
    },
    {
      "inputs": [
        {
          "internalType": "bytes4",
          "name": "interfaceId",
          "type": "bytes4"
        }
      ],
      "name": "supportsInterface",
      "outputs": [
        {
          "internalType": "bool",
          "name": "",
          "type": "bool"
        }
      ],
      "stateMutability": "view",
      "type": "function"
    }
  ],
  "bytecode": "0x60806040523480156200001157600080fd5b50620000276000801b336200002d60201b60201c565b620001a8565b6200003f82826200004360201b60201c565b5050565b6200005582826200013560201b60201c565b620001315760016002600084815260200190815260200160002060000160008373ffffffffffffffffffffffffffffffffffffffff1673ffffffffffffffffffffffffffffffffffffffff16815260200190815260200160002060006101000a81548160ff021916908315150217905550620000d6620001a060201b60201c565b73ffffffffffffffffffffffffffffffffffffffff168173ffffffffffffffffffffffffffffffffffffffff16837f2f8788117e7eff1d82e926ec794901d17c78024a50270940304540a733656f0d60405160405180910390a45b5050565b60006002600084815260200190815260200160002060000160008373ffffffffffffffffffffffffffffffffffffffff1673ffffffffffffffffffffffffffffffffffffffff16815260200190815260200160002060009054906101000a900460ff16905092915050565b600033905090565b6120b480620001b86000396000f3fe608060405234801561001057600080fd5b50600436106101165760003560e01c8063959b8c3f116100a2578063b742a40411610071578063b742a404146102c9578063ba5d3078146102e5578063d547741f14610303578063d95b63711461031f578063fad8b32a1461034f57610116565b8063959b8c3f14610253578063a217fddf1461026f578063a2d6c6e51461028d578063affed0e0146102ab57610116565b806336568abe116100e957806336568abe146101b357806376846edd146101cf57806377a24f36146101eb578063847fd5bf1461020757806391d148541461022357610116565b806301ffc9a71461011b578063248a9ca31461014b5780632a7534a31461017b5780632f2ff15d14610197575b600080fd5b610135600480360381019061013091906116f6565b61036b565b60405161014291906119cc565b60405180910390f35b61016560048036038101906101609190611689565b6103e5565b60405161017291906119e7565b60405180910390f35b6101956004803603810190610190919061154d565b610405565b005b6101b160048036038101906101ac91906116b6565b61047a565b005b6101cd60048036038101906101c891906116b6565b6104a3565b005b6101e960048036038101906101e49190611629565b610526565b005b610205600480360381019061020091906115ba565b6106f9565b005b610221600480360381019061021c919061154d565b610805565b005b61023d600480360381019061023891906116b6565b6108b2565b60405161024a91906119cc565b60405180910390f35b61026d6004803603810190610268919061154d565b61091d565b005b610277610a5c565b60405161028491906119e7565b60405180910390f35b610295610a63565b6040516102a291906119e7565b60405180910390f35b6102b3610a87565b6040516102c09190611ae4565b60405180910390f35b6102e360048036038101906102de919061154d565b610aa1565b005b6102ed610b16565b6040516102fa9190611948565b60405180910390f35b61031d600480360381019061031891906116b6565b610b3c565b005b6103396004803603810190610334919061157a565b610b65565b60405161034691906119cc565b60405180910390f35b6103696004803603810190610364919061154d565b610c82565b005b60007f7965db0b000000000000000000000000000000000000000000000000000000007bffffffffffffffffffffffffffffffffffffffffffffffffffffffff1916827bffffffffffffffffffffffffffffffffffffffffffffffffffffffff191614806103de57506103dd82610db9565b5b9050919050565b600060026000838152602001908152602001600020600101549050919050565b61042f7f32e4cdbcd9c00d473129ed98a14e66b6f3434febcbfd293f5af182c102b315f7336108b2565b61046e576040517f08c379a000000000000000000000000000000000000000000000000000000000815260040161046590611aa4565b60405180910390fd5b61047781610e23565b50565b610483826103e5565b6104948161048f610f1c565b610f24565b61049e8383610fc1565b505050565b6104ab610f1c565b73ffffffffffffffffffffffffffffffffffffffff168173ffffffffffffffffffffffffffffffffffffffff1614610518576040517f08c379a000000000000000000000000000000000000000000000000000000000815260040161050f90611ac4565b60405180910390fd5b61052282826110a2565b5050565b6105303384610b65565b61056f576040517f08c379a000000000000000000000000000000000000000000000000000000000815260040161056690611aa4565b60405180910390fd5b600073ffffffffffffffffffffffffffffffffffffffff16600360089054906101000a900473ffffffffffffffffffffffffffffffffffffffff1673ffffffffffffffffffffffffffffffffffffffff161461065657600360089054906101000a900473ffffffffffffffffffffffffffffffffffffffff1673ffffffffffffffffffffffffffffffffffffffff168373ffffffffffffffffffffffffffffffffffffffff1614610655576040517f08c379a000000000000000000000000000000000000000000000000000000000815260040161064c90611a84565b60405180910390fd5b5b6001600360009054906101000a900467ffffffffffffffff166106799190611bde565b600360006101000a81548167ffffffffffffffff021916908367ffffffffffffffff1602179055507f779b38144a38cfc4351816442048b17fe24ba2b0e0c63446b576e8281160b15b33600360009054906101000a900467ffffffffffffffff1684846040516106ec949392919061198c565b60405180910390a1505050565b6107066000801b336108b2565b610745576040517f08c379a000000000000000000000000000000000000000000000000000000000815260040161073c90611aa4565b60405180910390fd5b61076f7f32e4cdbcd9c00d473129ed98a14e66b6f3434febcbfd293f5af182c102b315f78461047a565b81600360086101000a81548173ffffffffffffffffffffffffffffffffffffffff021916908373ffffffffffffffffffffffffffffffffffffffff16021790555060005b81518110156107f2576107df8282815181106107d2576107d1611e1d565b5b6020026020010151611184565b80806107ea90611da5565b9150506107b3565b506108006000801b336104a3565b505050565b61082f7f32e4cdbcd9c00d473129ed98a14e66b6f3434febcbfd293f5af182c102b315f7336108b2565b61086e576040517f08c379a000000000000000000000000000000000000000000000000000000000815260040161086590611aa4565b60405180910390fd5b80600360086101000a81548173ffffffffffffffffffffffffffffffffffffffff021916908373ffffffffffffffffffffffffffffffffffffffff16021790555050565b60006002600084815260200190815260200160002060000160008373ffffffffffffffffffffffffffffffffffffffff1673ffffffffffffffffffffffffffffffffffffffff16815260200190815260200160002060009054906101000a900460ff16905092915050565b8073ffffffffffffffffffffffffffffffffffffffff163373ffffffffffffffffffffffffffffffffffffffff16141561098c576040517f08c379a000000000000000000000000000000000000000000000000000000000815260040161098390611a64565b60405180910390fd5b60018060003373ffffffffffffffffffffffffffffffffffffffff1673ffffffffffffffffffffffffffffffffffffffff16815260200190815260200160002060008373ffffffffffffffffffffffffffffffffffffffff1673ffffffffffffffffffffffffffffffffffffffff16815260200190815260200160002060006101000a81548160ff0219169083151502179055507f4d8c877a9def059a7322c328d7394f8640d101d29c811e10268b9b6125e902538133604051610a51929190611963565b60405180910390a150565b6000801b81565b7f32e4cdbcd9c00d473129ed98a14e66b6f3434febcbfd293f5af182c102b315f781565b600360009054906101000a900467ffffffffffffffff1681565b610acb7f32e4cdbcd9c00d473129ed98a14e66b6f3434febcbfd293f5af182c102b315f7336108b2565b610b0a576040517f08c379a0000000000000000000000000000000000000000000000000000000008152600401610b0190611aa4565b60405180910390fd5b610b1381611184565b50565b600360089054906101000a900473ffffffffffffffffffffffffffffffffffffffff1681565b610b45826103e5565b610b5681610b51610f1c565b610f24565b610b6083836110a2565b505050565b60008173ffffffffffffffffffffffffffffffffffffffff168373ffffffffffffffffffffffffffffffffffffffff161480610be957506000808473ffffffffffffffffffffffffffffffffffffffff1673ffffffffffffffffffffffffffffffffffffffff16815260200190815260200160002060009054906101000a900460ff165b80610c7a5750600160008373ffffffffffffffffffffffffffffffffffffffff1673ffffffffffffffffffffffffffffffffffffffff16815260200190815260200160002060008473ffffffffffffffffffffffffffffffffffffffff1673ffffffffffffffffffffffffffffffffffffffff16815260200190815260200160002060009054906101000a900460ff165b905092915050565b8073ffffffffffffffffffffffffffffffffffffffff163373ffffffffffffffffffffffffffffffffffffffff161415610cf1576040517f08c379a0000000000000000000000000000000000000000000000000000000008152600401610ce890611a44565b60405180910390fd5b600160003373ffffffffffffffffffffffffffffffffffffffff1673ffffffffffffffffffffffffffffffffffffffff16815260200190815260200160002060008273ffffffffffffffffffffffffffffffffffffffff1673ffffffffffffffffffffffffffffffffffffffff16815260200190815260200160002060006101000a81549060ff02191690557fa8082fae8d1bd57faeb4dde45721b46afb72c45e72e5deb2a355bd997f6251a98133604051610dae929190611963565b60405180910390a150565b60007f01ffc9a7000000000000000000000000000000000000000000000000000000007bffffffffffffffffffffffffffffffffffffffffffffffffffffffff1916827bffffffffffffffffffffffffffffffffffffffffffffffffffffffff1916149050919050565b8073ffffffffffffffffffffffffffffffffffffffff163373ffffffffffffffffffffffffffffffffffffffff161415610e92576040517f08c379a0000000000000000000000000000000000000000000000000000000008152600401610e8990611a44565b60405180910390fd5b6000808273ffffffffffffffffffffffffffffffffffffffff1673ffffffffffffffffffffffffffffffffffffffff16815260200190815260200160002060006101000a81549060ff02191690557fa8082fae8d1bd57faeb4dde45721b46afb72c45e72e5deb2a355bd997f6251a98133604051610f11929190611963565b60405180910390a150565b600033905090565b610f2e82826108b2565b610fbd57610f538173ffffffffffffffffffffffffffffffffffffffff1660146111de565b610f618360001c60206111de565b604051602001610f7292919061190e565b6040516020818303038152906040526040517f08c379a0000000000000000000000000000000000000000000000000000000008152600401610fb49190611a02565b60405180910390fd5b5050565b610fcb82826108b2565b61109e5760016002600084815260200190815260200160002060000160008373ffffffffffffffffffffffffffffffffffffffff1673ffffffffffffffffffffffffffffffffffffffff16815260200190815260200160002060006101000a81548160ff021916908315150217905550611043610f1c565b73ffffffffffffffffffffffffffffffffffffffff168173ffffffffffffffffffffffffffffffffffffffff16837f2f8788117e7eff1d82e926ec794901d17c78024a50270940304540a733656f0d60405160405180910390a45b5050565b6110ac82826108b2565b156111805760006002600084815260200190815260200160002060000160008373ffffffffffffffffffffffffffffffffffffffff1673ffffffffffffffffffffffffffffffffffffffff16815260200190815260200160002060006101000a81548160ff021916908315150217905550611125610f1c565b73ffffffffffffffffffffffffffffffffffffffff168173ffffffffffffffffffffffffffffffffffffffff16837ff6391f5c32d9c69d2a47ea670b442974b53935d1edc7fd64eb21e047a839171b60405160405180910390a45b5050565b60016000808373ffffffffffffffffffffffffffffffffffffffff1673ffffffffffffffffffffffffffffffffffffffff16815260200190815260200160002060006101000a81548160ff02191690831515021790555050565b6060600060028360026111f19190611c1c565b6111fb9190611b88565b67ffffffffffffffff81111561121457611213611e4c565b5b6040519080825280601f01601f1916602001820160405280156112465781602001600182028036833780820191505090505b5090507f30000000000000000000000000000000000000000000000000000000000000008160008151811061127e5761127d611e1d565b5b60200101907effffffffffffffffffffffffffffffffffffffffffffffffffffffffffffff1916908160001a9053507f7800000000000000000000000000000000000000000000000000000000000000816001815181106112e2576112e1611e1d565b5b60200101907effffffffffffffffffffffffffffffffffffffffffffffffffffffffffffff1916908160001a905350600060018460026113229190611c1c565b61132c9190611b88565b90505b60018111156113cc577f3031323334353637383961626364656600000000000000000000000000000000600f86166010811061136e5761136d611e1d565b5b1a60f81b82828151811061138557611384611e1d565b5b60200101907effffffffffffffffffffffffffffffffffffffffffffffffffffffffffffff1916908160001a905350600485901c9450806113c590611d4a565b905061132f565b5060008414611410576040517f08c379a000000000000000000000000000000000000000000000000000000000815260040161140790611a24565b60405180910390fd5b8091505092915050565b600061142d61142884611b24565b611aff565b905080838252602082019050828560208602820111156114505761144f611e85565b5b60005b858110156114805781611466888261148a565b845260208401935060208301925050600181019050611453565b5050509392505050565b60008135905061149981612039565b92915050565b600082601f8301126114b4576114b3611e80565b5b81356114c484826020860161141a565b91505092915050565b6000813590506114dc81612050565b92915050565b6000813590506114f181612067565b92915050565b60008083601f84011261150d5761150c611e80565b5b8235905067ffffffffffffffff81111561152a57611529611e7b565b5b60208301915083600182028301111561154657611545611e85565b5b9250929050565b60006020828403121561156357611562611e8f565b5b60006115718482850161148a565b91505092915050565b6000806040838503121561159157611590611e8f565b5b600061159f8582860161148a565b92505060206115b08582860161148a565b9150509250929050565b6000806000606084860312156115d3576115d2611e8f565b5b60006115e18682870161148a565b93505060206115f28682870161148a565b925050604084013567ffffffffffffffff81111561161357611612611e8a565b5b61161f8682870161149f565b9150509250925092565b60008060006040848603121561164257611641611e8f565b5b60006116508682870161148a565b935050602084013567ffffffffffffffff81111561167157611670611e8a565b5b61167d868287016114f7565b92509250509250925092565b60006020828403121561169f5761169e611e8f565b5b60006116ad848285016114cd565b91505092915050565b600080604083850312156116cd576116cc611e8f565b5b60006116db858286016114cd565b92505060206116ec8582860161148a565b9150509250929050565b60006020828403121561170c5761170b611e8f565b5b600061171a848285016114e2565b91505092915050565b61172c81611c76565b82525050565b61173b81611c88565b82525050565b61174a81611c94565b82525050565b600061175c8385611b5b565b9350611769838584611d08565b61177283611e94565b840190509392505050565b600061178882611b50565b6117928185611b6c565b93506117a2818560208601611d17565b6117ab81611e94565b840191505092915050565b60006117c182611b50565b6117cb8185611b7d565b93506117db818560208601611d17565b80840191505092915050565b60006117f4602083611b6c565b91506117ff82611ea5565b602082019050919050565b6000611817601983611b6c565b915061182282611ece565b602082019050919050565b600061183a601c83611b6c565b915061184582611ef7565b602082019050919050565b600061185d602583611b6c565b915061186882611f20565b604082019050919050565b6000611880601783611b7d565b915061188b82611f6f565b601782019050919050565b60006118a3601683611b6c565b91506118ae82611f98565b602082019050919050565b60006118c6601183611b7d565b91506118d182611fc1565b601182019050919050565b60006118e9602f83611b6c565b91506118f482611fea565b604082019050919050565b61190881611cf4565b82525050565b600061191982611873565b915061192582856117b6565b9150611930826118b9565b915061193c82846117b6565b91508190509392505050565b600060208201905061195d6000830184611723565b92915050565b60006040820190506119786000830185611723565b6119856020830184611723565b9392505050565b60006060820190506119a16000830187611723565b6119ae60208301866118ff565b81810360408301526119c1818486611750565b905095945050505050565b60006020820190506119e16000830184611732565b92915050565b60006020820190506119fc6000830184611741565b92915050565b60006020820190508181036000830152611a1c818461177d565b905092915050565b60006020820190508181036000830152611a3d816117e7565b9050919050565b60006020820190508181036000830152611a5d8161180a565b9050919050565b60006020820190508181036000830152611a7d8161182d565b9050919050565b60006020820190508181036000830152611a9d81611850565b9050919050565b60006020820190508181036000830152611abd81611896565b9050919050565b60006020820190508181036000830152611add816118dc565b9050919050565b6000602082019050611af960008301846118ff565b92915050565b6000611b09611b1a565b9050611b158282611d74565b919050565b6000604051905090565b600067ffffffffffffffff821115611b3f57611b3e611e4c565b5b602082029050602081019050919050565b600081519050919050565b600082825260208201905092915050565b600082825260208201905092915050565b600081905092915050565b6000611b9382611cea565b9150611b9e83611cea565b9250827fffffffffffffffffffffffffffffffffffffffffffffffffffffffffffffffff03821115611bd357611bd2611dee565b5b828201905092915050565b6000611be982611cf4565b9150611bf483611cf4565b92508267ffffffffffffffff03821115611c1157611c10611dee565b5b828201905092915050565b6000611c2782611cea565b9150611c3283611cea565b9250817fffffffffffffffffffffffffffffffffffffffffffffffffffffffffffffffff0483118215151615611c6b57611c6a611dee565b5b828202905092915050565b6000611c8182611cca565b9050919050565b60008115159050919050565b6000819050919050565b60007fffffffff0000000000000000000000000000000000000000000000000000000082169050919050565b600073ffffffffffffffffffffffffffffffffffffffff82169050919050565b6000819050919050565b600067ffffffffffffffff82169050919050565b82818337600083830152505050565b60005b83811015611d35578082015181840152602081019050611d1a565b83811115611d44576000848401525b50505050565b6000611d5582611cea565b91506000821415611d6957611d68611dee565b5b600182039050919050565b611d7d82611e94565b810181811067ffffffffffffffff82111715611d9c57611d9b611e4c565b5b80604052505050565b6000611db082611cea565b91507fffffffffffffffffffffffffffffffffffffffffffffffffffffffffffffffff821415611de357611de2611dee565b5b600182019050919050565b7f4e487b7100000000000000000000000000000000000000000000000000000000600052601160045260246000fd5b7f4e487b7100000000000000000000000000000000000000000000000000000000600052603260045260246000fd5b7f4e487b7100000000000000000000000000000000000000000000000000000000600052604160045260246000fd5b600080fd5b600080fd5b600080fd5b600080fd5b600080fd5b6000601f19601f8301169050919050565b7f537472696e67733a20686578206c656e67746820696e73756666696369656e74600082015250565b7f5265766f6b696e672073656c66206173206f70657261746f7200000000000000600082015250565b7f417574686f72697a696e672073656c66206173206f70657261746f7200000000600082015250565b7f4f726967696e206973206e6f7420616e20617574686f72697a6564207072696e60008201527f636970616c000000000000000000000000000000000000000000000000000000602082015250565b7f416363657373436f6e74726f6c3a206163636f756e7420000000000000000000600082015250565b7f43616c6c657220697320756e617574686f72697a656400000000000000000000600082015250565b7f206973206d697373696e6720726f6c6520000000000000000000000000000000600082015250565b7f416363657373436f6e74726f6c3a2063616e206f6e6c792072656e6f756e636560008201527f20726f6c657320666f722073656c660000000000000000000000000000000000602082015250565b61204281611c76565b811461204d57600080fd5b50565b61205981611c94565b811461206457600080fd5b50565b61207081611c9e565b811461207b57600080fd5b5056fea264697066735822122039fcc62219f522249f00db5f7a29f43c527425a178873353ec87ee8ae9c705b364736f6c63430008060033",
  "linkReferences": {},
  "deployedLinkReferences": {}
}