{
  "_format": "hh-sol-artifact-1",
  "contractName": "BeefyLightClient",
  "sourceName": "contracts/BeefyLightClient.sol",
  "abi": [
    {
      "inputs": [
        {
          "internalType": "contract ValidatorRegistry",
          "name": "_validatorRegistry",
          "type": "address"
        },
        {
          "internalType": "contract SimplifiedMMRVerification",
          "name": "_mmrVerification",
          "type": "address"
        },
        {
          "internalType": "uint64",
          "name": "_startingBeefyBlock",
          "type": "uint64"
        }
      ],
      "stateMutability": "nonpayable",
      "type": "constructor"
    },
    {
      "anonymous": false,
      "inputs": [
        {
          "indexed": false,
          "internalType": "address",
          "name": "prover",
          "type": "address"
        },
        {
          "indexed": false,
          "internalType": "uint256",
          "name": "id",
          "type": "uint256"
        }
      ],
      "name": "FinalVerificationSuccessful",
      "type": "event"
    },
    {
      "anonymous": false,
      "inputs": [
        {
          "indexed": false,
          "internalType": "address",
          "name": "prover",
          "type": "address"
        },
        {
          "indexed": false,
          "internalType": "uint256",
          "name": "blockNumber",
          "type": "uint256"
        },
        {
          "indexed": false,
          "internalType": "uint256",
          "name": "id",
          "type": "uint256"
        }
      ],
      "name": "InitialVerificationSuccessful",
      "type": "event"
    },
    {
      "anonymous": false,
      "inputs": [
        {
          "indexed": false,
          "internalType": "bytes32",
          "name": "mmrRoot",
          "type": "bytes32"
        },
        {
          "indexed": false,
          "internalType": "uint64",
          "name": "blockNumber",
          "type": "uint64"
        }
      ],
      "name": "NewMMRRoot",
      "type": "event"
    },
    {
      "inputs": [],
      "name": "BLOCK_WAIT_PERIOD",
      "outputs": [
        {
          "internalType": "uint64",
          "name": "",
          "type": "uint64"
        }
      ],
      "stateMutability": "view",
      "type": "function"
    },
    {
      "inputs": [],
      "name": "ERROR_AND_SAFETY_BUFFER",
      "outputs": [
        {
          "internalType": "uint64",
          "name": "",
          "type": "uint64"
        }
      ],
      "stateMutability": "view",
      "type": "function"
    },
    {
      "inputs": [],
      "name": "MAXIMUM_BLOCK_GAP",
      "outputs": [
        {
          "internalType": "uint64",
          "name": "",
          "type": "uint64"
        }
      ],
      "stateMutability": "view",
      "type": "function"
    },
    {
      "inputs": [],
      "name": "MMR_LEAF_LENGTH_SCALE_ENCODED",
      "outputs": [
        {
          "internalType": "bytes2",
          "name": "",
          "type": "bytes2"
        }
      ],
      "stateMutability": "view",
      "type": "function"
    },
    {
      "inputs": [],
      "name": "NUMBER_OF_BLOCKS_PER_SESSION",
      "outputs": [
        {
          "internalType": "uint64",
          "name": "",
          "type": "uint64"
        }
      ],
      "stateMutability": "view",
      "type": "function"
    },
    {
      "inputs": [],
      "name": "THRESHOLD_DENOMINATOR",
      "outputs": [
        {
          "internalType": "uint256",
          "name": "",
          "type": "uint256"
        }
      ],
      "stateMutability": "view",
      "type": "function"
    },
    {
      "inputs": [],
      "name": "THRESHOLD_NUMERATOR",
      "outputs": [
        {
          "internalType": "uint256",
          "name": "",
          "type": "uint256"
        }
      ],
      "stateMutability": "view",
      "type": "function"
    },
    {
      "inputs": [
        {
          "internalType": "uint256",
          "name": "id",
          "type": "uint256"
        },
        {
          "components": [
            {
              "internalType": "bytes32",
              "name": "payload",
              "type": "bytes32"
            },
            {
              "internalType": "uint64",
              "name": "blockNumber",
              "type": "uint64"
            },
            {
              "internalType": "uint32",
              "name": "validatorSetId",
              "type": "uint32"
            }
          ],
          "internalType": "struct BeefyLightClient.Commitment",
          "name": "commitment",
          "type": "tuple"
        },
        {
          "components": [
            {
              "internalType": "bytes[]",
              "name": "signatures",
              "type": "bytes[]"
            },
            {
              "internalType": "uint256[]",
              "name": "positions",
              "type": "uint256[]"
            },
            {
              "internalType": "address[]",
              "name": "publicKeys",
              "type": "address[]"
            },
            {
              "internalType": "bytes32[][]",
              "name": "publicKeyMerkleProofs",
              "type": "bytes32[][]"
            }
          ],
          "internalType": "struct BeefyLightClient.ValidatorProof",
          "name": "validatorProof",
          "type": "tuple"
        },
        {
          "components": [
            {
              "internalType": "uint8",
              "name": "version",
              "type": "uint8"
            },
            {
              "internalType": "uint32",
              "name": "parentNumber",
              "type": "uint32"
            },
            {
              "internalType": "bytes32",
              "name": "parentHash",
              "type": "bytes32"
            },
            {
              "internalType": "bytes32",
              "name": "parachainHeadsRoot",
              "type": "bytes32"
            },
            {
              "internalType": "uint64",
              "name": "nextAuthoritySetId",
              "type": "uint64"
            },
            {
              "internalType": "uint32",
              "name": "nextAuthoritySetLen",
              "type": "uint32"
            },
            {
              "internalType": "bytes32",
              "name": "nextAuthoritySetRoot",
              "type": "bytes32"
            }
          ],
          "internalType": "struct BeefyLightClient.BeefyMMRLeaf",
          "name": "latestMMRLeaf",
          "type": "tuple"
        },
        {
          "components": [
            {
              "internalType": "bytes32[]",
              "name": "merkleProofItems",
              "type": "bytes32[]"
            },
            {
              "internalType": "uint64",
              "name": "merkleProofOrderBitField",
              "type": "uint64"
            }
          ],
          "internalType": "struct SimplifiedMMRProof",
          "name": "proof",
          "type": "tuple"
        }
      ],
      "name": "completeSignatureCommitment",
      "outputs": [],
      "stateMutability": "nonpayable",
      "type": "function"
    },
    {
      "inputs": [
        {
          "components": [
            {
              "internalType": "bytes32",
              "name": "payload",
              "type": "bytes32"
            },
            {
              "internalType": "uint64",
              "name": "blockNumber",
              "type": "uint64"
            },
            {
              "internalType": "uint32",
              "name": "validatorSetId",
              "type": "uint32"
            }
          ],
          "internalType": "struct BeefyLightClient.Commitment",
          "name": "commitment",
          "type": "tuple"
        }
      ],
      "name": "createCommitmentHash",
      "outputs": [
        {
          "internalType": "bytes32",
          "name": "",
          "type": "bytes32"
        }
      ],
      "stateMutability": "pure",
      "type": "function"
    },
    {
      "inputs": [
        {
          "internalType": "uint256[]",
          "name": "bitsToSet",
          "type": "uint256[]"
        },
        {
          "internalType": "uint256",
          "name": "length",
          "type": "uint256"
        }
      ],
      "name": "createInitialBitfield",
      "outputs": [
        {
          "internalType": "uint256[]",
          "name": "",
          "type": "uint256[]"
        }
      ],
      "stateMutability": "pure",
      "type": "function"
    },
    {
      "inputs": [
        {
          "internalType": "uint256",
          "name": "id",
          "type": "uint256"
        }
      ],
      "name": "createRandomBitfield",
      "outputs": [
        {
          "internalType": "uint256[]",
          "name": "",
          "type": "uint256[]"
        }
      ],
      "stateMutability": "view",
      "type": "function"
    },
    {
      "inputs": [],
      "name": "currentId",
      "outputs": [
        {
          "internalType": "uint256",
          "name": "",
          "type": "uint256"
        }
      ],
      "stateMutability": "view",
      "type": "function"
    },
    {
      "inputs": [
        {
          "components": [
            {
              "internalType": "uint8",
              "name": "version",
              "type": "uint8"
            },
            {
              "internalType": "uint32",
              "name": "parentNumber",
              "type": "uint32"
            },
            {
              "internalType": "bytes32",
              "name": "parentHash",
              "type": "bytes32"
            },
            {
              "internalType": "bytes32",
              "name": "parachainHeadsRoot",
              "type": "bytes32"
            },
            {
              "internalType": "uint64",
              "name": "nextAuthoritySetId",
              "type": "uint64"
            },
            {
              "internalType": "uint32",
              "name": "nextAuthoritySetLen",
              "type": "uint32"
            },
            {
              "internalType": "bytes32",
              "name": "nextAuthoritySetRoot",
              "type": "bytes32"
            }
          ],
          "internalType": "struct BeefyLightClient.BeefyMMRLeaf",
          "name": "leaf",
          "type": "tuple"
        }
      ],
      "name": "encodeMMRLeaf",
      "outputs": [
        {
          "internalType": "bytes",
          "name": "",
          "type": "bytes"
        }
      ],
      "stateMutability": "pure",
      "type": "function"
    },
    {
      "inputs": [
        {
          "internalType": "bytes",
          "name": "leaf",
          "type": "bytes"
        }
      ],
      "name": "hashMMRLeaf",
      "outputs": [
        {
          "internalType": "bytes32",
          "name": "",
          "type": "bytes32"
        }
      ],
      "stateMutability": "pure",
      "type": "function"
    },
    {
      "inputs": [],
      "name": "latestBeefyBlock",
      "outputs": [
        {
          "internalType": "uint64",
          "name": "",
          "type": "uint64"
        }
      ],
      "stateMutability": "view",
      "type": "function"
    },
    {
      "inputs": [],
      "name": "latestMMRRoot",
      "outputs": [
        {
          "internalType": "bytes32",
          "name": "",
          "type": "bytes32"
        }
      ],
      "stateMutability": "view",
      "type": "function"
    },
    {
      "inputs": [],
      "name": "mmrVerification",
      "outputs": [
        {
          "internalType": "contract SimplifiedMMRVerification",
          "name": "",
          "type": "address"
        }
      ],
      "stateMutability": "view",
      "type": "function"
    },
    {
      "inputs": [
        {
          "internalType": "bytes32",
          "name": "commitmentHash",
          "type": "bytes32"
        },
        {
          "internalType": "uint256[]",
          "name": "validatorClaimsBitfield",
          "type": "uint256[]"
        },
        {
          "internalType": "bytes",
          "name": "validatorSignature",
          "type": "bytes"
        },
        {
          "internalType": "uint256",
          "name": "validatorPosition",
          "type": "uint256"
        },
        {
          "internalType": "address",
          "name": "validatorPublicKey",
          "type": "address"
        },
        {
          "internalType": "bytes32[]",
          "name": "validatorPublicKeyMerkleProof",
          "type": "bytes32[]"
        }
      ],
      "name": "newSignatureCommitment",
      "outputs": [],
      "stateMutability": "payable",
      "type": "function"
    },
    {
      "inputs": [
        {
          "internalType": "uint256",
          "name": "numValidators",
          "type": "uint256"
        }
      ],
      "name": "requiredNumberOfSignatures",
      "outputs": [
        {
          "internalType": "uint256",
          "name": "",
          "type": "uint256"
        }
      ],
      "stateMutability": "pure",
      "type": "function"
    },
    {
      "inputs": [],
      "name": "requiredNumberOfSignatures",
      "outputs": [
        {
          "internalType": "uint256",
          "name": "",
          "type": "uint256"
        }
      ],
      "stateMutability": "view",
      "type": "function"
    },
    {
      "inputs": [
        {
          "internalType": "uint256",
          "name": "",
          "type": "uint256"
        }
      ],
      "name": "validationData",
      "outputs": [
        {
          "internalType": "address",
          "name": "senderAddress",
          "type": "address"
        },
        {
          "internalType": "bytes32",
          "name": "commitmentHash",
          "type": "bytes32"
        },
        {
          "internalType": "uint256",
          "name": "blockNumber",
          "type": "uint256"
        }
      ],
      "stateMutability": "view",
      "type": "function"
    },
    {
      "inputs": [],
      "name": "validatorRegistry",
      "outputs": [
        {
          "internalType": "contract ValidatorRegistry",
          "name": "",
          "type": "address"
        }
      ],
      "stateMutability": "view",
      "type": "function"
    },
    {
      "inputs": [
        {
          "internalType": "bytes32",
          "name": "beefyMMRLeaf",
          "type": "bytes32"
        },
        {
          "components": [
            {
              "internalType": "bytes32[]",
              "name": "merkleProofItems",
              "type": "bytes32[]"
            },
            {
              "internalType": "uint64",
              "name": "merkleProofOrderBitField",
              "type": "uint64"
            }
          ],
          "internalType": "struct SimplifiedMMRProof",
          "name": "proof",
          "type": "tuple"
        }
      ],
      "name": "verifyBeefyMerkleLeaf",
      "outputs": [
        {
          "internalType": "bool",
          "name": "",
          "type": "bool"
        }
      ],
      "stateMutability": "view",
      "type": "function"
    },
    {
      "inputs": [
        {
          "components": [
            {
              "internalType": "uint8",
              "name": "version",
              "type": "uint8"
            },
            {
              "internalType": "uint32",
              "name": "parentNumber",
              "type": "uint32"
            },
            {
              "internalType": "bytes32",
              "name": "parentHash",
              "type": "bytes32"
            },
            {
              "internalType": "bytes32",
              "name": "parachainHeadsRoot",
              "type": "bytes32"
            },
            {
              "internalType": "uint64",
              "name": "nextAuthoritySetId",
              "type": "uint64"
            },
            {
              "internalType": "uint32",
              "name": "nextAuthoritySetLen",
              "type": "uint32"
            },
            {
              "internalType": "bytes32",
              "name": "nextAuthoritySetRoot",
              "type": "bytes32"
            }
          ],
          "internalType": "struct BeefyLightClient.BeefyMMRLeaf",
          "name": "leaf",
          "type": "tuple"
        },
        {
          "internalType": "bytes32",
          "name": "root",
          "type": "bytes32"
        },
        {
          "components": [
            {
              "internalType": "bytes32[]",
              "name": "merkleProofItems",
              "type": "bytes32[]"
            },
            {
              "internalType": "uint64",
              "name": "merkleProofOrderBitField",
              "type": "uint64"
            }
          ],
          "internalType": "struct SimplifiedMMRProof",
          "name": "proof",
          "type": "tuple"
        }
      ],
      "name": "verifyNewestMMRLeaf",
      "outputs": [],
      "stateMutability": "view",
      "type": "function"
    }
  ],
  "bytecode": "0x60806040523480156200001157600080fd5b5060405162004cab38038062004cab833981810160405281019062000037919062000137565b826000806101000a81548173ffffffffffffffffffffffffffffffffffffffff021916908373ffffffffffffffffffffffffffffffffffffffff16021790555081600160006101000a81548173ffffffffffffffffffffffffffffffffffffffff021916908373ffffffffffffffffffffffffffffffffffffffff160217905550600060028190555080600460006101000a81548167ffffffffffffffff021916908367ffffffffffffffff16021790555050505062000256565b600081519050620001038162000208565b92915050565b6000815190506200011a8162000222565b92915050565b60008151905062000131816200023c565b92915050565b60008060006060848603121562000153576200015262000203565b5b6000620001638682870162000109565b93505060206200017686828701620000f2565b9250506040620001898682870162000120565b9150509250925092565b6000620001a082620001cf565b9050919050565b6000620001b48262000193565b9050919050565b6000620001c88262000193565b9050919050565b600073ffffffffffffffffffffffffffffffffffffffff82169050919050565b600067ffffffffffffffff82169050919050565b600080fd5b6200021381620001a7565b81146200021f57600080fd5b50565b6200022d81620001bb565b81146200023957600080fd5b50565b6200024781620001ef565b81146200025357600080fd5b50565b614a4580620002666000396000f3fe60806040526004361061014b5760003560e01c80636edda8f4116100b6578063e2a6ff3f1161006f578063e2a6ff3f146104d2578063e54d1543146104fd578063ef02445814610519578063f376ebbb14610544578063f4fa4e451461056f578063fb752c62146105ac5761014b565b80636edda8f4146103ac57806372fe1a9f146103e9578063801ed1e314610414578063928480161461043f578063be7e93a31461047c578063e00dd161146104a75761014b565b80634afad95b116101085780634afad95b146102885780635a8d2f0e146102b35780635da57fe9146102de5780635e974f571461031b5780635f74f5791461035857806366ae69a0146103815761014b565b806320bfa5cb14610150578063268839741461018f5780632d268c9e146101cc5780632e41c1bf146102095780633713a2711461023457806341c9634e1461025d575b600080fd5b34801561015c57600080fd5b5061017760048036038101906101729190612adb565b6105d7565b60405161018693929190613506565b60405180910390f35b34801561019b57600080fd5b506101b660048036038101906101b19190612a10565b610621565b6040516101c391906137c5565b60405180910390f35b3480156101d857600080fd5b506101f360048036038101906101ee9190612911565b6108ee565b6040516102009190613653565b60405180910390f35b34801561021557600080fd5b5061021e6109a9565b60405161022b919061366e565b60405180910390f35b34801561024057600080fd5b5061025b60048036038101906102569190612b35565b6109b2565b005b34801561026957600080fd5b50610272610abc565b60405161027f9190613689565b60405180910390f35b34801561029457600080fd5b5061029d610ac2565b6040516102aa9190613aba565b60405180910390f35b3480156102bf57600080fd5b506102c8610ad4565b6040516102d59190613a1d565b60405180910390f35b3480156102ea57600080fd5b5061030560048036038101906103009190612727565b610ad9565b6040516103129190613631565b60405180910390f35b34801561032757600080fd5b50610342600480360381019061033d9190612aae565b610b74565b60405161034f9190613689565b60405180910390f35b34801561036457600080fd5b5061037f600480360381019061037a9190612a3d565b610cf0565b005b34801561038d57600080fd5b50610396610dc1565b6040516103a39190613aba565b60405180910390f35b3480156103b857600080fd5b506103d360048036038101906103ce9190612adb565b610ddb565b6040516103e09190613a1d565b60405180910390f35b3480156103f557600080fd5b506103fe610e15565b60405161040b9190613a1d565b60405180910390f35b34801561042057600080fd5b50610429610eea565b60405161043691906137e7565b60405180910390f35b34801561044b57600080fd5b5061046660048036038101906104619190612adb565b610f10565b6040516104739190613631565b60405180910390f35b34801561048857600080fd5b506104916110d7565b60405161049e9190613aba565b60405180910390f35b3480156104b357600080fd5b506104bc6110dc565b6040516104c99190613a1d565b60405180910390f35b3480156104de57600080fd5b506104e76110e2565b6040516104f49190613aba565b60405180910390f35b6105176004803603810190610512919061282a565b6110e8565b005b34801561052557600080fd5b5061052e611441565b60405161053b9190613a1d565b60405180910390f35b34801561055057600080fd5b50610559611446565b6040516105669190613802565b60405180910390f35b34801561057b57600080fd5b50610596600480360381019061059191906129c7565b61146a565b6040516105a39190613689565b60405180910390f35b3480156105b857600080fd5b506105c161147b565b6040516105ce9190613aba565b60405180910390f35b60056020528060005260406000206000915090508060000160009054906101000a900473ffffffffffffffffffffffffffffffffffffffff16908060010154908060030154905083565b6060600073__$7cdc5241ea8d29c91205423c213999ecf3$__6353fae6748460000160208101906106529190612c71565b6040518263ffffffff1660e01b815260040161066e9190613ad5565b60206040518083038186803b15801561068657600080fd5b505af415801561069a573d6000803e3d6000fd5b505050506040513d601f19601f820116820180604052508101906106be91906127fd565b73__$7cdc5241ea8d29c91205423c213999ecf3$__63381f760d8560200160208101906106eb9190612bea565b6040518263ffffffff1660e01b81526004016107079190613a84565b60206040518083038186803b15801561071f57600080fd5b505af4158015610733573d6000803e3d6000fd5b505050506040513d601f19601f82011682018060405250810190610757919061296d565b846040013573__$7cdc5241ea8d29c91205423c213999ecf3$__63f83d7d5f8760800160208101906107899190612c17565b6040518263ffffffff1660e01b81526004016107a59190613a9f565b60206040518083038186803b1580156107bd57600080fd5b505af41580156107d1573d6000803e3d6000fd5b505050506040513d601f19601f820116820180604052508101906107f5919061299a565b73__$7cdc5241ea8d29c91205423c213999ecf3$__63381f760d8860a00160208101906108229190612bea565b6040518263ffffffff1660e01b815260040161083e9190613a84565b60206040518083038186803b15801561085657600080fd5b505af415801561086a573d6000803e3d6000fd5b505050506040513d601f19601f8201168201806040525081019061088e919061296d565b8760c0013588606001356040516020016108ae9796959493929190613420565b604051602081830303815290604052905061c50160f01b816040516020016108d79291906134a1565b604051602081830303815290604052915050919050565b6000600160009054906101000a900473ffffffffffffffffffffffffffffffffffffffff1673ffffffffffffffffffffffffffffffffffffffff16634ced8da460035485856040518463ffffffff1660e01b8152600401610951939291906136e2565b60206040518083038186803b15801561096957600080fd5b505afa15801561097d573d6000803e3d6000fd5b505050506040513d601f19601f820116820180604052508101906109a191906127d0565b905092915050565b61c50160f01b81565b6109bd858585611480565b6109cc82856000013583610cf0565b6109ec84600001358560200160208101906109e79190612c17565b6116f6565b610a1f826080016020810190610a029190612c17565b8360a0016020810190610a159190612bea565b8460c00135611856565b7fc128224dd1747f24cc4ecd95248a78fe3b1960b100c9d08ba578888bac274c4e3386604051610a5092919061353d565b60405180910390a160056000868152602001908152602001600020600080820160006101000a81549073ffffffffffffffffffffffffffffffffffffffff02191690556001820160009055600282016000610aab9190612195565b600382016000905550505050505050565b60035481565b600a610960610ad191906140b6565b81565b600381565b606073__$ce679fb3689ba2b0521c393162ea0c3c96$__63524342588585856040518463ffffffff1660e01b8152600401610b16939291906135dd565b60006040518083038186803b158015610b2e57600080fd5b505af4158015610b42573d6000803e3d6000fd5b505050506040513d6000823e3d601f19601f82011682018060405250810190610b6b9190612787565b90509392505050565b60008160000135826020016020810190610b8e9190612c17565b67ffffffffffffffff1673__$7cdc5241ea8d29c91205423c213999ecf3$__63f83d7d5f90916040518263ffffffff1660e01b8152600401610bd09190613a9f565b60206040518083038186803b158015610be857600080fd5b505af4158015610bfc573d6000803e3d6000fd5b505050506040513d601f19601f82011682018060405250810190610c20919061299a565b836040016020810190610c339190612bea565b63ffffffff1673__$7cdc5241ea8d29c91205423c213999ecf3$__63381f760d90916040518263ffffffff1660e01b8152600401610c719190613a84565b60206040518083038186803b158015610c8957600080fd5b505af4158015610c9d573d6000803e3d6000fd5b505050506040513d601f19601f82011682018060405250810190610cc1919061296d565b604051602001610cd3939291906134c9565b604051602081830303815290604052805190602001209050919050565b6000610cfb84610621565b90506000610d088261146a565b9050600160009054906101000a900473ffffffffffffffffffffffffffffffffffffffff1673ffffffffffffffffffffffffffffffffffffffff16634ced8da48583866040518463ffffffff1660e01b8152600401610d69939291906136a4565b60206040518083038186803b158015610d8157600080fd5b505afa158015610d95573d6000803e3d6000fd5b505050506040513d601f19601f82011682018060405250810190610db991906127d0565b505050505050565b600460009054906101000a900467ffffffffffffffff1681565b600060fa600160fa600385610df09190614028565b610dfa9190613f63565b610e049190614082565b610e0e9190613ff7565b9050919050565b600060fa600160fa600360008054906101000a900473ffffffffffffffffffffffffffffffffffffffff1673ffffffffffffffffffffffffffffffffffffffff16631e526e456040518163ffffffff1660e01b815260040160206040518083038186803b158015610e8557600080fd5b505afa158015610e99573d6000803e3d6000fd5b505050506040513d601f19601f82011682018060405250810190610ebd9190612b08565b610ec79190614028565b610ed19190613f63565b610edb9190614082565b610ee59190613ff7565b905090565b600160009054906101000a900473ffffffffffffffffffffffffffffffffffffffff1681565b60606000600560008481526020019081526020016000209050600367ffffffffffffffff168160030154610f449190613f63565b431015610f86576040517f08c379a0000000000000000000000000000000000000000000000000000000008152600401610f7d906138dd565b60405180910390fd5b60008060009054906101000a900473ffffffffffffffffffffffffffffffffffffffff1673ffffffffffffffffffffffffffffffffffffffff16631e526e456040518163ffffffff1660e01b815260040160206040518083038186803b158015610fef57600080fd5b505afa158015611003573d6000803e3d6000fd5b505050506040513d601f19601f820116820180604052508101906110279190612b08565b905073__$ce679fb3689ba2b0521c393162ea0c3c96$__636a4e066361104c846119a3565b8460020161105985610ddb565b856040518563ffffffff1660e01b81526004016110799493929190613a38565b60006040518083038186803b15801561109157600080fd5b505af41580156110a5573d6000803e3d6000fd5b505050506040513d6000823e3d601f19601f820116820180604052508101906110ce9190612787565b92505050919050565b600a81565b60025481565b61096081565b60008054906101000a900473ffffffffffffffffffffffffffffffffffffffff1673ffffffffffffffffffffffffffffffffffffffff16635d325d71848685856040518563ffffffff1660e01b81526004016111479493929190613566565b60206040518083038186803b15801561115f57600080fd5b505afa158015611173573d6000803e3d6000fd5b505050506040513d601f19601f8201168201806040525081019061119791906127d0565b6111d6576040517f08c379a00000000000000000000000000000000000000000000000000000000081526004016111cd906138fd565b60405180910390fd5b8273ffffffffffffffffffffffffffffffffffffffff166111f788876119d6565b73ffffffffffffffffffffffffffffffffffffffff161461124d576040517f08c379a00000000000000000000000000000000000000000000000000000000081526004016112449061389d565b60405180910390fd5b611255610e15565b8673__$ce679fb3689ba2b0521c393162ea0c3c96$__63532c822090916040518263ffffffff1660e01b815260040161128e919061360f565b60206040518083038186803b1580156112a657600080fd5b505af41580156112ba573d6000803e3d6000fd5b505050506040513d601f19601f820116820180604052508101906112de9190612b08565b101561131f576040517f08c379a0000000000000000000000000000000000000000000000000000000008152600401611316906139bd565b60405180910390fd5b60405180608001604052803373ffffffffffffffffffffffffffffffffffffffff1681526020018881526020018781526020014381525060056000600254815260200190815260200160002060008201518160000160006101000a81548173ffffffffffffffffffffffffffffffffffffffff021916908373ffffffffffffffffffffffffffffffffffffffff1602179055506020820151816001015560408201518160020190805190602001906113d89291906121b6565b50606082015181600301559050507ff93e67b44fe47465ca1478dbc20efe59702e2fff4b8beecf053817d7ee29fd55334360025460405161141b939291906135a6565b60405180910390a160016002546114329190613f63565b60028190555050505050505050565b60fa81565b60008054906101000a900473ffffffffffffffffffffffffffffffffffffffff1681565b600081805190602001209050919050565b600381565b60006005600085815260200190815260200160002090508060000160009054906101000a900473ffffffffffffffffffffffffffffffffffffffff1673ffffffffffffffffffffffffffffffffffffffff163373ffffffffffffffffffffffffffffffffffffffff1614611529576040517f08c379a00000000000000000000000000000000000000000000000000000000081526004016115209061395d565b60405180910390fd5b60008060009054906101000a900473ffffffffffffffffffffffffffffffffffffffff1673ffffffffffffffffffffffffffffffffffffffff16631e526e456040518163ffffffff1660e01b815260040160206040518083038186803b15801561159257600080fd5b505afa1580156115a6573d6000803e3d6000fd5b505050506040513d601f19601f820116820180604052508101906115ca9190612b08565b905060006115d782610ddb565b9050600367ffffffffffffffff1683600301546115f49190613f63565b431015611636576040517f08c379a000000000000000000000000000000000000000000000000000000000815260040161162d906138dd565b60405180910390fd5b600073__$ce679fb3689ba2b0521c393162ea0c3c96$__636a4e066361165b866119a3565b8660020185876040518563ffffffff1660e01b81526004016116809493929190613a38565b60006040518083038186803b15801561169857600080fd5b505af41580156116ac573d6000803e3d6000fd5b505050506040513d6000823e3d601f19601f820116820180604052508101906116d59190612787565b90506116e18286611aa0565b6116ed81868489611bf0565b50505050505050565b600460009054906101000a900467ffffffffffffffff1667ffffffffffffffff168167ffffffffffffffff1611611762576040517f08c379a00000000000000000000000000000000000000000000000000000000081526004016117599061399d565b60405180910390fd5b600a61096061177191906140b6565b600460009054906101000a900467ffffffffffffffff166117929190613fb9565b67ffffffffffffffff168167ffffffffffffffff16106117e7576040517f08c379a00000000000000000000000000000000000000000000000000000000081526004016117de906139fd565b60405180910390fd5b8160038190555080600460006101000a81548167ffffffffffffffff021916908367ffffffffffffffff1602179055507fd95fe1258d152dc91c81b09380498adc76ed36a6079bcb2ed31eff622ae2d0f16003548260405161184a929190613757565b60405180910390a15050565b60008054906101000a900473ffffffffffffffffffffffffffffffffffffffff1673ffffffffffffffffffffffffffffffffffffffff1663af640d0f6040518163ffffffff1660e01b815260040160206040518083038186803b1580156118bc57600080fd5b505afa1580156118d0573d6000803e3d6000fd5b505050506040513d601f19601f820116820180604052508101906118f49190612c44565b67ffffffffffffffff168367ffffffffffffffff161461199e5760008054906101000a900473ffffffffffffffffffffffffffffffffffffffff1673ffffffffffffffffffffffffffffffffffffffff1663a2e089ca8284866040518463ffffffff1660e01b815260040161196b93929190613720565b600060405180830381600087803b15801561198557600080fd5b505af1158015611999573d6000803e3d6000fd5b505050505b505050565b600080600367ffffffffffffffff1683600301546119c19190613f63565b90506000814090508060001c92505050919050565b600080600080604185511415611a03576020850151925060408501519150606085015160001a9050611a89565b604085511415611a4d576040850151602086015193507f7fffffffffffffffffffffffffffffffffffffffffffffffffffffffffffffff81169250601b8160ff1c01915050611a88565b6040517f08c379a0000000000000000000000000000000000000000000000000000000008152600401611a7f9061383d565b60405180910390fd5b5b611a9586828585611cf1565b935050505092915050565b81818060000190611ab19190613c19565b905014611af3576040517f08c379a0000000000000000000000000000000000000000000000000000000008152600401611aea906139dd565b60405180910390fd5b81818060200190611b049190613c7c565b905014611b46576040517f08c379a0000000000000000000000000000000000000000000000000000000008152600401611b3d9061387d565b60405180910390fd5b81818060400190611b579190613af0565b905014611b99576040517f08c379a0000000000000000000000000000000000000000000000000000000008152600401611b909061385d565b60405180910390fd5b81818060600190611baa9190613b53565b905014611bec576040517f08c379a0000000000000000000000000000000000000000000000000000000008152600401611be39061385d565b60405180910390fd5b5050565b6000611bfb82610b74565b905060005b83811015611ce957611cd686868060000190611c1c9190613c19565b84818110611c2d57611c2c614418565b5b9050602002810190611c3f9190613cdf565b888060200190611c4f9190613c7c565b86818110611c6057611c5f614418565b5b90506020020135898060400190611c779190613af0565b87818110611c8857611c87614418565b5b9050602002016020810190611c9d91906126fa565b8a8060600190611cad9190613b53565b88818110611cbe57611cbd614418565b5b9050602002810190611cd09190613bb6565b89611e7c565b8080611ce19061430e565b915050611c00565b505050505050565b60007f7fffffffffffffffffffffffffffffff5d576e7357a4501ddfe92f46681b20a08260001c1115611d59576040517f08c379a0000000000000000000000000000000000000000000000000000000008152600401611d509061393d565b60405180910390fd5b601b8460ff161480611d6e5750601c8460ff16145b611dad576040517f08c379a0000000000000000000000000000000000000000000000000000000008152600401611da49061397d565b60405180910390fd5b600060018686868660405160008152602001604052604051611dd29493929190613780565b6020604051602081039080840390855afa158015611df4573d6000803e3d6000fd5b505050602060405103519050600073ffffffffffffffffffffffffffffffffffffffff168173ffffffffffffffffffffffffffffffffffffffff161415611e70576040517f08c379a0000000000000000000000000000000000000000000000000000000008152600401611e679061381d565b60405180910390fd5b80915050949350505050565b611e8f858961209490919063ffffffff16565b611ece576040517f08c379a0000000000000000000000000000000000000000000000000000000008152600401611ec59061391d565b60405180910390fd5b611ee185896120f690919063ffffffff16565b60008054906101000a900473ffffffffffffffffffffffffffffffffffffffff1673ffffffffffffffffffffffffffffffffffffffff16635d325d71858786866040518563ffffffff1660e01b8152600401611f409493929190613566565b60206040518083038186803b158015611f5857600080fd5b505afa158015611f6c573d6000803e3d6000fd5b505050506040513d601f19601f82011682018060405250810190611f9091906127d0565b611fcf576040517f08c379a0000000000000000000000000000000000000000000000000000000008152600401611fc6906138bd565b60405180910390fd5b8373ffffffffffffffffffffffffffffffffffffffff166120348289898080601f016020809104026020016040519081016040528093929190818152602001838380828437600081840152601f19601f820116905080830192505050505050506119d6565b73ffffffffffffffffffffffffffffffffffffffff161461208a576040517f08c379a00000000000000000000000000000000000000000000000000000000081526004016120819061389d565b60405180910390fd5b5050505050505050565b600080610100836120a59190613ff7565b90506000610100846120b79190614389565b905060016120e8828785815181106120d2576120d1614418565b5b602002602001015161216c90919063ffffffff16565b60ff16149250505092915050565b6000610100826121069190613ff7565b90506000610100836121189190614389565b90506121478185848151811061213157612130614418565b5b602002602001015161218090919063ffffffff16565b84838151811061215a57612159614418565b5b60200260200101818152505050505050565b600060018260ff1684901c16905092915050565b60008160ff166001901b198316905092915050565b50805460008255906000526020600020908101906121b39190612203565b50565b8280548282559060005260206000209081019282156121f2579160200282015b828111156121f15782518255916020019190600101906121d6565b5b5090506121ff9190612203565b5090565b5b8082111561221c576000816000905550600101612204565b5090565b600061223361222e84613d67565b613d42565b90508083825260208201905082856020860282011115612256576122556144b6565b5b60005b85811015612286578161226c8882612527565b845260208401935060208301925050600181019050612259565b5050509392505050565b60006122a361229e84613d93565b613d42565b905080838252602082019050828560208602820111156122c6576122c56144b6565b5b60005b858110156122f657816122dc888261267c565b8452602084019350602083019250506001810190506122c9565b5050509392505050565b600061231361230e84613d93565b613d42565b90508083825260208201905082856020860282011115612336576123356144b6565b5b60005b85811015612366578161234c8882612691565b845260208401935060208301925050600181019050612339565b5050509392505050565b600061238361237e84613dbf565b613d42565b90508281526020810184848401111561239f5761239e6144c0565b5b6123aa848285614281565b509392505050565b6000813590506123c181614929565b92915050565b60008083601f8401126123dd576123dc614493565b5b8235905067ffffffffffffffff8111156123fa576123f961448e565b5b602083019150836020820283011115612416576124156144b6565b5b9250929050565b600082601f83011261243257612431614493565b5b8135612442848260208601612220565b91505092915050565b60008083601f84011261246157612460614493565b5b8235905067ffffffffffffffff81111561247e5761247d61448e565b5b60208301915083602082028301111561249a576124996144b6565b5b9250929050565b600082601f8301126124b6576124b5614493565b5b81356124c6848260208601612290565b91505092915050565b600082601f8301126124e4576124e3614493565b5b81516124f4848260208601612300565b91505092915050565b60008151905061250c81614940565b92915050565b60008151905061252181614957565b92915050565b6000813590506125368161496e565b92915050565b60008151905061254b81614985565b92915050565b6000815190506125608161499c565b92915050565b600082601f83011261257b5761257a614493565b5b813561258b848260208601612370565b91505092915050565b600060e082840312156125aa576125a961449d565b5b81905092915050565b6000606082840312156125c9576125c861449d565b5b81905092915050565b6000604082840312156125e8576125e761449d565b5b81905092915050565b600060408284031215612607576126066144a2565b5b6126116040613d42565b9050600082013567ffffffffffffffff811115612631576126306144b1565b5b61263d8482850161241d565b6000830152506020612651848285016126bb565b60208301525092915050565b6000608082840312156126735761267261449d565b5b81905092915050565b60008135905061268b816149b3565b92915050565b6000815190506126a0816149b3565b92915050565b6000813590506126b5816149ca565b92915050565b6000813590506126ca816149e1565b92915050565b6000815190506126df816149e1565b92915050565b6000813590506126f4816149f8565b92915050565b6000602082840312156127105761270f6144d4565b5b600061271e848285016123b2565b91505092915050565b6000806000604084860312156127405761273f6144d4565b5b600084013567ffffffffffffffff81111561275e5761275d6144c5565b5b61276a8682870161244b565b9350935050602061277d8682870161267c565b9150509250925092565b60006020828403121561279d5761279c6144d4565b5b600082015167ffffffffffffffff8111156127bb576127ba6144c5565b5b6127c7848285016124cf565b91505092915050565b6000602082840312156127e6576127e56144d4565b5b60006127f4848285016124fd565b91505092915050565b600060208284031215612813576128126144d4565b5b600061282184828501612512565b91505092915050565b600080600080600080600060c0888a031215612849576128486144d4565b5b60006128578a828b01612527565b975050602088013567ffffffffffffffff811115612878576128776144c5565b5b6128848a828b016124a1565b965050604088013567ffffffffffffffff8111156128a5576128a46144c5565b5b6128b18a828b01612566565b95505060606128c28a828b0161267c565b94505060806128d38a828b016123b2565b93505060a088013567ffffffffffffffff8111156128f4576128f36144c5565b5b6129008a828b016123c7565b925092505092959891949750929550565b60008060408385031215612928576129276144d4565b5b600061293685828601612527565b925050602083013567ffffffffffffffff811115612957576129566144c5565b5b612963858286016125f1565b9150509250929050565b600060208284031215612983576129826144d4565b5b60006129918482850161253c565b91505092915050565b6000602082840312156129b0576129af6144d4565b5b60006129be84828501612551565b91505092915050565b6000602082840312156129dd576129dc6144d4565b5b600082013567ffffffffffffffff8111156129fb576129fa6144c5565b5b612a0784828501612566565b91505092915050565b600060e08284031215612a2657612a256144d4565b5b6000612a3484828501612594565b91505092915050565b60008060006101208486031215612a5757612a566144d4565b5b6000612a6586828701612594565b93505060e0612a7686828701612527565b92505061010084013567ffffffffffffffff811115612a9857612a976144c5565b5b612aa4868287016125d2565b9150509250925092565b600060608284031215612ac457612ac36144d4565b5b6000612ad2848285016125b3565b91505092915050565b600060208284031215612af157612af06144d4565b5b6000612aff8482850161267c565b91505092915050565b600060208284031215612b1e57612b1d6144d4565b5b6000612b2c84828501612691565b91505092915050565b60008060008060006101a08688031215612b5257612b516144d4565b5b6000612b608882890161267c565b9550506020612b71888289016125b3565b945050608086013567ffffffffffffffff811115612b9257612b916144c5565b5b612b9e8882890161265d565b93505060a0612baf88828901612594565b92505061018086013567ffffffffffffffff811115612bd157612bd06144c5565b5b612bdd888289016125d2565b9150509295509295909350565b600060208284031215612c0057612bff6144d4565b5b6000612c0e848285016126a6565b91505092915050565b600060208284031215612c2d57612c2c6144d4565b5b6000612c3b848285016126bb565b91505092915050565b600060208284031215612c5a57612c596144d4565b5b6000612c68848285016126d0565b91505092915050565b600060208284031215612c8757612c866144d4565b5b6000612c95848285016126e5565b91505092915050565b6000612caa8383612fd4565b60208301905092915050565b6000612cc2838361337b565b60208301905092915050565b6000612cda83836133a8565b60208301905092915050565b612cef816140f4565b82525050565b6000612d018385613e78565b93507f07ffffffffffffffffffffffffffffffffffffffffffffffffffffffffffffff831115612d3457612d336144ca565b5b602083029250612d45838584614281565b82840190509392505050565b6000612d5d8385613e89565b93507f07ffffffffffffffffffffffffffffffffffffffffffffffffffffffffffffff831115612d9057612d8f6144ca565b5b602083029250612da1838584614281565b82840190509392505050565b6000612db882613e25565b612dc28185613e78565b9350612dcd83613df0565b8060005b83811015612dfe578151612de58882612c9e565b9750612df083613e51565b925050600181019050612dd1565b5085935050505092915050565b6000612e178385613eab565b93507f07ffffffffffffffffffffffffffffffffffffffffffffffffffffffffffffff831115612e4a57612e496144ca565b5b602083029250612e5b838584614281565b82840190509392505050565b6000612e7282613e30565b612e7c8185613e9a565b9350612e8783613e00565b8060005b83811015612eb8578151612e9f8882612cb6565b9750612eaa83613e5e565b925050600181019050612e8b565b5085935050505092915050565b6000612ed082613e30565b612eda8185613eab565b9350612ee583613e00565b8060005b83811015612f16578151612efd8882612cce565b9750612f0883613e5e565b925050600181019050612ee9565b5085935050505092915050565b6000612f2e82613e3b565b612f388185613eab565b9350612f4383613e10565b8060005b83811015612f7b57612f5882614476565b612f628882612cce565b9750612f6d83613e6b565b925050600181019050612f47565b5085935050505092915050565b612f9181614106565b82525050565b612fa8612fa382614112565b614357565b82525050565b612fb78161413e565b82525050565b612fce612fc98261413e565b614361565b82525050565b612fdd8161416a565b82525050565b612fec8161416a565b82525050565b613003612ffe8261416a565b61436b565b82525050565b61301a61301582614174565b614375565b82525050565b61303161302c826141a0565b61437f565b82525050565b600061304282613e46565b61304c8185613ebc565b935061305c818560208601614290565b613065816144d9565b840191505092915050565b600061307b82613e46565b6130858185613ecd565b9350613095818560208601614290565b80840191505092915050565b6130aa81614227565b82525050565b6130b98161424b565b82525050565b60006130cc601883613ed8565b91506130d7826144f7565b602082019050919050565b60006130ef601f83613ed8565b91506130fa82614520565b602082019050919050565b6000613112603e83613ed8565b915061311d82614549565b604082019050919050565b6000613135603c83613ed8565b915061314082614598565b604082019050919050565b6000613158601883613ed8565b9150613163826145e7565b602082019050919050565b600061317b603d83613ed8565b915061318682614610565b604082019050919050565b600061319e602183613ed8565b91506131a98261465f565b604082019050919050565b60006131c1603a83613ed8565b91506131cc826146ae565b604082019050919050565b60006131e4602983613ed8565b91506131ef826146fd565b604082019050919050565b6000613207602283613ed8565b91506132128261474c565b604082019050919050565b600061322a603d83613ed8565b91506132358261479b565b604082019050919050565b600061324d602283613ed8565b9150613258826147ea565b604082019050919050565b6000613270601e83613ed8565b915061327b82614839565b602082019050919050565b6000613293602583613ed8565b915061329e82614862565b604082019050919050565b60006132b6603383613ed8565b91506132c1826148b1565b604082019050919050565b60006132d9601e83613ed8565b91506132e482614900565b602082019050919050565b6000604083016133026000840184613ee9565b8583036000870152613315838284612cf5565b925050506133266020840184613f4c565b61333360208601826133d5565b508091505092915050565b6000604083016000830151848203600086015261335b8282612dad565b915050602083015161337060208601826133d5565b508091505092915050565b613384816141ec565b82525050565b613393816141ec565b82525050565b6133a2816141ec565b82525050565b6133b1816141ec565b82525050565b6133c08161426f565b82525050565b6133cf816141f6565b82525050565b6133de81614206565b82525050565b6133ed81614206565b82525050565b6133fc81614206565b82525050565b61340b8161421a565b82525050565b61341a8161421a565b82525050565b600061342c828a612f97565b60018201915061343c8289613009565b60048201915061344c8288612ff2565b60208201915061345c8287613020565b60088201915061346c8286613009565b60048201915061347c8285612ff2565b60208201915061348c8284612ff2565b60208201915081905098975050505050505050565b60006134ad8285612fbd565b6002820191506134bd8284613070565b91508190509392505050565b60006134d58286612ff2565b6020820191506134e58285613020565b6008820191506134f58284613009565b600482019150819050949350505050565b600060608201905061351b6000830186612ce6565b6135286020830185612fe3565b613535604083018461338a565b949350505050565b60006040820190506135526000830185612ce6565b61355f602083018461338a565b9392505050565b600060608201905061357b6000830187612ce6565b613588602083018661338a565b818103604083015261359b818486612d51565b905095945050505050565b60006060820190506135bb6000830186612ce6565b6135c8602083018561338a565b6135d5604083018461338a565b949350505050565b600060408201905081810360008301526135f8818587612e0b565b90506136076020830184613399565b949350505050565b600060208201905081810360008301526136298184612ec5565b905092915050565b6000602082019050818103600083015261364b8184612e67565b905092915050565b60006020820190506136686000830184612f88565b92915050565b60006020820190506136836000830184612fae565b92915050565b600060208201905061369e6000830184612fe3565b92915050565b60006060820190506136b96000830186612fe3565b6136c66020830185612fe3565b81810360408301526136d881846132ef565b9050949350505050565b60006060820190506136f76000830186612fe3565b6137046020830185612fe3565b8181036040830152613716818461333e565b9050949350505050565b60006060820190506137356000830186612fe3565b61374260208301856133b7565b61374f60408301846133e4565b949350505050565b600060408201905061376c6000830185612fe3565b61377960208301846133e4565b9392505050565b60006080820190506137956000830187612fe3565b6137a26020830186613402565b6137af6040830185612fe3565b6137bc6060830184612fe3565b95945050505050565b600060208201905081810360008301526137df8184613037565b905092915050565b60006020820190506137fc60008301846130a1565b92915050565b600060208201905061381760008301846130b0565b92915050565b60006020820190508181036000830152613836816130bf565b9050919050565b60006020820190508181036000830152613856816130e2565b9050919050565b6000602082019050818103600083015261387681613105565b9050919050565b6000602082019050818103600083015261389681613128565b9050919050565b600060208201905081810360008301526138b68161314b565b9050919050565b600060208201905081810360008301526138d68161316e565b9050919050565b600060208201905081810360008301526138f681613191565b9050919050565b60006020820190508181036000830152613916816131b4565b9050919050565b60006020820190508181036000830152613936816131d7565b9050919050565b60006020820190508181036000830152613956816131fa565b9050919050565b600060208201905081810360008301526139768161321d565b9050919050565b6000602082019050818103600083015261399681613240565b9050919050565b600060208201905081810360008301526139b681613263565b9050919050565b600060208201905081810360008301526139d681613286565b9050919050565b600060208201905081810360008301526139f6816132a9565b9050919050565b60006020820190508181036000830152613a16816132cc565b9050919050565b6000602082019050613a32600083018461338a565b92915050565b6000608082019050613a4d6000830187613399565b8181036020830152613a5f8186612f23565b9050613a6e6040830185613399565b613a7b6060830184613399565b95945050505050565b6000602082019050613a9960008301846133c6565b92915050565b6000602082019050613ab460008301846133f3565b92915050565b6000602082019050613acf60008301846133e4565b92915050565b6000602082019050613aea6000830184613411565b92915050565b60008083356001602003843603038112613b0d57613b0c6144a7565b5b80840192508235915067ffffffffffffffff821115613b2f57613b2e614498565b5b602083019250602082023603831315613b4b57613b4a6144bb565b5b509250929050565b60008083356001602003843603038112613b7057613b6f6144a7565b5b80840192508235915067ffffffffffffffff821115613b9257613b91614498565b5b602083019250602082023603831315613bae57613bad6144bb565b5b509250929050565b60008083356001602003843603038112613bd357613bd26144a7565b5b80840192508235915067ffffffffffffffff821115613bf557613bf4614498565b5b602083019250602082023603831315613c1157613c106144bb565b5b509250929050565b60008083356001602003843603038112613c3657613c356144a7565b5b80840192508235915067ffffffffffffffff821115613c5857613c57614498565b5b602083019250602082023603831315613c7457613c736144bb565b5b509250929050565b60008083356001602003843603038112613c9957613c986144a7565b5b80840192508235915067ffffffffffffffff821115613cbb57613cba614498565b5b602083019250602082023603831315613cd757613cd66144bb565b5b509250929050565b60008083356001602003843603038112613cfc57613cfb6144a7565b5b80840192508235915067ffffffffffffffff821115613d1e57613d1d614498565b5b602083019250600182023603831315613d3a57613d396144bb565b5b509250929050565b6000613d4c613d5d565b9050613d5882826142dd565b919050565b6000604051905090565b600067ffffffffffffffff821115613d8257613d81614447565b5b602082029050602081019050919050565b600067ffffffffffffffff821115613dae57613dad614447565b5b602082029050602081019050919050565b600067ffffffffffffffff821115613dda57613dd9614447565b5b613de3826144d9565b9050602081019050919050565b6000819050602082019050919050565b6000819050602082019050919050565b60008190508160005260206000209050919050565b600081519050919050565b600081519050919050565b600081549050919050565b600081519050919050565b6000602082019050919050565b6000602082019050919050565b6000600182019050919050565b600082825260208201905092915050565b600082825260208201905092915050565b600082825260208201905092915050565b600082825260208201905092915050565b600082825260208201905092915050565b600081905092915050565b600082825260208201905092915050565b60008083356001602003843603038112613f0657613f056144cf565b5b83810192508235915060208301925067ffffffffffffffff821115613f2e57613f2d614489565b5b602082023603841315613f4457613f436144ac565b5b509250929050565b6000613f5b60208401846126bb565b905092915050565b6000613f6e826141ec565b9150613f79836141ec565b9250827fffffffffffffffffffffffffffffffffffffffffffffffffffffffffffffffff03821115613fae57613fad6143ba565b5b828201905092915050565b6000613fc482614206565b9150613fcf83614206565b92508267ffffffffffffffff03821115613fec57613feb6143ba565b5b828201905092915050565b6000614002826141ec565b915061400d836141ec565b92508261401d5761401c6143e9565b5b828204905092915050565b6000614033826141ec565b915061403e836141ec565b9250817fffffffffffffffffffffffffffffffffffffffffffffffffffffffffffffffff0483118215151615614077576140766143ba565b5b828202905092915050565b600061408d826141ec565b9150614098836141ec565b9250828210156140ab576140aa6143ba565b5b828203905092915050565b60006140c182614206565b91506140cc83614206565b9250828210156140df576140de6143ba565b5b828203905092915050565b6000819050919050565b60006140ff826141cc565b9050919050565b60008115159050919050565b60007fff0000000000000000000000000000000000000000000000000000000000000082169050919050565b60007fffff00000000000000000000000000000000000000000000000000000000000082169050919050565b6000819050919050565b60007fffffffff0000000000000000000000000000000000000000000000000000000082169050919050565b60007fffffffffffffffff00000000000000000000000000000000000000000000000082169050919050565b600073ffffffffffffffffffffffffffffffffffffffff82169050919050565b6000819050919050565b600063ffffffff82169050919050565b600067ffffffffffffffff82169050919050565b600060ff82169050919050565b600061423282614239565b9050919050565b6000614244826141cc565b9050919050565b60006142568261425d565b9050919050565b6000614268826141cc565b9050919050565b600061427a826141f6565b9050919050565b82818337600083830152505050565b60005b838110156142ae578082015181840152602081019050614293565b838111156142bd576000848401525b50505050565b60006142d66142d1836144ea565b6140ea565b9050919050565b6142e6826144d9565b810181811067ffffffffffffffff8211171561430557614304614447565b5b80604052505050565b6000614319826141ec565b91507fffffffffffffffffffffffffffffffffffffffffffffffffffffffffffffffff82141561434c5761434b6143ba565b5b600182019050919050565b6000819050919050565b6000819050919050565b6000819050919050565b6000819050919050565b6000819050919050565b6000614394826141ec565b915061439f836141ec565b9250826143af576143ae6143e9565b5b828206905092915050565b7f4e487b7100000000000000000000000000000000000000000000000000000000600052601160045260246000fd5b7f4e487b7100000000000000000000000000000000000000000000000000000000600052601260045260246000fd5b7f4e487b7100000000000000000000000000000000000000000000000000000000600052603260045260246000fd5b7f4e487b7100000000000000000000000000000000000000000000000000000000600052604160045260246000fd5b600061448282546142c3565b9050919050565b600080fd5b600080fd5b600080fd5b600080fd5b600080fd5b600080fd5b600080fd5b600080fd5b600080fd5b600080fd5b600080fd5b600080fd5b600080fd5b600080fd5b600080fd5b600080fd5b6000601f19601f8301169050919050565b60008160001c9050919050565b7f45434453413a20696e76616c6964207369676e61747572650000000000000000600082015250565b7f45434453413a20696e76616c6964207369676e6174757265206c656e67746800600082015250565b7f4572726f723a204e756d626572206f662076616c696461746f72207075626c6960008201527f63206b65797320646f6573206e6f74206d617463682072657175697265640000602082015250565b7f4572726f723a204e756d626572206f662076616c696461746f7220706f73697460008201527f696f6e7320646f6573206e6f74206d6174636820726571756972656400000000602082015250565b7f4572726f723a20496e76616c6964205369676e61747572650000000000000000600082015250565b7f4572726f723a2056616c696461746f72206d75737420626520696e2076616c6960008201527f6461746f722073657420617420636f727265637420706f736974696f6e000000602082015250565b7f4572726f723a20426c6f636b207761697420706572696f64206e6f74206f766560008201527f7200000000000000000000000000000000000000000000000000000000000000602082015250565b7f4572726f723a2053656e646572206d75737420626520696e2076616c6964617460008201527f6f722073657420617420636f727265637420706f736974696f6e000000000000602082015250565b7f4572726f723a2056616c696461746f72206d757374206265206f6e636520696e60008201527f206269746669656c640000000000000000000000000000000000000000000000602082015250565b7f45434453413a20696e76616c6964207369676e6174757265202773272076616c60008201527f7565000000000000000000000000000000000000000000000000000000000000602082015250565b7f4572726f723a2053656e646572206164647265737320646f6573206e6f74206d60008201527f61746368206f726967696e616c2076616c69646174696f6e2064617461000000602082015250565b7f45434453413a20696e76616c6964207369676e6174757265202776272076616c60008201527f7565000000000000000000000000000000000000000000000000000000000000602082015250565b7f5061796c6f616420626c6f636b6e756d62657220697320746f6f206f6c640000600082015250565b7f4572726f723a204269746669656c64206e6f7420656e6f7567682076616c696460008201527f61746f7273000000000000000000000000000000000000000000000000000000602082015250565b7f4572726f723a204e756d626572206f66207369676e61747572657320646f657360008201527f206e6f74206d6174636820726571756972656400000000000000000000000000602082015250565b7f5061796c6f616420626c6f636b6e756d62657220697320746f6f206e65770000600082015250565b614932816140f4565b811461493d57600080fd5b50565b61494981614106565b811461495457600080fd5b50565b61496081614112565b811461496b57600080fd5b50565b6149778161416a565b811461498257600080fd5b50565b61498e81614174565b811461499957600080fd5b50565b6149a5816141a0565b81146149b057600080fd5b50565b6149bc816141ec565b81146149c757600080fd5b50565b6149d3816141f6565b81146149de57600080fd5b50565b6149ea81614206565b81146149f557600080fd5b50565b614a018161421a565b8114614a0c57600080fd5b5056fea2646970667358221220df412987e74e00a5dc9930d0b3a18d5122ae70fcf712e7c4f02e9ab1d1500ae364736f6c63430008060033",
  "linkReferences": {
    "contracts/ScaleCodec.sol": {
      "ScaleCodec": [
        {
          "length": 20,
          "start": 2189
        },
        {
          "length": 20,
          "start": 2342
        },
        {
          "length": 20,
          "start": 2500
        },
        {
          "length": 20,
          "start": 2653
        },
        {
          "length": 20,
          "start": 3584
        },
        {
          "length": 20,
          "start": 3745
        }
      ]
    },
    "contracts/utils/Bitfield.sol": {
      "Bitfield": [
        {
          "length": 20,
          "start": 3395
        },
        {
          "length": 20,
          "start": 4753
        },
        {
          "length": 20,
          "start": 5310
        },
        {
          "length": 20,
          "start": 6304
        }
      ]
    }
  },
  "deployedLinkReferences": {
    "contracts/ScaleCodec.sol": {
      "ScaleCodec": [
        {
          "length": 20,
          "start": 1575
        },
        {
          "length": 20,
          "start": 1728
        },
        {
          "length": 20,
          "start": 1886
        },
        {
          "length": 20,
          "start": 2039
        },
        {
          "length": 20,
          "start": 2970
        },
        {
          "length": 20,
          "start": 3131
        }
      ]
    },
    "contracts/utils/Bitfield.sol": {
      "Bitfield": [
        {
          "length": 20,
          "start": 2781
        },
        {
          "length": 20,
          "start": 4139
        },
        {
          "length": 20,
          "start": 4696
        },
        {
          "length": 20,
          "start": 5690
        }
      ]
    }
  }
}