{
  "contractName": "DOTApp",
  "abi": [
    {
      "inputs": [
        {
          "internalType": "string",
          "name": "_name",
          "type": "string"
        },
        {
          "internalType": "string",
          "name": "_symbol",
          "type": "string"
        },
        {
          "internalType": "address",
          "name": "feeBurner",
          "type": "address"
        },
        {
          "components": [
            {
              "internalType": "address",
              "name": "inbound",
              "type": "address"
            },
            {
              "internalType": "address",
              "name": "outbound",
              "type": "address"
            }
          ],
          "internalType": "struct DOTApp.Channel",
          "name": "_basic",
          "type": "tuple"
        },
        {
          "components": [
            {
              "internalType": "address",
              "name": "inbound",
              "type": "address"
            },
            {
              "internalType": "address",
              "name": "outbound",
              "type": "address"
            }
          ],
          "internalType": "struct DOTApp.Channel",
          "name": "_incentivized",
          "type": "tuple"
        }
      ],
      "stateMutability": "nonpayable",
      "type": "constructor"
    },
    {
      "anonymous": false,
      "inputs": [
        {
          "indexed": true,
          "internalType": "bytes32",
          "name": "role",
          "type": "bytes32"
        },
        {
          "indexed": true,
          "internalType": "bytes32",
          "name": "previousAdminRole",
          "type": "bytes32"
        },
        {
          "indexed": true,
          "internalType": "bytes32",
          "name": "newAdminRole",
          "type": "bytes32"
        }
      ],
      "name": "RoleAdminChanged",
      "type": "event"
    },
    {
      "anonymous": false,
      "inputs": [
        {
          "indexed": true,
          "internalType": "bytes32",
          "name": "role",
          "type": "bytes32"
        },
        {
          "indexed": true,
          "internalType": "address",
          "name": "account",
          "type": "address"
        },
        {
          "indexed": true,
          "internalType": "address",
          "name": "sender",
          "type": "address"
        }
      ],
      "name": "RoleGranted",
      "type": "event"
    },
    {
      "anonymous": false,
      "inputs": [
        {
          "indexed": true,
          "internalType": "bytes32",
          "name": "role",
          "type": "bytes32"
        },
        {
          "indexed": true,
          "internalType": "address",
          "name": "account",
          "type": "address"
        },
        {
          "indexed": true,
          "internalType": "address",
          "name": "sender",
          "type": "address"
        }
      ],
      "name": "RoleRevoked",
      "type": "event"
    },
    {
      "inputs": [],
      "name": "DEFAULT_ADMIN_ROLE",
      "outputs": [
        {
          "internalType": "bytes32",
          "name": "",
          "type": "bytes32"
        }
      ],
      "stateMutability": "view",
      "type": "function",
      "constant": true
    },
    {
      "inputs": [],
      "name": "FEE_BURNER_ROLE",
      "outputs": [
        {
          "internalType": "bytes32",
          "name": "",
          "type": "bytes32"
        }
      ],
      "stateMutability": "view",
      "type": "function",
      "constant": true
    },
    {
      "inputs": [
        {
          "internalType": "enum ChannelId",
          "name": "",
          "type": "uint8"
        }
      ],
      "name": "channels",
      "outputs": [
        {
          "internalType": "address",
          "name": "inbound",
          "type": "address"
        },
        {
          "internalType": "address",
          "name": "outbound",
          "type": "address"
        }
      ],
      "stateMutability": "view",
      "type": "function",
      "constant": true
    },
    {
      "inputs": [
        {
          "internalType": "bytes32",
          "name": "role",
          "type": "bytes32"
        }
      ],
      "name": "getRoleAdmin",
      "outputs": [
        {
          "internalType": "bytes32",
          "name": "",
          "type": "bytes32"
        }
      ],
      "stateMutability": "view",
      "type": "function",
      "constant": true
    },
    {
      "inputs": [
        {
          "internalType": "bytes32",
          "name": "role",
          "type": "bytes32"
        },
        {
          "internalType": "uint256",
          "name": "index",
          "type": "uint256"
        }
      ],
      "name": "getRoleMember",
      "outputs": [
        {
          "internalType": "address",
          "name": "",
          "type": "address"
        }
      ],
      "stateMutability": "view",
      "type": "function",
      "constant": true
    },
    {
      "inputs": [
        {
          "internalType": "bytes32",
          "name": "role",
          "type": "bytes32"
        }
      ],
      "name": "getRoleMemberCount",
      "outputs": [
        {
          "internalType": "uint256",
          "name": "",
          "type": "uint256"
        }
      ],
      "stateMutability": "view",
      "type": "function",
      "constant": true
    },
    {
      "inputs": [
        {
          "internalType": "bytes32",
          "name": "role",
          "type": "bytes32"
        },
        {
          "internalType": "address",
          "name": "account",
          "type": "address"
        }
      ],
      "name": "grantRole",
      "outputs": [],
      "stateMutability": "nonpayable",
      "type": "function"
    },
    {
      "inputs": [
        {
          "internalType": "bytes32",
          "name": "role",
          "type": "bytes32"
        },
        {
          "internalType": "address",
          "name": "account",
          "type": "address"
        }
      ],
      "name": "hasRole",
      "outputs": [
        {
          "internalType": "bool",
          "name": "",
          "type": "bool"
        }
      ],
      "stateMutability": "view",
      "type": "function",
      "constant": true
    },
    {
      "inputs": [
        {
          "internalType": "bytes32",
          "name": "role",
          "type": "bytes32"
        },
        {
          "internalType": "address",
          "name": "account",
          "type": "address"
        }
      ],
      "name": "renounceRole",
      "outputs": [],
      "stateMutability": "nonpayable",
      "type": "function"
    },
    {
      "inputs": [
        {
          "internalType": "bytes32",
          "name": "role",
          "type": "bytes32"
        },
        {
          "internalType": "address",
          "name": "account",
          "type": "address"
        }
      ],
      "name": "revokeRole",
      "outputs": [],
      "stateMutability": "nonpayable",
      "type": "function"
    },
    {
      "inputs": [],
      "name": "token",
      "outputs": [
        {
          "internalType": "contract WrappedToken",
          "name": "",
          "type": "address"
        }
      ],
      "stateMutability": "view",
      "type": "function",
      "constant": true
    },
    {
      "inputs": [
        {
          "internalType": "bytes32",
          "name": "_recipient",
          "type": "bytes32"
        },
        {
          "internalType": "uint256",
          "name": "_amount",
          "type": "uint256"
        },
        {
          "internalType": "enum ChannelId",
          "name": "_channelId",
          "type": "uint8"
        }
      ],
      "name": "burn",
      "outputs": [],
      "stateMutability": "nonpayable",
      "type": "function"
    },
    {
      "inputs": [
        {
          "internalType": "bytes32",
          "name": "_sender",
          "type": "bytes32"
        },
        {
          "internalType": "address",
          "name": "_recipient",
          "type": "address"
        },
        {
          "internalType": "uint256",
          "name": "_amount",
          "type": "uint256"
        }
      ],
      "name": "mint",
      "outputs": [],
      "stateMutability": "nonpayable",
      "type": "function"
    },
    {
      "inputs": [
        {
          "internalType": "address",
          "name": "feePayer",
          "type": "address"
        },
        {
          "internalType": "uint256",
          "name": "_amount",
          "type": "uint256"
        }
      ],
      "name": "burnFee",
      "outputs": [],
      "stateMutability": "nonpayable",
      "type": "function"
    }
  ],
  "bytecode": "0x60806040523480156200001157600080fd5b5060405162005d5a38038062005d5a8339818101604052810190620000379190620004f0565b60608585826040516200004a9062000406565b62000058939291906200067a565b604051809103906000f08015801562000075573d6000803e3d6000fd5b50600260006101000a81548173ffffffffffffffffffffffffffffffffffffffff021916908373ffffffffffffffffffffffffffffffffffffffff160217905550600060016000806001811115620000c957fe5b6001811115620000d557fe5b8152602001908152602001600020905083600001518160000160006101000a81548173ffffffffffffffffffffffffffffffffffffffff021916908373ffffffffffffffffffffffffffffffffffffffff16021790555083602001518160010160006101000a81548173ffffffffffffffffffffffffffffffffffffffff021916908373ffffffffffffffffffffffffffffffffffffffff1602179055506000600160006001808111156200018657fe5b60018111156200019257fe5b8152602001908152602001600020905083600001518160000160006101000a81548173ffffffffffffffffffffffffffffffffffffffff021916908373ffffffffffffffffffffffffffffffffffffffff16021790555083602001518160010160006101000a81548173ffffffffffffffffffffffffffffffffffffffff021916908373ffffffffffffffffffffffffffffffffffffffff160217905550620002627fffe71d6904653823f16901502129e7da73d4958bc25aad6e8555aa3d6ac73b97876200027060201b60201c565b50505050505050506200081f565b6200028282826200028660201b60201c565b5050565b620002b4816000808581526020019081526020016000206000016200032960201b620009971790919060201c565b156200032557620002ca6200036160201b60201c565b73ffffffffffffffffffffffffffffffffffffffff168173ffffffffffffffffffffffffffffffffffffffff16837f2f8788117e7eff1d82e926ec794901d17c78024a50270940304540a733656f0d60405160405180910390a45b5050565b600062000359836000018373ffffffffffffffffffffffffffffffffffffffff1660001b6200036960201b60201c565b905092915050565b600033905090565b60006200037d8383620003e360201b60201c565b620003d8578260000182908060018154018082558091505060019003906000526020600020016000909190919091505582600001805490508360010160008481526020019081526020016000208190555060019050620003dd565b600090505b92915050565b600080836001016000848152602001908152602001600020541415905092915050565b613d9a8062001fc083390190565b60006200042b620004258462000700565b620006cc565b9050828152602081018484840111156200044457600080fd5b62000451848285620007bc565b509392505050565b6000815190506200046a8162000805565b92915050565b600082601f8301126200048257600080fd5b81516200049484826020860162000414565b91505092915050565b600060408284031215620004b057600080fd5b620004bc6040620006cc565b90506000620004ce8482850162000459565b6000830152506020620004e48482850162000459565b60208301525092915050565b600080600080600060e086880312156200050957600080fd5b600086015167ffffffffffffffff8111156200052457600080fd5b620005328882890162000470565b955050602086015167ffffffffffffffff8111156200055057600080fd5b6200055e8882890162000470565b9450506040620005718882890162000459565b935050606062000584888289016200049d565b92505060a062000597888289016200049d565b9150509295509295909350565b6000620005b28383620005be565b60208301905092915050565b620005c98162000788565b82525050565b6000620005dc8262000743565b620005e8818562000766565b9350620005f58362000733565b8060005b838110156200062c578151620006108882620005a4565b97506200061d8362000759565b925050600181019050620005f9565b5085935050505092915050565b600062000646826200074e565b62000652818562000777565b935062000664818560208601620007bc565b6200066f81620007f4565b840191505092915050565b6000606082019050818103600083015262000696818662000639565b90508181036020830152620006ac818562000639565b90508181036040830152620006c28184620005cf565b9050949350505050565b6000604051905081810181811067ffffffffffffffff82111715620006f657620006f5620007f2565b5b8060405250919050565b600067ffffffffffffffff8211156200071e576200071d620007f2565b5b601f19601f8301169050602081019050919050565b6000819050602082019050919050565b600081519050919050565b600081519050919050565b6000602082019050919050565b600082825260208201905092915050565b600082825260208201905092915050565b600062000795826200079c565b9050919050565b600073ffffffffffffffffffffffffffffffffffffffff82169050919050565b60005b83811015620007dc578082015181840152602081019050620007bf565b83811115620007ec576000848401525b50505050565bfe5b6000601f19601f8301169050919050565b620008108162000788565b81146200081c57600080fd5b50565b611791806200082f6000396000f3fe608060405234801561001057600080fd5b50600436106100ea5760003560e01c806391d148541161008c578063ccd3413211610066578063ccd3413214610259578063d547741f1461028a578063efd8920d146102a6578063fc0c546a146102c4576100ea565b806391d14854146101db578063a217fddf1461020b578063ca15c87314610229576100ea565b80632f2ff15d116100c85780632f2ff15d1461015757806336568abe146101735780637ed9db591461018f5780639010d07c146101ab576100ea565b80630c86269f146100ef578063146bf1951461010b578063248a9ca314610127575b600080fd5b61010960048036038101906101049190610ec0565b6102e2565b005b61012560048036038101906101209190611015565b6103de565b005b610141600480360381019061013c9190610efc565b6105db565b60405161014e91906113e6565b60405180910390f35b610171600480360381019061016c9190610f4e565b6105fa565b005b61018d60048036038101906101889190610f4e565b610683565b005b6101a960048036038101906101a49190610f8a565b61071c565b005b6101c560048036038101906101c09190610fd9565b6107d1565b6040516101d2919061129f565b60405180910390f35b6101f560048036038101906101f09190610f4e565b610802565b60405161020291906113cb565b60405180910390f35b610213610833565b60405161022091906113e6565b60405180910390f35b610243600480360381019061023e9190610efc565b61083a565b6040516102509190611477565b60405180910390f35b610273600480360381019061026e9190611064565b610860565b604051610281929190611328565b60405180910390f35b6102a4600480360381019061029f9190610f4e565b6108c4565b005b6102ae61094d565b6040516102bb91906113e6565b60405180910390f35b6102cc610971565b6040516102d99190611401565b60405180910390f35b61030c7fffe71d6904653823f16901502129e7da73d4958bc25aad6e8555aa3d6ac73b9733610802565b61034b576040517f08c379a00000000000000000000000000000000000000000000000000000000081526004016103429061141c565b60405180910390fd5b600260009054906101000a900473ffffffffffffffffffffffffffffffffffffffff1673ffffffffffffffffffffffffffffffffffffffff166344d1718783836040518363ffffffff1660e01b81526004016103a892919061138f565b600060405180830381600087803b1580156103c257600080fd5b505af11580156103d6573d6000803e3d6000fd5b505050505050565b600060018111156103eb57fe5b8160018111156103f757fe5b1480610418575060018081111561040a57fe5b81600181111561041657fe5b145b610457576040517f08c379a000000000000000000000000000000000000000000000000000000000815260040161044e9061143c565b60405180910390fd5b600260009054906101000a900473ffffffffffffffffffffffffffffffffffffffff1673ffffffffffffffffffffffffffffffffffffffff166344d171873384866040516020016104a89190611284565b6040516020818303038152906040526040518463ffffffff1660e01b81526004016104d5939291906112ea565b600060405180830381600087803b1580156104ef57600080fd5b505af1158015610503573d6000803e3d6000fd5b5050505060006001600083600181111561051957fe5b600181111561052457fe5b815260200190815260200160002060010160009054906101000a900473ffffffffffffffffffffffffffffffffffffffff16905060006105653386866109c7565b90508173ffffffffffffffffffffffffffffffffffffffff166376846edd33836040518363ffffffff1660e01b81526004016105a29291906112ba565b600060405180830381600087803b1580156105bc57600080fd5b505af11580156105d0573d6000803e3d6000fd5b505050505050505050565b6000806000838152602001908152602001600020600201549050919050565b6106206000808481526020019081526020016000206002015461061b610a8b565b610802565b610675576040517f08c379a000000000000000000000000000000000000000000000000000000000815260040180806020018281038252602f8152602001806116ce602f913960400191505060405180910390fd5b61067f8282610a93565b5050565b61068b610a8b565b73ffffffffffffffffffffffffffffffffffffffff168173ffffffffffffffffffffffffffffffffffffffff161461070e576040517f08c379a000000000000000000000000000000000000000000000000000000000815260040180806020018281038252602f81526020018061172d602f913960400191505060405180910390fd5b6107188282610b26565b5050565b600260009054906101000a900473ffffffffffffffffffffffffffffffffffffffff1673ffffffffffffffffffffffffffffffffffffffff166394d008ef83838660405160200161076d9190611284565b6040516020818303038152906040526040518463ffffffff1660e01b815260040161079a93929190611351565b600060405180830381600087803b1580156107b457600080fd5b505af11580156107c8573d6000803e3d6000fd5b50505050505050565b60006107fa82600080868152602001908152602001600020600001610bb990919063ffffffff16565b905092915050565b600061082b82600080868152602001908152602001600020600001610bd390919063ffffffff16565b905092915050565b6000801b81565b6000610859600080848152602001908152602001600020600001610c03565b9050919050565b60016020528060005260406000206000915090508060000160009054906101000a900473ffffffffffffffffffffffffffffffffffffffff16908060010160009054906101000a900473ffffffffffffffffffffffffffffffffffffffff16905082565b6108ea600080848152602001908152602001600020600201546108e5610a8b565b610802565b61093f576040517f08c379a00000000000000000000000000000000000000000000000000000000081526004018080602001828103825260308152602001806116fd6030913960400191505060405180910390fd5b6109498282610b26565b5050565b7fffe71d6904653823f16901502129e7da73d4958bc25aad6e8555aa3d6ac73b9781565b600260009054906101000a900473ffffffffffffffffffffffffffffffffffffffff1681565b60006109bf836000018373ffffffffffffffffffffffffffffffffffffffff1660001b610c18565b905092915050565b6060610e0160f01b84600060f81b858573__ScaleCodec____________________________63dfd47e0e90916040518263ffffffff1660e01b8152600401610a0f919061145c565b60206040518083038186803b158015610a2757600080fd5b505af4158015610a3b573d6000803e3d6000fd5b505050506040513d601f19601f82011682018060405250810190610a5f9190610f25565b604051602001610a73959493929190611225565b60405160208183030381529060405290509392505050565b600033905090565b610aba8160008085815260200190815260200160002060000161099790919063ffffffff16565b15610b2257610ac7610a8b565b73ffffffffffffffffffffffffffffffffffffffff168173ffffffffffffffffffffffffffffffffffffffff16837f2f8788117e7eff1d82e926ec794901d17c78024a50270940304540a733656f0d60405160405180910390a45b5050565b610b4d81600080858152602001908152602001600020600001610c8890919063ffffffff16565b15610bb557610b5a610a8b565b73ffffffffffffffffffffffffffffffffffffffff168173ffffffffffffffffffffffffffffffffffffffff16837ff6391f5c32d9c69d2a47ea670b442974b53935d1edc7fd64eb21e047a839171b60405160405180910390a45b5050565b6000610bc88360000183610cb8565b60001c905092915050565b6000610bfb836000018373ffffffffffffffffffffffffffffffffffffffff1660001b610d3b565b905092915050565b6000610c1182600001610d5e565b9050919050565b6000610c248383610d3b565b610c7d578260000182908060018154018082558091505060019003906000526020600020016000909190919091505582600001805490508360010160008481526020019081526020016000208190555060019050610c82565b600090505b92915050565b6000610cb0836000018373ffffffffffffffffffffffffffffffffffffffff1660001b610d6f565b905092915050565b600081836000018054905011610d19576040517f08c379a00000000000000000000000000000000000000000000000000000000081526004018080602001828103825260228152602001806116ac6022913960400191505060405180910390fd5b826000018281548110610d2857fe5b9060005260206000200154905092915050565b600080836001016000848152602001908152602001600020541415905092915050565b600081600001805490509050919050565b60008083600101600084815260200190815260200160002054905060008114610e4b5760006001820390506000600186600001805490500390506000866000018281548110610dba57fe5b9060005260206000200154905080876000018481548110610dd757fe5b9060005260206000200181905550600183018760010160008381526020019081526020016000208190555086600001805480610e0f57fe5b60019003818190600052602060002001600090559055866001016000878152602001908152602001600020600090556001945050505050610e51565b60009150505b92915050565b600081359050610e6681611656565b92915050565b600081359050610e7b8161166d565b92915050565b600081519050610e908161166d565b92915050565b600081359050610ea581611684565b92915050565b600081359050610eba81611694565b92915050565b60008060408385031215610ed357600080fd5b6000610ee185828601610e57565b9250506020610ef285828601610eab565b9150509250929050565b600060208284031215610f0e57600080fd5b6000610f1c84828501610e6c565b91505092915050565b600060208284031215610f3757600080fd5b6000610f4584828501610e81565b91505092915050565b60008060408385031215610f6157600080fd5b6000610f6f85828601610e6c565b9250506020610f8085828601610e57565b9150509250929050565b600080600060608486031215610f9f57600080fd5b6000610fad86828701610e6c565b9350506020610fbe86828701610e57565b9250506040610fcf86828701610eab565b9150509250925092565b60008060408385031215610fec57600080fd5b6000610ffa85828601610e6c565b925050602061100b85828601610eab565b9150509250929050565b60008060006060848603121561102a57600080fd5b600061103886828701610e6c565b935050602061104986828701610eab565b925050604061105a86828701610e96565b9150509250925092565b60006020828403121561107657600080fd5b600061108484828501610e96565b91505092915050565b61109681611569565b82525050565b6110a5816114bf565b82525050565b6110bc6110b7826114bf565b6115f6565b82525050565b6110cb816114d1565b82525050565b6110e26110dd826114dd565b611608565b82525050565b6110f96110f482611509565b611612565b82525050565b61110881611535565b82525050565b61111f61111a82611535565b61161c565b82525050565b600061113082611492565b61113a818561149d565b935061114a8185602086016115c3565b61115381611638565b840191505092915050565b6111678161157b565b82525050565b600061117a60008361149d565b9150600082019050919050565b60006111946016836114ae565b91507f43616c6c657220697320756e617574686f72697a6564000000000000000000006000830152602082019050919050565b60006111d46012836114ae565b91507f496e76616c6964206368616e6e656c20494400000000000000000000000000006000830152602082019050919050565b6112108161155f565b82525050565b61121f8161155f565b82525050565b600061123182886110e8565b60028201915061124182876110ab565b60148201915061125182866110d1565b600182019150611261828561110e565b602082019150611271828461110e565b6020820191508190509695505050505050565b6000611290828461110e565b60208201915081905092915050565b60006020820190506112b4600083018461109c565b92915050565b60006040820190506112cf600083018561108d565b81810360208301526112e18184611125565b90509392505050565b60006060820190506112ff600083018661108d565b61130c6020830185611207565b818103604083015261131e8184611125565b9050949350505050565b600060408201905061133d600083018561109c565b61134a602083018461109c565b9392505050565b6000606082019050611366600083018661109c565b6113736020830185611207565b81810360408301526113858184611125565b9050949350505050565b60006060820190506113a4600083018561109c565b6113b16020830184611207565b81810360408301526113c28161116d565b90509392505050565b60006020820190506113e060008301846110c2565b92915050565b60006020820190506113fb60008301846110ff565b92915050565b6000602082019050611416600083018461115e565b92915050565b6000602082019050818103600083015261143581611187565b9050919050565b60006020820190508181036000830152611455816111c7565b9050919050565b60006020820190506114716000830184611216565b92915050565b600060208201905061148c6000830184611207565b92915050565b600081519050919050565b600082825260208201905092915050565b600082825260208201905092915050565b60006114ca8261153f565b9050919050565b60008115159050919050565b60007fff0000000000000000000000000000000000000000000000000000000000000082169050919050565b60007fffff00000000000000000000000000000000000000000000000000000000000082169050919050565b6000819050919050565b600073ffffffffffffffffffffffffffffffffffffffff82169050919050565b6000819050919050565b60006115748261159f565b9050919050565b60006115868261158d565b9050919050565b60006115988261153f565b9050919050565b60006115aa826115b1565b9050919050565b60006115bc8261153f565b9050919050565b60005b838110156115e15780820151818401526020810190506115c6565b838111156115f0576000848401525b50505050565b600061160182611626565b9050919050565b6000819050919050565b6000819050919050565b6000819050919050565b600061163182611649565b9050919050565b6000601f19601f8301169050919050565b60008160601b9050919050565b61165f816114bf565b811461166a57600080fd5b50565b61167681611535565b811461168157600080fd5b50565b6002811061169157600080fd5b50565b61169d8161155f565b81146116a857600080fd5b5056fe456e756d657261626c655365743a20696e646578206f7574206f6620626f756e6473416363657373436f6e74726f6c3a2073656e646572206d75737420626520616e2061646d696e20746f206772616e74416363657373436f6e74726f6c3a2073656e646572206d75737420626520616e2061646d696e20746f207265766f6b65416363657373436f6e74726f6c3a2063616e206f6e6c792072656e6f756e636520726f6c657320666f722073656c66a2646970667358221220c7f9f69f048562fff282642f1cfdb887440dad7ef0495552d8b03a4aa4a23f0e64736f6c6343000706003360806040523480156200001157600080fd5b5060405162003d9a38038062003d9a833981810160405281019062000037919062000624565b828282826002908051906020019062000052929190620003b4565b5081600390805190602001906200006b929190620003b4565b508060049080519060200190620000849291906200044b565b5060005b600480549050811015620001345760016005600060048481548110620000aa57fe5b9060005260206000200160009054906101000a900473ffffffffffffffffffffffffffffffffffffffff1673ffffffffffffffffffffffffffffffffffffffff1673ffffffffffffffffffffffffffffffffffffffff16815260200190815260200160002060006101000a81548160ff021916908315150217905550808060010191505062000088565b50731820a4b7618bde71dce8cdc73aab6c95905fad2473ffffffffffffffffffffffffffffffffffffffff166329965a1d307fac7fbab5f54a3ca8194167523c6753bfeb96a445279294b6125b68cce2177054306040518463ffffffff1660e01b8152600401808473ffffffffffffffffffffffffffffffffffffffff1681526020018381526020018273ffffffffffffffffffffffffffffffffffffffff1681526020019350505050600060405180830381600087803b158015620001f957600080fd5b505af11580156200020e573d6000803e3d6000fd5b50505050731820a4b7618bde71dce8cdc73aab6c95905fad2473ffffffffffffffffffffffffffffffffffffffff166329965a1d307faea199e31a596269b42cdafd93407f14436db6e4cad65417994c2eb37381e05a306040518463ffffffff1660e01b8152600401808473ffffffffffffffffffffffffffffffffffffffff1681526020018381526020018273ffffffffffffffffffffffffffffffffffffffff1681526020019350505050600060405180830381600087803b158015620002d657600080fd5b505af1158015620002eb573d6000803e3d6000fd5b50505050505050600062000304620003ac60201b60201c565b905080600960006101000a81548173ffffffffffffffffffffffffffffffffffffffff021916908373ffffffffffffffffffffffffffffffffffffffff1602179055508073ffffffffffffffffffffffffffffffffffffffff16600073ffffffffffffffffffffffffffffffffffffffff167f8be0079c531659141344cd1fd0a4f28419497f9722a3daafe3b4186f6b6457e060405160405180910390a350505050620007e1565b600033905090565b828054600181600116156101000203166002900490600052602060002090601f016020900481019282620003ec576000855562000438565b82601f106200040757805160ff191683800117855562000438565b8280016001018555821562000438579182015b82811115620004375782518255916020019190600101906200041a565b5b509050620004479190620004da565b5090565b828054828255906000526020600020908101928215620004c7579160200282015b82811115620004c65782518260006101000a81548173ffffffffffffffffffffffffffffffffffffffff021916908373ffffffffffffffffffffffffffffffffffffffff160217905550916020019190600101906200046c565b5b509050620004d69190620004da565b5090565b5b80821115620004f5576000816000905550600101620004db565b5090565b6000620005106200050a84620006f9565b620006c5565b905080838252602082019050828560208602820111156200053057600080fd5b60005b85811015620005645781620005498882620005b3565b84526020840193506020830192505060018101905062000533565b5050509392505050565b6000620005856200057f8462000728565b620006c5565b9050828152602081018484840111156200059e57600080fd5b620005ab8482856200078f565b509392505050565b600081519050620005c481620007c7565b92915050565b600082601f830112620005dc57600080fd5b8151620005ee848260208601620004f9565b91505092915050565b600082601f8301126200060957600080fd5b81516200061b8482602086016200056e565b91505092915050565b6000806000606084860312156200063a57600080fd5b600084015167ffffffffffffffff8111156200065557600080fd5b6200066386828701620005f7565b935050602084015167ffffffffffffffff8111156200068157600080fd5b6200068f86828701620005f7565b925050604084015167ffffffffffffffff811115620006ad57600080fd5b620006bb86828701620005ca565b9150509250925092565b6000604051905081810181811067ffffffffffffffff82111715620006ef57620006ee620007c5565b5b8060405250919050565b600067ffffffffffffffff821115620007175762000716620007c5565b5b602082029050602081019050919050565b600067ffffffffffffffff821115620007465762000745620007c5565b5b601f19601f8301169050602081019050919050565b600062000768826200076f565b9050919050565b600073ffffffffffffffffffffffffffffffffffffffff82169050919050565b60005b83811015620007af57808201518184015260208101905062000792565b83811115620007bf576000848401525b50505050565bfe5b620007d2816200075b565b8114620007de57600080fd5b50565b6135a980620007f16000396000f3fe608060405234801561001057600080fd5b506004361061014d5760003560e01c80638da5cb5b116100c3578063d95b63711161007c578063d95b63711461037a578063dd62ed3e146103aa578063f2fde38b146103da578063fad8b32a146103f6578063fc673c4f14610412578063fe9d93031461042e5761014d565b80638da5cb5b146102ba57806394d008ef146102d8578063959b8c3f146102f457806395d89b41146103105780639bd9bbc61461032e578063a9059cbb1461034a5761014d565b8063313ce56711610115578063313ce5671461020c57806344d171871461022a578063556f0dc71461024657806362ad1b831461026457806370a0823114610280578063715018a6146102b05761014d565b806306e485381461015257806306fdde0314610170578063095ea7b31461018e57806318160ddd146101be57806323b872dd146101dc575b600080fd5b61015a61044a565b6040516101679190613103565b60405180910390f35b6101786104d8565b6040516101859190613140565b60405180910390f35b6101a860048036038101906101a39190612e24565b61057a565b6040516101b59190613125565b60405180910390f35b6101c661059d565b6040516101d39190613182565b60405180910390f35b6101f660048036038101906101f19190612d2e565b6105a7565b6040516102039190613125565b60405180910390f35b610214610805565b604051610221919061319d565b60405180910390f35b610244600480360381019061023f9190612e60565b61080e565b005b61024e6108dd565b60405161025b9190613182565b60405180910390f35b61027e60048036038101906102799190612d7d565b6108e6565b005b61029a60048036038101906102959190612cc9565b610962565b6040516102a79190613182565b60405180910390f35b6102b86109aa565b005b6102c2610b1a565b6040516102cf91906130e8565b60405180910390f35b6102f260048036038101906102ed9190612e60565b610b44565b005b61030e60048036038101906103099190612cc9565b610c13565b005b610318610e8a565b6040516103259190613140565b60405180910390f35b61034860048036038101906103439190612e60565b610f2c565b005b610364600480360381019061035f9190612e24565b610f56565b6040516103719190613125565b60405180910390f35b610394600480360381019061038f9190612cf2565b61107a565b6040516103a19190613125565b60405180910390f35b6103c460048036038101906103bf9190612cf2565b61122b565b6040516103d19190613182565b60405180910390f35b6103f460048036038101906103ef9190612cc9565b6112b2565b005b610410600480360381019061040b9190612cc9565b6114a7565b005b61042c60048036038101906104279190612ec7565b61171e565b005b61044860048036038101906104439190612f5a565b611759565b005b606060048054806020026020016040519081016040528092919081815260200182805480156104ce57602002820191906000526020600020905b8160009054906101000a900473ffffffffffffffffffffffffffffffffffffffff1673ffffffffffffffffffffffffffffffffffffffff1681526020019060010190808311610484575b5050505050905090565b606060028054600181600116156101000203166002900480601f0160208091040260200160405190810160405280929190818152602001828054600181600116156101000203166002900480156105705780601f1061054557610100808354040283529160200191610570565b820191906000526020600020905b81548152906001019060200180831161055357829003601f168201915b5050505050905090565b600080610585611794565b905061059281858561179c565b600191505092915050565b6000600154905090565b60008073ffffffffffffffffffffffffffffffffffffffff168373ffffffffffffffffffffffffffffffffffffffff16141561062e576040517f08c379a000000000000000000000000000000000000000000000000000000000815260040180806020018281038252602481526020018061348f6024913960400191505060405180910390fd5b600073ffffffffffffffffffffffffffffffffffffffff168473ffffffffffffffffffffffffffffffffffffffff1614156106b4576040517f08c379a00000000000000000000000000000000000000000000000000000000081526004018080602001828103825260268152602001806135086026913960400191505060405180910390fd5b60006106be611794565b90506106ec818686866040518060200160405280600081525060405180602001604052806000815250611993565b610718818686866040518060200160405280600081525060405180602001604052806000815250611c55565b6107cb85826107c6866040518060600160405280602981526020016134df60299139600860008c73ffffffffffffffffffffffffffffffffffffffff1673ffffffffffffffffffffffffffffffffffffffff16815260200190815260200160002060008873ffffffffffffffffffffffffffffffffffffffff1673ffffffffffffffffffffffffffffffffffffffff16815260200190815260200160002054611f649092919063ffffffff16565b61179c565b6107f9818686866040518060200160405280600081525060405180602001604052806000815250600061201e565b60019150509392505050565b60006012905090565b610816611794565b73ffffffffffffffffffffffffffffffffffffffff16610834610b1a565b73ffffffffffffffffffffffffffffffffffffffff16146108bd576040517f08c379a00000000000000000000000000000000000000000000000000000000081526004018080602001828103825260208152602001807f4f776e61626c653a2063616c6c6572206973206e6f7420746865206f776e657281525060200191505060405180910390fd5b6108d883838360405180602001604052806000815250612361565b505050565b60006001905090565b6108f76108f1611794565b8661107a565b61094c576040517f08c379a000000000000000000000000000000000000000000000000000000000815260040180806020018281038252602c8152602001806134b3602c913960400191505060405180910390fd5b61095b85858585856001612683565b5050505050565b60008060008373ffffffffffffffffffffffffffffffffffffffff1673ffffffffffffffffffffffffffffffffffffffff168152602001908152602001600020549050919050565b6109b2611794565b73ffffffffffffffffffffffffffffffffffffffff166109d0610b1a565b73ffffffffffffffffffffffffffffffffffffffff1614610a59576040517f08c379a00000000000000000000000000000000000000000000000000000000081526004018080602001828103825260208152602001807f4f776e61626c653a2063616c6c6572206973206e6f7420746865206f776e657281525060200191505060405180910390fd5b600073ffffffffffffffffffffffffffffffffffffffff16600960009054906101000a900473ffffffffffffffffffffffffffffffffffffffff1673ffffffffffffffffffffffffffffffffffffffff167f8be0079c531659141344cd1fd0a4f28419497f9722a3daafe3b4186f6b6457e060405160405180910390a36000600960006101000a81548173ffffffffffffffffffffffffffffffffffffffff021916908373ffffffffffffffffffffffffffffffffffffffff160217905550565b6000600960009054906101000a900473ffffffffffffffffffffffffffffffffffffffff16905090565b610b4c611794565b73ffffffffffffffffffffffffffffffffffffffff16610b6a610b1a565b73ffffffffffffffffffffffffffffffffffffffff1614610bf3576040517f08c379a00000000000000000000000000000000000000000000000000000000081526004018080602001828103825260208152602001807f4f776e61626c653a2063616c6c6572206973206e6f7420746865206f776e657281525060200191505060405180910390fd5b610c0e838383604051806020016040528060008152506127ec565b505050565b8073ffffffffffffffffffffffffffffffffffffffff16610c32611794565b73ffffffffffffffffffffffffffffffffffffffff161415610c9f576040517f08c379a00000000000000000000000000000000000000000000000000000000081526004018080602001828103825260248152602001806133fd6024913960400191505060405180910390fd5b600560008273ffffffffffffffffffffffffffffffffffffffff1673ffffffffffffffffffffffffffffffffffffffff16815260200190815260200160002060009054906101000a900460ff1615610d895760076000610cfd611794565b73ffffffffffffffffffffffffffffffffffffffff1673ffffffffffffffffffffffffffffffffffffffff16815260200190815260200160002060008273ffffffffffffffffffffffffffffffffffffffff1673ffffffffffffffffffffffffffffffffffffffff16815260200190815260200160002060006101000a81549060ff0219169055610e26565b600160066000610d97611794565b73ffffffffffffffffffffffffffffffffffffffff1673ffffffffffffffffffffffffffffffffffffffff16815260200190815260200160002060008373ffffffffffffffffffffffffffffffffffffffff1673ffffffffffffffffffffffffffffffffffffffff16815260200190815260200160002060006101000a81548160ff0219169083151502179055505b610e2e611794565b73ffffffffffffffffffffffffffffffffffffffff168173ffffffffffffffffffffffffffffffffffffffff167ff4caeb2d6ca8932a215a353d0703c326ec2d81fc68170f320eb2ab49e9df61f960405160405180910390a350565b606060038054600181600116156101000203166002900480601f016020809104026020016040519081016040528092919081815260200182805460018160011615610100020316600290048015610f225780601f10610ef757610100808354040283529160200191610f22565b820191906000526020600020905b815481529060010190602001808311610f0557829003601f168201915b5050505050905090565b610f51610f37611794565b848484604051806020016040528060008152506001612683565b505050565b60008073ffffffffffffffffffffffffffffffffffffffff168373ffffffffffffffffffffffffffffffffffffffff161415610fdd576040517f08c379a000000000000000000000000000000000000000000000000000000000815260040180806020018281038252602481526020018061348f6024913960400191505060405180910390fd5b6000610fe7611794565b9050611015818286866040518060200160405280600081525060405180602001604052806000815250611993565b611041818286866040518060200160405280600081525060405180602001604052806000815250611c55565b61106f818286866040518060200160405280600081525060405180602001604052806000815250600061201e565b600191505092915050565b60008173ffffffffffffffffffffffffffffffffffffffff168373ffffffffffffffffffffffffffffffffffffffff1614806111925750600560008473ffffffffffffffffffffffffffffffffffffffff1673ffffffffffffffffffffffffffffffffffffffff16815260200190815260200160002060009054906101000a900460ff1680156111915750600760008373ffffffffffffffffffffffffffffffffffffffff1673ffffffffffffffffffffffffffffffffffffffff16815260200190815260200160002060008473ffffffffffffffffffffffffffffffffffffffff1673ffffffffffffffffffffffffffffffffffffffff16815260200190815260200160002060009054906101000a900460ff16155b5b806112235750600660008373ffffffffffffffffffffffffffffffffffffffff1673ffffffffffffffffffffffffffffffffffffffff16815260200190815260200160002060008473ffffffffffffffffffffffffffffffffffffffff1673ffffffffffffffffffffffffffffffffffffffff16815260200190815260200160002060009054906101000a900460ff165b905092915050565b6000600860008473ffffffffffffffffffffffffffffffffffffffff1673ffffffffffffffffffffffffffffffffffffffff16815260200190815260200160002060008373ffffffffffffffffffffffffffffffffffffffff1673ffffffffffffffffffffffffffffffffffffffff16815260200190815260200160002054905092915050565b6112ba611794565b73ffffffffffffffffffffffffffffffffffffffff166112d8610b1a565b73ffffffffffffffffffffffffffffffffffffffff1614611361576040517f08c379a00000000000000000000000000000000000000000000000000000000081526004018080602001828103825260208152602001807f4f776e61626c653a2063616c6c6572206973206e6f7420746865206f776e657281525060200191505060405180910390fd5b600073ffffffffffffffffffffffffffffffffffffffff168173ffffffffffffffffffffffffffffffffffffffff1614156113e7576040517f08c379a00000000000000000000000000000000000000000000000000000000081526004018080602001828103825260268152602001806133b56026913960400191505060405180910390fd5b8073ffffffffffffffffffffffffffffffffffffffff16600960009054906101000a900473ffffffffffffffffffffffffffffffffffffffff1673ffffffffffffffffffffffffffffffffffffffff167f8be0079c531659141344cd1fd0a4f28419497f9722a3daafe3b4186f6b6457e060405160405180910390a380600960006101000a81548173ffffffffffffffffffffffffffffffffffffffff021916908373ffffffffffffffffffffffffffffffffffffffff16021790555050565b6114af611794565b73ffffffffffffffffffffffffffffffffffffffff168173ffffffffffffffffffffffffffffffffffffffff161415611533576040517f08c379a00000000000000000000000000000000000000000000000000000000081526004018080602001828103825260218152602001806134216021913960400191505060405180910390fd5b600560008273ffffffffffffffffffffffffffffffffffffffff1673ffffffffffffffffffffffffffffffffffffffff16815260200190815260200160002060009054906101000a900460ff161561162657600160076000611593611794565b73ffffffffffffffffffffffffffffffffffffffff1673ffffffffffffffffffffffffffffffffffffffff16815260200190815260200160002060008373ffffffffffffffffffffffffffffffffffffffff1673ffffffffffffffffffffffffffffffffffffffff16815260200190815260200160002060006101000a81548160ff0219169083151502179055506116ba565b60066000611632611794565b73ffffffffffffffffffffffffffffffffffffffff1673ffffffffffffffffffffffffffffffffffffffff16815260200190815260200160002060008273ffffffffffffffffffffffffffffffffffffffff1673ffffffffffffffffffffffffffffffffffffffff16815260200190815260200160002060006101000a81549060ff02191690555b6116c2611794565b73ffffffffffffffffffffffffffffffffffffffff168173ffffffffffffffffffffffffffffffffffffffff167f50546e66e5f44d728365dc3908c63bc5cfeeab470722c1677e3073a6ac294aa160405160405180910390a350565b6040517f08c379a000000000000000000000000000000000000000000000000000000000815260040161175090613162565b60405180910390fd5b6040517f08c379a000000000000000000000000000000000000000000000000000000000815260040161178b90613162565b60405180910390fd5b600033905090565b600073ffffffffffffffffffffffffffffffffffffffff168373ffffffffffffffffffffffffffffffffffffffff161415611822576040517f08c379a00000000000000000000000000000000000000000000000000000000081526004018080602001828103825260258152602001806133476025913960400191505060405180910390fd5b600073ffffffffffffffffffffffffffffffffffffffff168273ffffffffffffffffffffffffffffffffffffffff1614156118a8576040517f08c379a00000000000000000000000000000000000000000000000000000000081526004018080602001828103825260238152602001806135516023913960400191505060405180910390fd5b80600860008573ffffffffffffffffffffffffffffffffffffffff1673ffffffffffffffffffffffffffffffffffffffff16815260200190815260200160002060008473ffffffffffffffffffffffffffffffffffffffff1673ffffffffffffffffffffffffffffffffffffffff168152602001908152602001600020819055508173ffffffffffffffffffffffffffffffffffffffff168373ffffffffffffffffffffffffffffffffffffffff167f8c5be1e5ebec7d5bd14f71427d1e84f3dd0314c0f7b2291e5b200ac8c7c3b925836040518082815260200191505060405180910390a3505050565b6000731820a4b7618bde71dce8cdc73aab6c95905fad2473ffffffffffffffffffffffffffffffffffffffff1663aabbb8ca877f29ddb589b1fb5fc7cf394961c1adf5f8c6454761adf795e67fe149f658abe89560001b6040518363ffffffff1660e01b8152600401808373ffffffffffffffffffffffffffffffffffffffff1681526020018281526020019250505060206040518083038186803b158015611a3b57600080fd5b505afa158015611a4f573d6000803e3d6000fd5b505050506040513d6020811015611a6557600080fd5b81019080805190602001909291905050509050600073ffffffffffffffffffffffffffffffffffffffff168173ffffffffffffffffffffffffffffffffffffffff1614611c4c578073ffffffffffffffffffffffffffffffffffffffff166375ab97828888888888886040518763ffffffff1660e01b8152600401808773ffffffffffffffffffffffffffffffffffffffff1681526020018673ffffffffffffffffffffffffffffffffffffffff1681526020018573ffffffffffffffffffffffffffffffffffffffff1681526020018481526020018060200180602001838103835285818151815260200191508051906020019080838360005b83811015611b7b578082015181840152602081019050611b60565b50505050905090810190601f168015611ba85780820380516001836020036101000a031916815260200191505b50838103825284818151815260200191508051906020019080838360005b83811015611be1578082015181840152602081019050611bc6565b50505050905090810190601f168015611c0e5780820380516001836020036101000a031916815260200191505b5098505050505050505050600060405180830381600087803b158015611c3357600080fd5b505af1158015611c47573d6000803e3d6000fd5b505050505b50505050505050565b611c6186868686612b13565b611ccc8360405180606001604052806027815260200161338e602791396000808973ffffffffffffffffffffffffffffffffffffffff1673ffffffffffffffffffffffffffffffffffffffff16815260200190815260200160002054611f649092919063ffffffff16565b6000808773ffffffffffffffffffffffffffffffffffffffff1673ffffffffffffffffffffffffffffffffffffffff16815260200190815260200160002081905550611d5f836000808773ffffffffffffffffffffffffffffffffffffffff1673ffffffffffffffffffffffffffffffffffffffff16815260200190815260200160002054612b1990919063ffffffff16565b6000808673ffffffffffffffffffffffffffffffffffffffff1673ffffffffffffffffffffffffffffffffffffffff168152602001908152602001600020819055508373ffffffffffffffffffffffffffffffffffffffff168573ffffffffffffffffffffffffffffffffffffffff168773ffffffffffffffffffffffffffffffffffffffff167f06b541ddaa720db2b10a4d0cdac39b8d360425fc073085fac19bc82614677987868686604051808481526020018060200180602001838103835285818151815260200191508051906020019080838360005b83811015611e54578082015181840152602081019050611e39565b50505050905090810190601f168015611e815780820380516001836020036101000a031916815260200191505b50838103825284818151815260200191508051906020019080838360005b83811015611eba578082015181840152602081019050611e9f565b50505050905090810190601f168015611ee75780820380516001836020036101000a031916815260200191505b509550505050505060405180910390a48373ffffffffffffffffffffffffffffffffffffffff168573ffffffffffffffffffffffffffffffffffffffff167fddf252ad1be2c89b69c2b068fc378daa952ba7f163c4a11628f55a4df523b3ef856040518082815260200191505060405180910390a3505050505050565b6000838311158290612011576040517f08c379a00000000000000000000000000000000000000000000000000000000081526004018080602001828103825283818151815260200191508051906020019080838360005b83811015611fd6578082015181840152602081019050611fbb565b50505050905090810190601f1680156120035780820380516001836020036101000a031916815260200191505b509250505060405180910390fd5b5082840390509392505050565b6000731820a4b7618bde71dce8cdc73aab6c95905fad2473ffffffffffffffffffffffffffffffffffffffff1663aabbb8ca877fb281fc8c12954d22544db45de3159a39272895b169a852b314f9cc762e44c53b60001b6040518363ffffffff1660e01b8152600401808373ffffffffffffffffffffffffffffffffffffffff1681526020018281526020019250505060206040518083038186803b1580156120c657600080fd5b505afa1580156120da573d6000803e3d6000fd5b505050506040513d60208110156120f057600080fd5b81019080805190602001909291905050509050600073ffffffffffffffffffffffffffffffffffffffff168173ffffffffffffffffffffffffffffffffffffffff16146122da578073ffffffffffffffffffffffffffffffffffffffff166223de298989898989896040518763ffffffff1660e01b8152600401808773ffffffffffffffffffffffffffffffffffffffff1681526020018673ffffffffffffffffffffffffffffffffffffffff1681526020018573ffffffffffffffffffffffffffffffffffffffff1681526020018481526020018060200180602001838103835285818151815260200191508051906020019080838360005b838110156122055780820151818401526020810190506121ea565b50505050905090810190601f1680156122325780820380516001836020036101000a031916815260200191505b50838103825284818151815260200191508051906020019080838360005b8381101561226b578082015181840152602081019050612250565b50505050905090810190601f1680156122985780820380516001836020036101000a031916815260200191505b5098505050505050505050600060405180830381600087803b1580156122bd57600080fd5b505af11580156122d1573d6000803e3d6000fd5b50505050612357565b8115612356576122ff8673ffffffffffffffffffffffffffffffffffffffff16612ba1565b15612355576040517f08c379a000000000000000000000000000000000000000000000000000000000815260040180806020018281038252604d815260200180613442604d913960600191505060405180910390fd5b5b5b5050505050505050565b600073ffffffffffffffffffffffffffffffffffffffff168473ffffffffffffffffffffffffffffffffffffffff1614156123e7576040517f08c379a00000000000000000000000000000000000000000000000000000000081526004018080602001828103825260228152602001806133db6022913960400191505060405180910390fd5b60006123f1611794565b905061240281866000878787611993565b61240f8186600087612b13565b61247a8460405180606001604052806023815260200161352e602391396000808973ffffffffffffffffffffffffffffffffffffffff1673ffffffffffffffffffffffffffffffffffffffff16815260200190815260200160002054611f649092919063ffffffff16565b6000808773ffffffffffffffffffffffffffffffffffffffff1673ffffffffffffffffffffffffffffffffffffffff168152602001908152602001600020819055506124d184600154612bb490919063ffffffff16565b6001819055508473ffffffffffffffffffffffffffffffffffffffff168173ffffffffffffffffffffffffffffffffffffffff167fa78a9be3a7b862d26933ad85fb11d80ef66b8f972d7cbba06621d583943a4098868686604051808481526020018060200180602001838103835285818151815260200191508051906020019080838360005b83811015612573578082015181840152602081019050612558565b50505050905090810190601f1680156125a05780820380516001836020036101000a031916815260200191505b50838103825284818151815260200191508051906020019080838360005b838110156125d95780820151818401526020810190506125be565b50505050905090810190601f1680156126065780820380516001836020036101000a031916815260200191505b509550505050505060405180910390a3600073ffffffffffffffffffffffffffffffffffffffff168573ffffffffffffffffffffffffffffffffffffffff167fddf252ad1be2c89b69c2b068fc378daa952ba7f163c4a11628f55a4df523b3ef866040518082815260200191505060405180910390a35050505050565b600073ffffffffffffffffffffffffffffffffffffffff168673ffffffffffffffffffffffffffffffffffffffff161415612709576040517f08c379a000000000000000000000000000000000000000000000000000000000815260040180806020018281038252602281526020018061336c6022913960400191505060405180910390fd5b600073ffffffffffffffffffffffffffffffffffffffff168573ffffffffffffffffffffffffffffffffffffffff1614156127ac576040517f08c379a00000000000000000000000000000000000000000000000000000000081526004018080602001828103825260208152602001807f4552433737373a2073656e6420746f20746865207a65726f206164647265737381525060200191505060405180910390fd5b60006127b6611794565b90506127c6818888888888611993565b6127d4818888888888611c55565b6127e38188888888888861201e565b50505050505050565b600073ffffffffffffffffffffffffffffffffffffffff168473ffffffffffffffffffffffffffffffffffffffff16141561288f576040517f08c379a00000000000000000000000000000000000000000000000000000000081526004018080602001828103825260208152602001807f4552433737373a206d696e7420746f20746865207a65726f206164647265737381525060200191505060405180910390fd5b6000612899611794565b90506128a88160008787612b13565b6128bd84600154612b1990919063ffffffff16565b600181905550612914846000808873ffffffffffffffffffffffffffffffffffffffff1673ffffffffffffffffffffffffffffffffffffffff16815260200190815260200160002054612b1990919063ffffffff16565b6000808773ffffffffffffffffffffffffffffffffffffffff1673ffffffffffffffffffffffffffffffffffffffff1681526020019081526020016000208190555061296781600087878787600161201e565b8473ffffffffffffffffffffffffffffffffffffffff168173ffffffffffffffffffffffffffffffffffffffff167f2fe5be0146f74c5bce36c0b80911af6c7d86ff27e89d5cfa61fc681327954e5d868686604051808481526020018060200180602001838103835285818151815260200191508051906020019080838360005b83811015612a035780820151818401526020810190506129e8565b50505050905090810190601f168015612a305780820380516001836020036101000a031916815260200191505b50838103825284818151815260200191508051906020019080838360005b83811015612a69578082015181840152602081019050612a4e565b50505050905090810190601f168015612a965780820380516001836020036101000a031916815260200191505b509550505050505060405180910390a38473ffffffffffffffffffffffffffffffffffffffff16600073ffffffffffffffffffffffffffffffffffffffff167fddf252ad1be2c89b69c2b068fc378daa952ba7f163c4a11628f55a4df523b3ef866040518082815260200191505060405180910390a35050505050565b50505050565b600080828401905083811015612b97576040517f08c379a000000000000000000000000000000000000000000000000000000000815260040180806020018281038252601b8152602001807f536166654d6174683a206164646974696f6e206f766572666c6f77000000000081525060200191505060405180910390fd5b8091505092915050565b600080823b905060008111915050919050565b600082821115612c2c576040517f08c379a000000000000000000000000000000000000000000000000000000000815260040180806020018281038252601e8152602001807f536166654d6174683a207375627472616374696f6e206f766572666c6f77000081525060200191505060405180910390fd5b818303905092915050565b6000612c4a612c45846131e9565b6131b8565b905082815260208101848484011115612c6257600080fd5b612c6d8482856132c3565b509392505050565b600081359050612c8481613318565b92915050565b600082601f830112612c9b57600080fd5b8135612cab848260208601612c37565b91505092915050565b600081359050612cc38161332f565b92915050565b600060208284031215612cdb57600080fd5b6000612ce984828501612c75565b91505092915050565b60008060408385031215612d0557600080fd5b6000612d1385828601612c75565b9250506020612d2485828601612c75565b9150509250929050565b600080600060608486031215612d4357600080fd5b6000612d5186828701612c75565b9350506020612d6286828701612c75565b9250506040612d7386828701612cb4565b9150509250925092565b600080600080600060a08688031215612d9557600080fd5b6000612da388828901612c75565b9550506020612db488828901612c75565b9450506040612dc588828901612cb4565b935050606086013567ffffffffffffffff811115612de257600080fd5b612dee88828901612c8a565b925050608086013567ffffffffffffffff811115612e0b57600080fd5b612e1788828901612c8a565b9150509295509295909350565b60008060408385031215612e3757600080fd5b6000612e4585828601612c75565b9250506020612e5685828601612cb4565b9150509250929050565b600080600060608486031215612e7557600080fd5b6000612e8386828701612c75565b9350506020612e9486828701612cb4565b925050604084013567ffffffffffffffff811115612eb157600080fd5b612ebd86828701612c8a565b9150509250925092565b60008060008060808587031215612edd57600080fd5b6000612eeb87828801612c75565b9450506020612efc87828801612cb4565b935050604085013567ffffffffffffffff811115612f1957600080fd5b612f2587828801612c8a565b925050606085013567ffffffffffffffff811115612f4257600080fd5b612f4e87828801612c8a565b91505092959194509250565b60008060408385031215612f6d57600080fd5b6000612f7b85828601612cb4565b925050602083013567ffffffffffffffff811115612f9857600080fd5b612fa485828601612c8a565b9150509250929050565b6000612fba8383612fc6565b60208301905092915050565b612fcf8161326e565b82525050565b612fde8161326e565b82525050565b6000612fef82613229565b612ff9818561324c565b935061300483613219565b8060005b8381101561303557815161301c8882612fae565b97506130278361323f565b925050600181019050613008565b5085935050505092915050565b61304b81613280565b82525050565b600061305c82613234565b613066818561325d565b93506130768185602086016132d2565b61307f81613307565b840191505092915050565b6000613097600d8361325d565b91507f6e6f742d737570706f72746564000000000000000000000000000000000000006000830152602082019050919050565b6130d3816132ac565b82525050565b6130e2816132b6565b82525050565b60006020820190506130fd6000830184612fd5565b92915050565b6000602082019050818103600083015261311d8184612fe4565b905092915050565b600060208201905061313a6000830184613042565b92915050565b6000602082019050818103600083015261315a8184613051565b905092915050565b6000602082019050818103600083015261317b8161308a565b9050919050565b600060208201905061319760008301846130ca565b92915050565b60006020820190506131b260008301846130d9565b92915050565b6000604051905081810181811067ffffffffffffffff821117156131df576131de613305565b5b8060405250919050565b600067ffffffffffffffff82111561320457613203613305565b5b601f19601f8301169050602081019050919050565b6000819050602082019050919050565b600081519050919050565b600081519050919050565b6000602082019050919050565b600082825260208201905092915050565b600082825260208201905092915050565b60006132798261328c565b9050919050565b60008115159050919050565b600073ffffffffffffffffffffffffffffffffffffffff82169050919050565b6000819050919050565b600060ff82169050919050565b82818337600083830152505050565b60005b838110156132f05780820151818401526020810190506132d5565b838111156132ff576000848401525b50505050565bfe5b6000601f19601f8301169050919050565b6133218161326e565b811461332c57600080fd5b50565b613338816132ac565b811461334357600080fd5b5056fe4552433737373a20617070726f76652066726f6d20746865207a65726f20616464726573734552433737373a2073656e642066726f6d20746865207a65726f20616464726573734552433737373a207472616e7366657220616d6f756e7420657863656564732062616c616e63654f776e61626c653a206e6577206f776e657220697320746865207a65726f20616464726573734552433737373a206275726e2066726f6d20746865207a65726f20616464726573734552433737373a20617574686f72697a696e672073656c66206173206f70657261746f724552433737373a207265766f6b696e672073656c66206173206f70657261746f724552433737373a20746f6b656e20726563697069656e7420636f6e747261637420686173206e6f20696d706c656d656e74657220666f7220455243373737546f6b656e73526563697069656e744552433737373a207472616e7366657220746f20746865207a65726f20616464726573734552433737373a2063616c6c6572206973206e6f7420616e206f70657261746f7220666f7220686f6c6465724552433737373a207472616e7366657220616d6f756e74206578636565647320616c6c6f77616e63654552433737373a207472616e736665722066726f6d20746865207a65726f20616464726573734552433737373a206275726e20616d6f756e7420657863656564732062616c616e63654552433737373a20617070726f766520746f20746865207a65726f2061646472657373a2646970667358221220ddaf0a1331a9a7e0febd3d7e9074e45ed2073e70beb9a9f475178fbd71055fae64736f6c63430007060033",
  "immutableReferences": {},
  "source": "// SPDX-License-Identifier: MIT\npragma solidity >=0.7.6;\npragma experimental ABIEncoderV2;\n\nimport \"@openzeppelin/contracts/access/AccessControl.sol\";\nimport \"./WrappedToken.sol\";\nimport \"./ScaleCodec.sol\";\nimport \"./OutboundChannel.sol\";\nimport \"./FeeSource.sol\";\n\nenum ChannelId {Basic, Incentivized}\n\ncontract DOTApp is FeeSource, AccessControl {\n    using ScaleCodec for uint256;\n\n    mapping(ChannelId => Channel) public channels;\n\n    bytes2 constant UNLOCK_CALL = 0x0e01;\n\n    WrappedToken public token;\n\n    bytes32 public constant FEE_BURNER_ROLE = keccak256(\"FEE_BURNER_ROLE\");\n\n    struct Channel {\n        address inbound;\n        address outbound;\n    }\n\n    constructor(\n        string memory _name,\n        string memory _symbol,\n        address feeBurner,\n        Channel memory _basic,\n        Channel memory _incentivized\n    ) {\n        address[] memory defaultOperators;\n        token = new WrappedToken(_name, _symbol, defaultOperators);\n\n        Channel storage c1 = channels[ChannelId.Basic];\n        c1.inbound = _basic.inbound;\n        c1.outbound = _basic.outbound;\n\n        Channel storage c2 = channels[ChannelId.Incentivized];\n        c2.inbound = _incentivized.inbound;\n        c2.outbound = _incentivized.outbound;\n\n        _setupRole(FEE_BURNER_ROLE, feeBurner);\n    }\n\n    function burn(bytes32 _recipient, uint256 _amount, ChannelId _channelId) external {\n        require(\n            _channelId == ChannelId.Basic ||\n            _channelId == ChannelId.Incentivized,\n            \"Invalid channel ID\"\n        );\n        token.burn(msg.sender, _amount, abi.encodePacked(_recipient));\n\n        OutboundChannel channel = OutboundChannel(channels[_channelId].outbound);\n\n        bytes memory call = encodeCall(msg.sender, _recipient, _amount);\n        channel.submit(msg.sender, call);\n    }\n\n    function mint(bytes32 _sender, address _recipient, uint256 _amount) external {\n        // TODO: Ensure message sender is a known inbound channel\n        token.mint(_recipient, _amount, abi.encodePacked(_sender));\n    }\n\n    // Incentivized channel calls this to charge (burn) fees\n    function burnFee(address feePayer, uint256 _amount) external override {\n        require(hasRole(FEE_BURNER_ROLE, msg.sender), \"Caller is unauthorized\");\n        token.burn(feePayer, _amount, \"\");\n    }\n\n    function encodeCall(address _sender, bytes32 _recipient, uint256 _amount)\n        private\n        pure\n        returns (bytes memory)\n    {\n        return\n            abi.encodePacked(\n                UNLOCK_CALL,\n                _sender,\n                byte(0x00), // Encoding recipient as MultiAddress::Id\n                _recipient,\n                _amount.encode256()\n            );\n    }\n\n}\n",
  "sourcePath": "/home/jamie/dev/crypto/snowfork/polkadot-ethereum/ethereum/contracts/DOTApp.sol",
  "compiler": {
    "name": "solc",
    "version": "0.7.6+commit.7338295f.Emscripten.clang"
  },
  "schemaVersion": "3.2.5",
  "updatedAt": "2021-04-08T14:21:04.485Z",
  "networkType": "ethereum",
  "devdoc": {
    "kind": "dev",
    "methods": {
      "getRoleAdmin(bytes32)": {
        "details": "Returns the admin role that controls `role`. See {grantRole} and {revokeRole}. To change a role's admin, use {_setRoleAdmin}."
      },
      "getRoleMember(bytes32,uint256)": {
        "details": "Returns one of the accounts that have `role`. `index` must be a value between 0 and {getRoleMemberCount}, non-inclusive. Role bearers are not sorted in any particular way, and their ordering may change at any point. WARNING: When using {getRoleMember} and {getRoleMemberCount}, make sure you perform all queries on the same block. See the following https://forum.openzeppelin.com/t/iterating-over-elements-on-enumerableset-in-openzeppelin-contracts/2296[forum post] for more information."
      },
      "getRoleMemberCount(bytes32)": {
        "details": "Returns the number of accounts that have `role`. Can be used together with {getRoleMember} to enumerate all bearers of a role."
      },
      "grantRole(bytes32,address)": {
        "details": "Grants `role` to `account`. If `account` had not been already granted `role`, emits a {RoleGranted} event. Requirements: - the caller must have ``role``'s admin role."
      },
      "hasRole(bytes32,address)": {
        "details": "Returns `true` if `account` has been granted `role`."
      },
      "renounceRole(bytes32,address)": {
        "details": "Revokes `role` from the calling account. Roles are often managed via {grantRole} and {revokeRole}: this function's purpose is to provide a mechanism for accounts to lose their privileges if they are compromised (such as when a trusted device is misplaced). If the calling account had been granted `role`, emits a {RoleRevoked} event. Requirements: - the caller must be `account`."
      },
      "revokeRole(bytes32,address)": {
        "details": "Revokes `role` from `account`. If `account` had been granted `role`, emits a {RoleRevoked} event. Requirements: - the caller must have ``role``'s admin role."
      }
    },
    "version": 1
  },
  "userdoc": {
    "kind": "user",
    "methods": {},
    "version": 1
  }
}