{
  "_format": "hh-sol-artifact-1",
  "contractName": "DOTApp",
  "sourceName": "contracts/DOTApp.sol",
  "abi": [
    {
      "inputs": [
        {
          "internalType": "string",
          "name": "_name",
          "type": "string"
        },
        {
          "internalType": "string",
          "name": "_symbol",
          "type": "string"
        },
        {
          "internalType": "address",
          "name": "feeBurner",
          "type": "address"
        },
        {
          "components": [
            {
              "internalType": "address",
              "name": "inbound",
              "type": "address"
            },
            {
              "internalType": "address",
              "name": "outbound",
              "type": "address"
            }
          ],
          "internalType": "struct DOTApp.Channel",
          "name": "_basic",
          "type": "tuple"
        },
        {
          "components": [
            {
              "internalType": "address",
              "name": "inbound",
              "type": "address"
            },
            {
              "internalType": "address",
              "name": "outbound",
              "type": "address"
            }
          ],
          "internalType": "struct DOTApp.Channel",
          "name": "_incentivized",
          "type": "tuple"
        }
      ],
      "stateMutability": "nonpayable",
      "type": "constructor"
    },
    {
      "anonymous": false,
      "inputs": [
        {
          "indexed": true,
          "internalType": "bytes32",
          "name": "role",
          "type": "bytes32"
        },
        {
          "indexed": true,
          "internalType": "bytes32",
          "name": "previousAdminRole",
          "type": "bytes32"
        },
        {
          "indexed": true,
          "internalType": "bytes32",
          "name": "newAdminRole",
          "type": "bytes32"
        }
      ],
      "name": "RoleAdminChanged",
      "type": "event"
    },
    {
      "anonymous": false,
      "inputs": [
        {
          "indexed": true,
          "internalType": "bytes32",
          "name": "role",
          "type": "bytes32"
        },
        {
          "indexed": true,
          "internalType": "address",
          "name": "account",
          "type": "address"
        },
        {
          "indexed": true,
          "internalType": "address",
          "name": "sender",
          "type": "address"
        }
      ],
      "name": "RoleGranted",
      "type": "event"
    },
    {
      "anonymous": false,
      "inputs": [
        {
          "indexed": true,
          "internalType": "bytes32",
          "name": "role",
          "type": "bytes32"
        },
        {
          "indexed": true,
          "internalType": "address",
          "name": "account",
          "type": "address"
        },
        {
          "indexed": true,
          "internalType": "address",
          "name": "sender",
          "type": "address"
        }
      ],
      "name": "RoleRevoked",
      "type": "event"
    },
    {
      "inputs": [],
      "name": "DEFAULT_ADMIN_ROLE",
      "outputs": [
        {
          "internalType": "bytes32",
          "name": "",
          "type": "bytes32"
        }
      ],
      "stateMutability": "view",
      "type": "function"
    },
    {
      "inputs": [],
      "name": "FEE_BURNER_ROLE",
      "outputs": [
        {
          "internalType": "bytes32",
          "name": "",
          "type": "bytes32"
        }
      ],
      "stateMutability": "view",
      "type": "function"
    },
    {
      "inputs": [],
      "name": "INBOUND_CHANNEL_ROLE",
      "outputs": [
        {
          "internalType": "bytes32",
          "name": "",
          "type": "bytes32"
        }
      ],
      "stateMutability": "view",
      "type": "function"
    },
    {
      "inputs": [
        {
          "internalType": "bytes32",
          "name": "_recipient",
          "type": "bytes32"
        },
        {
          "internalType": "uint256",
          "name": "_amount",
          "type": "uint256"
        },
        {
          "internalType": "enum ChannelId",
          "name": "_channelId",
          "type": "uint8"
        }
      ],
      "name": "burn",
      "outputs": [],
      "stateMutability": "nonpayable",
      "type": "function"
    },
    {
      "inputs": [
        {
          "internalType": "address",
          "name": "feePayer",
          "type": "address"
        },
        {
          "internalType": "uint256",
          "name": "_amount",
          "type": "uint256"
        }
      ],
      "name": "burnFee",
      "outputs": [],
      "stateMutability": "nonpayable",
      "type": "function"
    },
    {
      "inputs": [
        {
          "internalType": "enum ChannelId",
          "name": "",
          "type": "uint8"
        }
      ],
      "name": "channels",
      "outputs": [
        {
          "internalType": "address",
          "name": "inbound",
          "type": "address"
        },
        {
          "internalType": "address",
          "name": "outbound",
          "type": "address"
        }
      ],
      "stateMutability": "view",
      "type": "function"
    },
    {
      "inputs": [
        {
          "internalType": "bytes32",
          "name": "role",
          "type": "bytes32"
        }
      ],
      "name": "getRoleAdmin",
      "outputs": [
        {
          "internalType": "bytes32",
          "name": "",
          "type": "bytes32"
        }
      ],
      "stateMutability": "view",
      "type": "function"
    },
    {
      "inputs": [
        {
          "internalType": "bytes32",
          "name": "role",
          "type": "bytes32"
        },
        {
          "internalType": "address",
          "name": "account",
          "type": "address"
        }
      ],
      "name": "grantRole",
      "outputs": [],
      "stateMutability": "nonpayable",
      "type": "function"
    },
    {
      "inputs": [
        {
          "internalType": "bytes32",
          "name": "role",
          "type": "bytes32"
        },
        {
          "internalType": "address",
          "name": "account",
          "type": "address"
        }
      ],
      "name": "hasRole",
      "outputs": [
        {
          "internalType": "bool",
          "name": "",
          "type": "bool"
        }
      ],
      "stateMutability": "view",
      "type": "function"
    },
    {
      "inputs": [
        {
          "internalType": "bytes32",
          "name": "_sender",
          "type": "bytes32"
        },
        {
          "internalType": "address",
          "name": "_recipient",
          "type": "address"
        },
        {
          "internalType": "uint256",
          "name": "_amount",
          "type": "uint256"
        }
      ],
      "name": "mint",
      "outputs": [],
      "stateMutability": "nonpayable",
      "type": "function"
    },
    {
      "inputs": [
        {
          "internalType": "bytes32",
          "name": "role",
          "type": "bytes32"
        },
        {
          "internalType": "address",
          "name": "account",
          "type": "address"
        }
      ],
      "name": "renounceRole",
      "outputs": [],
      "stateMutability": "nonpayable",
      "type": "function"
    },
    {
      "inputs": [
        {
          "internalType": "bytes32",
          "name": "role",
          "type": "bytes32"
        },
        {
          "internalType": "address",
          "name": "account",
          "type": "address"
        }
      ],
      "name": "revokeRole",
      "outputs": [],
      "stateMutability": "nonpayable",
      "type": "function"
    },
    {
      "inputs": [
        {
          "internalType": "bytes4",
          "name": "interfaceId",
          "type": "bytes4"
        }
      ],
      "name": "supportsInterface",
      "outputs": [
        {
          "internalType": "bool",
          "name": "",
          "type": "bool"
        }
      ],
      "stateMutability": "view",
      "type": "function"
    },
    {
      "inputs": [],
      "name": "token",
      "outputs": [
        {
          "internalType": "contract WrappedToken",
          "name": "",
          "type": "address"
        }
      ],
      "stateMutability": "view",
      "type": "function"
    }
  ],
  "bytecode": "0x60806040523480156200001157600080fd5b506040516200667e3803806200667e833981810160405281019062000037919062000575565b60608585826040516200004a9062000479565b620000589392919062000711565b604051809103906000f08015801562000075573d6000803e3d6000fd5b50600260006101000a81548173ffffffffffffffffffffffffffffffffffffffff021916908373ffffffffffffffffffffffffffffffffffffffff160217905550600060016000806001811115620000d257620000d1620008b7565b5b6001811115620000e757620000e6620008b7565b5b8152602001908152602001600020905083600001518160000160006101000a81548173ffffffffffffffffffffffffffffffffffffffff021916908373ffffffffffffffffffffffffffffffffffffffff16021790555083602001518160010160006101000a81548173ffffffffffffffffffffffffffffffffffffffff021916908373ffffffffffffffffffffffffffffffffffffffff160217905550600060016000600180811115620001a157620001a0620008b7565b5b6001811115620001b657620001b5620008b7565b5b8152602001908152602001600020905083600001518160000160006101000a81548173ffffffffffffffffffffffffffffffffffffffff021916908373ffffffffffffffffffffffffffffffffffffffff16021790555083602001518160010160006101000a81548173ffffffffffffffffffffffffffffffffffffffff021916908373ffffffffffffffffffffffffffffffffffffffff160217905550620002867fffe71d6904653823f16901502129e7da73d4958bc25aad6e8555aa3d6ac73b97876200030060201b60201c565b620002bc7ff857e99667b61d9feb64d6cb140ba8a8ba3501d58a4940223c8e74c45932fbf486600001516200030060201b60201c565b620002f27ff857e99667b61d9feb64d6cb140ba8a8ba3501d58a4940223c8e74c45932fbf485600001516200030060201b60201c565b505050505050505062000959565b6200031282826200031660201b60201c565b5050565b6200032882826200040760201b60201c565b6200040357600160008084815260200190815260200160002060000160008373ffffffffffffffffffffffffffffffffffffffff1673ffffffffffffffffffffffffffffffffffffffff16815260200190815260200160002060006101000a81548160ff021916908315150217905550620003a86200047160201b60201c565b73ffffffffffffffffffffffffffffffffffffffff168173ffffffffffffffffffffffffffffffffffffffff16837f2f8788117e7eff1d82e926ec794901d17c78024a50270940304540a733656f0d60405160405180910390a45b5050565b600080600084815260200190815260200160002060000160008373ffffffffffffffffffffffffffffffffffffffff1673ffffffffffffffffffffffffffffffffffffffff16815260200190815260200160002060009054906101000a900460ff16905092915050565b600033905090565b6140b080620025ce83390190565b60006200049e62000498846200078c565b62000763565b905082815260208101848484011115620004bd57620004bc6200091f565b5b620004ca8482856200084b565b509392505050565b600081519050620004e3816200093f565b92915050565b600082601f83011262000501576200050062000915565b5b81516200051384826020860162000487565b91505092915050565b6000604082840312156200053557620005346200091a565b5b62000541604062000763565b905060006200055384828501620004d2565b60008301525060206200056984828501620004d2565b60208301525092915050565b600080600080600060e0868803121562000594576200059362000929565b5b600086015167ffffffffffffffff811115620005b557620005b462000924565b5b620005c388828901620004e9565b955050602086015167ffffffffffffffff811115620005e757620005e662000924565b5b620005f588828901620004e9565b94505060406200060888828901620004d2565b93505060606200061b888289016200051c565b92505060a06200062e888289016200051c565b9150509295509295909350565b600062000649838362000655565b60208301905092915050565b620006608162000817565b82525050565b60006200067382620007d2565b6200067f8185620007f5565b93506200068c83620007c2565b8060005b83811015620006c3578151620006a788826200063b565b9750620006b483620007e8565b92505060018101905062000690565b5085935050505092915050565b6000620006dd82620007dd565b620006e9818562000806565b9350620006fb8185602086016200084b565b62000706816200092e565b840191505092915050565b600060608201905081810360008301526200072d8186620006d0565b90508181036020830152620007438185620006d0565b9050818103604083015262000759818462000666565b9050949350505050565b60006200076f62000782565b90506200077d828262000881565b919050565b6000604051905090565b600067ffffffffffffffff821115620007aa57620007a9620008e6565b5b620007b5826200092e565b9050602081019050919050565b6000819050602082019050919050565b600081519050919050565b600081519050919050565b6000602082019050919050565b600082825260208201905092915050565b600082825260208201905092915050565b600062000824826200082b565b9050919050565b600073ffffffffffffffffffffffffffffffffffffffff82169050919050565b60005b838110156200086b5780820151818401526020810190506200084e565b838111156200087b576000848401525b50505050565b6200088c826200092e565b810181811067ffffffffffffffff82111715620008ae57620008ad620008e6565b5b80604052505050565b7f4e487b7100000000000000000000000000000000000000000000000000000000600052602160045260246000fd5b7f4e487b7100000000000000000000000000000000000000000000000000000000600052604160045260246000fd5b600080fd5b600080fd5b600080fd5b600080fd5b600080fd5b6000601f19601f8301169050919050565b6200094a8162000817565b81146200095657600080fd5b50565b611c6580620009696000396000f3fe608060405234801561001057600080fd5b50600436106100ea5760003560e01c806391d148541161008c578063ccd3413211610066578063ccd3413214610247578063d547741f14610278578063efd8920d14610294578063fc0c546a146102b2576100ea565b806391d14854146101db578063a217fddf1461020b578063bc0c22a714610229576100ea565b8063248a9ca3116100c8578063248a9ca3146101575780632f2ff15d1461018757806336568abe146101a35780637ed9db59146101bf576100ea565b806301ffc9a7146100ef5780630c86269f1461011f578063146bf1951461013b575b600080fd5b61010960048036038101906101049190611190565b6102d0565b60405161011691906115e2565b60405180910390f35b61013960048036038101906101349190611010565b61034a565b005b6101556004803603810190610150919061113d565b610446565b005b610171600480360381019061016c9190611050565b61066d565b60405161017e91906115fd565b60405180910390f35b6101a1600480360381019061019c91906110aa565b61068c565b005b6101bd60048036038101906101b891906110aa565b6106b5565b005b6101d960048036038101906101d491906110ea565b610738565b005b6101f560048036038101906101f091906110aa565b610856565b60405161020291906115e2565b60405180910390f35b6102136108c0565b60405161022091906115fd565b60405180910390f35b6102316108c7565b60405161023e91906115fd565b60405180910390f35b610261600480360381019061025c91906111bd565b6108eb565b60405161026f92919061150f565b60405180910390f35b610292600480360381019061028d91906110aa565b61094f565b005b61029c610978565b6040516102a991906115fd565b60405180910390f35b6102ba61099c565b6040516102c79190611618565b60405180910390f35b60007f7965db0b000000000000000000000000000000000000000000000000000000007bffffffffffffffffffffffffffffffffffffffffffffffffffffffff1916827bffffffffffffffffffffffffffffffffffffffffffffffffffffffff191614806103435750610342826109c2565b5b9050919050565b6103747fffe71d6904653823f16901502129e7da73d4958bc25aad6e8555aa3d6ac73b9733610856565b6103b3576040517f08c379a00000000000000000000000000000000000000000000000000000000081526004016103aa90611695565b60405180910390fd5b600260009054906101000a900473ffffffffffffffffffffffffffffffffffffffff1673ffffffffffffffffffffffffffffffffffffffff166344d1718783836040518363ffffffff1660e01b81526004016104109291906115a6565b600060405180830381600087803b15801561042a57600080fd5b505af115801561043e573d6000803e3d6000fd5b505050505050565b6000600181111561045a576104596119cb565b5b81600181111561046d5761046c6119cb565b5b148061049c5750600180811115610487576104866119cb565b5b81600181111561049a576104996119cb565b5b145b6104db576040517f08c379a00000000000000000000000000000000000000000000000000000000081526004016104d2906116b5565b60405180910390fd5b600260009054906101000a900473ffffffffffffffffffffffffffffffffffffffff1673ffffffffffffffffffffffffffffffffffffffff166344d1718733848660405160200161052c91906114ba565b6040516020818303038152906040526040518463ffffffff1660e01b815260040161055993929190611568565b600060405180830381600087803b15801561057357600080fd5b505af1158015610587573d6000803e3d6000fd5b505050506000600160008360018111156105a4576105a36119cb565b5b60018111156105b6576105b56119cb565b5b815260200190815260200160002060010160009054906101000a900473ffffffffffffffffffffffffffffffffffffffff16905060006105f7338686610a2c565b90508173ffffffffffffffffffffffffffffffffffffffff166376846edd33836040518363ffffffff1660e01b8152600401610634929190611538565b600060405180830381600087803b15801561064e57600080fd5b505af1158015610662573d6000803e3d6000fd5b505050505050505050565b6000806000838152602001908152602001600020600101549050919050565b6106958261066d565b6106a6816106a1610af0565b610af8565b6106b08383610b95565b505050565b6106bd610af0565b73ffffffffffffffffffffffffffffffffffffffff168173ffffffffffffffffffffffffffffffffffffffff161461072a576040517f08c379a0000000000000000000000000000000000000000000000000000000008152600401610721906116d5565b60405180910390fd5b6107348282610c75565b5050565b6107627ff857e99667b61d9feb64d6cb140ba8a8ba3501d58a4940223c8e74c45932fbf433610856565b6107a1576040517f08c379a000000000000000000000000000000000000000000000000000000000815260040161079890611675565b60405180910390fd5b600260009054906101000a900473ffffffffffffffffffffffffffffffffffffffff1673ffffffffffffffffffffffffffffffffffffffff166394d008ef8383866040516020016107f291906114ba565b6040516020818303038152906040526040518463ffffffff1660e01b815260040161081f93929190611568565b600060405180830381600087803b15801561083957600080fd5b505af115801561084d573d6000803e3d6000fd5b50505050505050565b600080600084815260200190815260200160002060000160008373ffffffffffffffffffffffffffffffffffffffff1673ffffffffffffffffffffffffffffffffffffffff16815260200190815260200160002060009054906101000a900460ff16905092915050565b6000801b81565b7ff857e99667b61d9feb64d6cb140ba8a8ba3501d58a4940223c8e74c45932fbf481565b60016020528060005260406000206000915090508060000160009054906101000a900473ffffffffffffffffffffffffffffffffffffffff16908060010160009054906101000a900473ffffffffffffffffffffffffffffffffffffffff16905082565b6109588261066d565b61096981610964610af0565b610af8565b6109738383610c75565b505050565b7fffe71d6904653823f16901502129e7da73d4958bc25aad6e8555aa3d6ac73b9781565b600260009054906101000a900473ffffffffffffffffffffffffffffffffffffffff1681565b60007f01ffc9a7000000000000000000000000000000000000000000000000000000007bffffffffffffffffffffffffffffffffffffffffffffffffffffffff1916827bffffffffffffffffffffffffffffffffffffffffffffffffffffffff1916149050919050565b606061400160f01b84600060f81b858573__$7cdc5241ea8d29c91205423c213999ecf3$__63dfd47e0e90916040518263ffffffff1660e01b8152600401610a7491906116f5565b60206040518083038186803b158015610a8c57600080fd5b505af4158015610aa0573d6000803e3d6000fd5b505050506040513d601f19601f82011682018060405250810190610ac4919061107d565b604051602001610ad895949392919061145b565b60405160208183030381529060405290509392505050565b600033905090565b610b028282610856565b610b9157610b278173ffffffffffffffffffffffffffffffffffffffff166014610d56565b610b358360001c6020610d56565b604051602001610b469291906114d5565b6040516020818303038152906040526040517f08c379a0000000000000000000000000000000000000000000000000000000008152600401610b889190611633565b60405180910390fd5b5050565b610b9f8282610856565b610c7157600160008084815260200190815260200160002060000160008373ffffffffffffffffffffffffffffffffffffffff1673ffffffffffffffffffffffffffffffffffffffff16815260200190815260200160002060006101000a81548160ff021916908315150217905550610c16610af0565b73ffffffffffffffffffffffffffffffffffffffff168173ffffffffffffffffffffffffffffffffffffffff16837f2f8788117e7eff1d82e926ec794901d17c78024a50270940304540a733656f0d60405160405180910390a45b5050565b610c7f8282610856565b15610d5257600080600084815260200190815260200160002060000160008373ffffffffffffffffffffffffffffffffffffffff1673ffffffffffffffffffffffffffffffffffffffff16815260200190815260200160002060006101000a81548160ff021916908315150217905550610cf7610af0565b73ffffffffffffffffffffffffffffffffffffffff168173ffffffffffffffffffffffffffffffffffffffff16837ff6391f5c32d9c69d2a47ea670b442974b53935d1edc7fd64eb21e047a839171b60405160405180910390a45b5050565b606060006002836002610d6991906117a9565b610d739190611753565b67ffffffffffffffff811115610d8c57610d8b611a29565b5b6040519080825280601f01601f191660200182016040528015610dbe5781602001600182028036833780820191505090505b5090507f300000000000000000000000000000000000000000000000000000000000000081600081518110610df657610df56119fa565b5b60200101907effffffffffffffffffffffffffffffffffffffffffffffffffffffffffffff1916908160001a9053507f780000000000000000000000000000000000000000000000000000000000000081600181518110610e5a57610e596119fa565b5b60200101907effffffffffffffffffffffffffffffffffffffffffffffffffffffffffffff1916908160001a90535060006001846002610e9a91906117a9565b610ea49190611753565b90505b6001811115610f44577f3031323334353637383961626364656600000000000000000000000000000000600f861660108110610ee657610ee56119fa565b5b1a60f81b828281518110610efd57610efc6119fa565b5b60200101907effffffffffffffffffffffffffffffffffffffffffffffffffffffffffffff1916908160001a905350600485901c945080610f3d90611930565b9050610ea7565b5060008414610f88576040517f08c379a0000000000000000000000000000000000000000000000000000000008152600401610f7f90611655565b60405180910390fd5b8091505092915050565b600081359050610fa181611bc3565b92915050565b600081359050610fb681611bda565b92915050565b600081519050610fcb81611bda565b92915050565b600081359050610fe081611bf1565b92915050565b600081359050610ff581611c08565b92915050565b60008135905061100a81611c18565b92915050565b6000806040838503121561102757611026611a58565b5b600061103585828601610f92565b925050602061104685828601610ffb565b9150509250929050565b60006020828403121561106657611065611a58565b5b600061107484828501610fa7565b91505092915050565b60006020828403121561109357611092611a58565b5b60006110a184828501610fbc565b91505092915050565b600080604083850312156110c1576110c0611a58565b5b60006110cf85828601610fa7565b92505060206110e085828601610f92565b9150509250929050565b60008060006060848603121561110357611102611a58565b5b600061111186828701610fa7565b935050602061112286828701610f92565b925050604061113386828701610ffb565b9150509250925092565b60008060006060848603121561115657611155611a58565b5b600061116486828701610fa7565b935050602061117586828701610ffb565b925050604061118686828701610fe6565b9150509250925092565b6000602082840312156111a6576111a5611a58565b5b60006111b484828501610fd1565b91505092915050565b6000602082840312156111d3576111d2611a58565b5b60006111e184828501610fe6565b91505092915050565b6111f381611803565b82525050565b61120a61120582611803565b61195a565b82525050565b61121981611815565b82525050565b61123061122b82611821565b61196c565b82525050565b6112476112428261184d565b611976565b82525050565b61125681611879565b82525050565b61126d61126882611879565b611980565b82525050565b600061127e82611710565b6112888185611726565b93506112988185602086016118fd565b6112a181611a5d565b840191505092915050565b6112b5816118d9565b82525050565b60006112c68261171b565b6112d08185611737565b93506112e08185602086016118fd565b6112e981611a5d565b840191505092915050565b60006112ff8261171b565b6113098185611748565b93506113198185602086016118fd565b80840191505092915050565b6000611332602083611737565b915061133d82611a7b565b602082019050919050565b6000611355600083611726565b915061136082611aa4565b600082019050919050565b6000611378601783611748565b915061138382611aa7565b601782019050919050565b600061139b602083611737565b91506113a682611ad0565b602082019050919050565b60006113be601683611737565b91506113c982611af9565b602082019050919050565b60006113e1601183611748565b91506113ec82611b22565b601182019050919050565b6000611404601283611737565b915061140f82611b4b565b602082019050919050565b6000611427602f83611737565b915061143282611b74565b604082019050919050565b611446816118cf565b82525050565b611455816118cf565b82525050565b60006114678288611236565b60028201915061147782876111f9565b601482019150611487828661121f565b600182019150611497828561125c565b6020820191506114a7828461125c565b6020820191508190509695505050505050565b60006114c6828461125c565b60208201915081905092915050565b60006114e08261136b565b91506114ec82856112f4565b91506114f7826113d4565b915061150382846112f4565b91508190509392505050565b600060408201905061152460008301856111ea565b61153160208301846111ea565b9392505050565b600060408201905061154d60008301856111ea565b818103602083015261155f8184611273565b90509392505050565b600060608201905061157d60008301866111ea565b61158a602083018561143d565b818103604083015261159c8184611273565b9050949350505050565b60006060820190506115bb60008301856111ea565b6115c8602083018461143d565b81810360408301526115d981611348565b90509392505050565b60006020820190506115f76000830184611210565b92915050565b6000602082019050611612600083018461124d565b92915050565b600060208201905061162d60008301846112ac565b92915050565b6000602082019050818103600083015261164d81846112bb565b905092915050565b6000602082019050818103600083015261166e81611325565b9050919050565b6000602082019050818103600083015261168e8161138e565b9050919050565b600060208201905081810360008301526116ae816113b1565b9050919050565b600060208201905081810360008301526116ce816113f7565b9050919050565b600060208201905081810360008301526116ee8161141a565b9050919050565b600060208201905061170a600083018461144c565b92915050565b600081519050919050565b600081519050919050565b600082825260208201905092915050565b600082825260208201905092915050565b600081905092915050565b600061175e826118cf565b9150611769836118cf565b9250827fffffffffffffffffffffffffffffffffffffffffffffffffffffffffffffffff0382111561179e5761179d61199c565b5b828201905092915050565b60006117b4826118cf565b91506117bf836118cf565b9250817fffffffffffffffffffffffffffffffffffffffffffffffffffffffffffffffff04831182151516156117f8576117f761199c565b5b828202905092915050565b600061180e826118af565b9050919050565b60008115159050919050565b60007fff0000000000000000000000000000000000000000000000000000000000000082169050919050565b60007fffff00000000000000000000000000000000000000000000000000000000000082169050919050565b6000819050919050565b60007fffffffff0000000000000000000000000000000000000000000000000000000082169050919050565b600073ffffffffffffffffffffffffffffffffffffffff82169050919050565b6000819050919050565b60006118e4826118eb565b9050919050565b60006118f6826118af565b9050919050565b60005b8381101561191b578082015181840152602081019050611900565b8381111561192a576000848401525b50505050565b600061193b826118cf565b9150600082141561194f5761194e61199c565b5b600182039050919050565b60006119658261198a565b9050919050565b6000819050919050565b6000819050919050565b6000819050919050565b600061199582611a6e565b9050919050565b7f4e487b7100000000000000000000000000000000000000000000000000000000600052601160045260246000fd5b7f4e487b7100000000000000000000000000000000000000000000000000000000600052602160045260246000fd5b7f4e487b7100000000000000000000000000000000000000000000000000000000600052603260045260246000fd5b7f4e487b7100000000000000000000000000000000000000000000000000000000600052604160045260246000fd5b600080fd5b6000601f19601f8301169050919050565b60008160601b9050919050565b7f537472696e67733a20686578206c656e67746820696e73756666696369656e74600082015250565b50565b7f416363657373436f6e74726f6c3a206163636f756e7420000000000000000000600082015250565b7f43616c6c6572206973206e6f7420616e20696e626f756e64206368616e6e656c600082015250565b7f43616c6c657220697320756e617574686f72697a656400000000000000000000600082015250565b7f206973206d697373696e6720726f6c6520000000000000000000000000000000600082015250565b7f496e76616c6964206368616e6e656c2049440000000000000000000000000000600082015250565b7f416363657373436f6e74726f6c3a2063616e206f6e6c792072656e6f756e636560008201527f20726f6c657320666f722073656c660000000000000000000000000000000000602082015250565b611bcc81611803565b8114611bd757600080fd5b50565b611be381611879565b8114611bee57600080fd5b50565b611bfa81611883565b8114611c0557600080fd5b50565b60028110611c1557600080fd5b50565b611c21816118cf565b8114611c2c57600080fd5b5056fea26469706673582212209c2847e741c1420d64c081c0aa3c4afde641cdd3b7ae0d99b73b85e8e73ab71064736f6c6343000806003360806040523480156200001157600080fd5b50604051620040b0380380620040b08339818101604052810190620000379190620005b3565b82828282600290805190602001906200005292919062000331565b5081600390805190602001906200006b92919062000331565b50806004908051906020019062000084929190620003c2565b5060005b81518110156200011d57600160056000848481518110620000ae57620000ad620008ef565b5b602002602001015173ffffffffffffffffffffffffffffffffffffffff1673ffffffffffffffffffffffffffffffffffffffff16815260200190815260200160002060006101000a81548160ff0219169083151502179055508080620001149062000843565b91505062000088565b50731820a4b7618bde71dce8cdc73aab6c95905fad2473ffffffffffffffffffffffffffffffffffffffff166329965a1d307fac7fbab5f54a3ca8194167523c6753bfeb96a445279294b6125b68cce2177054306040518463ffffffff1660e01b815260040162000191939291906200068e565b600060405180830381600087803b158015620001ac57600080fd5b505af1158015620001c1573d6000803e3d6000fd5b50505050731820a4b7618bde71dce8cdc73aab6c95905fad2473ffffffffffffffffffffffffffffffffffffffff166329965a1d307faea199e31a596269b42cdafd93407f14436db6e4cad65417994c2eb37381e05a306040518463ffffffff1660e01b815260040162000238939291906200068e565b600060405180830381600087803b1580156200025357600080fd5b505af115801562000268573d6000803e3d6000fd5b505050505050506000620002816200032960201b60201c565b905080600960006101000a81548173ffffffffffffffffffffffffffffffffffffffff021916908373ffffffffffffffffffffffffffffffffffffffff1602179055508073ffffffffffffffffffffffffffffffffffffffff16600073ffffffffffffffffffffffffffffffffffffffff167f8be0079c531659141344cd1fd0a4f28419497f9722a3daafe3b4186f6b6457e060405160405180910390a35050505062000991565b600033905090565b8280546200033f90620007d7565b90600052602060002090601f016020900481019282620003635760008555620003af565b82601f106200037e57805160ff1916838001178555620003af565b82800160010185558215620003af579182015b82811115620003ae57825182559160200191906001019062000391565b5b509050620003be919062000451565b5090565b8280548282559060005260206000209081019282156200043e579160200282015b828111156200043d5782518260006101000a81548173ffffffffffffffffffffffffffffffffffffffff021916908373ffffffffffffffffffffffffffffffffffffffff16021790555091602001919060010190620003e3565b5b5090506200044d919062000451565b5090565b5b808211156200046c57600081600090555060010162000452565b5090565b6000620004876200048184620006f4565b620006cb565b90508083825260208201905082856020860282011115620004ad57620004ac62000952565b5b60005b85811015620004e15781620004c6888262000536565b845260208401935060208301925050600181019050620004b0565b5050509392505050565b600062000502620004fc8462000723565b620006cb565b90508281526020810184848401111562000521576200052062000957565b5b6200052e848285620007a1565b509392505050565b600081519050620005478162000977565b92915050565b600082601f8301126200056557620005646200094d565b5b81516200057784826020860162000470565b91505092915050565b600082601f8301126200059857620005976200094d565b5b8151620005aa848260208601620004eb565b91505092915050565b600080600060608486031215620005cf57620005ce62000961565b5b600084015167ffffffffffffffff811115620005f057620005ef6200095c565b5b620005fe8682870162000580565b935050602084015167ffffffffffffffff8111156200062257620006216200095c565b5b620006308682870162000580565b925050604084015167ffffffffffffffff8111156200065457620006536200095c565b5b62000662868287016200054d565b9150509250925092565b620006778162000759565b82525050565b62000688816200076d565b82525050565b6000606082019050620006a560008301866200066c565b620006b460208301856200067d565b620006c360408301846200066c565b949350505050565b6000620006d7620006ea565b9050620006e582826200080d565b919050565b6000604051905090565b600067ffffffffffffffff8211156200071257620007116200091e565b5b602082029050602081019050919050565b600067ffffffffffffffff8211156200074157620007406200091e565b5b6200074c8262000966565b9050602081019050919050565b6000620007668262000777565b9050919050565b6000819050919050565b600073ffffffffffffffffffffffffffffffffffffffff82169050919050565b6000819050919050565b60005b83811015620007c1578082015181840152602081019050620007a4565b83811115620007d1576000848401525b50505050565b60006002820490506001821680620007f057607f821691505b60208210811415620008075762000806620008c0565b5b50919050565b620008188262000966565b810181811067ffffffffffffffff821117156200083a57620008396200091e565b5b80604052505050565b6000620008508262000797565b91507fffffffffffffffffffffffffffffffffffffffffffffffffffffffffffffffff82141562000886576200088562000891565b5b600182019050919050565b7f4e487b7100000000000000000000000000000000000000000000000000000000600052601160045260246000fd5b7f4e487b7100000000000000000000000000000000000000000000000000000000600052602260045260246000fd5b7f4e487b7100000000000000000000000000000000000000000000000000000000600052603260045260246000fd5b7f4e487b7100000000000000000000000000000000000000000000000000000000600052604160045260246000fd5b600080fd5b600080fd5b600080fd5b600080fd5b600080fd5b6000601f19601f8301169050919050565b620009828162000759565b81146200098e57600080fd5b50565b61370f80620009a16000396000f3fe608060405234801561001057600080fd5b506004361061014d5760003560e01c80638da5cb5b116100c3578063d95b63711161007c578063d95b63711461037a578063dd62ed3e146103aa578063f2fde38b146103da578063fad8b32a146103f6578063fc673c4f14610412578063fe9d93031461042e5761014d565b80638da5cb5b146102ba57806394d008ef146102d8578063959b8c3f146102f457806395d89b41146103105780639bd9bbc61461032e578063a9059cbb1461034a5761014d565b8063313ce56711610115578063313ce5671461020c57806344d171871461022a578063556f0dc71461024657806362ad1b831461026457806370a0823114610280578063715018a6146102b05761014d565b806306e485381461015257806306fdde0314610170578063095ea7b31461018e57806318160ddd146101be57806323b872dd146101dc575b600080fd5b61015a61044a565b6040516101679190612b6e565b60405180910390f35b6101786104d8565b6040516101859190612bab565b60405180910390f35b6101a860048036038101906101a39190612559565b61056a565b6040516101b59190612b90565b60405180910390f35b6101c661058d565b6040516101d39190612e0d565b60405180910390f35b6101f660048036038101906101f19190612453565b610597565b6040516102039190612b90565b60405180910390f35b6102146107f1565b6040516102219190612e6d565b60405180910390f35b610244600480360381019061023f9190612599565b6107fa565b005b61024e610896565b60405161025b9190612e0d565b60405180910390f35b61027e600480360381019061027991906124a6565b61089f565b005b61029a600480360381019061029591906123b9565b610905565b6040516102a79190612e0d565b60405180910390f35b6102b861094d565b005b6102c2610a8a565b6040516102cf9190612abb565b60405180910390f35b6102f260048036038101906102ed9190612599565b610ab4565b005b61030e600480360381019061030991906123b9565b610b50565b005b610318610db1565b6040516103259190612bab565b60405180910390f35b61034860048036038101906103439190612599565b610e43565b005b610364600480360381019061035f9190612559565b610e6d565b6040516103719190612b90565b60405180910390f35b610394600480360381019061038f9190612413565b610f7b565b6040516103a19190612b90565b60405180910390f35b6103c460048036038101906103bf9190612413565b61112c565b6040516103d19190612e0d565b60405180910390f35b6103f460048036038101906103ef91906123b9565b6111b3565b005b610410600480360381019061040b91906123b9565b61135f565b005b61042c60048036038101906104279190612608565b6115c0565b005b610448600480360381019061044391906126a7565b6115fb565b005b606060048054806020026020016040519081016040528092919081815260200182805480156104ce57602002820191906000526020600020905b8160009054906101000a900473ffffffffffffffffffffffffffffffffffffffff1673ffffffffffffffffffffffffffffffffffffffff1681526020019060010190808311610484575b5050505050905090565b6060600280546104e79061307a565b80601f01602080910402602001604051908101604052809291908181526020018280546105139061307a565b80156105605780601f1061053557610100808354040283529160200191610560565b820191906000526020600020905b81548152906001019060200180831161054357829003601f168201915b5050505050905090565b600080610575611636565b905061058281858561163e565b600191505092915050565b6000600154905090565b60008073ffffffffffffffffffffffffffffffffffffffff168373ffffffffffffffffffffffffffffffffffffffff161415610608576040517f08c379a00000000000000000000000000000000000000000000000000000000081526004016105ff90612d2d565b60405180910390fd5b600073ffffffffffffffffffffffffffffffffffffffff168473ffffffffffffffffffffffffffffffffffffffff161415610678576040517f08c379a000000000000000000000000000000000000000000000000000000000815260040161066f90612d8d565b60405180910390fd5b6000610682611636565b90506106b0818686866040518060200160405280600081525060405180602001604052806000815250611809565b6106dc81868686604051806020016040528060008152506040518060200160405280600081525061197f565b6000600860008773ffffffffffffffffffffffffffffffffffffffff1673ffffffffffffffffffffffffffffffffffffffff16815260200190815260200160002060008373ffffffffffffffffffffffffffffffffffffffff1673ffffffffffffffffffffffffffffffffffffffff168152602001908152602001600020549050838110156107a0576040517f08c379a000000000000000000000000000000000000000000000000000000000815260040161079790612d6d565b60405180910390fd5b6107b6868386846107b19190612fa5565b61163e565b6107e48287878760405180602001604052806000815250604051806020016040528060008152506000611ba2565b6001925050509392505050565b60006012905090565b610802611636565b73ffffffffffffffffffffffffffffffffffffffff16610820610a8a565b73ffffffffffffffffffffffffffffffffffffffff1614610876576040517f08c379a000000000000000000000000000000000000000000000000000000000815260040161086d90612ced565b60405180910390fd5b61089183838360405180602001604052806000815250611d83565b505050565b60006001905090565b6108b06108aa611636565b86610f7b565b6108ef576040517f08c379a00000000000000000000000000000000000000000000000000000000081526004016108e690612d4d565b60405180910390fd5b6108fe85858585856001611fdf565b5050505050565b60008060008373ffffffffffffffffffffffffffffffffffffffff1673ffffffffffffffffffffffffffffffffffffffff168152602001908152602001600020549050919050565b610955611636565b73ffffffffffffffffffffffffffffffffffffffff16610973610a8a565b73ffffffffffffffffffffffffffffffffffffffff16146109c9576040517f08c379a00000000000000000000000000000000000000000000000000000000081526004016109c090612ced565b60405180910390fd5b600073ffffffffffffffffffffffffffffffffffffffff16600960009054906101000a900473ffffffffffffffffffffffffffffffffffffffff1673ffffffffffffffffffffffffffffffffffffffff167f8be0079c531659141344cd1fd0a4f28419497f9722a3daafe3b4186f6b6457e060405160405180910390a36000600960006101000a81548173ffffffffffffffffffffffffffffffffffffffff021916908373ffffffffffffffffffffffffffffffffffffffff160217905550565b6000600960009054906101000a900473ffffffffffffffffffffffffffffffffffffffff16905090565b610abc611636565b73ffffffffffffffffffffffffffffffffffffffff16610ada610a8a565b73ffffffffffffffffffffffffffffffffffffffff1614610b30576040517f08c379a0000000000000000000000000000000000000000000000000000000008152600401610b2790612ced565b60405180910390fd5b610b4b838383604051806020016040528060008152506120ff565b505050565b8073ffffffffffffffffffffffffffffffffffffffff16610b6f611636565b73ffffffffffffffffffffffffffffffffffffffff161415610bc6576040517f08c379a0000000000000000000000000000000000000000000000000000000008152600401610bbd90612c8d565b60405180910390fd5b600560008273ffffffffffffffffffffffffffffffffffffffff1673ffffffffffffffffffffffffffffffffffffffff16815260200190815260200160002060009054906101000a900460ff1615610cb05760076000610c24611636565b73ffffffffffffffffffffffffffffffffffffffff1673ffffffffffffffffffffffffffffffffffffffff16815260200190815260200160002060008273ffffffffffffffffffffffffffffffffffffffff1673ffffffffffffffffffffffffffffffffffffffff16815260200190815260200160002060006101000a81549060ff0219169055610d4d565b600160066000610cbe611636565b73ffffffffffffffffffffffffffffffffffffffff1673ffffffffffffffffffffffffffffffffffffffff16815260200190815260200160002060008373ffffffffffffffffffffffffffffffffffffffff1673ffffffffffffffffffffffffffffffffffffffff16815260200190815260200160002060006101000a81548160ff0219169083151502179055505b610d55611636565b73ffffffffffffffffffffffffffffffffffffffff168173ffffffffffffffffffffffffffffffffffffffff167ff4caeb2d6ca8932a215a353d0703c326ec2d81fc68170f320eb2ab49e9df61f960405160405180910390a350565b606060038054610dc09061307a565b80601f0160208091040260200160405190810160405280929190818152602001828054610dec9061307a565b8015610e395780601f10610e0e57610100808354040283529160200191610e39565b820191906000526020600020905b815481529060010190602001808311610e1c57829003601f168201915b5050505050905090565b610e68610e4e611636565b848484604051806020016040528060008152506001611fdf565b505050565b60008073ffffffffffffffffffffffffffffffffffffffff168373ffffffffffffffffffffffffffffffffffffffff161415610ede576040517f08c379a0000000000000000000000000000000000000000000000000000000008152600401610ed590612d2d565b60405180910390fd5b6000610ee8611636565b9050610f16818286866040518060200160405280600081525060405180602001604052806000815250611809565b610f4281828686604051806020016040528060008152506040518060200160405280600081525061197f565b610f708182868660405180602001604052806000815250604051806020016040528060008152506000611ba2565b600191505092915050565b60008173ffffffffffffffffffffffffffffffffffffffff168373ffffffffffffffffffffffffffffffffffffffff1614806110935750600560008473ffffffffffffffffffffffffffffffffffffffff1673ffffffffffffffffffffffffffffffffffffffff16815260200190815260200160002060009054906101000a900460ff1680156110925750600760008373ffffffffffffffffffffffffffffffffffffffff1673ffffffffffffffffffffffffffffffffffffffff16815260200190815260200160002060008473ffffffffffffffffffffffffffffffffffffffff1673ffffffffffffffffffffffffffffffffffffffff16815260200190815260200160002060009054906101000a900460ff16155b5b806111245750600660008373ffffffffffffffffffffffffffffffffffffffff1673ffffffffffffffffffffffffffffffffffffffff16815260200190815260200160002060008473ffffffffffffffffffffffffffffffffffffffff1673ffffffffffffffffffffffffffffffffffffffff16815260200190815260200160002060009054906101000a900460ff165b905092915050565b6000600860008473ffffffffffffffffffffffffffffffffffffffff1673ffffffffffffffffffffffffffffffffffffffff16815260200190815260200160002060008373ffffffffffffffffffffffffffffffffffffffff1673ffffffffffffffffffffffffffffffffffffffff16815260200190815260200160002054905092915050565b6111bb611636565b73ffffffffffffffffffffffffffffffffffffffff166111d9610a8a565b73ffffffffffffffffffffffffffffffffffffffff161461122f576040517f08c379a000000000000000000000000000000000000000000000000000000000815260040161122690612ced565b60405180910390fd5b600073ffffffffffffffffffffffffffffffffffffffff168173ffffffffffffffffffffffffffffffffffffffff16141561129f576040517f08c379a000000000000000000000000000000000000000000000000000000000815260040161129690612c4d565b60405180910390fd5b8073ffffffffffffffffffffffffffffffffffffffff16600960009054906101000a900473ffffffffffffffffffffffffffffffffffffffff1673ffffffffffffffffffffffffffffffffffffffff167f8be0079c531659141344cd1fd0a4f28419497f9722a3daafe3b4186f6b6457e060405160405180910390a380600960006101000a81548173ffffffffffffffffffffffffffffffffffffffff021916908373ffffffffffffffffffffffffffffffffffffffff16021790555050565b611367611636565b73ffffffffffffffffffffffffffffffffffffffff168173ffffffffffffffffffffffffffffffffffffffff1614156113d5576040517f08c379a00000000000000000000000000000000000000000000000000000000081526004016113cc90612cad565b60405180910390fd5b600560008273ffffffffffffffffffffffffffffffffffffffff1673ffffffffffffffffffffffffffffffffffffffff16815260200190815260200160002060009054906101000a900460ff16156114c857600160076000611435611636565b73ffffffffffffffffffffffffffffffffffffffff1673ffffffffffffffffffffffffffffffffffffffff16815260200190815260200160002060008373ffffffffffffffffffffffffffffffffffffffff1673ffffffffffffffffffffffffffffffffffffffff16815260200190815260200160002060006101000a81548160ff02191690831515021790555061155c565b600660006114d4611636565b73ffffffffffffffffffffffffffffffffffffffff1673ffffffffffffffffffffffffffffffffffffffff16815260200190815260200160002060008273ffffffffffffffffffffffffffffffffffffffff1673ffffffffffffffffffffffffffffffffffffffff16815260200190815260200160002060006101000a81549060ff02191690555b611564611636565b73ffffffffffffffffffffffffffffffffffffffff168173ffffffffffffffffffffffffffffffffffffffff167f50546e66e5f44d728365dc3908c63bc5cfeeab470722c1677e3073a6ac294aa160405160405180910390a350565b6040517f08c379a00000000000000000000000000000000000000000000000000000000081526004016115f290612c0d565b60405180910390fd5b6040517f08c379a000000000000000000000000000000000000000000000000000000000815260040161162d90612c0d565b60405180910390fd5b600033905090565b600073ffffffffffffffffffffffffffffffffffffffff168373ffffffffffffffffffffffffffffffffffffffff1614156116ae576040517f08c379a00000000000000000000000000000000000000000000000000000000081526004016116a590612bcd565b60405180910390fd5b600073ffffffffffffffffffffffffffffffffffffffff168273ffffffffffffffffffffffffffffffffffffffff16141561171e576040517f08c379a000000000000000000000000000000000000000000000000000000000815260040161171590612ded565b60405180910390fd5b80600860008573ffffffffffffffffffffffffffffffffffffffff1673ffffffffffffffffffffffffffffffffffffffff16815260200190815260200160002060008473ffffffffffffffffffffffffffffffffffffffff1673ffffffffffffffffffffffffffffffffffffffff168152602001908152602001600020819055508173ffffffffffffffffffffffffffffffffffffffff168373ffffffffffffffffffffffffffffffffffffffff167f8c5be1e5ebec7d5bd14f71427d1e84f3dd0314c0f7b2291e5b200ac8c7c3b925836040516117fc9190612e0d565b60405180910390a3505050565b6000731820a4b7618bde71dce8cdc73aab6c95905fad2473ffffffffffffffffffffffffffffffffffffffff1663aabbb8ca877f29ddb589b1fb5fc7cf394961c1adf5f8c6454761adf795e67fe149f658abe8956040518363ffffffff1660e01b815260040161187a929190612b45565b60206040518083038186803b15801561189257600080fd5b505afa1580156118a6573d6000803e3d6000fd5b505050506040513d601f19601f820116820180604052508101906118ca91906123e6565b9050600073ffffffffffffffffffffffffffffffffffffffff168173ffffffffffffffffffffffffffffffffffffffff1614611976578073ffffffffffffffffffffffffffffffffffffffff166375ab97828888888888886040518763ffffffff1660e01b815260040161194396959493929190612ad6565b600060405180830381600087803b15801561195d57600080fd5b505af1158015611971573d6000803e3d6000fd5b505050505b50505050505050565b61198b86868686612113565b60008060008773ffffffffffffffffffffffffffffffffffffffff1673ffffffffffffffffffffffffffffffffffffffff16815260200190815260200160002054905083811015611a11576040517f08c379a0000000000000000000000000000000000000000000000000000000008152600401611a0890612c2d565b60405180910390fd5b8381611a1d9190612fa5565b6000808873ffffffffffffffffffffffffffffffffffffffff1673ffffffffffffffffffffffffffffffffffffffff16815260200190815260200160002081905550836000808773ffffffffffffffffffffffffffffffffffffffff1673ffffffffffffffffffffffffffffffffffffffff1681526020019081526020016000206000828254611aad9190612f4f565b925050819055508473ffffffffffffffffffffffffffffffffffffffff168673ffffffffffffffffffffffffffffffffffffffff168873ffffffffffffffffffffffffffffffffffffffff167f06b541ddaa720db2b10a4d0cdac39b8d360425fc073085fac19bc82614677987878787604051611b2c93929190612e28565b60405180910390a48473ffffffffffffffffffffffffffffffffffffffff168673ffffffffffffffffffffffffffffffffffffffff167fddf252ad1be2c89b69c2b068fc378daa952ba7f163c4a11628f55a4df523b3ef86604051611b919190612e0d565b60405180910390a350505050505050565b6000731820a4b7618bde71dce8cdc73aab6c95905fad2473ffffffffffffffffffffffffffffffffffffffff1663aabbb8ca877fb281fc8c12954d22544db45de3159a39272895b169a852b314f9cc762e44c53b6040518363ffffffff1660e01b8152600401611c13929190612b45565b60206040518083038186803b158015611c2b57600080fd5b505afa158015611c3f573d6000803e3d6000fd5b505050506040513d601f19601f82011682018060405250810190611c6391906123e6565b9050600073ffffffffffffffffffffffffffffffffffffffff168173ffffffffffffffffffffffffffffffffffffffff1614611d12578073ffffffffffffffffffffffffffffffffffffffff166223de298989898989896040518763ffffffff1660e01b8152600401611cdb96959493929190612ad6565b600060405180830381600087803b158015611cf557600080fd5b505af1158015611d09573d6000803e3d6000fd5b50505050611d79565b8115611d7857611d378673ffffffffffffffffffffffffffffffffffffffff16612119565b15611d77576040517f08c379a0000000000000000000000000000000000000000000000000000000008152600401611d6e90612d0d565b60405180910390fd5b5b5b5050505050505050565b600073ffffffffffffffffffffffffffffffffffffffff168473ffffffffffffffffffffffffffffffffffffffff161415611df3576040517f08c379a0000000000000000000000000000000000000000000000000000000008152600401611dea90612c6d565b60405180910390fd5b6000611dfd611636565b9050611e0e81866000878787611809565b611e1b8186600087612113565b60008060008773ffffffffffffffffffffffffffffffffffffffff1673ffffffffffffffffffffffffffffffffffffffff16815260200190815260200160002054905084811015611ea1576040517f08c379a0000000000000000000000000000000000000000000000000000000008152600401611e9890612dad565b60405180910390fd5b8481611ead9190612fa5565b6000808873ffffffffffffffffffffffffffffffffffffffff1673ffffffffffffffffffffffffffffffffffffffff168152602001908152602001600020819055508460016000828254611f019190612fa5565b925050819055508573ffffffffffffffffffffffffffffffffffffffff168273ffffffffffffffffffffffffffffffffffffffff167fa78a9be3a7b862d26933ad85fb11d80ef66b8f972d7cbba06621d583943a4098878787604051611f6993929190612e28565b60405180910390a3600073ffffffffffffffffffffffffffffffffffffffff168673ffffffffffffffffffffffffffffffffffffffff167fddf252ad1be2c89b69c2b068fc378daa952ba7f163c4a11628f55a4df523b3ef87604051611fcf9190612e0d565b60405180910390a3505050505050565b600073ffffffffffffffffffffffffffffffffffffffff168673ffffffffffffffffffffffffffffffffffffffff16141561204f576040517f08c379a000000000000000000000000000000000000000000000000000000000815260040161204690612bed565b60405180910390fd5b600073ffffffffffffffffffffffffffffffffffffffff168573ffffffffffffffffffffffffffffffffffffffff1614156120bf576040517f08c379a00000000000000000000000000000000000000000000000000000000081526004016120b690612dcd565b60405180910390fd5b60006120c9611636565b90506120d9818888888888611809565b6120e781888888888861197f565b6120f681888888888888611ba2565b50505050505050565b61210d84848484600161212c565b50505050565b50505050565b600080823b905060008111915050919050565b600073ffffffffffffffffffffffffffffffffffffffff168573ffffffffffffffffffffffffffffffffffffffff16141561219c576040517f08c379a000000000000000000000000000000000000000000000000000000000815260040161219390612ccd565b60405180910390fd5b60006121a6611636565b90506121b58160008888612113565b84600160008282546121c79190612f4f565b92505081905550846000808873ffffffffffffffffffffffffffffffffffffffff1673ffffffffffffffffffffffffffffffffffffffff168152602001908152602001600020600082825461221c9190612f4f565b925050819055506122338160008888888888611ba2565b8573ffffffffffffffffffffffffffffffffffffffff168173ffffffffffffffffffffffffffffffffffffffff167f2fe5be0146f74c5bce36c0b80911af6c7d86ff27e89d5cfa61fc681327954e5d87878760405161229493929190612e28565b60405180910390a38573ffffffffffffffffffffffffffffffffffffffff16600073ffffffffffffffffffffffffffffffffffffffff167fddf252ad1be2c89b69c2b068fc378daa952ba7f163c4a11628f55a4df523b3ef876040516122fa9190612e0d565b60405180910390a3505050505050565b600061231d61231884612ead565b612e88565b9050828152602081018484840111156123395761233861316f565b5b612344848285613038565b509392505050565b60008135905061235b816136ab565b92915050565b600081519050612370816136ab565b92915050565b600082601f83011261238b5761238a61316a565b5b813561239b84826020860161230a565b91505092915050565b6000813590506123b3816136c2565b92915050565b6000602082840312156123cf576123ce613179565b5b60006123dd8482850161234c565b91505092915050565b6000602082840312156123fc576123fb613179565b5b600061240a84828501612361565b91505092915050565b6000806040838503121561242a57612429613179565b5b60006124388582860161234c565b92505060206124498582860161234c565b9150509250929050565b60008060006060848603121561246c5761246b613179565b5b600061247a8682870161234c565b935050602061248b8682870161234c565b925050604061249c868287016123a4565b9150509250925092565b600080600080600060a086880312156124c2576124c1613179565b5b60006124d08882890161234c565b95505060206124e18882890161234c565b94505060406124f2888289016123a4565b935050606086013567ffffffffffffffff81111561251357612512613174565b5b61251f88828901612376565b925050608086013567ffffffffffffffff8111156125405761253f613174565b5b61254c88828901612376565b9150509295509295909350565b600080604083850312156125705761256f613179565b5b600061257e8582860161234c565b925050602061258f858286016123a4565b9150509250929050565b6000806000606084860312156125b2576125b1613179565b5b60006125c08682870161234c565b93505060206125d1868287016123a4565b925050604084013567ffffffffffffffff8111156125f2576125f1613174565b5b6125fe86828701612376565b9150509250925092565b6000806000806080858703121561262257612621613179565b5b60006126308782880161234c565b9450506020612641878288016123a4565b935050604085013567ffffffffffffffff81111561266257612661613174565b5b61266e87828801612376565b925050606085013567ffffffffffffffff81111561268f5761268e613174565b5b61269b87828801612376565b91505092959194509250565b600080604083850312156126be576126bd613179565b5b60006126cc858286016123a4565b925050602083013567ffffffffffffffff8111156126ed576126ec613174565b5b6126f985828601612376565b9150509250929050565b600061270f838361271b565b60208301905092915050565b61272481612fd9565b82525050565b61273381612fd9565b82525050565b600061274482612eee565b61274e8185612f1c565b935061275983612ede565b8060005b8381101561278a5781516127718882612703565b975061277c83612f0f565b92505060018101905061275d565b5085935050505092915050565b6127a081612feb565b82525050565b6127af81612ff7565b82525050565b60006127c082612ef9565b6127ca8185612f2d565b93506127da818560208601613047565b6127e38161317e565b840191505092915050565b60006127f982612f04565b6128038185612f3e565b9350612813818560208601613047565b61281c8161317e565b840191505092915050565b6000612834602583612f3e565b915061283f8261318f565b604082019050919050565b6000612857602283612f3e565b9150612862826131de565b604082019050919050565b600061287a600d83612f3e565b91506128858261322d565b602082019050919050565b600061289d602783612f3e565b91506128a882613256565b604082019050919050565b60006128c0602683612f3e565b91506128cb826132a5565b604082019050919050565b60006128e3602283612f3e565b91506128ee826132f4565b604082019050919050565b6000612906602483612f3e565b915061291182613343565b604082019050919050565b6000612929602183612f3e565b915061293482613392565b604082019050919050565b600061294c602083612f3e565b9150612957826133e1565b602082019050919050565b600061296f602083612f3e565b915061297a8261340a565b602082019050919050565b6000612992604d83612f3e565b915061299d82613433565b606082019050919050565b60006129b5602483612f3e565b91506129c0826134a8565b604082019050919050565b60006129d8602c83612f3e565b91506129e3826134f7565b604082019050919050565b60006129fb602983612f3e565b9150612a0682613546565b604082019050919050565b6000612a1e602683612f3e565b9150612a2982613595565b604082019050919050565b6000612a41602383612f3e565b9150612a4c826135e4565b604082019050919050565b6000612a64602083612f3e565b9150612a6f82613633565b602082019050919050565b6000612a87602383612f3e565b9150612a928261365c565b604082019050919050565b612aa681613021565b82525050565b612ab58161302b565b82525050565b6000602082019050612ad0600083018461272a565b92915050565b600060c082019050612aeb600083018961272a565b612af8602083018861272a565b612b05604083018761272a565b612b126060830186612a9d565b8181036080830152612b2481856127b5565b905081810360a0830152612b3881846127b5565b9050979650505050505050565b6000604082019050612b5a600083018561272a565b612b6760208301846127a6565b9392505050565b60006020820190508181036000830152612b888184612739565b905092915050565b6000602082019050612ba56000830184612797565b92915050565b60006020820190508181036000830152612bc581846127ee565b905092915050565b60006020820190508181036000830152612be681612827565b9050919050565b60006020820190508181036000830152612c068161284a565b9050919050565b60006020820190508181036000830152612c268161286d565b9050919050565b60006020820190508181036000830152612c4681612890565b9050919050565b60006020820190508181036000830152612c66816128b3565b9050919050565b60006020820190508181036000830152612c86816128d6565b9050919050565b60006020820190508181036000830152612ca6816128f9565b9050919050565b60006020820190508181036000830152612cc68161291c565b9050919050565b60006020820190508181036000830152612ce68161293f565b9050919050565b60006020820190508181036000830152612d0681612962565b9050919050565b60006020820190508181036000830152612d2681612985565b9050919050565b60006020820190508181036000830152612d46816129a8565b9050919050565b60006020820190508181036000830152612d66816129cb565b9050919050565b60006020820190508181036000830152612d86816129ee565b9050919050565b60006020820190508181036000830152612da681612a11565b9050919050565b60006020820190508181036000830152612dc681612a34565b9050919050565b60006020820190508181036000830152612de681612a57565b9050919050565b60006020820190508181036000830152612e0681612a7a565b9050919050565b6000602082019050612e226000830184612a9d565b92915050565b6000606082019050612e3d6000830186612a9d565b8181036020830152612e4f81856127b5565b90508181036040830152612e6381846127b5565b9050949350505050565b6000602082019050612e826000830184612aac565b92915050565b6000612e92612ea3565b9050612e9e82826130ac565b919050565b6000604051905090565b600067ffffffffffffffff821115612ec857612ec761313b565b5b612ed18261317e565b9050602081019050919050565b6000819050602082019050919050565b600081519050919050565b600081519050919050565b600081519050919050565b6000602082019050919050565b600082825260208201905092915050565b600082825260208201905092915050565b600082825260208201905092915050565b6000612f5a82613021565b9150612f6583613021565b9250827fffffffffffffffffffffffffffffffffffffffffffffffffffffffffffffffff03821115612f9a57612f996130dd565b5b828201905092915050565b6000612fb082613021565b9150612fbb83613021565b925082821015612fce57612fcd6130dd565b5b828203905092915050565b6000612fe482613001565b9050919050565b60008115159050919050565b6000819050919050565b600073ffffffffffffffffffffffffffffffffffffffff82169050919050565b6000819050919050565b600060ff82169050919050565b82818337600083830152505050565b60005b8381101561306557808201518184015260208101905061304a565b83811115613074576000848401525b50505050565b6000600282049050600182168061309257607f821691505b602082108114156130a6576130a561310c565b5b50919050565b6130b58261317e565b810181811067ffffffffffffffff821117156130d4576130d361313b565b5b80604052505050565b7f4e487b7100000000000000000000000000000000000000000000000000000000600052601160045260246000fd5b7f4e487b7100000000000000000000000000000000000000000000000000000000600052602260045260246000fd5b7f4e487b7100000000000000000000000000000000000000000000000000000000600052604160045260246000fd5b600080fd5b600080fd5b600080fd5b600080fd5b6000601f19601f8301169050919050565b7f4552433737373a20617070726f76652066726f6d20746865207a65726f20616460008201527f6472657373000000000000000000000000000000000000000000000000000000602082015250565b7f4552433737373a2073656e642066726f6d20746865207a65726f20616464726560008201527f7373000000000000000000000000000000000000000000000000000000000000602082015250565b7f6e6f742d737570706f7274656400000000000000000000000000000000000000600082015250565b7f4552433737373a207472616e7366657220616d6f756e7420657863656564732060008201527f62616c616e636500000000000000000000000000000000000000000000000000602082015250565b7f4f776e61626c653a206e6577206f776e657220697320746865207a65726f206160008201527f6464726573730000000000000000000000000000000000000000000000000000602082015250565b7f4552433737373a206275726e2066726f6d20746865207a65726f20616464726560008201527f7373000000000000000000000000000000000000000000000000000000000000602082015250565b7f4552433737373a20617574686f72697a696e672073656c66206173206f70657260008201527f61746f7200000000000000000000000000000000000000000000000000000000602082015250565b7f4552433737373a207265766f6b696e672073656c66206173206f70657261746f60008201527f7200000000000000000000000000000000000000000000000000000000000000602082015250565b7f4552433737373a206d696e7420746f20746865207a65726f2061646472657373600082015250565b7f4f776e61626c653a2063616c6c6572206973206e6f7420746865206f776e6572600082015250565b7f4552433737373a20746f6b656e20726563697069656e7420636f6e747261637460008201527f20686173206e6f20696d706c656d656e74657220666f7220455243373737546f60208201527f6b656e73526563697069656e7400000000000000000000000000000000000000604082015250565b7f4552433737373a207472616e7366657220746f20746865207a65726f2061646460008201527f7265737300000000000000000000000000000000000000000000000000000000602082015250565b7f4552433737373a2063616c6c6572206973206e6f7420616e206f70657261746f60008201527f7220666f7220686f6c6465720000000000000000000000000000000000000000602082015250565b7f4552433737373a207472616e7366657220616d6f756e7420657863656564732060008201527f616c6c6f77616e63650000000000000000000000000000000000000000000000602082015250565b7f4552433737373a207472616e736665722066726f6d20746865207a65726f206160008201527f6464726573730000000000000000000000000000000000000000000000000000602082015250565b7f4552433737373a206275726e20616d6f756e7420657863656564732062616c6160008201527f6e63650000000000000000000000000000000000000000000000000000000000602082015250565b7f4552433737373a2073656e6420746f20746865207a65726f2061646472657373600082015250565b7f4552433737373a20617070726f766520746f20746865207a65726f206164647260008201527f6573730000000000000000000000000000000000000000000000000000000000602082015250565b6136b481612fd9565b81146136bf57600080fd5b50565b6136cb81613021565b81146136d657600080fd5b5056fea2646970667358221220902419d208c58d5dbd5c6faf7995f4b9a670f47dfc0bab38d6785914ef25844c64736f6c63430008060033",
  "linkReferences": {
    "contracts/ScaleCodec.sol": {
      "ScaleCodec": [
        {
          "length": 20,
          "start": 5031
        }
      ]
    }
  },
  "deployedLinkReferences": {
    "contracts/ScaleCodec.sol": {
      "ScaleCodec": [
        {
          "length": 20,
          "start": 2622
        }
      ]
    }
  }
}