{
  "_format": "hh-sol-artifact-1",
  "contractName": "ERC20App",
  "sourceName": "contracts/ERC20App.sol",
  "abi": [
    {
      "inputs": [
        {
          "components": [
            {
              "internalType": "address",
              "name": "inbound",
              "type": "address"
            },
            {
              "internalType": "address",
              "name": "outbound",
              "type": "address"
            }
          ],
          "internalType": "struct ERC20App.Channel",
          "name": "_basic",
          "type": "tuple"
        },
        {
          "components": [
            {
              "internalType": "address",
              "name": "inbound",
              "type": "address"
            },
            {
              "internalType": "address",
              "name": "outbound",
              "type": "address"
            }
          ],
          "internalType": "struct ERC20App.Channel",
          "name": "_incentivized",
          "type": "tuple"
        }
      ],
      "stateMutability": "nonpayable",
      "type": "constructor"
    },
    {
      "anonymous": false,
      "inputs": [
        {
          "indexed": false,
          "internalType": "address",
          "name": "token",
          "type": "address"
        },
        {
          "indexed": false,
          "internalType": "address",
          "name": "sender",
          "type": "address"
        },
        {
          "indexed": false,
          "internalType": "bytes32",
          "name": "recipient",
          "type": "bytes32"
        },
        {
          "indexed": false,
          "internalType": "uint256",
          "name": "amount",
          "type": "uint256"
        }
      ],
      "name": "Locked",
      "type": "event"
    },
    {
      "anonymous": false,
      "inputs": [
        {
          "indexed": true,
          "internalType": "bytes32",
          "name": "role",
          "type": "bytes32"
        },
        {
          "indexed": true,
          "internalType": "bytes32",
          "name": "previousAdminRole",
          "type": "bytes32"
        },
        {
          "indexed": true,
          "internalType": "bytes32",
          "name": "newAdminRole",
          "type": "bytes32"
        }
      ],
      "name": "RoleAdminChanged",
      "type": "event"
    },
    {
      "anonymous": false,
      "inputs": [
        {
          "indexed": true,
          "internalType": "bytes32",
          "name": "role",
          "type": "bytes32"
        },
        {
          "indexed": true,
          "internalType": "address",
          "name": "account",
          "type": "address"
        },
        {
          "indexed": true,
          "internalType": "address",
          "name": "sender",
          "type": "address"
        }
      ],
      "name": "RoleGranted",
      "type": "event"
    },
    {
      "anonymous": false,
      "inputs": [
        {
          "indexed": true,
          "internalType": "bytes32",
          "name": "role",
          "type": "bytes32"
        },
        {
          "indexed": true,
          "internalType": "address",
          "name": "account",
          "type": "address"
        },
        {
          "indexed": true,
          "internalType": "address",
          "name": "sender",
          "type": "address"
        }
      ],
      "name": "RoleRevoked",
      "type": "event"
    },
    {
      "anonymous": false,
      "inputs": [
        {
          "indexed": false,
          "internalType": "address",
          "name": "token",
          "type": "address"
        },
        {
          "indexed": false,
          "internalType": "bytes32",
          "name": "sender",
          "type": "bytes32"
        },
        {
          "indexed": false,
          "internalType": "address",
          "name": "recipient",
          "type": "address"
        },
        {
          "indexed": false,
          "internalType": "uint256",
          "name": "amount",
          "type": "uint256"
        }
      ],
      "name": "Unlocked",
      "type": "event"
    },
    {
      "inputs": [],
      "name": "DEFAULT_ADMIN_ROLE",
      "outputs": [
        {
          "internalType": "bytes32",
          "name": "",
          "type": "bytes32"
        }
      ],
      "stateMutability": "view",
      "type": "function"
    },
    {
      "inputs": [],
      "name": "INBOUND_CHANNEL_ROLE",
      "outputs": [
        {
          "internalType": "bytes32",
          "name": "",
          "type": "bytes32"
        }
      ],
      "stateMutability": "view",
      "type": "function"
    },
    {
      "inputs": [
        {
          "internalType": "address",
          "name": "",
          "type": "address"
        }
      ],
      "name": "balances",
      "outputs": [
        {
          "internalType": "uint256",
          "name": "",
          "type": "uint256"
        }
      ],
      "stateMutability": "view",
      "type": "function"
    },
    {
      "inputs": [
        {
          "internalType": "enum ChannelId",
          "name": "",
          "type": "uint8"
        }
      ],
      "name": "channels",
      "outputs": [
        {
          "internalType": "address",
          "name": "inbound",
          "type": "address"
        },
        {
          "internalType": "address",
          "name": "outbound",
          "type": "address"
        }
      ],
      "stateMutability": "view",
      "type": "function"
    },
    {
      "inputs": [
        {
          "internalType": "bytes32",
          "name": "role",
          "type": "bytes32"
        }
      ],
      "name": "getRoleAdmin",
      "outputs": [
        {
          "internalType": "bytes32",
          "name": "",
          "type": "bytes32"
        }
      ],
      "stateMutability": "view",
      "type": "function"
    },
    {
      "inputs": [
        {
          "internalType": "bytes32",
          "name": "role",
          "type": "bytes32"
        },
        {
          "internalType": "address",
          "name": "account",
          "type": "address"
        }
      ],
      "name": "grantRole",
      "outputs": [],
      "stateMutability": "nonpayable",
      "type": "function"
    },
    {
      "inputs": [
        {
          "internalType": "bytes32",
          "name": "role",
          "type": "bytes32"
        },
        {
          "internalType": "address",
          "name": "account",
          "type": "address"
        }
      ],
      "name": "hasRole",
      "outputs": [
        {
          "internalType": "bool",
          "name": "",
          "type": "bool"
        }
      ],
      "stateMutability": "view",
      "type": "function"
    },
    {
      "inputs": [
        {
          "internalType": "address",
          "name": "_token",
          "type": "address"
        },
        {
          "internalType": "bytes32",
          "name": "_recipient",
          "type": "bytes32"
        },
        {
          "internalType": "uint256",
          "name": "_amount",
          "type": "uint256"
        },
        {
          "internalType": "enum ChannelId",
          "name": "_channelId",
          "type": "uint8"
        }
      ],
      "name": "lock",
      "outputs": [],
      "stateMutability": "nonpayable",
      "type": "function"
    },
    {
      "inputs": [
        {
          "internalType": "bytes32",
          "name": "role",
          "type": "bytes32"
        },
        {
          "internalType": "address",
          "name": "account",
          "type": "address"
        }
      ],
      "name": "renounceRole",
      "outputs": [],
      "stateMutability": "nonpayable",
      "type": "function"
    },
    {
      "inputs": [
        {
          "internalType": "bytes32",
          "name": "role",
          "type": "bytes32"
        },
        {
          "internalType": "address",
          "name": "account",
          "type": "address"
        }
      ],
      "name": "revokeRole",
      "outputs": [],
      "stateMutability": "nonpayable",
      "type": "function"
    },
    {
      "inputs": [
        {
          "internalType": "bytes4",
          "name": "interfaceId",
          "type": "bytes4"
        }
      ],
      "name": "supportsInterface",
      "outputs": [
        {
          "internalType": "bool",
          "name": "",
          "type": "bool"
        }
      ],
      "stateMutability": "view",
      "type": "function"
    },
    {
      "inputs": [
        {
          "internalType": "address",
          "name": "_token",
          "type": "address"
        },
        {
          "internalType": "bytes32",
          "name": "_sender",
          "type": "bytes32"
        },
        {
          "internalType": "address",
          "name": "_recipient",
          "type": "address"
        },
        {
          "internalType": "uint256",
          "name": "_amount",
          "type": "uint256"
        }
      ],
      "name": "unlock",
      "outputs": [],
      "stateMutability": "nonpayable",
      "type": "function"
    }
  ],
  "bytecode": "0x60806040523480156200001157600080fd5b506040516200258a3803806200258a833981810160405281019062000037919062000434565b6000600260008060018111156200005357620000526200050e565b5b60018111156200006857620000676200050e565b5b8152602001908152602001600020905082600001518160000160006101000a81548173ffffffffffffffffffffffffffffffffffffffff021916908373ffffffffffffffffffffffffffffffffffffffff16021790555082602001518160010160006101000a81548173ffffffffffffffffffffffffffffffffffffffff021916908373ffffffffffffffffffffffffffffffffffffffff1602179055506000600260006001808111156200012257620001216200050e565b5b60018111156200013757620001366200050e565b5b8152602001908152602001600020905082600001518160000160006101000a81548173ffffffffffffffffffffffffffffffffffffffff021916908373ffffffffffffffffffffffffffffffffffffffff16021790555082602001518160010160006101000a81548173ffffffffffffffffffffffffffffffffffffffff021916908373ffffffffffffffffffffffffffffffffffffffff1602179055506200020b7ff857e99667b61d9feb64d6cb140ba8a8ba3501d58a4940223c8e74c45932fbf485600001516200024b60201b60201c565b620002417ff857e99667b61d9feb64d6cb140ba8a8ba3501d58a4940223c8e74c45932fbf484600001516200024b60201b60201c565b50505050620005a1565b6200025d82826200026160201b60201c565b5050565b6200027382826200035260201b60201c565b6200034e57600160008084815260200190815260200160002060000160008373ffffffffffffffffffffffffffffffffffffffff1673ffffffffffffffffffffffffffffffffffffffff16815260200190815260200160002060006101000a81548160ff021916908315150217905550620002f3620003bc60201b60201c565b73ffffffffffffffffffffffffffffffffffffffff168173ffffffffffffffffffffffffffffffffffffffff16837f2f8788117e7eff1d82e926ec794901d17c78024a50270940304540a733656f0d60405160405180910390a45b5050565b600080600084815260200190815260200160002060000160008373ffffffffffffffffffffffffffffffffffffffff1673ffffffffffffffffffffffffffffffffffffffff16815260200190815260200160002060009054906101000a900460ff16905092915050565b600033905090565b600081519050620003d58162000587565b92915050565b600060408284031215620003f457620003f36200056c565b5b6200040060406200047b565b905060006200041284828501620003c4565b60008301525060206200042884828501620003c4565b60208301525092915050565b600080608083850312156200044e576200044d62000571565b5b60006200045e85828601620003db565b92505060406200047185828601620003db565b9150509250929050565b6000620004876200049a565b9050620004958282620004d8565b919050565b6000604051905090565b6000620004b182620004b8565b9050919050565b600073ffffffffffffffffffffffffffffffffffffffff82169050919050565b620004e38262000576565b810181811067ffffffffffffffff821117156200050557620005046200053d565b5b80604052505050565b7f4e487b7100000000000000000000000000000000000000000000000000000000600052602160045260246000fd5b7f4e487b7100000000000000000000000000000000000000000000000000000000600052604160045260246000fd5b600080fd5b600080fd5b6000601f19601f8301169050919050565b6200059281620004a4565b81146200059e57600080fd5b50565b611fd980620005b16000396000f3fe608060405234801561001057600080fd5b50600436106100b45760003560e01c806349e37f131161007157806349e37f131461019d57806391d14854146101b9578063a217fddf146101e9578063bc0c22a714610207578063ccd3413214610225578063d547741f14610256576100b4565b8063010ce3c7146100b957806301ffc9a7146100d5578063248a9ca31461010557806327e235e3146101355780632f2ff15d1461016557806336568abe14610181575b600080fd5b6100d360048036038101906100ce9190611161565b610272565b005b6100ef60048036038101906100ea91906112f6565b61053d565b6040516100fc91906117e5565b60405180910390f35b61011f600480360381019061011a919061125c565b6105b7565b60405161012c9190611800565b60405180910390f35b61014f600480360381019061014a9190611134565b6105d6565b60405161015c9190611958565b60405180910390f35b61017f600480360381019061017a91906112b6565b6105ee565b005b61019b600480360381019061019691906112b6565b610617565b005b6101b760048036038101906101b291906111c8565b61069a565b005b6101d360048036038101906101ce91906112b6565b6109ac565b6040516101e091906117e5565b60405180910390f35b6101f1610a16565b6040516101fe9190611800565b60405180910390f35b61020f610a1d565b60405161021c9190611800565b60405180910390f35b61023f600480360381019061023a9190611323565b610a41565b60405161024d9291906116a2565b60405180910390f35b610270600480360381019061026b91906112b6565b610aa5565b005b61029c7ff857e99667b61d9feb64d6cb140ba8a8ba3501d58a4940223c8e74c45932fbf4336109ac565b6102db576040517f08c379a00000000000000000000000000000000000000000000000000000000081526004016102d2906118dd565b60405180910390fd5b6000811161031e576040517f08c379a00000000000000000000000000000000000000000000000000000000081526004016103159061185d565b60405180910390fd5b600160008573ffffffffffffffffffffffffffffffffffffffff1673ffffffffffffffffffffffffffffffffffffffff168152602001908152602001600020548111156103a0576040517f08c379a00000000000000000000000000000000000000000000000000000000081526004016103979061189d565b60405180910390fd5b80600160008673ffffffffffffffffffffffffffffffffffffffff1673ffffffffffffffffffffffffffffffffffffffff168152602001908152602001600020546103eb9190611a66565b600160008673ffffffffffffffffffffffffffffffffffffffff1673ffffffffffffffffffffffffffffffffffffffff168152602001908152602001600020819055508373ffffffffffffffffffffffffffffffffffffffff1663a9059cbb83836040518363ffffffff1660e01b81526004016104699291906117bc565b602060405180830381600087803b15801561048357600080fd5b505af1158015610497573d6000803e3d6000fd5b505050506040513d601f19601f820116820180604052508101906104bb919061122f565b6104fa576040517f08c379a00000000000000000000000000000000000000000000000000000000081526004016104f19061187d565b60405180910390fd5b7f8df70ea69ac49ee712a334863f5a094b32ced152f9911ca4ffec3800fc68ba418484848460405161052f9493929190611747565b60405180910390a150505050565b60007f7965db0b000000000000000000000000000000000000000000000000000000007bffffffffffffffffffffffffffffffffffffffffffffffffffffffff1916827bffffffffffffffffffffffffffffffffffffffffffffffffffffffff191614806105b057506105af82610ace565b5b9050919050565b6000806000838152602001908152602001600020600101549050919050565b60016020528060005260406000206000915090505481565b6105f7826105b7565b61060881610603610b38565b610b40565b6106128383610bdd565b505050565b61061f610b38565b73ffffffffffffffffffffffffffffffffffffffff168173ffffffffffffffffffffffffffffffffffffffff161461068c576040517f08c379a00000000000000000000000000000000000000000000000000000000081526004016106839061191d565b60405180910390fd5b6106968282610cbd565b5050565b8373ffffffffffffffffffffffffffffffffffffffff166323b872dd3330856040518463ffffffff1660e01b81526004016106d793929190611710565b602060405180830381600087803b1580156106f157600080fd5b505af1158015610705573d6000803e3d6000fd5b505050506040513d601f19601f82011682018060405250810190610729919061122f565b610768576040517f08c379a000000000000000000000000000000000000000000000000000000000815260040161075f906118bd565b60405180910390fd5b6000600181111561077c5761077b611c3e565b5b81600181111561078f5761078e611c3e565b5b14806107be57506001808111156107a9576107a8611c3e565b5b8160018111156107bc576107bb611c3e565b5b145b6107fd576040517f08c379a00000000000000000000000000000000000000000000000000000000081526004016107f4906118fd565b60405180910390fd5b81600160008673ffffffffffffffffffffffffffffffffffffffff1673ffffffffffffffffffffffffffffffffffffffff1681526020019081526020016000205461084891906119b6565b600160008673ffffffffffffffffffffffffffffffffffffffff1673ffffffffffffffffffffffffffffffffffffffff168152602001908152602001600020819055507f1e7b27577112ed83d53de87b38aee59ab80d8a9ba4acd90aad6cfee917534c79843385856040516108c094939291906116cb565b60405180910390a160006108d685338686610d9e565b90506000600260008460018111156108f1576108f0611c3e565b5b600181111561090357610902611c3e565b5b815260200190815260200160002060010160009054906101000a900473ffffffffffffffffffffffffffffffffffffffff1690508073ffffffffffffffffffffffffffffffffffffffff166376846edd33846040518363ffffffff1660e01b815260040161097292919061178c565b600060405180830381600087803b15801561098c57600080fd5b505af11580156109a0573d6000803e3d6000fd5b50505050505050505050565b600080600084815260200190815260200160002060000160008373ffffffffffffffffffffffffffffffffffffffff1673ffffffffffffffffffffffffffffffffffffffff16815260200190815260200160002060009054906101000a900460ff16905092915050565b6000801b81565b7ff857e99667b61d9feb64d6cb140ba8a8ba3501d58a4940223c8e74c45932fbf481565b60026020528060005260406000206000915090508060000160009054906101000a900473ffffffffffffffffffffffffffffffffffffffff16908060010160009054906101000a900473ffffffffffffffffffffffffffffffffffffffff16905082565b610aae826105b7565b610abf81610aba610b38565b610b40565b610ac98383610cbd565b505050565b60007f01ffc9a7000000000000000000000000000000000000000000000000000000007bffffffffffffffffffffffffffffffffffffffffffffffffffffffff1916827bffffffffffffffffffffffffffffffffffffffffffffffffffffffff1916149050919050565b600033905090565b610b4a82826109ac565b610bd957610b6f8173ffffffffffffffffffffffffffffffffffffffff166014610e65565b610b7d8360001c6020610e65565b604051602001610b8e929190611668565b6040516020818303038152906040526040517f08c379a0000000000000000000000000000000000000000000000000000000008152600401610bd0919061181b565b60405180910390fd5b5050565b610be782826109ac565b610cb957600160008084815260200190815260200160002060000160008373ffffffffffffffffffffffffffffffffffffffff1673ffffffffffffffffffffffffffffffffffffffff16815260200190815260200160002060006101000a81548160ff021916908315150217905550610c5e610b38565b73ffffffffffffffffffffffffffffffffffffffff168173ffffffffffffffffffffffffffffffffffffffff16837f2f8788117e7eff1d82e926ec794901d17c78024a50270940304540a733656f0d60405160405180910390a45b5050565b610cc782826109ac565b15610d9a57600080600084815260200190815260200160002060000160008373ffffffffffffffffffffffffffffffffffffffff1673ffffffffffffffffffffffffffffffffffffffff16815260200190815260200160002060006101000a81548160ff021916908315150217905550610d3f610b38565b73ffffffffffffffffffffffffffffffffffffffff168173ffffffffffffffffffffffffffffffffffffffff16837ff6391f5c32d9c69d2a47ea670b442974b53935d1edc7fd64eb21e047a839171b60405160405180910390a45b5050565b606061420160f01b8585600060f81b868673__$7cdc5241ea8d29c91205423c213999ecf3$__63dfd47e0e90916040518263ffffffff1660e01b8152600401610de7919061193d565b60206040518083038186803b158015610dff57600080fd5b505af4158015610e13573d6000803e3d6000fd5b505050506040513d601f19601f82011682018060405250810190610e379190611289565b604051602001610e4c969594939291906115f8565b6040516020818303038152906040529050949350505050565b606060006002836002610e789190611a0c565b610e8291906119b6565b67ffffffffffffffff811115610e9b57610e9a611c9c565b5b6040519080825280601f01601f191660200182016040528015610ecd5781602001600182028036833780820191505090505b5090507f300000000000000000000000000000000000000000000000000000000000000081600081518110610f0557610f04611c6d565b5b60200101907effffffffffffffffffffffffffffffffffffffffffffffffffffffffffffff1916908160001a9053507f780000000000000000000000000000000000000000000000000000000000000081600181518110610f6957610f68611c6d565b5b60200101907effffffffffffffffffffffffffffffffffffffffffffffffffffffffffffff1916908160001a90535060006001846002610fa99190611a0c565b610fb391906119b6565b90505b6001811115611053577f3031323334353637383961626364656600000000000000000000000000000000600f861660108110610ff557610ff4611c6d565b5b1a60f81b82828151811061100c5761100b611c6d565b5b60200101907effffffffffffffffffffffffffffffffffffffffffffffffffffffffffffff1916908160001a905350600485901c94508061104c90611ba3565b9050610fb6565b5060008414611097576040517f08c379a000000000000000000000000000000000000000000000000000000000815260040161108e9061183d565b60405180910390fd5b8091505092915050565b6000813590506110b081611f20565b92915050565b6000815190506110c581611f37565b92915050565b6000813590506110da81611f4e565b92915050565b6000815190506110ef81611f4e565b92915050565b60008135905061110481611f65565b92915050565b60008135905061111981611f7c565b92915050565b60008135905061112e81611f8c565b92915050565b60006020828403121561114a57611149611ccb565b5b6000611158848285016110a1565b91505092915050565b6000806000806080858703121561117b5761117a611ccb565b5b6000611189878288016110a1565b945050602061119a878288016110cb565b93505060406111ab878288016110a1565b92505060606111bc8782880161111f565b91505092959194509250565b600080600080608085870312156111e2576111e1611ccb565b5b60006111f0878288016110a1565b9450506020611201878288016110cb565b93505060406112128782880161111f565b92505060606112238782880161110a565b91505092959194509250565b60006020828403121561124557611244611ccb565b5b6000611253848285016110b6565b91505092915050565b60006020828403121561127257611271611ccb565b5b6000611280848285016110cb565b91505092915050565b60006020828403121561129f5761129e611ccb565b5b60006112ad848285016110e0565b91505092915050565b600080604083850312156112cd576112cc611ccb565b5b60006112db858286016110cb565b92505060206112ec858286016110a1565b9150509250929050565b60006020828403121561130c5761130b611ccb565b5b600061131a848285016110f5565b91505092915050565b60006020828403121561133957611338611ccb565b5b60006113478482850161110a565b91505092915050565b61135981611a9a565b82525050565b61137061136b82611a9a565b611bcd565b82525050565b61137f81611aac565b82525050565b61139661139182611ab8565b611bdf565b82525050565b6113ad6113a882611ae4565b611be9565b82525050565b6113bc81611b10565b82525050565b6113d36113ce82611b10565b611bf3565b82525050565b60006113e482611973565b6113ee8185611989565b93506113fe818560208601611b70565b61140781611cd0565b840191505092915050565b600061141d8261197e565b611427818561199a565b9350611437818560208601611b70565b61144081611cd0565b840191505092915050565b60006114568261197e565b61146081856119ab565b9350611470818560208601611b70565b80840191505092915050565b600061148960208361199a565b915061149482611cee565b602082019050919050565b60006114ac601d8361199a565b91506114b782611d17565b602082019050919050565b60006114cf601b8361199a565b91506114da82611d40565b602082019050919050565b60006114f2603f8361199a565b91506114fd82611d69565b604082019050919050565b600061151560448361199a565b915061152082611db8565b606082019050919050565b60006115386017836119ab565b915061154382611e2d565b601782019050919050565b600061155b60208361199a565b915061156682611e56565b602082019050919050565b600061157e6011836119ab565b915061158982611e7f565b601182019050919050565b60006115a160128361199a565b91506115ac82611ea8565b602082019050919050565b60006115c4602f8361199a565b91506115cf82611ed1565b604082019050919050565b6115e381611b66565b82525050565b6115f281611b66565b82525050565b6000611604828961139c565b600282019150611614828861135f565b601482019150611624828761135f565b6014820191506116348286611385565b60018201915061164482856113c2565b60208201915061165482846113c2565b602082019150819050979650505050505050565b60006116738261152b565b915061167f828561144b565b915061168a82611571565b9150611696828461144b565b91508190509392505050565b60006040820190506116b76000830185611350565b6116c46020830184611350565b9392505050565b60006080820190506116e06000830187611350565b6116ed6020830186611350565b6116fa60408301856113b3565b61170760608301846115da565b95945050505050565b60006060820190506117256000830186611350565b6117326020830185611350565b61173f60408301846115da565b949350505050565b600060808201905061175c6000830187611350565b61176960208301866113b3565b6117766040830185611350565b61178360608301846115da565b95945050505050565b60006040820190506117a16000830185611350565b81810360208301526117b381846113d9565b90509392505050565b60006040820190506117d16000830185611350565b6117de60208301846115da565b9392505050565b60006020820190506117fa6000830184611376565b92915050565b600060208201905061181560008301846113b3565b92915050565b600060208201905081810360008301526118358184611412565b905092915050565b600060208201905081810360008301526118568161147c565b9050919050565b600060208201905081810360008301526118768161149f565b9050919050565b60006020820190508181036000830152611896816114c2565b9050919050565b600060208201905081810360008301526118b6816114e5565b9050919050565b600060208201905081810360008301526118d681611508565b9050919050565b600060208201905081810360008301526118f68161154e565b9050919050565b6000602082019050818103600083015261191681611594565b9050919050565b60006020820190508181036000830152611936816115b7565b9050919050565b600060208201905061195260008301846115e9565b92915050565b600060208201905061196d60008301846115da565b92915050565b600081519050919050565b600081519050919050565b600082825260208201905092915050565b600082825260208201905092915050565b600081905092915050565b60006119c182611b66565b91506119cc83611b66565b9250827fffffffffffffffffffffffffffffffffffffffffffffffffffffffffffffffff03821115611a0157611a00611c0f565b5b828201905092915050565b6000611a1782611b66565b9150611a2283611b66565b9250817fffffffffffffffffffffffffffffffffffffffffffffffffffffffffffffffff0483118215151615611a5b57611a5a611c0f565b5b828202905092915050565b6000611a7182611b66565b9150611a7c83611b66565b925082821015611a8f57611a8e611c0f565b5b828203905092915050565b6000611aa582611b46565b9050919050565b60008115159050919050565b60007fff0000000000000000000000000000000000000000000000000000000000000082169050919050565b60007fffff00000000000000000000000000000000000000000000000000000000000082169050919050565b6000819050919050565b60007fffffffff0000000000000000000000000000000000000000000000000000000082169050919050565b600073ffffffffffffffffffffffffffffffffffffffff82169050919050565b6000819050919050565b60005b83811015611b8e578082015181840152602081019050611b73565b83811115611b9d576000848401525b50505050565b6000611bae82611b66565b91506000821415611bc257611bc1611c0f565b5b600182039050919050565b6000611bd882611bfd565b9050919050565b6000819050919050565b6000819050919050565b6000819050919050565b6000611c0882611ce1565b9050919050565b7f4e487b7100000000000000000000000000000000000000000000000000000000600052601160045260246000fd5b7f4e487b7100000000000000000000000000000000000000000000000000000000600052602160045260246000fd5b7f4e487b7100000000000000000000000000000000000000000000000000000000600052603260045260246000fd5b7f4e487b7100000000000000000000000000000000000000000000000000000000600052604160045260246000fd5b600080fd5b6000601f19601f8301169050919050565b60008160601b9050919050565b7f537472696e67733a20686578206c656e67746820696e73756666696369656e74600082015250565b7f4d75737420756e6c6f636b206120706f73697469766520616d6f756e74000000600082015250565b7f455243323020746f6b656e207472616e73666572206661696c65640000000000600082015250565b7f455243323020746f6b656e2062616c616e63657320696e73756666696369656e60008201527f7420746f2066756c66696c6c2074686520756e6c6f636b207265717565737400602082015250565b7f436f6e747261637420746f6b656e20616c6c6f77616e63657320696e7375666660008201527f696369656e7420746f20636f6d706c6574652074686973206c6f636b2072657160208201527f7565737400000000000000000000000000000000000000000000000000000000604082015250565b7f416363657373436f6e74726f6c3a206163636f756e7420000000000000000000600082015250565b7f43616c6c6572206973206e6f7420616e20696e626f756e64206368616e6e656c600082015250565b7f206973206d697373696e6720726f6c6520000000000000000000000000000000600082015250565b7f496e76616c6964206368616e6e656c2049440000000000000000000000000000600082015250565b7f416363657373436f6e74726f6c3a2063616e206f6e6c792072656e6f756e636560008201527f20726f6c657320666f722073656c660000000000000000000000000000000000602082015250565b611f2981611a9a565b8114611f3457600080fd5b50565b611f4081611aac565b8114611f4b57600080fd5b50565b611f5781611b10565b8114611f6257600080fd5b50565b611f6e81611b1a565b8114611f7957600080fd5b50565b60028110611f8957600080fd5b50565b611f9581611b66565b8114611fa057600080fd5b5056fea26469706673582212209316ddd49ac7422a9c06f9cddd6a68b9fbf6d8e292e0c54cdcdf7258a95b181e64736f6c63430008060033",
  "linkReferences": {
    "contracts/ScaleCodec.sol": {
      "ScaleCodec": [
        {
          "length": 20,
          "start": 4962
        }
      ]
    }
  },
  "deployedLinkReferences": {
    "contracts/ScaleCodec.sol": {
      "ScaleCodec": [
        {
          "length": 20,
          "start": 3505
        }
      ]
    }
  }
}