{
  "contractName": "ERC20App",
  "abi": [
    {
      "inputs": [
        {
          "components": [
            {
              "internalType": "address",
              "name": "inbound",
              "type": "address"
            },
            {
              "internalType": "address",
              "name": "outbound",
              "type": "address"
            }
          ],
          "internalType": "struct ERC20App.Channel",
          "name": "_basic",
          "type": "tuple"
        },
        {
          "components": [
            {
              "internalType": "address",
              "name": "inbound",
              "type": "address"
            },
            {
              "internalType": "address",
              "name": "outbound",
              "type": "address"
            }
          ],
          "internalType": "struct ERC20App.Channel",
          "name": "_incentivized",
          "type": "tuple"
        }
      ],
      "stateMutability": "nonpayable",
      "type": "constructor"
    },
    {
      "anonymous": false,
      "inputs": [
        {
          "indexed": false,
          "internalType": "address",
          "name": "token",
          "type": "address"
        },
        {
          "indexed": false,
          "internalType": "address",
          "name": "sender",
          "type": "address"
        },
        {
          "indexed": false,
          "internalType": "bytes32",
          "name": "recipient",
          "type": "bytes32"
        },
        {
          "indexed": false,
          "internalType": "uint256",
          "name": "amount",
          "type": "uint256"
        }
      ],
      "name": "Locked",
      "type": "event"
    },
    {
      "anonymous": false,
      "inputs": [
        {
          "indexed": false,
          "internalType": "address",
          "name": "token",
          "type": "address"
        },
        {
          "indexed": false,
          "internalType": "bytes32",
          "name": "sender",
          "type": "bytes32"
        },
        {
          "indexed": false,
          "internalType": "address",
          "name": "recipient",
          "type": "address"
        },
        {
          "indexed": false,
          "internalType": "uint256",
          "name": "amount",
          "type": "uint256"
        }
      ],
      "name": "Unlocked",
      "type": "event"
    },
    {
      "inputs": [
        {
          "internalType": "address",
          "name": "",
          "type": "address"
        }
      ],
      "name": "balances",
      "outputs": [
        {
          "internalType": "uint256",
          "name": "",
          "type": "uint256"
        }
      ],
      "stateMutability": "view",
      "type": "function",
      "constant": true
    },
    {
      "inputs": [
        {
          "internalType": "enum ChannelId",
          "name": "",
          "type": "uint8"
        }
      ],
      "name": "channels",
      "outputs": [
        {
          "internalType": "address",
          "name": "inbound",
          "type": "address"
        },
        {
          "internalType": "address",
          "name": "outbound",
          "type": "address"
        }
      ],
      "stateMutability": "view",
      "type": "function",
      "constant": true
    },
    {
      "inputs": [
        {
          "internalType": "address",
          "name": "_token",
          "type": "address"
        },
        {
          "internalType": "bytes32",
          "name": "_recipient",
          "type": "bytes32"
        },
        {
          "internalType": "uint256",
          "name": "_amount",
          "type": "uint256"
        },
        {
          "internalType": "enum ChannelId",
          "name": "_channelId",
          "type": "uint8"
        }
      ],
      "name": "lock",
      "outputs": [],
      "stateMutability": "nonpayable",
      "type": "function"
    },
    {
      "inputs": [
        {
          "internalType": "address",
          "name": "_token",
          "type": "address"
        },
        {
          "internalType": "bytes32",
          "name": "_sender",
          "type": "bytes32"
        },
        {
          "internalType": "address",
          "name": "_recipient",
          "type": "address"
        },
        {
          "internalType": "uint256",
          "name": "_amount",
          "type": "uint256"
        }
      ],
      "name": "unlock",
      "outputs": [],
      "stateMutability": "nonpayable",
      "type": "function"
    }
  ],
  "bytecode": "0x60806040523480156200001157600080fd5b50604051620014ca380380620014ca833981810160405281019062000037919062000225565b6000600160008060018111156200004a57fe5b60018111156200005657fe5b8152602001908152602001600020905082600001518160000160006101000a81548173ffffffffffffffffffffffffffffffffffffffff021916908373ffffffffffffffffffffffffffffffffffffffff16021790555082602001518160010160006101000a81548173ffffffffffffffffffffffffffffffffffffffff021916908373ffffffffffffffffffffffffffffffffffffffff1602179055506000600160006001808111156200010757fe5b60018111156200011357fe5b8152602001908152602001600020905082600001518160000160006101000a81548173ffffffffffffffffffffffffffffffffffffffff021916908373ffffffffffffffffffffffffffffffffffffffff16021790555082602001518160010160006101000a81548173ffffffffffffffffffffffffffffffffffffffff021916908373ffffffffffffffffffffffffffffffffffffffff16021790555050505050620002ea565b600081519050620001cc81620002d0565b92915050565b600060408284031215620001e557600080fd5b620001f1604062000266565b905060006200020384828501620001bb565b60008301525060206200021984828501620001bb565b60208301525092915050565b600080608083850312156200023957600080fd5b60006200024985828601620001d2565b92505060406200025c85828601620001d2565b9150509250929050565b6000604051905081810181811067ffffffffffffffff8211171562000290576200028f620002ce565b5b8060405250919050565b6000620002a782620002ae565b9050919050565b600073ffffffffffffffffffffffffffffffffffffffff82169050919050565bfe5b620002db816200029a565b8114620002e757600080fd5b50565b6111d080620002fa6000396000f3fe608060405234801561001057600080fd5b506004361061004c5760003560e01c8063010ce3c71461005157806327e235e31461006d57806349e37f131461009d578063ccd34132146100b9575b600080fd5b61006b60048036038101906100669190610932565b6100ea565b005b61008760048036038101906100829190610909565b610350565b6040516100949190610f73565b60405180910390f35b6100b760048036038101906100b29190610995565b610368565b005b6100d360048036038101906100ce9190610a4a565b610655565b6040516100e1929190610ddc565b60405180910390f35b6000811161012d576040517f08c379a000000000000000000000000000000000000000000000000000000000815260040161012490610eb8565b60405180910390fd5b6000808573ffffffffffffffffffffffffffffffffffffffff1673ffffffffffffffffffffffffffffffffffffffff168152602001908152602001600020548111156101ae576040517f08c379a00000000000000000000000000000000000000000000000000000000081526004016101a590610ef8565b60405180910390fd5b6101ff816000808773ffffffffffffffffffffffffffffffffffffffff1673ffffffffffffffffffffffffffffffffffffffff168152602001908152602001600020546106b990919063ffffffff16565b6000808673ffffffffffffffffffffffffffffffffffffffff1673ffffffffffffffffffffffffffffffffffffffff168152602001908152602001600020819055508373ffffffffffffffffffffffffffffffffffffffff1663a9059cbb83836040518363ffffffff1660e01b815260040161027c929190610e8f565b602060405180830381600087803b15801561029657600080fd5b505af11580156102aa573d6000803e3d6000fd5b505050506040513d601f19601f820116820180604052508101906102ce91906109f8565b61030d576040517f08c379a000000000000000000000000000000000000000000000000000000000815260040161030490610ed8565b60405180910390fd5b7f8df70ea69ac49ee712a334863f5a094b32ced152f9911ca4ffec3800fc68ba41848484846040516103429493929190610e4a565b60405180910390a150505050565b60006020528060005260406000206000915090505481565b8373ffffffffffffffffffffffffffffffffffffffff166323b872dd3330856040518463ffffffff1660e01b81526004016103a593929190610d75565b602060405180830381600087803b1580156103bf57600080fd5b505af11580156103d3573d6000803e3d6000fd5b505050506040513d601f19601f820116820180604052508101906103f791906109f8565b610436576040517f08c379a000000000000000000000000000000000000000000000000000000000815260040161042d90610f18565b60405180910390fd5b6000600181111561044357fe5b81600181111561044f57fe5b1480610470575060018081111561046257fe5b81600181111561046e57fe5b145b6104af576040517f08c379a00000000000000000000000000000000000000000000000000000000081526004016104a690610f38565b60405180910390fd5b610500826000808773ffffffffffffffffffffffffffffffffffffffff1673ffffffffffffffffffffffffffffffffffffffff1681526020019081526020016000205461073c90919063ffffffff16565b6000808673ffffffffffffffffffffffffffffffffffffffff1673ffffffffffffffffffffffffffffffffffffffff168152602001908152602001600020819055507f1e7b27577112ed83d53de87b38aee59ab80d8a9ba4acd90aad6cfee917534c79843385856040516105779493929190610e05565b60405180910390a1600061058d853386866107c4565b90506000600160008460018111156105a157fe5b60018111156105ac57fe5b815260200190815260200160002060010160009054906101000a900473ffffffffffffffffffffffffffffffffffffffff1690508073ffffffffffffffffffffffffffffffffffffffff166376846edd33846040518363ffffffff1660e01b815260040161061b929190610dac565b600060405180830381600087803b15801561063557600080fd5b505af1158015610649573d6000803e3d6000fd5b50505050505050505050565b60016020528060005260406000206000915090508060000160009054906101000a900473ffffffffffffffffffffffffffffffffffffffff16908060010160009054906101000a900473ffffffffffffffffffffffffffffffffffffffff16905082565b600082821115610731576040517f08c379a000000000000000000000000000000000000000000000000000000000815260040180806020018281038252601e8152602001807f536166654d6174683a207375627472616374696f6e206f766572666c6f77000081525060200191505060405180910390fd5b818303905092915050565b6000808284019050838110156107ba576040517f08c379a000000000000000000000000000000000000000000000000000000000815260040180806020018281038252601b8152602001807f536166654d6174683a206164646974696f6e206f766572666c6f77000000000081525060200191505060405180910390fd5b8091505092915050565b6060610d0160f01b8585600060f81b868673__ScaleCodec____________________________63dfd47e0e90916040518263ffffffff1660e01b815260040161080d9190610f58565b60206040518083038186803b15801561082557600080fd5b505af4158015610839573d6000803e3d6000fd5b505050506040513d601f19601f8201168201806040525081019061085d9190610a21565b60405160200161087296959493929190610d05565b6040516020818303038152906040529050949350505050565b60008135905061089a8161112e565b92915050565b6000815190506108af81611145565b92915050565b6000813590506108c48161115c565b92915050565b6000815190506108d98161115c565b92915050565b6000813590506108ee81611173565b92915050565b60008135905061090381611183565b92915050565b60006020828403121561091b57600080fd5b60006109298482850161088b565b91505092915050565b6000806000806080858703121561094857600080fd5b60006109568782880161088b565b9450506020610967878288016108b5565b93505060406109788782880161088b565b9250506060610989878288016108f4565b91505092959194509250565b600080600080608085870312156109ab57600080fd5b60006109b98782880161088b565b94505060206109ca878288016108b5565b93505060406109db878288016108f4565b92505060606109ec878288016108df565b91505092959194509250565b600060208284031215610a0a57600080fd5b6000610a18848285016108a0565b91505092915050565b600060208284031215610a3357600080fd5b6000610a41848285016108ca565b91505092915050565b600060208284031215610a5c57600080fd5b6000610a6a848285016108df565b91505092915050565b610a7c81611065565b82525050565b610a8b81610fbb565b82525050565b610aa2610a9d82610fbb565b6110ce565b82525050565b610ab9610ab482610fd9565b6110e0565b82525050565b610ad0610acb82611005565b6110ea565b82525050565b610adf81611031565b82525050565b610af6610af182611031565b6110f4565b82525050565b6000610b0782610f8e565b610b118185610f99565b9350610b2181856020860161109b565b610b2a81611110565b840191505092915050565b6000610b42601d83610faa565b91507f4d75737420756e6c6f636b206120706f73697469766520616d6f756e740000006000830152602082019050919050565b6000610b82601b83610faa565b91507f455243323020746f6b656e207472616e73666572206661696c656400000000006000830152602082019050919050565b6000610bc2603f83610faa565b91507f455243323020746f6b656e2062616c616e63657320696e73756666696369656e60008301527f7420746f2066756c66696c6c2074686520756e6c6f636b2072657175657374006020830152604082019050919050565b6000610c28604483610faa565b91507f436f6e747261637420746f6b656e20616c6c6f77616e63657320696e7375666660008301527f696369656e7420746f20636f6d706c6574652074686973206c6f636b2072657160208301527f75657374000000000000000000000000000000000000000000000000000000006040830152606082019050919050565b6000610cb4601283610faa565b91507f496e76616c6964206368616e6e656c20494400000000000000000000000000006000830152602082019050919050565b610cf08161105b565b82525050565b610cff8161105b565b82525050565b6000610d118289610abf565b600282019150610d218288610a91565b601482019150610d318287610a91565b601482019150610d418286610aa8565b600182019150610d518285610ae5565b602082019150610d618284610ae5565b602082019150819050979650505050505050565b6000606082019050610d8a6000830186610a73565b610d976020830185610a82565b610da46040830184610ce7565b949350505050565b6000604082019050610dc16000830185610a73565b8181036020830152610dd38184610afc565b90509392505050565b6000604082019050610df16000830185610a82565b610dfe6020830184610a82565b9392505050565b6000608082019050610e1a6000830187610a82565b610e276020830186610a73565b610e346040830185610ad6565b610e416060830184610ce7565b95945050505050565b6000608082019050610e5f6000830187610a82565b610e6c6020830186610ad6565b610e796040830185610a82565b610e866060830184610ce7565b95945050505050565b6000604082019050610ea46000830185610a82565b610eb16020830184610ce7565b9392505050565b60006020820190508181036000830152610ed181610b35565b9050919050565b60006020820190508181036000830152610ef181610b75565b9050919050565b60006020820190508181036000830152610f1181610bb5565b9050919050565b60006020820190508181036000830152610f3181610c1b565b9050919050565b60006020820190508181036000830152610f5181610ca7565b9050919050565b6000602082019050610f6d6000830184610cf6565b92915050565b6000602082019050610f886000830184610ce7565b92915050565b600081519050919050565b600082825260208201905092915050565b600082825260208201905092915050565b6000610fc68261103b565b9050919050565b60008115159050919050565b60007fff0000000000000000000000000000000000000000000000000000000000000082169050919050565b60007fffff00000000000000000000000000000000000000000000000000000000000082169050919050565b6000819050919050565b600073ffffffffffffffffffffffffffffffffffffffff82169050919050565b6000819050919050565b600061107082611077565b9050919050565b600061108282611089565b9050919050565b60006110948261103b565b9050919050565b60005b838110156110b957808201518184015260208101905061109e565b838111156110c8576000848401525b50505050565b60006110d9826110fe565b9050919050565b6000819050919050565b6000819050919050565b6000819050919050565b600061110982611121565b9050919050565b6000601f19601f8301169050919050565b60008160601b9050919050565b61113781610fbb565b811461114257600080fd5b50565b61114e81610fcd565b811461115957600080fd5b50565b61116581611031565b811461117057600080fd5b50565b6002811061118057600080fd5b50565b61118c8161105b565b811461119757600080fd5b5056fea2646970667358221220f11d9e8fbeb3937bdcd4d4d7109371c47f6a48305fbc9d5423c991b8ac5ed9c564736f6c63430007060033",
  "immutableReferences": {},
  "source": "// SPDX-License-Identifier: MIT\npragma solidity >=0.7.6;\npragma experimental ABIEncoderV2;\n\nimport \"@openzeppelin/contracts/math/SafeMath.sol\";\nimport \"@openzeppelin/contracts/token/ERC20/IERC20.sol\";\nimport \"./ScaleCodec.sol\";\nimport \"./OutboundChannel.sol\";\n\nenum ChannelId {Basic, Incentivized}\n\ncontract ERC20App {\n    using SafeMath for uint256;\n    using ScaleCodec for uint256;\n\n    mapping(address => uint256) public balances;\n\n    mapping(ChannelId => Channel) public channels;\n\n    bytes2 constant MINT_CALL = 0x0d01;\n\n    event Locked(\n        address token,\n        address sender,\n        bytes32 recipient,\n        uint256 amount\n    );\n\n    event Unlocked(\n        address token,\n        bytes32 sender,\n        address recipient,\n        uint256 amount\n    );\n\n    struct Channel {\n        address inbound;\n        address outbound;\n    }\n\n    constructor(Channel memory _basic, Channel memory _incentivized) {\n        Channel storage c1 = channels[ChannelId.Basic];\n        c1.inbound = _basic.inbound;\n        c1.outbound = _basic.outbound;\n\n        Channel storage c2 = channels[ChannelId.Incentivized];\n        c2.inbound = _incentivized.inbound;\n        c2.outbound = _incentivized.outbound;\n    }\n\n    function lock(\n        address _token,\n        bytes32 _recipient,\n        uint256 _amount,\n        ChannelId _channelId\n    ) public {\n        require(\n            IERC20(_token).transferFrom(msg.sender, address(this), _amount),\n            \"Contract token allowances insufficient to complete this lock request\"\n        );\n        require(\n            _channelId == ChannelId.Basic ||\n                _channelId == ChannelId.Incentivized,\n            \"Invalid channel ID\"\n        );\n\n        balances[_token] = balances[_token].add(_amount);\n\n        emit Locked(_token, msg.sender, _recipient, _amount);\n\n        bytes memory call = encodeCall(_token, msg.sender, _recipient, _amount);\n\n        OutboundChannel channel =\n            OutboundChannel(channels[_channelId].outbound);\n        channel.submit(msg.sender, call);\n    }\n\n    function unlock(\n        address _token,\n        bytes32 _sender,\n        address _recipient,\n        uint256 _amount\n    ) public {\n        // TODO: Ensure message sender is a known inbound channel\n        require(_amount > 0, \"Must unlock a positive amount\");\n        require(\n            _amount <= balances[_token],\n            \"ERC20 token balances insufficient to fulfill the unlock request\"\n        );\n\n        balances[_token] = balances[_token].sub(_amount);\n        require(\n            IERC20(_token).transfer(_recipient, _amount),\n            \"ERC20 token transfer failed\"\n        );\n        emit Unlocked(_token, _sender, _recipient, _amount);\n    }\n\n    // SCALE-encode payload\n    function encodeCall(\n        address _token,\n        address _sender,\n        bytes32 _recipient,\n        uint256 _amount\n    ) private pure returns (bytes memory) {\n        return\n            abi.encodePacked(\n                MINT_CALL,\n                _token,\n                _sender,\n                byte(0x00), // Encode recipient as MultiAddress::Id\n                _recipient,\n                _amount.encode256()\n            );\n    }\n}\n",
  "sourcePath": "/home/jamie/dev/crypto/snowfork/polkadot-ethereum/ethereum/contracts/ERC20App.sol",
  "compiler": {
    "name": "solc",
    "version": "0.7.6+commit.7338295f.Emscripten.clang"
  },
  "schemaVersion": "3.2.5",
  "updatedAt": "2021-04-08T14:21:04.478Z",
  "networkType": "ethereum",
  "devdoc": {
    "kind": "dev",
    "methods": {},
    "version": 1
  },
  "userdoc": {
    "kind": "user",
    "methods": {},
    "version": 1
  }
}