{
  "_format": "hh-sol-artifact-1",
  "contractName": "ERC20App",
  "sourceName": "contracts/ERC20App.sol",
  "abi": [
    {
      "inputs": [
        {
          "components": [
            {
              "internalType": "address",
              "name": "inbound",
              "type": "address"
            },
            {
              "internalType": "address",
              "name": "outbound",
              "type": "address"
            }
          ],
          "internalType": "struct ERC20App.Channel",
          "name": "_basic",
          "type": "tuple"
        },
        {
          "components": [
            {
              "internalType": "address",
              "name": "inbound",
              "type": "address"
            },
            {
              "internalType": "address",
              "name": "outbound",
              "type": "address"
            }
          ],
          "internalType": "struct ERC20App.Channel",
          "name": "_incentivized",
          "type": "tuple"
        }
      ],
      "stateMutability": "nonpayable",
      "type": "constructor"
    },
    {
      "anonymous": false,
      "inputs": [
        {
          "indexed": false,
          "internalType": "address",
          "name": "token",
          "type": "address"
        },
        {
          "indexed": false,
          "internalType": "address",
          "name": "sender",
          "type": "address"
        },
        {
          "indexed": false,
          "internalType": "bytes32",
          "name": "recipient",
          "type": "bytes32"
        },
        {
          "indexed": false,
          "internalType": "uint128",
          "name": "amount",
          "type": "uint128"
        },
        {
          "indexed": false,
          "internalType": "uint32",
          "name": "paraId",
          "type": "uint32"
        },
        {
          "indexed": false,
          "internalType": "uint128",
          "name": "fee",
          "type": "uint128"
        }
      ],
      "name": "Locked",
      "type": "event"
    },
    {
      "anonymous": false,
      "inputs": [
        {
          "indexed": true,
          "internalType": "bytes32",
          "name": "role",
          "type": "bytes32"
        },
        {
          "indexed": true,
          "internalType": "bytes32",
          "name": "previousAdminRole",
          "type": "bytes32"
        },
        {
          "indexed": true,
          "internalType": "bytes32",
          "name": "newAdminRole",
          "type": "bytes32"
        }
      ],
      "name": "RoleAdminChanged",
      "type": "event"
    },
    {
      "anonymous": false,
      "inputs": [
        {
          "indexed": true,
          "internalType": "bytes32",
          "name": "role",
          "type": "bytes32"
        },
        {
          "indexed": true,
          "internalType": "address",
          "name": "account",
          "type": "address"
        },
        {
          "indexed": true,
          "internalType": "address",
          "name": "sender",
          "type": "address"
        }
      ],
      "name": "RoleGranted",
      "type": "event"
    },
    {
      "anonymous": false,
      "inputs": [
        {
          "indexed": true,
          "internalType": "bytes32",
          "name": "role",
          "type": "bytes32"
        },
        {
          "indexed": true,
          "internalType": "address",
          "name": "account",
          "type": "address"
        },
        {
          "indexed": true,
          "internalType": "address",
          "name": "sender",
          "type": "address"
        }
      ],
      "name": "RoleRevoked",
      "type": "event"
    },
    {
      "anonymous": false,
      "inputs": [
        {
          "indexed": false,
          "internalType": "address",
          "name": "token",
          "type": "address"
        },
        {
          "indexed": false,
          "internalType": "bytes32",
          "name": "sender",
          "type": "bytes32"
        },
        {
          "indexed": false,
          "internalType": "address",
          "name": "recipient",
          "type": "address"
        },
        {
          "indexed": false,
          "internalType": "uint128",
          "name": "amount",
          "type": "uint128"
        }
      ],
      "name": "Unlocked",
      "type": "event"
    },
    {
      "anonymous": false,
      "inputs": [
        {
          "indexed": false,
          "internalType": "address",
          "name": "upgrader",
          "type": "address"
        },
        {
          "components": [
            {
              "internalType": "address",
              "name": "inbound",
              "type": "address"
            },
            {
              "internalType": "address",
              "name": "outbound",
              "type": "address"
            }
          ],
          "indexed": false,
          "internalType": "struct ERC20App.Channel",
          "name": "basic",
          "type": "tuple"
        },
        {
          "components": [
            {
              "internalType": "address",
              "name": "inbound",
              "type": "address"
            },
            {
              "internalType": "address",
              "name": "outbound",
              "type": "address"
            }
          ],
          "indexed": false,
          "internalType": "struct ERC20App.Channel",
          "name": "incentivized",
          "type": "tuple"
        }
      ],
      "name": "Upgraded",
      "type": "event"
    },
    {
      "inputs": [],
      "name": "CHANNEL_UPGRADE_ROLE",
      "outputs": [
        {
          "internalType": "bytes32",
          "name": "",
          "type": "bytes32"
        }
      ],
      "stateMutability": "view",
      "type": "function"
    },
    {
      "inputs": [],
      "name": "DEFAULT_ADMIN_ROLE",
      "outputs": [
        {
          "internalType": "bytes32",
          "name": "",
          "type": "bytes32"
        }
      ],
      "stateMutability": "view",
      "type": "function"
    },
    {
      "inputs": [],
      "name": "INBOUND_CHANNEL_ROLE",
      "outputs": [
        {
          "internalType": "bytes32",
          "name": "",
          "type": "bytes32"
        }
      ],
      "stateMutability": "view",
      "type": "function"
    },
    {
      "inputs": [
        {
          "internalType": "address",
          "name": "",
          "type": "address"
        }
      ],
      "name": "balances",
      "outputs": [
        {
          "internalType": "uint128",
          "name": "",
          "type": "uint128"
        }
      ],
      "stateMutability": "view",
      "type": "function"
    },
    {
      "inputs": [
        {
          "internalType": "enum ChannelId",
          "name": "",
          "type": "uint8"
        }
      ],
      "name": "channels",
      "outputs": [
        {
          "internalType": "address",
          "name": "inbound",
          "type": "address"
        },
        {
          "internalType": "address",
          "name": "outbound",
          "type": "address"
        }
      ],
      "stateMutability": "view",
      "type": "function"
    },
    {
      "inputs": [
        {
          "internalType": "bytes32",
          "name": "role",
          "type": "bytes32"
        }
      ],
      "name": "getRoleAdmin",
      "outputs": [
        {
          "internalType": "bytes32",
          "name": "",
          "type": "bytes32"
        }
      ],
      "stateMutability": "view",
      "type": "function"
    },
    {
      "inputs": [
        {
          "internalType": "bytes32",
          "name": "role",
          "type": "bytes32"
        },
        {
          "internalType": "address",
          "name": "account",
          "type": "address"
        }
      ],
      "name": "grantRole",
      "outputs": [],
      "stateMutability": "nonpayable",
      "type": "function"
    },
    {
      "inputs": [
        {
          "internalType": "bytes32",
          "name": "role",
          "type": "bytes32"
        },
        {
          "internalType": "address",
          "name": "account",
          "type": "address"
        }
      ],
      "name": "hasRole",
      "outputs": [
        {
          "internalType": "bool",
          "name": "",
          "type": "bool"
        }
      ],
      "stateMutability": "view",
      "type": "function"
    },
    {
      "inputs": [
        {
          "internalType": "address",
          "name": "_token",
          "type": "address"
        },
        {
          "internalType": "bytes32",
          "name": "_recipient",
          "type": "bytes32"
        },
        {
          "internalType": "uint128",
          "name": "_amount",
          "type": "uint128"
        },
        {
          "internalType": "enum ChannelId",
          "name": "_channelId",
          "type": "uint8"
        },
        {
          "internalType": "uint32",
          "name": "_paraId",
          "type": "uint32"
        },
        {
          "internalType": "uint128",
          "name": "_fee",
          "type": "uint128"
        }
      ],
      "name": "lock",
      "outputs": [],
      "stateMutability": "nonpayable",
      "type": "function"
    },
    {
      "inputs": [
        {
          "internalType": "bytes32",
          "name": "role",
          "type": "bytes32"
        },
        {
          "internalType": "address",
          "name": "account",
          "type": "address"
        }
      ],
      "name": "renounceRole",
      "outputs": [],
      "stateMutability": "nonpayable",
      "type": "function"
    },
    {
      "inputs": [
        {
          "internalType": "bytes32",
          "name": "role",
          "type": "bytes32"
        },
        {
          "internalType": "address",
          "name": "account",
          "type": "address"
        }
      ],
      "name": "revokeRole",
      "outputs": [],
      "stateMutability": "nonpayable",
      "type": "function"
    },
    {
      "inputs": [
        {
          "internalType": "bytes4",
          "name": "interfaceId",
          "type": "bytes4"
        }
      ],
      "name": "supportsInterface",
      "outputs": [
        {
          "internalType": "bool",
          "name": "",
          "type": "bool"
        }
      ],
      "stateMutability": "view",
      "type": "function"
    },
    {
      "inputs": [
        {
          "internalType": "address",
          "name": "",
          "type": "address"
        }
      ],
      "name": "tokens",
      "outputs": [
        {
          "internalType": "bool",
          "name": "",
          "type": "bool"
        }
      ],
      "stateMutability": "view",
      "type": "function"
    },
    {
      "inputs": [
        {
          "internalType": "address",
          "name": "_token",
          "type": "address"
        },
        {
          "internalType": "bytes32",
          "name": "_sender",
          "type": "bytes32"
        },
        {
          "internalType": "address",
          "name": "_recipient",
          "type": "address"
        },
        {
          "internalType": "uint128",
          "name": "_amount",
          "type": "uint128"
        }
      ],
      "name": "unlock",
      "outputs": [],
      "stateMutability": "nonpayable",
      "type": "function"
    },
    {
      "inputs": [
        {
          "components": [
            {
              "internalType": "address",
              "name": "inbound",
              "type": "address"
            },
            {
              "internalType": "address",
              "name": "outbound",
              "type": "address"
            }
          ],
          "internalType": "struct ERC20App.Channel",
          "name": "_basic",
          "type": "tuple"
        },
        {
          "components": [
            {
              "internalType": "address",
              "name": "inbound",
              "type": "address"
            },
            {
              "internalType": "address",
              "name": "outbound",
              "type": "address"
            }
          ],
          "internalType": "struct ERC20App.Channel",
          "name": "_incentivized",
          "type": "tuple"
        }
      ],
      "name": "upgrade",
      "outputs": [],
      "stateMutability": "nonpayable",
      "type": "function"
    }
  ],
  "bytecode": "0x60806040523480156200001157600080fd5b50604051620037c2380380620037c2833981810160405281019062000037919062000566565b60006002600080600181111562000053576200005262000640565b5b600181111562000068576200006762000640565b5b8152602001908152602001600020905082600001518160000160006101000a81548173ffffffffffffffffffffffffffffffffffffffff021916908373ffffffffffffffffffffffffffffffffffffffff16021790555082602001518160010160006101000a81548173ffffffffffffffffffffffffffffffffffffffff021916908373ffffffffffffffffffffffffffffffffffffffff16021790555060006002600060018081111562000122576200012162000640565b5b600181111562000137576200013662000640565b5b8152602001908152602001600020905082600001518160000160006101000a81548173ffffffffffffffffffffffffffffffffffffffff021916908373ffffffffffffffffffffffffffffffffffffffff16021790555082602001518160010160006101000a81548173ffffffffffffffffffffffffffffffffffffffff021916908373ffffffffffffffffffffffffffffffffffffffff160217905550620002077f9bac3bf563d906e4c002c9b37dc34326776a9168ece7376a7a577f98c0c99a89336200030160201b60201c565b620002597ff857e99667b61d9feb64d6cb140ba8a8ba3501d58a4940223c8e74c45932fbf47f9bac3bf563d906e4c002c9b37dc34326776a9168ece7376a7a577f98c0c99a896200031760201b60201c565b6200028b7f9bac3bf563d906e4c002c9b37dc34326776a9168ece7376a7a577f98c0c99a89806200031760201b60201c565b620002c17ff857e99667b61d9feb64d6cb140ba8a8ba3501d58a4940223c8e74c45932fbf485600001516200030160201b60201c565b620002f77ff857e99667b61d9feb64d6cb140ba8a8ba3501d58a4940223c8e74c45932fbf484600001516200030160201b60201c565b50505050620006d3565b6200031382826200037460201b60201c565b5050565b8062000329836200046560201b60201c565b837fbd79b86ffe0ab8e8776151514217cd7cacd52c909f66475c3af44e129f0b00ff60405160405180910390a480600080848152602001908152602001600020600101819055505050565b6200038682826200048460201b60201c565b6200046157600160008084815260200190815260200160002060000160008373ffffffffffffffffffffffffffffffffffffffff1673ffffffffffffffffffffffffffffffffffffffff16815260200190815260200160002060006101000a81548160ff02191690831515021790555062000406620004ee60201b60201c565b73ffffffffffffffffffffffffffffffffffffffff168173ffffffffffffffffffffffffffffffffffffffff16837f2f8788117e7eff1d82e926ec794901d17c78024a50270940304540a733656f0d60405160405180910390a45b5050565b6000806000838152602001908152602001600020600101549050919050565b600080600084815260200190815260200160002060000160008373ffffffffffffffffffffffffffffffffffffffff1673ffffffffffffffffffffffffffffffffffffffff16815260200190815260200160002060009054906101000a900460ff16905092915050565b600033905090565b6000815190506200050781620006b9565b92915050565b6000604082840312156200052657620005256200069e565b5b620005326040620005ad565b905060006200054484828501620004f6565b60008301525060206200055a84828501620004f6565b60208301525092915050565b6000806080838503121562000580576200057f620006a3565b5b600062000590858286016200050d565b9250506040620005a3858286016200050d565b9150509250929050565b6000620005b9620005cc565b9050620005c782826200060a565b919050565b6000604051905090565b6000620005e382620005ea565b9050919050565b600073ffffffffffffffffffffffffffffffffffffffff82169050919050565b6200061582620006a8565b810181811067ffffffffffffffff821117156200063757620006366200066f565b5b80604052505050565b7f4e487b7100000000000000000000000000000000000000000000000000000000600052602160045260246000fd5b7f4e487b7100000000000000000000000000000000000000000000000000000000600052604160045260246000fd5b600080fd5b600080fd5b6000601f19601f8301169050919050565b620006c481620005d6565b8114620006d057600080fd5b50565b6130df80620006e36000396000f3fe608060405234801561001057600080fd5b50600436106100f55760003560e01c8063a217fddf11610097578063d547741f11610066578063d547741f14610297578063e4860339146102b3578063f1e5e55d146102e3578063fdc16229146102ff576100f5565b8063a217fddf1461020e578063bc0c22a71461022c578063c952f3181461024a578063ccd3413214610266576100f5565b80632f2ff15d116100d35780632f2ff15d1461018a57806336568abe146101a657806371ac2bb6146101c257806391d14854146101de576100f5565b806301ffc9a7146100fa578063248a9ca31461012a57806327e235e31461015a575b600080fd5b610114600480360381019061010f9190611ed7565b61031d565b604051610121919061269c565b60405180910390f35b610144600480360381019061013f9190611e6a565b610397565b60405161015191906126b7565b60405180910390f35b610174600480360381019061016f9190611cef565b6103b6565b604051610181919061282f565b60405180910390f35b6101a4600480360381019061019f9190611e97565b6103e5565b005b6101c060048036038101906101bb9190611e97565b61040e565b005b6101dc60048036038101906101d79190611f5e565b610491565b005b6101f860048036038101906101f39190611e97565b61078f565b604051610205919061269c565b60405180910390f35b6102166107f9565b60405161022391906126b7565b60405180910390f35b610234610800565b60405161024191906126b7565b60405180910390f35b610264600480360381019061025f9190611d1c565b610824565b005b610280600480360381019061027b9190611f31565b610aca565b60405161028e929190612506565b60405180910390f35b6102b160048036038101906102ac9190611e97565b610b2e565b005b6102cd60048036038101906102c89190611cef565b610b57565b6040516102da919061269c565b60405180910390f35b6102fd60048036038101906102f89190611d83565b610b77565b005b610307611027565b60405161031491906126b7565b60405180910390f35b60007f7965db0b000000000000000000000000000000000000000000000000000000007bffffffffffffffffffffffffffffffffffffffffffffffffffffffff1916827bffffffffffffffffffffffffffffffffffffffffffffffffffffffff19161480610390575061038f8261104b565b5b9050919050565b6000806000838152602001908152602001600020600101549050919050565b60016020528060005260406000206000915054906101000a90046fffffffffffffffffffffffffffffffff1681565b6103ee82610397565b6103ff816103fa6110b5565b6110bd565b610409838361115a565b505050565b6104166110b5565b73ffffffffffffffffffffffffffffffffffffffff168173ffffffffffffffffffffffffffffffffffffffff1614610483576040517f08c379a000000000000000000000000000000000000000000000000000000000815260040161047a906127f4565b60405180910390fd5b61048d828261123a565b5050565b7f9bac3bf563d906e4c002c9b37dc34326776a9168ece7376a7a577f98c0c99a896104c3816104be6110b5565b6110bd565b6000600260008060018111156104dc576104db612c8f565b5b60018111156104ee576104ed612c8f565b5b8152602001908152602001600020905060006002600060018081111561051757610516612c8f565b5b600181111561052957610528612c8f565b5b815260200190815260200160002090506105877ff857e99667b61d9feb64d6cb140ba8a8ba3501d58a4940223c8e74c45932fbf48360000160009054906101000a900473ffffffffffffffffffffffffffffffffffffffff16610b2e565b6105d57ff857e99667b61d9feb64d6cb140ba8a8ba3501d58a4940223c8e74c45932fbf48260000160009054906101000a900473ffffffffffffffffffffffffffffffffffffffff16610b2e565b84600001518260000160006101000a81548173ffffffffffffffffffffffffffffffffffffffff021916908373ffffffffffffffffffffffffffffffffffffffff16021790555084602001518260010160006101000a81548173ffffffffffffffffffffffffffffffffffffffff021916908373ffffffffffffffffffffffffffffffffffffffff16021790555083600001518160000160006101000a81548173ffffffffffffffffffffffffffffffffffffffff021916908373ffffffffffffffffffffffffffffffffffffffff16021790555083602001518160010160006101000a81548173ffffffffffffffffffffffffffffffffffffffff021916908373ffffffffffffffffffffffffffffffffffffffff16021790555061071f7ff857e99667b61d9feb64d6cb140ba8a8ba3501d58a4940223c8e74c45932fbf486600001516103e5565b61074d7ff857e99667b61d9feb64d6cb140ba8a8ba3501d58a4940223c8e74c45932fbf485600001516103e5565b7f30f77c97dcde9bb66d94051acfc00bf7cc5b681a05081da244812234f00374903383836040516107809392919061263c565b60405180910390a15050505050565b600080600084815260200190815260200160002060000160008373ffffffffffffffffffffffffffffffffffffffff1673ffffffffffffffffffffffffffffffffffffffff16815260200190815260200160002060009054906101000a900460ff16905092915050565b6000801b81565b7ff857e99667b61d9feb64d6cb140ba8a8ba3501d58a4940223c8e74c45932fbf481565b7ff857e99667b61d9feb64d6cb140ba8a8ba3501d58a4940223c8e74c45932fbf4610856816108516110b5565b6110bd565b6000826fffffffffffffffffffffffffffffffff16116108ab576040517f08c379a00000000000000000000000000000000000000000000000000000000081526004016108a290612714565b60405180910390fd5b600160008673ffffffffffffffffffffffffffffffffffffffff1673ffffffffffffffffffffffffffffffffffffffff16815260200190815260200160002060009054906101000a90046fffffffffffffffffffffffffffffffff166fffffffffffffffffffffffffffffffff16826fffffffffffffffffffffffffffffffff16111561096d576040517f08c379a000000000000000000000000000000000000000000000000000000000815260040161096490612734565b60405180910390fd5b81600160008773ffffffffffffffffffffffffffffffffffffffff1673ffffffffffffffffffffffffffffffffffffffff16815260200190815260200160002060009054906101000a90046fffffffffffffffffffffffffffffffff166109d491906129ce565b600160008773ffffffffffffffffffffffffffffffffffffffff1673ffffffffffffffffffffffffffffffffffffffff16815260200190815260200160002060006101000a8154816fffffffffffffffffffffffffffffffff02191690836fffffffffffffffffffffffffffffffff160217905550610a8683836fffffffffffffffffffffffffffffffff168773ffffffffffffffffffffffffffffffffffffffff1661131b9092919063ffffffff16565b7fa549742b086d6e2c6b4cf5ddc4d06402aed6ea9db7a16b97d0dbb694700618ad85858585604051610abb94939291906125c7565b60405180910390a15050505050565b60026020528060005260406000206000915090508060000160009054906101000a900473ffffffffffffffffffffffffffffffffffffffff16908060010160009054906101000a900473ffffffffffffffffffffffffffffffffffffffff16905082565b610b3782610397565b610b4881610b436110b5565b6110bd565b610b52838361123a565b505050565b60036020528060005260406000206000915054906101000a900460ff1681565b60006001811115610b8b57610b8a612c8f565b5b836001811115610b9e57610b9d612c8f565b5b1480610bcd5750600180811115610bb857610bb7612c8f565b5b836001811115610bcb57610bca612c8f565b5b145b610c0c576040517f08c379a0000000000000000000000000000000000000000000000000000000008152600401610c03906127d4565b60405180910390fd5b83600160008873ffffffffffffffffffffffffffffffffffffffff1673ffffffffffffffffffffffffffffffffffffffff16815260200190815260200160002060009054906101000a90046fffffffffffffffffffffffffffffffff16610c7391906128d8565b600160008873ffffffffffffffffffffffffffffffffffffffff1673ffffffffffffffffffffffffffffffffffffffff16815260200190815260200160002060006101000a8154816fffffffffffffffffffffffffffffffff02191690836fffffffffffffffffffffffffffffffff1602179055507f32b3c8c417faec5fe883303271262b2b58e659ddf3329de2998c1a8855902427863387878686604051610d219695949392919061252f565b60405180910390a1600060026000856001811115610d4257610d41612c8f565b5b6001811115610d5457610d53612c8f565b5b815260200190815260200160002060010160009054906101000a900473ffffffffffffffffffffffffffffffffffffffff169050600360008873ffffffffffffffffffffffffffffffffffffffff1673ffffffffffffffffffffffffffffffffffffffff16815260200190815260200160002060009054906101000a900460ff16610ead576000610de4886113a1565b90506001600360008a73ffffffffffffffffffffffffffffffffffffffff1673ffffffffffffffffffffffffffffffffffffffff16815260200190815260200160002060006101000a81548160ff0219169083151502179055508173ffffffffffffffffffffffffffffffffffffffff166376846edd33836040518363ffffffff1660e01b8152600401610e7992919061260c565b600060405180830381600087803b158015610e9357600080fd5b505af1158015610ea7573d6000803e3d6000fd5b50505050505b606060008463ffffffff161415610ed157610eca883389896113d1565b9050610ee2565b610edf8833898988886114ee565b90505b8173ffffffffffffffffffffffffffffffffffffffff166376846edd33836040518363ffffffff1660e01b8152600401610f1d92919061260c565b600060405180830381600087803b158015610f3757600080fd5b505af1158015610f4b573d6000803e3d6000fd5b505050508773ffffffffffffffffffffffffffffffffffffffff166323b872dd3330896040518463ffffffff1660e01b8152600401610f8c93929190612590565b602060405180830381600087803b158015610fa657600080fd5b505af1158015610fba573d6000803e3d6000fd5b505050506040513d601f19601f82011682018060405250810190610fde9190611e10565b61101d576040517f08c379a000000000000000000000000000000000000000000000000000000000815260040161101490612774565b60405180910390fd5b5050505050505050565b7f9bac3bf563d906e4c002c9b37dc34326776a9168ece7376a7a577f98c0c99a8981565b60007f01ffc9a7000000000000000000000000000000000000000000000000000000007bffffffffffffffffffffffffffffffffffffffffffffffffffffffff1916827bffffffffffffffffffffffffffffffffffffffffffffffffffffffff1916149050919050565b600033905090565b6110c7828261078f565b611156576110ec8173ffffffffffffffffffffffffffffffffffffffff166014611739565b6110fa8360001c6020611739565b60405160200161110b9291906124cc565b6040516020818303038152906040526040517f08c379a000000000000000000000000000000000000000000000000000000000815260040161114d91906126d2565b60405180910390fd5b5050565b611164828261078f565b61123657600160008084815260200190815260200160002060000160008373ffffffffffffffffffffffffffffffffffffffff1673ffffffffffffffffffffffffffffffffffffffff16815260200190815260200160002060006101000a81548160ff0219169083151502179055506111db6110b5565b73ffffffffffffffffffffffffffffffffffffffff168173ffffffffffffffffffffffffffffffffffffffff16837f2f8788117e7eff1d82e926ec794901d17c78024a50270940304540a733656f0d60405160405180910390a45b5050565b611244828261078f565b1561131757600080600084815260200190815260200160002060000160008373ffffffffffffffffffffffffffffffffffffffff1673ffffffffffffffffffffffffffffffffffffffff16815260200190815260200160002060006101000a81548160ff0219169083151502179055506112bc6110b5565b73ffffffffffffffffffffffffffffffffffffffff168173ffffffffffffffffffffffffffffffffffffffff16837ff6391f5c32d9c69d2a47ea670b442974b53935d1edc7fd64eb21e047a839171b60405160405180910390a45b5050565b61139c8363a9059cbb60e01b848460405160240161133a929190612673565b604051602081830303815290604052907bffffffffffffffffffffffffffffffffffffffffffffffffffffffff19166020820180517bffffffffffffffffffffffffffffffffffffffffffffffffffffffff8381831617835250505050611975565b505050565b606061420260f01b826040516020016113bb929190612375565b6040516020818303038152906040529050919050565b606061420160f01b856040516020016113ea919061235a565b6040516020818303038152906040528560405160200161140a919061235a565b604051602081830303815290604052600060f81b86866fffffffffffffffffffffffffffffffff1673__$7cdc5241ea8d29c91205423c213999ecf3$__638dedf6ee90916040518263ffffffff1660e01b815260040161146a9190612814565b60206040518083038186803b15801561148257600080fd5b505af4158015611496573d6000803e3d6000fd5b505050506040513d601f19601f820116820180604052508101906114ba9190611e3d565b600060f81b6040516020016114d597969594939291906123a1565b6040516020818303038152906040529050949350505050565b606061420160f01b87604051602001611507919061235a565b60405160208183030381529060405287604051602001611527919061235a565b604051602081830303815290604052600060f81b88886fffffffffffffffffffffffffffffffff1673__$7cdc5241ea8d29c91205423c213999ecf3$__638dedf6ee90916040518263ffffffff1660e01b81526004016115879190612814565b60206040518083038186803b15801561159f57600080fd5b505af41580156115b3573d6000803e3d6000fd5b505050506040513d601f19601f820116820180604052508101906115d79190611e3d565b600160f81b8963ffffffff1673__$7cdc5241ea8d29c91205423c213999ecf3$__63381f760d90916040518263ffffffff1660e01b815260040161161b919061284a565b60206040518083038186803b15801561163357600080fd5b505af4158015611647573d6000803e3d6000fd5b505050506040513d601f19601f8201168201806040525081019061166b9190611f04565b896fffffffffffffffffffffffffffffffff1673__$7cdc5241ea8d29c91205423c213999ecf3$__638dedf6ee90916040518263ffffffff1660e01b81526004016116b69190612814565b60206040518083038186803b1580156116ce57600080fd5b505af41580156116e2573d6000803e3d6000fd5b505050506040513d601f19601f820116820180604052508101906117069190611e3d565b60405160200161171e9998979695949392919061241a565b60405160208183030381529060405290509695505050505050565b60606000600283600261174c9190612974565b611756919061291e565b67ffffffffffffffff81111561176f5761176e612ced565b5b6040519080825280601f01601f1916602001820160405280156117a15781602001600182028036833780820191505090505b5090507f3000000000000000000000000000000000000000000000000000000000000000816000815181106117d9576117d8612cbe565b5b60200101907effffffffffffffffffffffffffffffffffffffffffffffffffffffffffffff1916908160001a9053507f78000000000000000000000000000000000000000000000000000000000000008160018151811061183d5761183c612cbe565b5b60200101907effffffffffffffffffffffffffffffffffffffffffffffffffffffffffffff1916908160001a9053506000600184600261187d9190612974565b611887919061291e565b90505b6001811115611927577f3031323334353637383961626364656600000000000000000000000000000000600f8616601081106118c9576118c8612cbe565b5b1a60f81b8282815181106118e0576118df612cbe565b5b60200101907effffffffffffffffffffffffffffffffffffffffffffffffffffffffffffff1916908160001a905350600485901c94508061192090612b95565b905061188a565b506000841461196b576040517f08c379a0000000000000000000000000000000000000000000000000000000008152600401611962906126f4565b60405180910390fd5b8091505092915050565b60006119d7826040518060400160405280602081526020017f5361666545524332303a206c6f772d6c6576656c2063616c6c206661696c65648152508573ffffffffffffffffffffffffffffffffffffffff16611a3c9092919063ffffffff16565b9050600081511115611a3757808060200190518101906119f79190611e10565b611a36576040517f08c379a0000000000000000000000000000000000000000000000000000000008152600401611a2d906127b4565b60405180910390fd5b5b505050565b6060611a4b8484600085611a54565b90509392505050565b606082471015611a99576040517f08c379a0000000000000000000000000000000000000000000000000000000008152600401611a9090612754565b60405180910390fd5b611aa285611b68565b611ae1576040517f08c379a0000000000000000000000000000000000000000000000000000000008152600401611ad890612794565b60405180910390fd5b6000808673ffffffffffffffffffffffffffffffffffffffff168587604051611b0a91906124b5565b60006040518083038185875af1925050503d8060008114611b47576040519150601f19603f3d011682016040523d82523d6000602084013e611b4c565b606091505b5091509150611b5c828286611b7b565b92505050949350505050565b600080823b905060008111915050919050565b60608315611b8b57829050611bdb565b600083511115611b9e5782518084602001fd5b816040517f08c379a0000000000000000000000000000000000000000000000000000000008152600401611bd291906126d2565b60405180910390fd5b9392505050565b600081359050611bf181612ff8565b92915050565b600081519050611c068161300f565b92915050565b600081519050611c1b81613026565b92915050565b600081359050611c308161303d565b92915050565b600081359050611c4581613054565b92915050565b600081519050611c5a81613054565b92915050565b600081359050611c6f8161306b565b92915050565b600060408284031215611c8b57611c8a612d1c565b5b611c956040612865565b90506000611ca584828501611be2565b6000830152506020611cb984828501611be2565b60208301525092915050565b600081359050611cd48161307b565b92915050565b600081359050611ce981613092565b92915050565b600060208284031215611d0557611d04612d21565b5b6000611d1384828501611be2565b91505092915050565b60008060008060808587031215611d3657611d35612d21565b5b6000611d4487828801611be2565b9450506020611d5587828801611c21565b9350506040611d6687828801611be2565b9250506060611d7787828801611cc5565b91505092959194509250565b60008060008060008060c08789031215611da057611d9f612d21565b5b6000611dae89828a01611be2565b9650506020611dbf89828a01611c21565b9550506040611dd089828a01611cc5565b9450506060611de189828a01611c60565b9350506080611df289828a01611cda565b92505060a0611e0389828a01611cc5565b9150509295509295509295565b600060208284031215611e2657611e25612d21565b5b6000611e3484828501611bf7565b91505092915050565b600060208284031215611e5357611e52612d21565b5b6000611e6184828501611c0c565b91505092915050565b600060208284031215611e8057611e7f612d21565b5b6000611e8e84828501611c21565b91505092915050565b60008060408385031215611eae57611ead612d21565b5b6000611ebc85828601611c21565b9250506020611ecd85828601611be2565b9150509250929050565b600060208284031215611eed57611eec612d21565b5b6000611efb84828501611c36565b91505092915050565b600060208284031215611f1a57611f19612d21565b5b6000611f2884828501611c4b565b91505092915050565b600060208284031215611f4757611f46612d21565b5b6000611f5584828501611c60565b91505092915050565b60008060808385031215611f7557611f74612d21565b5b6000611f8385828601611c75565b9250506040611f9485828601611c75565b9150509250929050565b611fa781612a22565b82525050565b611fb681612a22565b82525050565b611fcd611fc882612a22565b612c0a565b82525050565b611fdc81612a34565b82525050565b611ff3611fee82612a6c565b612c26565b82525050565b61200a61200582612a40565b612c1c565b82525050565b61202161201c82612a98565b612c30565b82525050565b61203081612ac4565b82525050565b61204761204282612ac4565b612c3a565b82525050565b61205e61205982612ace565b612c44565b82525050565b600061206f8261288a565b61207981856128a0565b9350612089818560208601612b62565b61209281612d26565b840191505092915050565b60006120a88261288a565b6120b281856128b1565b93506120c2818560208601612b62565b80840191505092915050565b60006120d982612895565b6120e381856128bc565b93506120f3818560208601612b62565b6120fc81612d26565b840191505092915050565b600061211282612895565b61211c81856128cd565b935061212c818560208601612b62565b80840191505092915050565b60006121456020836128bc565b915061215082612d51565b602082019050919050565b6000612168601d836128bc565b915061217382612d7a565b602082019050919050565b600061218b603f836128bc565b915061219682612da3565b604082019050919050565b60006121ae6026836128bc565b91506121b982612df2565b604082019050919050565b60006121d16044836128bc565b91506121dc82612e41565b606082019050919050565b60006121f4601d836128bc565b91506121ff82612eb6565b602082019050919050565b60006122176017836128cd565b915061222282612edf565b601782019050919050565b600061223a602a836128bc565b915061224582612f08565b604082019050919050565b600061225d6011836128cd565b915061226882612f57565b601182019050919050565b60006122806012836128bc565b915061228b82612f80565b602082019050919050565b60006122a3602f836128bc565b91506122ae82612fa9565b604082019050919050565b6040820160008083015490506122ce81612bbf565b6122db6000860182611f9e565b50600183015490506122ec81612bbf565b6122f96020860182611f9e565b5050505050565b61230981612afa565b82525050565b61231881612afa565b82525050565b61232781612b50565b82525050565b61233681612b36565b82525050565b61234581612b40565b82525050565b61235481612b40565b82525050565b60006123668284611fbc565b60148201915081905092915050565b60006123818285612010565b6002820191506123918284611fbc565b6014820191508190509392505050565b60006123ad828a612010565b6002820191506123bd828961209d565b91506123c9828861209d565b91506123d58287611ff9565b6001820191506123e58286612036565b6020820191506123f58285611fe2565b6010820191506124058284611ff9565b60018201915081905098975050505050505050565b6000612426828c612010565b600282019150612436828b61209d565b9150612442828a61209d565b915061244e8289611ff9565b60018201915061245e8288612036565b60208201915061246e8287611fe2565b60108201915061247e8286611ff9565b60018201915061248e828561204d565b60048201915061249e8284611fe2565b6010820191508190509a9950505050505050505050565b60006124c1828461209d565b915081905092915050565b60006124d78261220a565b91506124e38285612107565b91506124ee82612250565b91506124fa8284612107565b91508190509392505050565b600060408201905061251b6000830185611fad565b6125286020830184611fad565b9392505050565b600060c0820190506125446000830189611fad565b6125516020830188611fad565b61255e6040830187612027565b61256b6060830186612300565b612578608083018561233c565b61258560a0830184612300565b979650505050505050565b60006060820190506125a56000830186611fad565b6125b26020830185611fad565b6125bf604083018461231e565b949350505050565b60006080820190506125dc6000830187611fad565b6125e96020830186612027565b6125f66040830185611fad565b6126036060830184612300565b95945050505050565b60006040820190506126216000830185611fad565b81810360208301526126338184612064565b90509392505050565b600060a0820190506126516000830186611fad565b61265e60208301856122b9565b61266b60608301846122b9565b949350505050565b60006040820190506126886000830185611fad565b612695602083018461232d565b9392505050565b60006020820190506126b16000830184611fd3565b92915050565b60006020820190506126cc6000830184612027565b92915050565b600060208201905081810360008301526126ec81846120ce565b905092915050565b6000602082019050818103600083015261270d81612138565b9050919050565b6000602082019050818103600083015261272d8161215b565b9050919050565b6000602082019050818103600083015261274d8161217e565b9050919050565b6000602082019050818103600083015261276d816121a1565b9050919050565b6000602082019050818103600083015261278d816121c4565b9050919050565b600060208201905081810360008301526127ad816121e7565b9050919050565b600060208201905081810360008301526127cd8161222d565b9050919050565b600060208201905081810360008301526127ed81612273565b9050919050565b6000602082019050818103600083015261280d81612296565b9050919050565b6000602082019050612829600083018461230f565b92915050565b60006020820190506128446000830184612300565b92915050565b600060208201905061285f600083018461234b565b92915050565b600061286f612880565b905061287b8282612bd9565b919050565b6000604051905090565b600081519050919050565b600081519050919050565b600082825260208201905092915050565b600081905092915050565b600082825260208201905092915050565b600081905092915050565b60006128e382612afa565b91506128ee83612afa565b9250826fffffffffffffffffffffffffffffffff0382111561291357612912612c60565b5b828201905092915050565b600061292982612b36565b915061293483612b36565b9250827fffffffffffffffffffffffffffffffffffffffffffffffffffffffffffffffff0382111561296957612968612c60565b5b828201905092915050565b600061297f82612b36565b915061298a83612b36565b9250817fffffffffffffffffffffffffffffffffffffffffffffffffffffffffffffffff04831182151516156129c3576129c2612c60565b5b828202905092915050565b60006129d982612afa565b91506129e483612afa565b9250828210156129f7576129f6612c60565b5b828203905092915050565b600073ffffffffffffffffffffffffffffffffffffffff82169050919050565b6000612a2d82612b16565b9050919050565b60008115159050919050565b60007fff0000000000000000000000000000000000000000000000000000000000000082169050919050565b60007fffffffffffffffffffffffffffffffff0000000000000000000000000000000082169050919050565b60007fffff00000000000000000000000000000000000000000000000000000000000082169050919050565b6000819050919050565b60007fffffffff0000000000000000000000000000000000000000000000000000000082169050919050565b60006fffffffffffffffffffffffffffffffff82169050919050565b600073ffffffffffffffffffffffffffffffffffffffff82169050919050565b6000819050919050565b600063ffffffff82169050919050565b6000612b5b82612afa565b9050919050565b60005b83811015612b80578082015181840152602081019050612b65565b83811115612b8f576000848401525b50505050565b6000612ba082612b36565b91506000821415612bb457612bb3612c60565b5b600182039050919050565b6000612bd2612bcd83612d44565b612a02565b9050919050565b612be282612d26565b810181811067ffffffffffffffff82111715612c0157612c00612ced565b5b80604052505050565b6000612c1582612c4e565b9050919050565b6000819050919050565b6000819050919050565b6000819050919050565b6000819050919050565b6000819050919050565b6000612c5982612d37565b9050919050565b7f4e487b7100000000000000000000000000000000000000000000000000000000600052601160045260246000fd5b7f4e487b7100000000000000000000000000000000000000000000000000000000600052602160045260246000fd5b7f4e487b7100000000000000000000000000000000000000000000000000000000600052603260045260246000fd5b7f4e487b7100000000000000000000000000000000000000000000000000000000600052604160045260246000fd5b600080fd5b600080fd5b6000601f19601f8301169050919050565b60008160601b9050919050565b60008160001c9050919050565b7f537472696e67733a20686578206c656e67746820696e73756666696369656e74600082015250565b7f4d75737420756e6c6f636b206120706f73697469766520616d6f756e74000000600082015250565b7f455243323020746f6b656e2062616c616e63657320696e73756666696369656e60008201527f7420746f2066756c66696c6c2074686520756e6c6f636b207265717565737400602082015250565b7f416464726573733a20696e73756666696369656e742062616c616e636520666f60008201527f722063616c6c0000000000000000000000000000000000000000000000000000602082015250565b7f436f6e747261637420746f6b656e20616c6c6f77616e63657320696e7375666660008201527f696369656e7420746f20636f6d706c6574652074686973206c6f636b2072657160208201527f7565737400000000000000000000000000000000000000000000000000000000604082015250565b7f416464726573733a2063616c6c20746f206e6f6e2d636f6e7472616374000000600082015250565b7f416363657373436f6e74726f6c3a206163636f756e7420000000000000000000600082015250565b7f5361666545524332303a204552433230206f7065726174696f6e20646964206e60008201527f6f74207375636365656400000000000000000000000000000000000000000000602082015250565b7f206973206d697373696e6720726f6c6520000000000000000000000000000000600082015250565b7f496e76616c6964206368616e6e656c2049440000000000000000000000000000600082015250565b7f416363657373436f6e74726f6c3a2063616e206f6e6c792072656e6f756e636560008201527f20726f6c657320666f722073656c660000000000000000000000000000000000602082015250565b61300181612a22565b811461300c57600080fd5b50565b61301881612a34565b811461302357600080fd5b50565b61302f81612a6c565b811461303a57600080fd5b50565b61304681612ac4565b811461305157600080fd5b50565b61305d81612ace565b811461306857600080fd5b50565b6002811061307857600080fd5b50565b61308481612afa565b811461308f57600080fd5b50565b61309b81612b40565b81146130a657600080fd5b5056fea2646970667358221220fdb6c953cd5ff0fbadc1bc4ab015c2196ec6db7254b5f66f2763c816bb7ed13464736f6c63430008060033",
  "linkReferences": {
    "contracts/ScaleCodec.sol": {
      "ScaleCodec": [
        {
          "length": 20,
          "start": 6935
        },
        {
          "length": 20,
          "start": 7220
        },
        {
          "length": 20,
          "start": 7368
        },
        {
          "length": 20,
          "start": 7523
        }
      ]
    }
  },
  "deployedLinkReferences": {
    "contracts/ScaleCodec.sol": {
      "ScaleCodec": [
        {
          "length": 20,
          "start": 5172
        },
        {
          "length": 20,
          "start": 5457
        },
        {
          "length": 20,
          "start": 5605
        },
        {
          "length": 20,
          "start": 5760
        }
      ]
    }
  }
}