{
  "contractName": "ERC20App",
  "abi": [
    {
      "inputs": [
        {
          "components": [
            {
              "internalType": "address",
              "name": "inbound",
              "type": "address"
            },
            {
              "internalType": "address",
              "name": "outbound",
              "type": "address"
            }
          ],
          "internalType": "struct ERC20App.Channel",
          "name": "_basic",
          "type": "tuple"
        },
        {
          "components": [
            {
              "internalType": "address",
              "name": "inbound",
              "type": "address"
            },
            {
              "internalType": "address",
              "name": "outbound",
              "type": "address"
            }
          ],
          "internalType": "struct ERC20App.Channel",
          "name": "_incentivized",
          "type": "tuple"
        }
      ],
      "stateMutability": "nonpayable",
      "type": "constructor"
    },
    {
      "anonymous": false,
      "inputs": [
        {
          "indexed": false,
          "internalType": "address",
          "name": "token",
          "type": "address"
        },
        {
          "indexed": false,
          "internalType": "address",
          "name": "sender",
          "type": "address"
        },
        {
          "indexed": false,
          "internalType": "bytes32",
          "name": "recipient",
          "type": "bytes32"
        },
        {
          "indexed": false,
          "internalType": "uint256",
          "name": "amount",
          "type": "uint256"
        }
      ],
      "name": "Locked",
      "type": "event"
    },
    {
      "anonymous": false,
      "inputs": [
        {
          "indexed": false,
          "internalType": "address",
          "name": "token",
          "type": "address"
        },
        {
          "indexed": false,
          "internalType": "bytes32",
          "name": "sender",
          "type": "bytes32"
        },
        {
          "indexed": false,
          "internalType": "address",
          "name": "recipient",
          "type": "address"
        },
        {
          "indexed": false,
          "internalType": "uint256",
          "name": "amount",
          "type": "uint256"
        }
      ],
      "name": "Unlocked",
      "type": "event"
    },
    {
      "inputs": [
        {
          "internalType": "address",
          "name": "",
          "type": "address"
        }
      ],
      "name": "balances",
      "outputs": [
        {
          "internalType": "uint256",
          "name": "",
          "type": "uint256"
        }
      ],
      "stateMutability": "view",
      "type": "function",
      "constant": true
    },
    {
      "inputs": [
        {
          "internalType": "enum ChannelId",
          "name": "",
          "type": "uint8"
        }
      ],
      "name": "channels",
      "outputs": [
        {
          "internalType": "address",
          "name": "inbound",
          "type": "address"
        },
        {
          "internalType": "address",
          "name": "outbound",
          "type": "address"
        }
      ],
      "stateMutability": "view",
      "type": "function",
      "constant": true
    },
    {
      "inputs": [
        {
          "internalType": "address",
          "name": "_token",
          "type": "address"
        },
        {
          "internalType": "bytes32",
          "name": "_recipient",
          "type": "bytes32"
        },
        {
          "internalType": "uint256",
          "name": "_amount",
          "type": "uint256"
        },
        {
          "internalType": "enum ChannelId",
          "name": "_channelId",
          "type": "uint8"
        }
      ],
      "name": "lock",
      "outputs": [],
      "stateMutability": "nonpayable",
      "type": "function"
    },
    {
      "inputs": [
        {
          "internalType": "address",
          "name": "_token",
          "type": "address"
        },
        {
          "internalType": "bytes32",
          "name": "_sender",
          "type": "bytes32"
        },
        {
          "internalType": "address",
          "name": "_recipient",
          "type": "address"
        },
        {
          "internalType": "uint256",
          "name": "_amount",
          "type": "uint256"
        }
      ],
      "name": "unlock",
      "outputs": [],
      "stateMutability": "nonpayable",
      "type": "function"
    }
  ],
  "bytecode": "0x60806040523480156200001157600080fd5b50604051620014ba380380620014ba833981810160405281019062000037919062000225565b6000600160008060018111156200004a57fe5b60018111156200005657fe5b8152602001908152602001600020905082600001518160000160006101000a81548173ffffffffffffffffffffffffffffffffffffffff021916908373ffffffffffffffffffffffffffffffffffffffff16021790555082602001518160010160006101000a81548173ffffffffffffffffffffffffffffffffffffffff021916908373ffffffffffffffffffffffffffffffffffffffff1602179055506000600160006001808111156200010757fe5b60018111156200011357fe5b8152602001908152602001600020905082600001518160000160006101000a81548173ffffffffffffffffffffffffffffffffffffffff021916908373ffffffffffffffffffffffffffffffffffffffff16021790555082602001518160010160006101000a81548173ffffffffffffffffffffffffffffffffffffffff021916908373ffffffffffffffffffffffffffffffffffffffff16021790555050505050620002ea565b600081519050620001cc81620002d0565b92915050565b600060408284031215620001e557600080fd5b620001f1604062000266565b905060006200020384828501620001bb565b60008301525060206200021984828501620001bb565b60208301525092915050565b600080608083850312156200023957600080fd5b60006200024985828601620001d2565b92505060406200025c85828601620001d2565b9150509250929050565b6000604051905081810181811067ffffffffffffffff8211171562000290576200028f620002ce565b5b8060405250919050565b6000620002a782620002ae565b9050919050565b600073ffffffffffffffffffffffffffffffffffffffff82169050919050565bfe5b620002db816200029a565b8114620002e757600080fd5b50565b6111c080620002fa6000396000f3fe608060405234801561001057600080fd5b506004361061004c5760003560e01c8063010ce3c71461005157806327e235e31461006d57806349e37f131461009d578063ccd34132146100b9575b600080fd5b61006b60048036038101906100669190610930565b6100ea565b005b61008760048036038101906100829190610907565b610350565b6040516100949190610f63565b60405180910390f35b6100b760048036038101906100b29190610993565b610368565b005b6100d360048036038101906100ce9190610a48565b610653565b6040516100e1929190610daa565b60405180910390f35b6000811161012d576040517f08c379a000000000000000000000000000000000000000000000000000000000815260040161012490610ea8565b60405180910390fd5b6000808573ffffffffffffffffffffffffffffffffffffffff1673ffffffffffffffffffffffffffffffffffffffff168152602001908152602001600020548111156101ae576040517f08c379a00000000000000000000000000000000000000000000000000000000081526004016101a590610ee8565b60405180910390fd5b6101ff816000808773ffffffffffffffffffffffffffffffffffffffff1673ffffffffffffffffffffffffffffffffffffffff168152602001908152602001600020546106b790919063ffffffff16565b6000808673ffffffffffffffffffffffffffffffffffffffff1673ffffffffffffffffffffffffffffffffffffffff168152602001908152602001600020819055508373ffffffffffffffffffffffffffffffffffffffff1663a9059cbb83836040518363ffffffff1660e01b815260040161027c929190610e5d565b602060405180830381600087803b15801561029657600080fd5b505af11580156102aa573d6000803e3d6000fd5b505050506040513d601f19601f820116820180604052508101906102ce91906109f6565b61030d576040517f08c379a000000000000000000000000000000000000000000000000000000000815260040161030490610ec8565b60405180910390fd5b7f8df70ea69ac49ee712a334863f5a094b32ced152f9911ca4ffec3800fc68ba41848484846040516103429493929190610e18565b60405180910390a150505050565b60006020528060005260406000206000915090505481565b8373ffffffffffffffffffffffffffffffffffffffff166323b872dd3330856040518463ffffffff1660e01b81526004016103a593929190610d73565b602060405180830381600087803b1580156103bf57600080fd5b505af11580156103d3573d6000803e3d6000fd5b505050506040513d601f19601f820116820180604052508101906103f791906109f6565b610436576040517f08c379a000000000000000000000000000000000000000000000000000000000815260040161042d90610f08565b60405180910390fd5b6000600181111561044357fe5b81600181111561044f57fe5b1480610470575060018081111561046257fe5b81600181111561046e57fe5b145b6104af576040517f08c379a00000000000000000000000000000000000000000000000000000000081526004016104a690610f28565b60405180910390fd5b610500826000808773ffffffffffffffffffffffffffffffffffffffff1673ffffffffffffffffffffffffffffffffffffffff1681526020019081526020016000205461073a90919063ffffffff16565b6000808673ffffffffffffffffffffffffffffffffffffffff1673ffffffffffffffffffffffffffffffffffffffff168152602001908152602001600020819055507f1e7b27577112ed83d53de87b38aee59ab80d8a9ba4acd90aad6cfee917534c79843385856040516105779493929190610dd3565b60405180910390a1600061058d853386866107c2565b90506000600160008460018111156105a157fe5b60018111156105ac57fe5b815260200190815260200160002060010160009054906101000a900473ffffffffffffffffffffffffffffffffffffffff1690508073ffffffffffffffffffffffffffffffffffffffff1663ef7fa71b836040518263ffffffff1660e01b81526004016106199190610e86565b600060405180830381600087803b15801561063357600080fd5b505af1158015610647573d6000803e3d6000fd5b50505050505050505050565b60016020528060005260406000206000915090508060000160009054906101000a900473ffffffffffffffffffffffffffffffffffffffff16908060010160009054906101000a900473ffffffffffffffffffffffffffffffffffffffff16905082565b60008282111561072f576040517f08c379a000000000000000000000000000000000000000000000000000000000815260040180806020018281038252601e8152602001807f536166654d6174683a207375627472616374696f6e206f766572666c6f77000081525060200191505060405180910390fd5b818303905092915050565b6000808284019050838110156107b8576040517f08c379a000000000000000000000000000000000000000000000000000000000815260040180806020018281038252601b8152602001807f536166654d6174683a206164646974696f6e206f766572666c6f77000000000081525060200191505060405180910390fd5b8091505092915050565b6060610d0160f01b8585600060f81b868673__ScaleCodec____________________________63dfd47e0e90916040518263ffffffff1660e01b815260040161080b9190610f48565b60206040518083038186803b15801561082357600080fd5b505af4158015610837573d6000803e3d6000fd5b505050506040513d601f19601f8201168201806040525081019061085b9190610a1f565b60405160200161087096959493929190610d03565b6040516020818303038152906040529050949350505050565b6000813590506108988161111e565b92915050565b6000815190506108ad81611135565b92915050565b6000813590506108c28161114c565b92915050565b6000815190506108d78161114c565b92915050565b6000813590506108ec81611163565b92915050565b60008135905061090181611173565b92915050565b60006020828403121561091957600080fd5b600061092784828501610889565b91505092915050565b6000806000806080858703121561094657600080fd5b600061095487828801610889565b9450506020610965878288016108b3565b935050604061097687828801610889565b9250506060610987878288016108f2565b91505092959194509250565b600080600080608085870312156109a957600080fd5b60006109b787828801610889565b94505060206109c8878288016108b3565b93505060406109d9878288016108f2565b92505060606109ea878288016108dd565b91505092959194509250565b600060208284031215610a0857600080fd5b6000610a168482850161089e565b91505092915050565b600060208284031215610a3157600080fd5b6000610a3f848285016108c8565b91505092915050565b600060208284031215610a5a57600080fd5b6000610a68848285016108dd565b91505092915050565b610a7a81611055565b82525050565b610a8981610fab565b82525050565b610aa0610a9b82610fab565b6110be565b82525050565b610ab7610ab282610fc9565b6110d0565b82525050565b610ace610ac982610ff5565b6110da565b82525050565b610add81611021565b82525050565b610af4610aef82611021565b6110e4565b82525050565b6000610b0582610f7e565b610b0f8185610f89565b9350610b1f81856020860161108b565b610b2881611100565b840191505092915050565b6000610b40601d83610f9a565b91507f4d75737420756e6c6f636b206120706f73697469766520616d6f756e740000006000830152602082019050919050565b6000610b80601b83610f9a565b91507f455243323020746f6b656e207472616e73666572206661696c656400000000006000830152602082019050919050565b6000610bc0603f83610f9a565b91507f455243323020746f6b656e2062616c616e63657320696e73756666696369656e60008301527f7420746f2066756c66696c6c2074686520756e6c6f636b2072657175657374006020830152604082019050919050565b6000610c26604483610f9a565b91507f436f6e747261637420746f6b656e20616c6c6f77616e63657320696e7375666660008301527f696369656e7420746f20636f6d706c6574652074686973206c6f636b2072657160208301527f75657374000000000000000000000000000000000000000000000000000000006040830152606082019050919050565b6000610cb2601283610f9a565b91507f496e76616c6964206368616e6e656c20494400000000000000000000000000006000830152602082019050919050565b610cee8161104b565b82525050565b610cfd8161104b565b82525050565b6000610d0f8289610abd565b600282019150610d1f8288610a8f565b601482019150610d2f8287610a8f565b601482019150610d3f8286610aa6565b600182019150610d4f8285610ae3565b602082019150610d5f8284610ae3565b602082019150819050979650505050505050565b6000606082019050610d886000830186610a71565b610d956020830185610a80565b610da26040830184610ce5565b949350505050565b6000604082019050610dbf6000830185610a80565b610dcc6020830184610a80565b9392505050565b6000608082019050610de86000830187610a80565b610df56020830186610a71565b610e026040830185610ad4565b610e0f6060830184610ce5565b95945050505050565b6000608082019050610e2d6000830187610a80565b610e3a6020830186610ad4565b610e476040830185610a80565b610e546060830184610ce5565b95945050505050565b6000604082019050610e726000830185610a80565b610e7f6020830184610ce5565b9392505050565b60006020820190508181036000830152610ea08184610afa565b905092915050565b60006020820190508181036000830152610ec181610b33565b9050919050565b60006020820190508181036000830152610ee181610b73565b9050919050565b60006020820190508181036000830152610f0181610bb3565b9050919050565b60006020820190508181036000830152610f2181610c19565b9050919050565b60006020820190508181036000830152610f4181610ca5565b9050919050565b6000602082019050610f5d6000830184610cf4565b92915050565b6000602082019050610f786000830184610ce5565b92915050565b600081519050919050565b600082825260208201905092915050565b600082825260208201905092915050565b6000610fb68261102b565b9050919050565b60008115159050919050565b60007fff0000000000000000000000000000000000000000000000000000000000000082169050919050565b60007fffff00000000000000000000000000000000000000000000000000000000000082169050919050565b6000819050919050565b600073ffffffffffffffffffffffffffffffffffffffff82169050919050565b6000819050919050565b600061106082611067565b9050919050565b600061107282611079565b9050919050565b60006110848261102b565b9050919050565b60005b838110156110a957808201518184015260208101905061108e565b838111156110b8576000848401525b50505050565b60006110c9826110ee565b9050919050565b6000819050919050565b6000819050919050565b6000819050919050565b60006110f982611111565b9050919050565b6000601f19601f8301169050919050565b60008160601b9050919050565b61112781610fab565b811461113257600080fd5b50565b61113e81610fbd565b811461114957600080fd5b50565b61115581611021565b811461116057600080fd5b50565b6002811061117057600080fd5b50565b61117c8161104b565b811461118757600080fd5b5056fea2646970667358221220c1cd40abd5b118c623d9fd66e3962c5f7c0317e494db34877e04a658d8ff310264736f6c63430007060033",
  "immutableReferences": {},
  "source": "// SPDX-License-Identifier: MIT\npragma solidity >=0.7.6;\npragma experimental ABIEncoderV2;\n\nimport \"@openzeppelin/contracts/math/SafeMath.sol\";\nimport \"@openzeppelin/contracts/token/ERC20/IERC20.sol\";\nimport \"./ScaleCodec.sol\";\nimport \"./OutboundChannel.sol\";\n\nenum ChannelId {Basic, Incentivized}\n\ncontract ERC20App {\n    using SafeMath for uint256;\n    using ScaleCodec for uint256;\n\n    mapping(address => uint256) public balances;\n\n    mapping(ChannelId => Channel) public channels;\n\n    bytes2 constant MINT_CALL = 0x0d01;\n\n    event Locked(\n        address token,\n        address sender,\n        bytes32 recipient,\n        uint256 amount\n    );\n\n    event Unlocked(\n        address token,\n        bytes32 sender,\n        address recipient,\n        uint256 amount\n    );\n\n    struct Channel {\n        address inbound;\n        address outbound;\n    }\n\n    constructor(Channel memory _basic, Channel memory _incentivized) {\n        Channel storage c1 = channels[ChannelId.Basic];\n        c1.inbound = _basic.inbound;\n        c1.outbound = _basic.outbound;\n\n        Channel storage c2 = channels[ChannelId.Incentivized];\n        c2.inbound = _incentivized.inbound;\n        c2.outbound = _incentivized.outbound;\n    }\n\n    function lock(\n        address _token,\n        bytes32 _recipient,\n        uint256 _amount,\n        ChannelId _channelId\n    ) public {\n        require(\n            IERC20(_token).transferFrom(msg.sender, address(this), _amount),\n            \"Contract token allowances insufficient to complete this lock request\"\n        );\n        require(\n            _channelId == ChannelId.Basic || _channelId == ChannelId.Incentivized,\n            \"Invalid channel ID\"\n        );\n\n        balances[_token] = balances[_token].add(_amount);\n\n        emit Locked(_token, msg.sender, _recipient, _amount);\n\n        bytes memory call = encodeCall(_token, msg.sender, _recipient, _amount);\n\n        OutboundChannel channel = OutboundChannel(channels[_channelId].outbound);\n        channel.submit(call);\n    }\n\n    function unlock(\n        address _token,\n        bytes32 _sender,\n        address _recipient,\n        uint256 _amount\n    ) public {\n        // TODO: Ensure message sender is a known inbound channel\n        require(_amount > 0, \"Must unlock a positive amount\");\n        require(\n            _amount <= balances[_token],\n            \"ERC20 token balances insufficient to fulfill the unlock request\"\n        );\n\n        balances[_token] = balances[_token].sub(_amount);\n        require(\n            IERC20(_token).transfer(_recipient, _amount),\n            \"ERC20 token transfer failed\"\n        );\n        emit Unlocked(_token, _sender, _recipient, _amount);\n    }\n\n    function encodeCall(address _token, address _sender, bytes32 _recipient, uint256 _amount)\n        private\n        pure\n        returns (bytes memory)\n    {\n        return\n            abi.encodePacked(\n                MINT_CALL,\n                _token,\n                _sender,\n                byte(0x00), // Encode recipient as MultiAddress::Id\n                _recipient,\n                _amount.encode256()\n            );\n    }\n}\n",
  "sourcePath": "/home/ubuntu/aidan/polkadot-ethereum/ethereum/contracts/ERC20App.sol",
  "compiler": {
    "name": "solc",
    "version": "0.7.6+commit.7338295f.Emscripten.clang"
  },
  "schemaVersion": "3.3.3",
  "updatedAt": "2021-02-10T16:30:37.716Z",
  "networkType": "ethereum",
  "devdoc": {
    "kind": "dev",
    "methods": {},
    "version": 1
  },
  "userdoc": {
    "kind": "user",
    "methods": {},
    "version": 1
  }
}