{
  "_format": "hh-sol-artifact-1",
  "contractName": "ERC20App",
  "sourceName": "contracts/ERC20App.sol",
  "abi": [
    {
      "inputs": [
        {
          "components": [
            {
              "internalType": "address",
              "name": "inbound",
              "type": "address"
            },
            {
              "internalType": "address",
              "name": "outbound",
              "type": "address"
            }
          ],
          "internalType": "struct ERC20App.Channel",
          "name": "_basic",
          "type": "tuple"
        },
        {
          "components": [
            {
              "internalType": "address",
              "name": "inbound",
              "type": "address"
            },
            {
              "internalType": "address",
              "name": "outbound",
              "type": "address"
            }
          ],
          "internalType": "struct ERC20App.Channel",
          "name": "_incentivized",
          "type": "tuple"
        }
      ],
      "stateMutability": "nonpayable",
      "type": "constructor"
    },
    {
      "anonymous": false,
      "inputs": [
        {
          "indexed": false,
          "internalType": "address",
          "name": "token",
          "type": "address"
        },
        {
          "indexed": false,
          "internalType": "address",
          "name": "sender",
          "type": "address"
        },
        {
          "indexed": false,
          "internalType": "bytes32",
          "name": "recipient",
          "type": "bytes32"
        },
        {
          "indexed": false,
          "internalType": "uint256",
          "name": "amount",
          "type": "uint256"
        },
        {
          "indexed": false,
          "internalType": "uint32",
          "name": "paraId",
          "type": "uint32"
        }
      ],
      "name": "Locked",
      "type": "event"
    },
    {
      "anonymous": false,
      "inputs": [
        {
          "indexed": true,
          "internalType": "bytes32",
          "name": "role",
          "type": "bytes32"
        },
        {
          "indexed": true,
          "internalType": "bytes32",
          "name": "previousAdminRole",
          "type": "bytes32"
        },
        {
          "indexed": true,
          "internalType": "bytes32",
          "name": "newAdminRole",
          "type": "bytes32"
        }
      ],
      "name": "RoleAdminChanged",
      "type": "event"
    },
    {
      "anonymous": false,
      "inputs": [
        {
          "indexed": true,
          "internalType": "bytes32",
          "name": "role",
          "type": "bytes32"
        },
        {
          "indexed": true,
          "internalType": "address",
          "name": "account",
          "type": "address"
        },
        {
          "indexed": true,
          "internalType": "address",
          "name": "sender",
          "type": "address"
        }
      ],
      "name": "RoleGranted",
      "type": "event"
    },
    {
      "anonymous": false,
      "inputs": [
        {
          "indexed": true,
          "internalType": "bytes32",
          "name": "role",
          "type": "bytes32"
        },
        {
          "indexed": true,
          "internalType": "address",
          "name": "account",
          "type": "address"
        },
        {
          "indexed": true,
          "internalType": "address",
          "name": "sender",
          "type": "address"
        }
      ],
      "name": "RoleRevoked",
      "type": "event"
    },
    {
      "anonymous": false,
      "inputs": [
        {
          "indexed": false,
          "internalType": "address",
          "name": "token",
          "type": "address"
        },
        {
          "indexed": false,
          "internalType": "bytes32",
          "name": "sender",
          "type": "bytes32"
        },
        {
          "indexed": false,
          "internalType": "address",
          "name": "recipient",
          "type": "address"
        },
        {
          "indexed": false,
          "internalType": "uint256",
          "name": "amount",
          "type": "uint256"
        }
      ],
      "name": "Unlocked",
      "type": "event"
    },
    {
      "inputs": [],
      "name": "DEFAULT_ADMIN_ROLE",
      "outputs": [
        {
          "internalType": "bytes32",
          "name": "",
          "type": "bytes32"
        }
      ],
      "stateMutability": "view",
      "type": "function"
    },
    {
      "inputs": [],
      "name": "INBOUND_CHANNEL_ROLE",
      "outputs": [
        {
          "internalType": "bytes32",
          "name": "",
          "type": "bytes32"
        }
      ],
      "stateMutability": "view",
      "type": "function"
    },
    {
      "inputs": [
        {
          "internalType": "address",
          "name": "",
          "type": "address"
        }
      ],
      "name": "balances",
      "outputs": [
        {
          "internalType": "uint256",
          "name": "",
          "type": "uint256"
        }
      ],
      "stateMutability": "view",
      "type": "function"
    },
    {
      "inputs": [
        {
          "internalType": "enum ChannelId",
          "name": "",
          "type": "uint8"
        }
      ],
      "name": "channels",
      "outputs": [
        {
          "internalType": "address",
          "name": "inbound",
          "type": "address"
        },
        {
          "internalType": "address",
          "name": "outbound",
          "type": "address"
        }
      ],
      "stateMutability": "view",
      "type": "function"
    },
    {
      "inputs": [
        {
          "internalType": "bytes32",
          "name": "role",
          "type": "bytes32"
        }
      ],
      "name": "getRoleAdmin",
      "outputs": [
        {
          "internalType": "bytes32",
          "name": "",
          "type": "bytes32"
        }
      ],
      "stateMutability": "view",
      "type": "function"
    },
    {
      "inputs": [
        {
          "internalType": "bytes32",
          "name": "role",
          "type": "bytes32"
        },
        {
          "internalType": "address",
          "name": "account",
          "type": "address"
        }
      ],
      "name": "grantRole",
      "outputs": [],
      "stateMutability": "nonpayable",
      "type": "function"
    },
    {
      "inputs": [
        {
          "internalType": "bytes32",
          "name": "role",
          "type": "bytes32"
        },
        {
          "internalType": "address",
          "name": "account",
          "type": "address"
        }
      ],
      "name": "hasRole",
      "outputs": [
        {
          "internalType": "bool",
          "name": "",
          "type": "bool"
        }
      ],
      "stateMutability": "view",
      "type": "function"
    },
    {
      "inputs": [
        {
          "internalType": "address",
          "name": "_token",
          "type": "address"
        },
        {
          "internalType": "bytes32",
          "name": "_recipient",
          "type": "bytes32"
        },
        {
          "internalType": "uint256",
          "name": "_amount",
          "type": "uint256"
        },
        {
          "internalType": "enum ChannelId",
          "name": "_channelId",
          "type": "uint8"
        },
        {
          "internalType": "uint32",
          "name": "_paraId",
          "type": "uint32"
        }
      ],
      "name": "lock",
      "outputs": [],
      "stateMutability": "nonpayable",
      "type": "function"
    },
    {
      "inputs": [
        {
          "internalType": "bytes32",
          "name": "role",
          "type": "bytes32"
        },
        {
          "internalType": "address",
          "name": "account",
          "type": "address"
        }
      ],
      "name": "renounceRole",
      "outputs": [],
      "stateMutability": "nonpayable",
      "type": "function"
    },
    {
      "inputs": [
        {
          "internalType": "bytes32",
          "name": "role",
          "type": "bytes32"
        },
        {
          "internalType": "address",
          "name": "account",
          "type": "address"
        }
      ],
      "name": "revokeRole",
      "outputs": [],
      "stateMutability": "nonpayable",
      "type": "function"
    },
    {
      "inputs": [
        {
          "internalType": "bytes4",
          "name": "interfaceId",
          "type": "bytes4"
        }
      ],
      "name": "supportsInterface",
      "outputs": [
        {
          "internalType": "bool",
          "name": "",
          "type": "bool"
        }
      ],
      "stateMutability": "view",
      "type": "function"
    },
    {
      "inputs": [
        {
          "internalType": "address",
          "name": "_token",
          "type": "address"
        },
        {
          "internalType": "bytes32",
          "name": "_sender",
          "type": "bytes32"
        },
        {
          "internalType": "address",
          "name": "_recipient",
          "type": "address"
        },
        {
          "internalType": "uint256",
          "name": "_amount",
          "type": "uint256"
        }
      ],
      "name": "unlock",
      "outputs": [],
      "stateMutability": "nonpayable",
      "type": "function"
    }
  ],
  "bytecode": "0x60806040523480156200001157600080fd5b5060405162002bd938038062002bd9833981810160405281019062000037919062000434565b6000600260008060018111156200005357620000526200050e565b5b60018111156200006857620000676200050e565b5b8152602001908152602001600020905082600001518160000160006101000a81548173ffffffffffffffffffffffffffffffffffffffff021916908373ffffffffffffffffffffffffffffffffffffffff16021790555082602001518160010160006101000a81548173ffffffffffffffffffffffffffffffffffffffff021916908373ffffffffffffffffffffffffffffffffffffffff1602179055506000600260006001808111156200012257620001216200050e565b5b60018111156200013757620001366200050e565b5b8152602001908152602001600020905082600001518160000160006101000a81548173ffffffffffffffffffffffffffffffffffffffff021916908373ffffffffffffffffffffffffffffffffffffffff16021790555082602001518160010160006101000a81548173ffffffffffffffffffffffffffffffffffffffff021916908373ffffffffffffffffffffffffffffffffffffffff1602179055506200020b7ff857e99667b61d9feb64d6cb140ba8a8ba3501d58a4940223c8e74c45932fbf485600001516200024b60201b60201c565b620002417ff857e99667b61d9feb64d6cb140ba8a8ba3501d58a4940223c8e74c45932fbf484600001516200024b60201b60201c565b50505050620005a1565b6200025d82826200026160201b60201c565b5050565b6200027382826200035260201b60201c565b6200034e57600160008084815260200190815260200160002060000160008373ffffffffffffffffffffffffffffffffffffffff1673ffffffffffffffffffffffffffffffffffffffff16815260200190815260200160002060006101000a81548160ff021916908315150217905550620002f3620003bc60201b60201c565b73ffffffffffffffffffffffffffffffffffffffff168173ffffffffffffffffffffffffffffffffffffffff16837f2f8788117e7eff1d82e926ec794901d17c78024a50270940304540a733656f0d60405160405180910390a45b5050565b600080600084815260200190815260200160002060000160008373ffffffffffffffffffffffffffffffffffffffff1673ffffffffffffffffffffffffffffffffffffffff16815260200190815260200160002060009054906101000a900460ff16905092915050565b600033905090565b600081519050620003d58162000587565b92915050565b600060408284031215620003f457620003f36200056c565b5b6200040060406200047b565b905060006200041284828501620003c4565b60008301525060206200042884828501620003c4565b60208301525092915050565b600080608083850312156200044e576200044d62000571565b5b60006200045e85828601620003db565b92505060406200047185828601620003db565b9150509250929050565b6000620004876200049a565b9050620004958282620004d8565b919050565b6000604051905090565b6000620004b182620004b8565b9050919050565b600073ffffffffffffffffffffffffffffffffffffffff82169050919050565b620004e38262000576565b810181811067ffffffffffffffff821117156200050557620005046200053d565b5b80604052505050565b7f4e487b7100000000000000000000000000000000000000000000000000000000600052602160045260246000fd5b7f4e487b7100000000000000000000000000000000000000000000000000000000600052604160045260246000fd5b600080fd5b600080fd5b6000601f19601f8301169050919050565b6200059281620004a4565b81146200059e57600080fd5b50565b61262880620005b16000396000f3fe608060405234801561001057600080fd5b50600436106100b45760003560e01c80634040375811610071578063404037581461019d57806391d14854146101b9578063a217fddf146101e9578063bc0c22a714610207578063ccd3413214610225578063d547741f14610256576100b4565b8063010ce3c7146100b957806301ffc9a7146100d5578063248a9ca31461010557806327e235e3146101355780632f2ff15d1461016557806336568abe14610181575b600080fd5b6100d360048036038101906100ce9190611532565b610272565b005b6100ef60048036038101906100ea91906116db565b610466565b6040516100fc9190611d48565b60405180910390f35b61011f600480360381019061011a9190611641565b6104e0565b60405161012c9190611d63565b60405180910390f35b61014f600480360381019061014a9190611505565b6104ff565b60405161015c9190611edb565b60405180910390f35b61017f600480360381019061017a919061169b565b610517565b005b61019b6004803603810190610196919061169b565b610540565b005b6101b760048036038101906101b29190611599565b6105c3565b005b6101d360048036038101906101ce919061169b565b6108fc565b6040516101e09190611d48565b60405180910390f35b6101f1610966565b6040516101fe9190611d63565b60405180910390f35b61020f61096d565b60405161021c9190611d63565b60405180910390f35b61023f600480360381019061023a9190611735565b610991565b60405161024d929190611bf7565b60405180910390f35b610270600480360381019061026b919061169b565b6109f5565b005b7ff857e99667b61d9feb64d6cb140ba8a8ba3501d58a4940223c8e74c45932fbf46102a48161029f610a1e565b610a26565b600082116102e7576040517f08c379a00000000000000000000000000000000000000000000000000000000081526004016102de90611dc0565b60405180910390fd5b600160008673ffffffffffffffffffffffffffffffffffffffff1673ffffffffffffffffffffffffffffffffffffffff16815260200190815260200160002054821115610369576040517f08c379a000000000000000000000000000000000000000000000000000000000815260040161036090611de0565b60405180910390fd5b81600160008773ffffffffffffffffffffffffffffffffffffffff1673ffffffffffffffffffffffffffffffffffffffff168152602001908152602001600020546103b4919061200f565b600160008773ffffffffffffffffffffffffffffffffffffffff1673ffffffffffffffffffffffffffffffffffffffff1681526020019081526020016000208190555061042283838773ffffffffffffffffffffffffffffffffffffffff16610ac39092919063ffffffff16565b7f8df70ea69ac49ee712a334863f5a094b32ced152f9911ca4ffec3800fc68ba41858585856040516104579493929190611caa565b60405180910390a15050505050565b60007f7965db0b000000000000000000000000000000000000000000000000000000007bffffffffffffffffffffffffffffffffffffffffffffffffffffffff1916827bffffffffffffffffffffffffffffffffffffffffffffffffffffffff191614806104d957506104d882610b49565b5b9050919050565b6000806000838152602001908152602001600020600101549050919050565b60016020528060005260406000206000915090505481565b610520826104e0565b6105318161052c610a1e565b610a26565b61053b8383610bb3565b505050565b610548610a1e565b73ffffffffffffffffffffffffffffffffffffffff168173ffffffffffffffffffffffffffffffffffffffff16146105b5576040517f08c379a00000000000000000000000000000000000000000000000000000000081526004016105ac90611ea0565b60405180910390fd5b6105bf8282610c93565b5050565b600060018111156105d7576105d6612201565b5b8260018111156105ea576105e9612201565b5b1480610619575060018081111561060457610603612201565b5b82600181111561061757610616612201565b5b145b610658576040517f08c379a000000000000000000000000000000000000000000000000000000000815260040161064f90611e80565b60405180910390fd5b82600160008773ffffffffffffffffffffffffffffffffffffffff1673ffffffffffffffffffffffffffffffffffffffff168152602001908152602001600020546106a39190611f5f565b600160008773ffffffffffffffffffffffffffffffffffffffff1673ffffffffffffffffffffffffffffffffffffffff168152602001908152602001600020819055507f343274b452df67d01d1f698d704a823d93b3e9ba7c878e90e6de6b8f0f92ef02853386868560405161071d959493929190611c20565b60405180910390a1606060008263ffffffff1614156107495761074286338787610d74565b9050610759565b6107568633878786610e41565b90505b60006002600085600181111561077257610771612201565b5b600181111561078457610783612201565b5b815260200190815260200160002060010160009054906101000a900473ffffffffffffffffffffffffffffffffffffffff1690508073ffffffffffffffffffffffffffffffffffffffff166376846edd33846040518363ffffffff1660e01b81526004016107f3929190611cef565b600060405180830381600087803b15801561080d57600080fd5b505af1158015610821573d6000803e3d6000fd5b505050508673ffffffffffffffffffffffffffffffffffffffff166323b872dd3330886040518463ffffffff1660e01b815260040161086293929190611c73565b602060405180830381600087803b15801561087c57600080fd5b505af1158015610890573d6000803e3d6000fd5b505050506040513d601f19601f820116820180604052508101906108b49190611614565b6108f3576040517f08c379a00000000000000000000000000000000000000000000000000000000081526004016108ea90611e20565b60405180910390fd5b50505050505050565b600080600084815260200190815260200160002060000160008373ffffffffffffffffffffffffffffffffffffffff1673ffffffffffffffffffffffffffffffffffffffff16815260200190815260200160002060009054906101000a900460ff16905092915050565b6000801b81565b7ff857e99667b61d9feb64d6cb140ba8a8ba3501d58a4940223c8e74c45932fbf481565b60026020528060005260406000206000915090508060000160009054906101000a900473ffffffffffffffffffffffffffffffffffffffff16908060010160009054906101000a900473ffffffffffffffffffffffffffffffffffffffff16905082565b6109fe826104e0565b610a0f81610a0a610a1e565b610a26565b610a198383610c93565b505050565b600033905090565b610a3082826108fc565b610abf57610a558173ffffffffffffffffffffffffffffffffffffffff166014610f9f565b610a638360001c6020610f9f565b604051602001610a74929190611bbd565b6040516020818303038152906040526040517f08c379a0000000000000000000000000000000000000000000000000000000008152600401610ab69190611d7e565b60405180910390fd5b5050565b610b448363a9059cbb60e01b8484604051602401610ae2929190611d1f565b604051602081830303815290604052907bffffffffffffffffffffffffffffffffffffffffffffffffffffffff19166020820180517bffffffffffffffffffffffffffffffffffffffffffffffffffffffff83818316178352505050506111db565b505050565b60007f01ffc9a7000000000000000000000000000000000000000000000000000000007bffffffffffffffffffffffffffffffffffffffffffffffffffffffff1916827bffffffffffffffffffffffffffffffffffffffffffffffffffffffff1916149050919050565b610bbd82826108fc565b610c8f57600160008084815260200190815260200160002060000160008373ffffffffffffffffffffffffffffffffffffffff1673ffffffffffffffffffffffffffffffffffffffff16815260200190815260200160002060006101000a81548160ff021916908315150217905550610c34610a1e565b73ffffffffffffffffffffffffffffffffffffffff168173ffffffffffffffffffffffffffffffffffffffff16837f2f8788117e7eff1d82e926ec794901d17c78024a50270940304540a733656f0d60405160405180910390a45b5050565b610c9d82826108fc565b15610d7057600080600084815260200190815260200160002060000160008373ffffffffffffffffffffffffffffffffffffffff1673ffffffffffffffffffffffffffffffffffffffff16815260200190815260200160002060006101000a81548160ff021916908315150217905550610d15610a1e565b73ffffffffffffffffffffffffffffffffffffffff168173ffffffffffffffffffffffffffffffffffffffff16837ff6391f5c32d9c69d2a47ea670b442974b53935d1edc7fd64eb21e047a839171b60405160405180910390a45b5050565b606061420160f01b8585600060f81b868673__$7cdc5241ea8d29c91205423c213999ecf3$__63dfd47e0e90916040518263ffffffff1660e01b8152600401610dbd9190611ec0565b60206040518083038186803b158015610dd557600080fd5b505af4158015610de9573d6000803e3d6000fd5b505050506040513d601f19601f82011682018060405250810190610e0d919061166e565b600060f81b604051602001610e289796959493929190611a93565b6040516020818303038152906040529050949350505050565b606061420160f01b8686600060f81b878773__$7cdc5241ea8d29c91205423c213999ecf3$__63dfd47e0e90916040518263ffffffff1660e01b8152600401610e8a9190611ec0565b60206040518083038186803b158015610ea257600080fd5b505af4158015610eb6573d6000803e3d6000fd5b505050506040513d601f19601f82011682018060405250810190610eda919061166e565b600160f81b8863ffffffff1673__$7cdc5241ea8d29c91205423c213999ecf3$__63381f760d90916040518263ffffffff1660e01b8152600401610f1e9190611ef6565b60206040518083038186803b158015610f3657600080fd5b505af4158015610f4a573d6000803e3d6000fd5b505050506040513d601f19601f82011682018060405250810190610f6e9190611708565b604051602001610f85989796959493929190611b14565b604051602081830303815290604052905095945050505050565b606060006002836002610fb29190611fb5565b610fbc9190611f5f565b67ffffffffffffffff811115610fd557610fd461225f565b5b6040519080825280601f01601f1916602001820160405280156110075781602001600182028036833780820191505090505b5090507f30000000000000000000000000000000000000000000000000000000000000008160008151811061103f5761103e612230565b5b60200101907effffffffffffffffffffffffffffffffffffffffffffffffffffffffffffff1916908160001a9053507f7800000000000000000000000000000000000000000000000000000000000000816001815181106110a3576110a2612230565b5b60200101907effffffffffffffffffffffffffffffffffffffffffffffffffffffffffffff1916908160001a905350600060018460026110e39190611fb5565b6110ed9190611f5f565b90505b600181111561118d577f3031323334353637383961626364656600000000000000000000000000000000600f86166010811061112f5761112e612230565b5b1a60f81b82828151811061114657611145612230565b5b60200101907effffffffffffffffffffffffffffffffffffffffffffffffffffffffffffff1916908160001a905350600485901c9450806111869061215c565b90506110f0565b50600084146111d1576040517f08c379a00000000000000000000000000000000000000000000000000000000081526004016111c890611da0565b60405180910390fd5b8091505092915050565b600061123d826040518060400160405280602081526020017f5361666545524332303a206c6f772d6c6576656c2063616c6c206661696c65648152508573ffffffffffffffffffffffffffffffffffffffff166112a29092919063ffffffff16565b905060008151111561129d578080602001905181019061125d9190611614565b61129c576040517f08c379a000000000000000000000000000000000000000000000000000000000815260040161129390611e60565b60405180910390fd5b5b505050565b60606112b184846000856112ba565b90509392505050565b6060824710156112ff576040517f08c379a00000000000000000000000000000000000000000000000000000000081526004016112f690611e00565b60405180910390fd5b611308856113ce565b611347576040517f08c379a000000000000000000000000000000000000000000000000000000000815260040161133e90611e40565b60405180910390fd5b6000808673ffffffffffffffffffffffffffffffffffffffff1685876040516113709190611ba6565b60006040518083038185875af1925050503d80600081146113ad576040519150601f19603f3d011682016040523d82523d6000602084013e6113b2565b606091505b50915091506113c28282866113e1565b92505050949350505050565b600080823b905060008111915050919050565b606083156113f157829050611441565b6000835111156114045782518084602001fd5b816040517f08c379a00000000000000000000000000000000000000000000000000000000081526004016114389190611d7e565b60405180910390fd5b9392505050565b60008135905061145781612558565b92915050565b60008151905061146c8161256f565b92915050565b60008135905061148181612586565b92915050565b60008151905061149681612586565b92915050565b6000813590506114ab8161259d565b92915050565b6000815190506114c08161259d565b92915050565b6000813590506114d5816125b4565b92915050565b6000813590506114ea816125c4565b92915050565b6000813590506114ff816125db565b92915050565b60006020828403121561151b5761151a61228e565b5b600061152984828501611448565b91505092915050565b6000806000806080858703121561154c5761154b61228e565b5b600061155a87828801611448565b945050602061156b87828801611472565b935050604061157c87828801611448565b925050606061158d878288016114db565b91505092959194509250565b600080600080600060a086880312156115b5576115b461228e565b5b60006115c388828901611448565b95505060206115d488828901611472565b94505060406115e5888289016114db565b93505060606115f6888289016114c6565b9250506080611607888289016114f0565b9150509295509295909350565b60006020828403121561162a5761162961228e565b5b60006116388482850161145d565b91505092915050565b6000602082840312156116575761165661228e565b5b600061166584828501611472565b91505092915050565b6000602082840312156116845761168361228e565b5b600061169284828501611487565b91505092915050565b600080604083850312156116b2576116b161228e565b5b60006116c085828601611472565b92505060206116d185828601611448565b9150509250929050565b6000602082840312156116f1576116f061228e565b5b60006116ff8482850161149c565b91505092915050565b60006020828403121561171e5761171d61228e565b5b600061172c848285016114b1565b91505092915050565b60006020828403121561174b5761174a61228e565b5b6000611759848285016114c6565b91505092915050565b61176b81612043565b82525050565b61178261177d82612043565b612186565b82525050565b61179181612055565b82525050565b6117a86117a382612061565b612198565b82525050565b6117bf6117ba8261208d565b6121a2565b82525050565b6117ce816120b9565b82525050565b6117e56117e0826120b9565b6121ac565b82525050565b6117fc6117f7826120c3565b6121b6565b82525050565b600061180d82611f11565b6118178185611f27565b9350611827818560208601612129565b61183081612293565b840191505092915050565b600061184682611f11565b6118508185611f38565b9350611860818560208601612129565b80840191505092915050565b600061187782611f1c565b6118818185611f43565b9350611891818560208601612129565b61189a81612293565b840191505092915050565b60006118b082611f1c565b6118ba8185611f54565b93506118ca818560208601612129565b80840191505092915050565b60006118e3602083611f43565b91506118ee826122b1565b602082019050919050565b6000611906601d83611f43565b9150611911826122da565b602082019050919050565b6000611929603f83611f43565b915061193482612303565b604082019050919050565b600061194c602683611f43565b915061195782612352565b604082019050919050565b600061196f604483611f43565b915061197a826123a1565b606082019050919050565b6000611992601d83611f43565b915061199d82612416565b602082019050919050565b60006119b5601783611f54565b91506119c08261243f565b601782019050919050565b60006119d8602a83611f43565b91506119e382612468565b604082019050919050565b60006119fb601183611f54565b9150611a06826124b7565b601182019050919050565b6000611a1e601283611f43565b9150611a29826124e0565b602082019050919050565b6000611a41602f83611f43565b9150611a4c82612509565b604082019050919050565b611a608161210f565b82525050565b611a6f8161210f565b82525050565b611a7e81612119565b82525050565b611a8d81612119565b82525050565b6000611a9f828a6117ae565b600282019150611aaf8289611771565b601482019150611abf8288611771565b601482019150611acf8287611797565b600182019150611adf82866117d4565b602082019150611aef82856117d4565b602082019150611aff8284611797565b60018201915081905098975050505050505050565b6000611b20828b6117ae565b600282019150611b30828a611771565b601482019150611b408289611771565b601482019150611b508288611797565b600182019150611b6082876117d4565b602082019150611b7082866117d4565b602082019150611b808285611797565b600182019150611b9082846117eb565b6004820191508190509998505050505050505050565b6000611bb2828461183b565b915081905092915050565b6000611bc8826119a8565b9150611bd482856118a5565b9150611bdf826119ee565b9150611beb82846118a5565b91508190509392505050565b6000604082019050611c0c6000830185611762565b611c196020830184611762565b9392505050565b600060a082019050611c356000830188611762565b611c426020830187611762565b611c4f60408301866117c5565b611c5c6060830185611a57565b611c696080830184611a75565b9695505050505050565b6000606082019050611c886000830186611762565b611c956020830185611762565b611ca26040830184611a57565b949350505050565b6000608082019050611cbf6000830187611762565b611ccc60208301866117c5565b611cd96040830185611762565b611ce66060830184611a57565b95945050505050565b6000604082019050611d046000830185611762565b8181036020830152611d168184611802565b90509392505050565b6000604082019050611d346000830185611762565b611d416020830184611a57565b9392505050565b6000602082019050611d5d6000830184611788565b92915050565b6000602082019050611d7860008301846117c5565b92915050565b60006020820190508181036000830152611d98818461186c565b905092915050565b60006020820190508181036000830152611db9816118d6565b9050919050565b60006020820190508181036000830152611dd9816118f9565b9050919050565b60006020820190508181036000830152611df98161191c565b9050919050565b60006020820190508181036000830152611e198161193f565b9050919050565b60006020820190508181036000830152611e3981611962565b9050919050565b60006020820190508181036000830152611e5981611985565b9050919050565b60006020820190508181036000830152611e79816119cb565b9050919050565b60006020820190508181036000830152611e9981611a11565b9050919050565b60006020820190508181036000830152611eb981611a34565b9050919050565b6000602082019050611ed56000830184611a66565b92915050565b6000602082019050611ef06000830184611a57565b92915050565b6000602082019050611f0b6000830184611a84565b92915050565b600081519050919050565b600081519050919050565b600082825260208201905092915050565b600081905092915050565b600082825260208201905092915050565b600081905092915050565b6000611f6a8261210f565b9150611f758361210f565b9250827fffffffffffffffffffffffffffffffffffffffffffffffffffffffffffffffff03821115611faa57611fa96121d2565b5b828201905092915050565b6000611fc08261210f565b9150611fcb8361210f565b9250817fffffffffffffffffffffffffffffffffffffffffffffffffffffffffffffffff0483118215151615612004576120036121d2565b5b828202905092915050565b600061201a8261210f565b91506120258361210f565b925082821015612038576120376121d2565b5b828203905092915050565b600061204e826120ef565b9050919050565b60008115159050919050565b60007fff0000000000000000000000000000000000000000000000000000000000000082169050919050565b60007fffff00000000000000000000000000000000000000000000000000000000000082169050919050565b6000819050919050565b60007fffffffff0000000000000000000000000000000000000000000000000000000082169050919050565b600073ffffffffffffffffffffffffffffffffffffffff82169050919050565b6000819050919050565b600063ffffffff82169050919050565b60005b8381101561214757808201518184015260208101905061212c565b83811115612156576000848401525b50505050565b60006121678261210f565b9150600082141561217b5761217a6121d2565b5b600182039050919050565b6000612191826121c0565b9050919050565b6000819050919050565b6000819050919050565b6000819050919050565b6000819050919050565b60006121cb826122a4565b9050919050565b7f4e487b7100000000000000000000000000000000000000000000000000000000600052601160045260246000fd5b7f4e487b7100000000000000000000000000000000000000000000000000000000600052602160045260246000fd5b7f4e487b7100000000000000000000000000000000000000000000000000000000600052603260045260246000fd5b7f4e487b7100000000000000000000000000000000000000000000000000000000600052604160045260246000fd5b600080fd5b6000601f19601f8301169050919050565b60008160601b9050919050565b7f537472696e67733a20686578206c656e67746820696e73756666696369656e74600082015250565b7f4d75737420756e6c6f636b206120706f73697469766520616d6f756e74000000600082015250565b7f455243323020746f6b656e2062616c616e63657320696e73756666696369656e60008201527f7420746f2066756c66696c6c2074686520756e6c6f636b207265717565737400602082015250565b7f416464726573733a20696e73756666696369656e742062616c616e636520666f60008201527f722063616c6c0000000000000000000000000000000000000000000000000000602082015250565b7f436f6e747261637420746f6b656e20616c6c6f77616e63657320696e7375666660008201527f696369656e7420746f20636f6d706c6574652074686973206c6f636b2072657160208201527f7565737400000000000000000000000000000000000000000000000000000000604082015250565b7f416464726573733a2063616c6c20746f206e6f6e2d636f6e7472616374000000600082015250565b7f416363657373436f6e74726f6c3a206163636f756e7420000000000000000000600082015250565b7f5361666545524332303a204552433230206f7065726174696f6e20646964206e60008201527f6f74207375636365656400000000000000000000000000000000000000000000602082015250565b7f206973206d697373696e6720726f6c6520000000000000000000000000000000600082015250565b7f496e76616c6964206368616e6e656c2049440000000000000000000000000000600082015250565b7f416363657373436f6e74726f6c3a2063616e206f6e6c792072656e6f756e636560008201527f20726f6c657320666f722073656c660000000000000000000000000000000000602082015250565b61256181612043565b811461256c57600080fd5b50565b61257881612055565b811461258357600080fd5b50565b61258f816120b9565b811461259a57600080fd5b50565b6125a6816120c3565b81146125b157600080fd5b50565b600281106125c157600080fd5b50565b6125cd8161210f565b81146125d857600080fd5b50565b6125e481612119565b81146125ef57600080fd5b5056fea26469706673582212204943171ccdf60c6970bf5a0577e5c45455f482b68f47928458c2158a430ef7ed64736f6c63430008060033",
  "linkReferences": {
    "contracts/ScaleCodec.sol": {
      "ScaleCodec": [
        {
          "length": 20,
          "start": 4920
        },
        {
          "length": 20,
          "start": 5125
        },
        {
          "length": 20,
          "start": 5273
        }
      ]
    }
  },
  "deployedLinkReferences": {
    "contracts/ScaleCodec.sol": {
      "ScaleCodec": [
        {
          "length": 20,
          "start": 3463
        },
        {
          "length": 20,
          "start": 3668
        },
        {
          "length": 20,
          "start": 3816
        }
      ]
    }
  }
}