{
  "_format": "hh-sol-artifact-1",
  "contractName": "ERC721App",
  "sourceName": "contracts/ERC721App.sol",
  "abi": [
    {
      "inputs": [
        {
          "components": [
            {
              "internalType": "address",
              "name": "inbound",
              "type": "address"
            },
            {
              "internalType": "address",
              "name": "outbound",
              "type": "address"
            }
          ],
          "internalType": "struct ERC721App.Channel",
          "name": "_basic",
          "type": "tuple"
        },
        {
          "components": [
            {
              "internalType": "address",
              "name": "inbound",
              "type": "address"
            },
            {
              "internalType": "address",
              "name": "outbound",
              "type": "address"
            }
          ],
          "internalType": "struct ERC721App.Channel",
          "name": "_incentivized",
          "type": "tuple"
        }
      ],
      "stateMutability": "nonpayable",
      "type": "constructor"
    },
    {
      "anonymous": false,
      "inputs": [
        {
          "indexed": false,
          "internalType": "address",
          "name": "tokenContract",
          "type": "address"
        },
        {
          "indexed": false,
          "internalType": "uint256",
          "name": "tokenId",
          "type": "uint256"
        },
        {
          "indexed": false,
          "internalType": "address",
          "name": "sender",
          "type": "address"
        },
        {
          "indexed": false,
          "internalType": "bytes32",
          "name": "recipient",
          "type": "bytes32"
        }
      ],
      "name": "Locked",
      "type": "event"
    },
    {
      "anonymous": false,
      "inputs": [
        {
          "indexed": true,
          "internalType": "bytes32",
          "name": "role",
          "type": "bytes32"
        },
        {
          "indexed": true,
          "internalType": "bytes32",
          "name": "previousAdminRole",
          "type": "bytes32"
        },
        {
          "indexed": true,
          "internalType": "bytes32",
          "name": "newAdminRole",
          "type": "bytes32"
        }
      ],
      "name": "RoleAdminChanged",
      "type": "event"
    },
    {
      "anonymous": false,
      "inputs": [
        {
          "indexed": true,
          "internalType": "bytes32",
          "name": "role",
          "type": "bytes32"
        },
        {
          "indexed": true,
          "internalType": "address",
          "name": "account",
          "type": "address"
        },
        {
          "indexed": true,
          "internalType": "address",
          "name": "sender",
          "type": "address"
        }
      ],
      "name": "RoleGranted",
      "type": "event"
    },
    {
      "anonymous": false,
      "inputs": [
        {
          "indexed": true,
          "internalType": "bytes32",
          "name": "role",
          "type": "bytes32"
        },
        {
          "indexed": true,
          "internalType": "address",
          "name": "account",
          "type": "address"
        },
        {
          "indexed": true,
          "internalType": "address",
          "name": "sender",
          "type": "address"
        }
      ],
      "name": "RoleRevoked",
      "type": "event"
    },
    {
      "anonymous": false,
      "inputs": [
        {
          "indexed": false,
          "internalType": "address",
          "name": "tokenContract",
          "type": "address"
        },
        {
          "indexed": false,
          "internalType": "uint256",
          "name": "tokenId",
          "type": "uint256"
        },
        {
          "indexed": false,
          "internalType": "bytes32",
          "name": "sender",
          "type": "bytes32"
        },
        {
          "indexed": false,
          "internalType": "address",
          "name": "recipient",
          "type": "address"
        }
      ],
      "name": "Unlocked",
      "type": "event"
    },
    {
      "inputs": [],
      "name": "DEFAULT_ADMIN_ROLE",
      "outputs": [
        {
          "internalType": "bytes32",
          "name": "",
          "type": "bytes32"
        }
      ],
      "stateMutability": "view",
      "type": "function"
    },
    {
      "inputs": [],
      "name": "INBOUND_CHANNEL_ROLE",
      "outputs": [
        {
          "internalType": "bytes32",
          "name": "",
          "type": "bytes32"
        }
      ],
      "stateMutability": "view",
      "type": "function"
    },
    {
      "inputs": [
        {
          "internalType": "enum ChannelId",
          "name": "",
          "type": "uint8"
        }
      ],
      "name": "channels",
      "outputs": [
        {
          "internalType": "address",
          "name": "inbound",
          "type": "address"
        },
        {
          "internalType": "address",
          "name": "outbound",
          "type": "address"
        }
      ],
      "stateMutability": "view",
      "type": "function"
    },
    {
      "inputs": [
        {
          "internalType": "bytes32",
          "name": "role",
          "type": "bytes32"
        }
      ],
      "name": "getRoleAdmin",
      "outputs": [
        {
          "internalType": "bytes32",
          "name": "",
          "type": "bytes32"
        }
      ],
      "stateMutability": "view",
      "type": "function"
    },
    {
      "inputs": [
        {
          "internalType": "bytes32",
          "name": "role",
          "type": "bytes32"
        },
        {
          "internalType": "address",
          "name": "account",
          "type": "address"
        }
      ],
      "name": "grantRole",
      "outputs": [],
      "stateMutability": "nonpayable",
      "type": "function"
    },
    {
      "inputs": [
        {
          "internalType": "bytes32",
          "name": "role",
          "type": "bytes32"
        },
        {
          "internalType": "address",
          "name": "account",
          "type": "address"
        }
      ],
      "name": "hasRole",
      "outputs": [
        {
          "internalType": "bool",
          "name": "",
          "type": "bool"
        }
      ],
      "stateMutability": "view",
      "type": "function"
    },
    {
      "inputs": [
        {
          "internalType": "address",
          "name": "_tokenContract",
          "type": "address"
        },
        {
          "internalType": "uint256",
          "name": "_tokenId",
          "type": "uint256"
        },
        {
          "internalType": "bytes32",
          "name": "_recipient",
          "type": "bytes32"
        },
        {
          "internalType": "enum ChannelId",
          "name": "_channelId",
          "type": "uint8"
        }
      ],
      "name": "lock",
      "outputs": [],
      "stateMutability": "payable",
      "type": "function"
    },
    {
      "inputs": [
        {
          "internalType": "bytes32",
          "name": "role",
          "type": "bytes32"
        },
        {
          "internalType": "address",
          "name": "account",
          "type": "address"
        }
      ],
      "name": "renounceRole",
      "outputs": [],
      "stateMutability": "nonpayable",
      "type": "function"
    },
    {
      "inputs": [
        {
          "internalType": "bytes32",
          "name": "role",
          "type": "bytes32"
        },
        {
          "internalType": "address",
          "name": "account",
          "type": "address"
        }
      ],
      "name": "revokeRole",
      "outputs": [],
      "stateMutability": "nonpayable",
      "type": "function"
    },
    {
      "inputs": [
        {
          "internalType": "bytes4",
          "name": "interfaceId",
          "type": "bytes4"
        }
      ],
      "name": "supportsInterface",
      "outputs": [
        {
          "internalType": "bool",
          "name": "",
          "type": "bool"
        }
      ],
      "stateMutability": "view",
      "type": "function"
    },
    {
      "inputs": [
        {
          "internalType": "address",
          "name": "_tokenContract",
          "type": "address"
        },
        {
          "internalType": "uint256",
          "name": "_tokenId",
          "type": "uint256"
        },
        {
          "internalType": "bytes32",
          "name": "_sender",
          "type": "bytes32"
        },
        {
          "internalType": "address",
          "name": "_recipient",
          "type": "address"
        }
      ],
      "name": "unlock",
      "outputs": [],
      "stateMutability": "nonpayable",
      "type": "function"
    }
  ],
  "bytecode": "0x60806040523480156200001157600080fd5b506040516200220b3803806200220b833981810160405281019062000037919062000434565b6000600160008060018111156200005357620000526200050e565b5b60018111156200006857620000676200050e565b5b8152602001908152602001600020905082600001518160000160006101000a81548173ffffffffffffffffffffffffffffffffffffffff021916908373ffffffffffffffffffffffffffffffffffffffff16021790555082602001518160010160006101000a81548173ffffffffffffffffffffffffffffffffffffffff021916908373ffffffffffffffffffffffffffffffffffffffff1602179055506000600160006001808111156200012257620001216200050e565b5b60018111156200013757620001366200050e565b5b8152602001908152602001600020905082600001518160000160006101000a81548173ffffffffffffffffffffffffffffffffffffffff021916908373ffffffffffffffffffffffffffffffffffffffff16021790555082602001518160010160006101000a81548173ffffffffffffffffffffffffffffffffffffffff021916908373ffffffffffffffffffffffffffffffffffffffff1602179055506200020b7ff857e99667b61d9feb64d6cb140ba8a8ba3501d58a4940223c8e74c45932fbf485600001516200024b60201b60201c565b620002417ff857e99667b61d9feb64d6cb140ba8a8ba3501d58a4940223c8e74c45932fbf484600001516200024b60201b60201c565b50505050620005a1565b6200025d82826200026160201b60201c565b5050565b6200027382826200035260201b60201c565b6200034e57600160008084815260200190815260200160002060000160008373ffffffffffffffffffffffffffffffffffffffff1673ffffffffffffffffffffffffffffffffffffffff16815260200190815260200160002060006101000a81548160ff021916908315150217905550620002f3620003bc60201b60201c565b73ffffffffffffffffffffffffffffffffffffffff168173ffffffffffffffffffffffffffffffffffffffff16837f2f8788117e7eff1d82e926ec794901d17c78024a50270940304540a733656f0d60405160405180910390a45b5050565b600080600084815260200190815260200160002060000160008373ffffffffffffffffffffffffffffffffffffffff1673ffffffffffffffffffffffffffffffffffffffff16815260200190815260200160002060009054906101000a900460ff16905092915050565b600033905090565b600081519050620003d58162000587565b92915050565b600060408284031215620003f457620003f36200056c565b5b6200040060406200047b565b905060006200041284828501620003c4565b60008301525060206200042884828501620003c4565b60208301525092915050565b600080608083850312156200044e576200044d62000571565b5b60006200045e85828601620003db565b92505060406200047185828601620003db565b9150509250929050565b6000620004876200049a565b9050620004958282620004d8565b919050565b6000604051905090565b6000620004b182620004b8565b9050919050565b600073ffffffffffffffffffffffffffffffffffffffff82169050919050565b620004e38262000576565b810181811067ffffffffffffffff821117156200050557620005046200053d565b5b80604052505050565b7f4e487b7100000000000000000000000000000000000000000000000000000000600052602160045260246000fd5b7f4e487b7100000000000000000000000000000000000000000000000000000000600052604160045260246000fd5b600080fd5b600080fd5b6000601f19601f8301169050919050565b6200059281620004a4565b81146200059e57600080fd5b50565b611c5a80620005b16000396000f3fe60806040526004361061009c5760003560e01c80638caff960116100645780638caff9601461018957806391d14854146101b2578063a217fddf146101ef578063bc0c22a71461021a578063ccd3413214610245578063d547741f146102835761009c565b806301ffc9a7146100a1578063248a9ca3146100de5780632f2ff15d1461011b57806336568abe146101445780636677e6de1461016d575b600080fd5b3480156100ad57600080fd5b506100c860048036038101906100c3919061111d565b6102ac565b6040516100d591906115b1565b60405180910390f35b3480156100ea57600080fd5b5061010560048036038101906101009190611083565b610326565b60405161011291906115cc565b60405180910390f35b34801561012757600080fd5b50610142600480360381019061013d91906110dd565b610345565b005b34801561015057600080fd5b5061016b600480360381019061016691906110dd565b61036e565b005b6101876004803603810190610182919061101c565b6103f1565b005b34801561019557600080fd5b506101b060048036038101906101ab9190610fb5565b6106aa565b005b3480156101be57600080fd5b506101d960048036038101906101d491906110dd565b6107cb565b6040516101e691906115b1565b60405180910390f35b3480156101fb57600080fd5b50610204610835565b60405161021191906115cc565b60405180910390f35b34801561022657600080fd5b5061022f61083c565b60405161023c91906115cc565b60405180910390f35b34801561025157600080fd5b5061026c6004803603810190610267919061114a565b610860565b60405161027a929190611497565b60405180910390f35b34801561028f57600080fd5b506102aa60048036038101906102a591906110dd565b6108c4565b005b60007f7965db0b000000000000000000000000000000000000000000000000000000007bffffffffffffffffffffffffffffffffffffffffffffffffffffffff1916827bffffffffffffffffffffffffffffffffffffffffffffffffffffffff1916148061031f575061031e826108ed565b5b9050919050565b6000806000838152602001908152602001600020600101549050919050565b61034e82610326565b61035f8161035a610957565b61095f565b61036983836109fc565b505050565b610376610957565b73ffffffffffffffffffffffffffffffffffffffff168173ffffffffffffffffffffffffffffffffffffffff16146103e3576040517f08c379a00000000000000000000000000000000000000000000000000000000081526004016103da90611669565b60405180910390fd5b6103ed8282610adc565b5050565b60006001811115610405576104046119dd565b5b816001811115610418576104176119dd565b5b14806104475750600180811115610432576104316119dd565b5b816001811115610445576104446119dd565b5b145b610486576040517f08c379a000000000000000000000000000000000000000000000000000000000815260040161047d90611649565b60405180910390fd5b60008490508073ffffffffffffffffffffffffffffffffffffffff166323b872dd3330876040518463ffffffff1660e01b81526004016104c8939291906114c0565b600060405180830381600087803b1580156104e257600080fd5b505af11580156104f6573d6000803e3d6000fd5b505050507ff9e8f47bd010f225f3d63194767d1bfd468e2bbf8dd0cf3a9eda77b64fd64f598585338660405161052f9493929190611527565b60405180910390a160006105d3868633878673ffffffffffffffffffffffffffffffffffffffff1663c87b56dd8b6040518263ffffffff1660e01b815260040161057991906116a4565b60006040518083038186803b15801561059157600080fd5b505afa1580156105a5573d6000803e3d6000fd5b505050506040513d6000823e3d601f19601f820116820180604052508101906105ce9190611177565b610bbd565b90506000600160008560018111156105ee576105ed6119dd565b5b6001811115610600576105ff6119dd565b5b815260200190815260200160002060010160009054906101000a900473ffffffffffffffffffffffffffffffffffffffff1690508073ffffffffffffffffffffffffffffffffffffffff166376846edd33846040518363ffffffff1660e01b815260040161066f9291906114f7565b600060405180830381600087803b15801561068957600080fd5b505af115801561069d573d6000803e3d6000fd5b5050505050505050505050565b6106d47ff857e99667b61d9feb64d6cb140ba8a8ba3501d58a4940223c8e74c45932fbf4336107cb565b610713576040517f08c379a000000000000000000000000000000000000000000000000000000000815260040161070a90611629565b60405180910390fd5b60008490508073ffffffffffffffffffffffffffffffffffffffff166323b872dd3084876040518463ffffffff1660e01b8152600401610755939291906114c0565b600060405180830381600087803b15801561076f57600080fd5b505af1158015610783573d6000803e3d6000fd5b505050507f91866269a07005261072e1fab91b423eb26cdd847fb0bdfe460aaff27fbc2d75858585856040516107bc949392919061156c565b60405180910390a15050505050565b600080600084815260200190815260200160002060000160008373ffffffffffffffffffffffffffffffffffffffff1673ffffffffffffffffffffffffffffffffffffffff16815260200190815260200160002060009054906101000a900460ff16905092915050565b6000801b81565b7ff857e99667b61d9feb64d6cb140ba8a8ba3501d58a4940223c8e74c45932fbf481565b60016020528060005260406000206000915090508060000160009054906101000a900473ffffffffffffffffffffffffffffffffffffffff16908060010160009054906101000a900473ffffffffffffffffffffffffffffffffffffffff16905082565b6108cd82610326565b6108de816108d9610957565b61095f565b6108e88383610adc565b505050565b60007f01ffc9a7000000000000000000000000000000000000000000000000000000007bffffffffffffffffffffffffffffffffffffffffffffffffffffffff1916827bffffffffffffffffffffffffffffffffffffffffffffffffffffffff1916149050919050565b600033905090565b61096982826107cb565b6109f85761098e8173ffffffffffffffffffffffffffffffffffffffff166014610c8b565b61099c8360001c6020610c8b565b6040516020016109ad92919061145d565b6040516020818303038152906040526040517f08c379a00000000000000000000000000000000000000000000000000000000081526004016109ef91906115e7565b60405180910390fd5b5050565b610a0682826107cb565b610ad857600160008084815260200190815260200160002060000160008373ffffffffffffffffffffffffffffffffffffffff1673ffffffffffffffffffffffffffffffffffffffff16815260200190815260200160002060006101000a81548160ff021916908315150217905550610a7d610957565b73ffffffffffffffffffffffffffffffffffffffff168173ffffffffffffffffffffffffffffffffffffffff16837f2f8788117e7eff1d82e926ec794901d17c78024a50270940304540a733656f0d60405160405180910390a45b5050565b610ae682826107cb565b15610bb957600080600084815260200190815260200160002060000160008373ffffffffffffffffffffffffffffffffffffffff1673ffffffffffffffffffffffffffffffffffffffff16815260200190815260200160002060006101000a81548160ff021916908315150217905550610b5e610957565b73ffffffffffffffffffffffffffffffffffffffff168173ffffffffffffffffffffffffffffffffffffffff16837ff6391f5c32d9c69d2a47ea670b442974b53935d1edc7fd64eb21e047a839171b60405160405180910390a45b5050565b606061430160f01b84600060f81b85898973__$7cdc5241ea8d29c91205423c213999ecf3$__63dfd47e0e90916040518263ffffffff1660e01b8152600401610c069190611689565b60206040518083038186803b158015610c1e57600080fd5b505af4158015610c32573d6000803e3d6000fd5b505050506040513d601f19601f82011682018060405250810190610c5691906110b0565b600060f81b604051602001610c7197969594939291906113dc565b604051602081830303815290604052905095945050505050565b606060006002836002610c9e91906117ae565b610ca89190611758565b67ffffffffffffffff811115610cc157610cc0611a3b565b5b6040519080825280601f01601f191660200182016040528015610cf35781602001600182028036833780820191505090505b5090507f300000000000000000000000000000000000000000000000000000000000000081600081518110610d2b57610d2a611a0c565b5b60200101907effffffffffffffffffffffffffffffffffffffffffffffffffffffffffffff1916908160001a9053507f780000000000000000000000000000000000000000000000000000000000000081600181518110610d8f57610d8e611a0c565b5b60200101907effffffffffffffffffffffffffffffffffffffffffffffffffffffffffffff1916908160001a90535060006001846002610dcf91906117ae565b610dd99190611758565b90505b6001811115610e79577f3031323334353637383961626364656600000000000000000000000000000000600f861660108110610e1b57610e1a611a0c565b5b1a60f81b828281518110610e3257610e31611a0c565b5b60200101907effffffffffffffffffffffffffffffffffffffffffffffffffffffffffffff1916908160001a905350600485901c945080610e7290611911565b9050610ddc565b5060008414610ebd576040517f08c379a0000000000000000000000000000000000000000000000000000000008152600401610eb490611609565b60405180910390fd5b8091505092915050565b6000610eda610ed5846116e4565b6116bf565b905082815260208101848484011115610ef657610ef5611a6f565b5b610f018482856118de565b509392505050565b600081359050610f1881611bb8565b92915050565b600081359050610f2d81611bcf565b92915050565b600081519050610f4281611bcf565b92915050565b600081359050610f5781611be6565b92915050565b600081359050610f6c81611bfd565b92915050565b600082601f830112610f8757610f86611a6a565b5b8151610f97848260208601610ec7565b91505092915050565b600081359050610faf81611c0d565b92915050565b60008060008060808587031215610fcf57610fce611a79565b5b6000610fdd87828801610f09565b9450506020610fee87828801610fa0565b9350506040610fff87828801610f1e565b925050606061101087828801610f09565b91505092959194509250565b6000806000806080858703121561103657611035611a79565b5b600061104487828801610f09565b945050602061105587828801610fa0565b935050604061106687828801610f1e565b925050606061107787828801610f5d565b91505092959194509250565b60006020828403121561109957611098611a79565b5b60006110a784828501610f1e565b91505092915050565b6000602082840312156110c6576110c5611a79565b5b60006110d484828501610f33565b91505092915050565b600080604083850312156110f4576110f3611a79565b5b600061110285828601610f1e565b925050602061111385828601610f09565b9150509250929050565b60006020828403121561113357611132611a79565b5b600061114184828501610f48565b91505092915050565b6000602082840312156111605761115f611a79565b5b600061116e84828501610f5d565b91505092915050565b60006020828403121561118d5761118c611a79565b5b600082015167ffffffffffffffff8111156111ab576111aa611a74565b5b6111b784828501610f72565b91505092915050565b6111c981611808565b82525050565b6111e06111db82611808565b61196c565b82525050565b6111ef8161181a565b82525050565b61120661120182611826565b61197e565b82525050565b61121d61121882611852565b611988565b82525050565b61122c8161187e565b82525050565b61124361123e8261187e565b611992565b82525050565b600061125482611715565b61125e818561172b565b935061126e8185602086016118de565b61127781611a7e565b840191505092915050565b600061128d82611720565b611297818561173c565b93506112a78185602086016118de565b6112b081611a7e565b840191505092915050565b60006112c682611720565b6112d0818561174d565b93506112e08185602086016118de565b80840191505092915050565b60006112f960208361173c565b915061130482611a9c565b602082019050919050565b600061131c60178361174d565b915061132782611ac5565b601782019050919050565b600061133f60208361173c565b915061134a82611aee565b602082019050919050565b600061136260118361174d565b915061136d82611b17565b601182019050919050565b600061138560128361173c565b915061139082611b40565b602082019050919050565b60006113a8602f8361173c565b91506113b382611b69565b604082019050919050565b6113c7816118d4565b82525050565b6113d6816118d4565b82525050565b60006113e8828a61120c565b6002820191506113f882896111cf565b60148201915061140882886111f5565b6001820191506114188287611232565b60208201915061142882866111cf565b6014820191506114388285611232565b60208201915061144882846111f5565b60018201915081905098975050505050505050565b60006114688261130f565b915061147482856112bb565b915061147f82611355565b915061148b82846112bb565b91508190509392505050565b60006040820190506114ac60008301856111c0565b6114b960208301846111c0565b9392505050565b60006060820190506114d560008301866111c0565b6114e260208301856111c0565b6114ef60408301846113be565b949350505050565b600060408201905061150c60008301856111c0565b818103602083015261151e8184611249565b90509392505050565b600060808201905061153c60008301876111c0565b61154960208301866113be565b61155660408301856111c0565b6115636060830184611223565b95945050505050565b600060808201905061158160008301876111c0565b61158e60208301866113be565b61159b6040830185611223565b6115a860608301846111c0565b95945050505050565b60006020820190506115c660008301846111e6565b92915050565b60006020820190506115e16000830184611223565b92915050565b600060208201905081810360008301526116018184611282565b905092915050565b60006020820190508181036000830152611622816112ec565b9050919050565b6000602082019050818103600083015261164281611332565b9050919050565b6000602082019050818103600083015261166281611378565b9050919050565b600060208201905081810360008301526116828161139b565b9050919050565b600060208201905061169e60008301846113cd565b92915050565b60006020820190506116b960008301846113be565b92915050565b60006116c96116da565b90506116d5828261193b565b919050565b6000604051905090565b600067ffffffffffffffff8211156116ff576116fe611a3b565b5b61170882611a7e565b9050602081019050919050565b600081519050919050565b600081519050919050565b600082825260208201905092915050565b600082825260208201905092915050565b600081905092915050565b6000611763826118d4565b915061176e836118d4565b9250827fffffffffffffffffffffffffffffffffffffffffffffffffffffffffffffffff038211156117a3576117a26119ae565b5b828201905092915050565b60006117b9826118d4565b91506117c4836118d4565b9250817fffffffffffffffffffffffffffffffffffffffffffffffffffffffffffffffff04831182151516156117fd576117fc6119ae565b5b828202905092915050565b6000611813826118b4565b9050919050565b60008115159050919050565b60007fff0000000000000000000000000000000000000000000000000000000000000082169050919050565b60007fffff00000000000000000000000000000000000000000000000000000000000082169050919050565b6000819050919050565b60007fffffffff0000000000000000000000000000000000000000000000000000000082169050919050565b600073ffffffffffffffffffffffffffffffffffffffff82169050919050565b6000819050919050565b60005b838110156118fc5780820151818401526020810190506118e1565b8381111561190b576000848401525b50505050565b600061191c826118d4565b915060008214156119305761192f6119ae565b5b600182039050919050565b61194482611a7e565b810181811067ffffffffffffffff8211171561196357611962611a3b565b5b80604052505050565b60006119778261199c565b9050919050565b6000819050919050565b6000819050919050565b6000819050919050565b60006119a782611a8f565b9050919050565b7f4e487b7100000000000000000000000000000000000000000000000000000000600052601160045260246000fd5b7f4e487b7100000000000000000000000000000000000000000000000000000000600052602160045260246000fd5b7f4e487b7100000000000000000000000000000000000000000000000000000000600052603260045260246000fd5b7f4e487b7100000000000000000000000000000000000000000000000000000000600052604160045260246000fd5b600080fd5b600080fd5b600080fd5b600080fd5b6000601f19601f8301169050919050565b60008160601b9050919050565b7f537472696e67733a20686578206c656e67746820696e73756666696369656e74600082015250565b7f416363657373436f6e74726f6c3a206163636f756e7420000000000000000000600082015250565b7f43616c6c6572206973206e6f7420616e20696e626f756e64206368616e6e656c600082015250565b7f206973206d697373696e6720726f6c6520000000000000000000000000000000600082015250565b7f496e76616c6964206368616e6e656c2049440000000000000000000000000000600082015250565b7f416363657373436f6e74726f6c3a2063616e206f6e6c792072656e6f756e636560008201527f20726f6c657320666f722073656c660000000000000000000000000000000000602082015250565b611bc181611808565b8114611bcc57600080fd5b50565b611bd88161187e565b8114611be357600080fd5b50565b611bef81611888565b8114611bfa57600080fd5b50565b60028110611c0a57600080fd5b50565b611c16816118d4565b8114611c2157600080fd5b5056fea264697066735822122035e6dcb15ba6b5c0b4e188d6da448199dccd19fb784c08b480e5d8698de651f964736f6c63430008060033",
  "linkReferences": {
    "contracts/ScaleCodec.sol": {
      "ScaleCodec": [
        {
          "length": 20,
          "start": 4481
        }
      ]
    }
  },
  "deployedLinkReferences": {
    "contracts/ScaleCodec.sol": {
      "ScaleCodec": [
        {
          "length": 20,
          "start": 3024
        }
      ]
    }
  }
}