{
  "contractName": "ETHApp",
  "abi": [
    {
      "inputs": [
        {
          "internalType": "address",
          "name": "rewarder",
          "type": "address"
        },
        {
          "components": [
            {
              "internalType": "address",
              "name": "inbound",
              "type": "address"
            },
            {
              "internalType": "address",
              "name": "outbound",
              "type": "address"
            }
          ],
          "internalType": "struct ETHApp.Channel",
          "name": "_basic",
          "type": "tuple"
        },
        {
          "components": [
            {
              "internalType": "address",
              "name": "inbound",
              "type": "address"
            },
            {
              "internalType": "address",
              "name": "outbound",
              "type": "address"
            }
          ],
          "internalType": "struct ETHApp.Channel",
          "name": "_incentivized",
          "type": "tuple"
        }
      ],
      "stateMutability": "nonpayable",
      "type": "constructor"
    },
    {
      "anonymous": false,
      "inputs": [
        {
          "indexed": false,
          "internalType": "address",
          "name": "sender",
          "type": "address"
        },
        {
          "indexed": false,
          "internalType": "bytes32",
          "name": "recipient",
          "type": "bytes32"
        },
        {
          "indexed": false,
          "internalType": "uint256",
          "name": "amount",
          "type": "uint256"
        }
      ],
      "name": "Locked",
      "type": "event"
    },
    {
      "anonymous": false,
      "inputs": [
        {
          "indexed": true,
          "internalType": "bytes32",
          "name": "role",
          "type": "bytes32"
        },
        {
          "indexed": true,
          "internalType": "bytes32",
          "name": "previousAdminRole",
          "type": "bytes32"
        },
        {
          "indexed": true,
          "internalType": "bytes32",
          "name": "newAdminRole",
          "type": "bytes32"
        }
      ],
      "name": "RoleAdminChanged",
      "type": "event"
    },
    {
      "anonymous": false,
      "inputs": [
        {
          "indexed": true,
          "internalType": "bytes32",
          "name": "role",
          "type": "bytes32"
        },
        {
          "indexed": true,
          "internalType": "address",
          "name": "account",
          "type": "address"
        },
        {
          "indexed": true,
          "internalType": "address",
          "name": "sender",
          "type": "address"
        }
      ],
      "name": "RoleGranted",
      "type": "event"
    },
    {
      "anonymous": false,
      "inputs": [
        {
          "indexed": true,
          "internalType": "bytes32",
          "name": "role",
          "type": "bytes32"
        },
        {
          "indexed": true,
          "internalType": "address",
          "name": "account",
          "type": "address"
        },
        {
          "indexed": true,
          "internalType": "address",
          "name": "sender",
          "type": "address"
        }
      ],
      "name": "RoleRevoked",
      "type": "event"
    },
    {
      "anonymous": false,
      "inputs": [
        {
          "indexed": false,
          "internalType": "bytes32",
          "name": "sender",
          "type": "bytes32"
        },
        {
          "indexed": false,
          "internalType": "address",
          "name": "recipient",
          "type": "address"
        },
        {
          "indexed": false,
          "internalType": "uint256",
          "name": "amount",
          "type": "uint256"
        }
      ],
      "name": "Unlocked",
      "type": "event"
    },
    {
      "inputs": [],
      "name": "DEFAULT_ADMIN_ROLE",
      "outputs": [
        {
          "internalType": "bytes32",
          "name": "",
          "type": "bytes32"
        }
      ],
      "stateMutability": "view",
      "type": "function",
      "constant": true
    },
    {
      "inputs": [],
      "name": "INBOUND_CHANNEL_ROLE",
      "outputs": [
        {
          "internalType": "bytes32",
          "name": "",
          "type": "bytes32"
        }
      ],
      "stateMutability": "view",
      "type": "function",
      "constant": true
    },
    {
      "inputs": [],
      "name": "REWARD_ROLE",
      "outputs": [
        {
          "internalType": "bytes32",
          "name": "",
          "type": "bytes32"
        }
      ],
      "stateMutability": "view",
      "type": "function",
      "constant": true
    },
    {
      "inputs": [],
      "name": "balance",
      "outputs": [
        {
          "internalType": "uint256",
          "name": "",
          "type": "uint256"
        }
      ],
      "stateMutability": "view",
      "type": "function",
      "constant": true
    },
    {
      "inputs": [
        {
          "internalType": "enum ChannelId",
          "name": "",
          "type": "uint8"
        }
      ],
      "name": "channels",
      "outputs": [
        {
          "internalType": "address",
          "name": "inbound",
          "type": "address"
        },
        {
          "internalType": "address",
          "name": "outbound",
          "type": "address"
        }
      ],
      "stateMutability": "view",
      "type": "function",
      "constant": true
    },
    {
      "inputs": [
        {
          "internalType": "bytes32",
          "name": "role",
          "type": "bytes32"
        }
      ],
      "name": "getRoleAdmin",
      "outputs": [
        {
          "internalType": "bytes32",
          "name": "",
          "type": "bytes32"
        }
      ],
      "stateMutability": "view",
      "type": "function",
      "constant": true
    },
    {
      "inputs": [
        {
          "internalType": "bytes32",
          "name": "role",
          "type": "bytes32"
        },
        {
          "internalType": "address",
          "name": "account",
          "type": "address"
        }
      ],
      "name": "grantRole",
      "outputs": [],
      "stateMutability": "nonpayable",
      "type": "function"
    },
    {
      "inputs": [
        {
          "internalType": "bytes32",
          "name": "role",
          "type": "bytes32"
        },
        {
          "internalType": "address",
          "name": "account",
          "type": "address"
        }
      ],
      "name": "hasRole",
      "outputs": [
        {
          "internalType": "bool",
          "name": "",
          "type": "bool"
        }
      ],
      "stateMutability": "view",
      "type": "function",
      "constant": true
    },
    {
      "inputs": [
        {
          "internalType": "bytes32",
          "name": "role",
          "type": "bytes32"
        },
        {
          "internalType": "address",
          "name": "account",
          "type": "address"
        }
      ],
      "name": "renounceRole",
      "outputs": [],
      "stateMutability": "nonpayable",
      "type": "function"
    },
    {
      "inputs": [
        {
          "internalType": "bytes32",
          "name": "role",
          "type": "bytes32"
        },
        {
          "internalType": "address",
          "name": "account",
          "type": "address"
        }
      ],
      "name": "revokeRole",
      "outputs": [],
      "stateMutability": "nonpayable",
      "type": "function"
    },
    {
      "inputs": [
        {
          "internalType": "bytes4",
          "name": "interfaceId",
          "type": "bytes4"
        }
      ],
      "name": "supportsInterface",
      "outputs": [
        {
          "internalType": "bool",
          "name": "",
          "type": "bool"
        }
      ],
      "stateMutability": "view",
      "type": "function",
      "constant": true
    },
    {
      "inputs": [
        {
          "internalType": "bytes32",
          "name": "_recipient",
          "type": "bytes32"
        },
        {
          "internalType": "enum ChannelId",
          "name": "_channelId",
          "type": "uint8"
        }
      ],
      "name": "lock",
      "outputs": [],
      "stateMutability": "payable",
      "type": "function",
      "payable": true
    },
    {
      "inputs": [
        {
          "internalType": "bytes32",
          "name": "_sender",
          "type": "bytes32"
        },
        {
          "internalType": "address payable",
          "name": "_recipient",
          "type": "address"
        },
        {
          "internalType": "uint256",
          "name": "_amount",
          "type": "uint256"
        }
      ],
      "name": "unlock",
      "outputs": [],
      "stateMutability": "nonpayable",
      "type": "function"
    },
    {
      "inputs": [
        {
          "internalType": "address payable",
          "name": "_recipient",
          "type": "address"
        },
        {
          "internalType": "uint256",
          "name": "_amount",
          "type": "uint256"
        }
      ],
      "name": "reward",
      "outputs": [],
      "stateMutability": "nonpayable",
      "type": "function"
    }
  ],
  "bytecode": "0x60806040523480156200001157600080fd5b506040516200249d3803806200249d83398181016040528101906200003791906200046f565b60006001819055506000600260008060018111156200005b576200005a6200055e565b5b600181111562000070576200006f6200055e565b5b8152602001908152602001600020905082600001518160000160006101000a81548173ffffffffffffffffffffffffffffffffffffffff021916908373ffffffffffffffffffffffffffffffffffffffff16021790555082602001518160010160006101000a81548173ffffffffffffffffffffffffffffffffffffffff021916908373ffffffffffffffffffffffffffffffffffffffff1602179055506000600260006001808111156200012a57620001296200055e565b5b60018111156200013f576200013e6200055e565b5b8152602001908152602001600020905082600001518160000160006101000a81548173ffffffffffffffffffffffffffffffffffffffff021916908373ffffffffffffffffffffffffffffffffffffffff16021790555082602001518160010160006101000a81548173ffffffffffffffffffffffffffffffffffffffff021916908373ffffffffffffffffffffffffffffffffffffffff1602179055506200020f7fc002a6b5f9f56101ba6339b1b95d171fadf6e41e005b91c80d686aef7516e759866200028660201b60201c565b620002457ff857e99667b61d9feb64d6cb140ba8a8ba3501d58a4940223c8e74c45932fbf485600001516200028660201b60201c565b6200027b7ff857e99667b61d9feb64d6cb140ba8a8ba3501d58a4940223c8e74c45932fbf484600001516200028660201b60201c565b5050505050620005f1565b6200029882826200029c60201b60201c565b5050565b620002ae82826200038d60201b60201c565b6200038957600160008084815260200190815260200160002060000160008373ffffffffffffffffffffffffffffffffffffffff1673ffffffffffffffffffffffffffffffffffffffff16815260200190815260200160002060006101000a81548160ff0219169083151502179055506200032e620003f760201b60201c565b73ffffffffffffffffffffffffffffffffffffffff168173ffffffffffffffffffffffffffffffffffffffff16837f2f8788117e7eff1d82e926ec794901d17c78024a50270940304540a733656f0d60405160405180910390a45b5050565b600080600084815260200190815260200160002060000160008373ffffffffffffffffffffffffffffffffffffffff1673ffffffffffffffffffffffffffffffffffffffff16815260200190815260200160002060009054906101000a900460ff16905092915050565b600033905090565b6000815190506200041081620005d7565b92915050565b6000604082840312156200042f576200042e620005bc565b5b6200043b6040620004cb565b905060006200044d84828501620003ff565b60008301525060206200046384828501620003ff565b60208301525092915050565b600080600060a084860312156200048b576200048a620005c1565b5b60006200049b86828701620003ff565b9350506020620004ae8682870162000416565b9250506060620004c18682870162000416565b9150509250925092565b6000620004d7620004ea565b9050620004e5828262000528565b919050565b6000604051905090565b6000620005018262000508565b9050919050565b600073ffffffffffffffffffffffffffffffffffffffff82169050919050565b6200053382620005c6565b810181811067ffffffffffffffff821117156200055557620005546200058d565b5b80604052505050565b7f4e487b7100000000000000000000000000000000000000000000000000000000600052602160045260246000fd5b7f4e487b7100000000000000000000000000000000000000000000000000000000600052604160045260246000fd5b600080fd5b600080fd5b6000601f19601f8301169050919050565b620005e281620004f4565b8114620005ee57600080fd5b50565b611e9c80620006016000396000f3fe6080604052600436106100dd5760003560e01c806391d148541161007f578063bc0c22a711610059578063bc0c22a7146102af578063ccd34132146102da578063d547741f14610318578063e8884f2b14610341576100dd565b806391d148541461021c578063a217fddf14610259578063b69ef8a814610284576100dd565b80632f2ff15d116100bb5780632f2ff15d1461018557806336568abe146101ae578063577232f7146101d75780636dea30e7146101f3576100dd565b806301ffc9a7146100e257806321670f221461011f578063248a9ca314610148575b600080fd5b3480156100ee57600080fd5b5061010960048036038101906101049190611215565b61036c565b604051610116919061164f565b60405180910390f35b34801561012b57600080fd5b50610146600480360381019061014191906110a8565b6103e6565b005b34801561015457600080fd5b5061016f600480360381019061016a91906110e8565b61049a565b60405161017c919061166a565b60405180910390f35b34801561019157600080fd5b506101ac60048036038101906101a79190611142565b6104b9565b005b3480156101ba57600080fd5b506101d560048036038101906101d09190611142565b6104e2565b005b6101f160048036038101906101ec91906111d5565b610565565b005b3480156101ff57600080fd5b5061021a60048036038101906102159190611182565b61076d565b005b34801561022857600080fd5b50610243600480360381019061023e9190611142565b6108f9565b604051610250919061164f565b60405180910390f35b34801561026557600080fd5b5061026e610963565b60405161027b919061166a565b60405180910390f35b34801561029057600080fd5b5061029961096a565b6040516102a691906117f9565b60405180910390f35b3480156102bb57600080fd5b506102c4610970565b6040516102d1919061166a565b60405180910390f35b3480156102e657600080fd5b5061030160048036038101906102fc9190611242565b610994565b60405161030f9291906115bf565b60405180910390f35b34801561032457600080fd5b5061033f600480360381019061033a9190611142565b6109f8565b005b34801561034d57600080fd5b50610356610a21565b604051610363919061166a565b60405180910390f35b60007f7965db0b000000000000000000000000000000000000000000000000000000007bffffffffffffffffffffffffffffffffffffffffffffffffffffffff1916827bffffffffffffffffffffffffffffffffffffffffffffffffffffffff191614806103df57506103de82610a45565b5b9050919050565b6104107fc002a6b5f9f56101ba6339b1b95d171fadf6e41e005b91c80d686aef7516e759336108f9565b61044f576040517f08c379a00000000000000000000000000000000000000000000000000000000081526004016104469061177e565b60405180910390fd5b8173ffffffffffffffffffffffffffffffffffffffff166108fc829081150290604051600060405180830381858888f19350505050158015610495573d6000803e3d6000fd5b505050565b6000806000838152602001908152602001600020600101549050919050565b6104c28261049a565b6104d3816104ce610aaf565b610ab7565b6104dd8383610b54565b505050565b6104ea610aaf565b73ffffffffffffffffffffffffffffffffffffffff168173ffffffffffffffffffffffffffffffffffffffff1614610557576040517f08c379a000000000000000000000000000000000000000000000000000000000815260040161054e906117be565b60405180910390fd5b6105618282610c34565b5050565b600034116105a8576040517f08c379a000000000000000000000000000000000000000000000000000000000815260040161059f9061171e565b60405180910390fd5b600060018111156105bc576105bb611b27565b5b8160018111156105cf576105ce611b27565b5b14806105fe57506001808111156105e9576105e8611b27565b5b8160018111156105fc576105fb611b27565b5b145b61063d576040517f08c379a00000000000000000000000000000000000000000000000000000000081526004016106349061179e565b60405180910390fd5b3460015461064b9190611857565b6001819055507fcaae0f5e72020d428da73a237d1f9bf162e158dda6d4908769b8b60c095b01f4338334604051610684939291906115e8565b60405180910390a16000610699338434610d15565b90506000600260008460018111156106b4576106b3611b27565b5b60018111156106c6576106c5611b27565b5b815260200190815260200160002060010160009054906101000a900473ffffffffffffffffffffffffffffffffffffffff1690508073ffffffffffffffffffffffffffffffffffffffff166376846edd33846040518363ffffffff1660e01b815260040161073592919061161f565b600060405180830381600087803b15801561074f57600080fd5b505af1158015610763573d6000803e3d6000fd5b5050505050505050565b6107977ff857e99667b61d9feb64d6cb140ba8a8ba3501d58a4940223c8e74c45932fbf4336108f9565b6107d6576040517f08c379a00000000000000000000000000000000000000000000000000000000081526004016107cd9061175e565b60405180910390fd5b60008111610819576040517f08c379a0000000000000000000000000000000000000000000000000000000008152600401610810906116fe565b60405180910390fd5b80600154101561085e576040517f08c379a00000000000000000000000000000000000000000000000000000000081526004016108559061173e565b60405180910390fd5b8060015461086c9190611907565b6001819055508173ffffffffffffffffffffffffffffffffffffffff166108fc829081150290604051600060405180830381858888f193505050501580156108b8573d6000803e3d6000fd5b507ff5561ca90e56855f12004e8905a4a47a9fc395858c8a6cc9762c13df547e1e8f8383836040516108ec93929190611685565b60405180910390a1505050565b600080600084815260200190815260200160002060000160008373ffffffffffffffffffffffffffffffffffffffff1673ffffffffffffffffffffffffffffffffffffffff16815260200190815260200160002060009054906101000a900460ff16905092915050565b6000801b81565b60015481565b7ff857e99667b61d9feb64d6cb140ba8a8ba3501d58a4940223c8e74c45932fbf481565b60026020528060005260406000206000915090508060000160009054906101000a900473ffffffffffffffffffffffffffffffffffffffff16908060010160009054906101000a900473ffffffffffffffffffffffffffffffffffffffff16905082565b610a018261049a565b610a1281610a0d610aaf565b610ab7565b610a1c8383610c34565b505050565b7fc002a6b5f9f56101ba6339b1b95d171fadf6e41e005b91c80d686aef7516e75981565b60007f01ffc9a7000000000000000000000000000000000000000000000000000000007bffffffffffffffffffffffffffffffffffffffffffffffffffffffff1916827bffffffffffffffffffffffffffffffffffffffffffffffffffffffff1916149050919050565b600033905090565b610ac182826108f9565b610b5057610ae68173ffffffffffffffffffffffffffffffffffffffff166014610dd9565b610af48360001c6020610dd9565b604051602001610b05929190611585565b6040516020818303038152906040526040517f08c379a0000000000000000000000000000000000000000000000000000000008152600401610b4791906116bc565b60405180910390fd5b5050565b610b5e82826108f9565b610c3057600160008084815260200190815260200160002060000160008373ffffffffffffffffffffffffffffffffffffffff1673ffffffffffffffffffffffffffffffffffffffff16815260200190815260200160002060006101000a81548160ff021916908315150217905550610bd5610aaf565b73ffffffffffffffffffffffffffffffffffffffff168173ffffffffffffffffffffffffffffffffffffffff16837f2f8788117e7eff1d82e926ec794901d17c78024a50270940304540a733656f0d60405160405180910390a45b5050565b610c3e82826108f9565b15610d1157600080600084815260200190815260200160002060000160008373ffffffffffffffffffffffffffffffffffffffff1673ffffffffffffffffffffffffffffffffffffffff16815260200190815260200160002060006101000a81548160ff021916908315150217905550610cb6610aaf565b73ffffffffffffffffffffffffffffffffffffffff168173ffffffffffffffffffffffffffffffffffffffff16837ff6391f5c32d9c69d2a47ea670b442974b53935d1edc7fd64eb21e047a839171b60405160405180910390a45b5050565b606061410160f01b84600060f81b858573__ScaleCodec____________________________63dfd47e0e90916040518263ffffffff1660e01b8152600401610d5d91906117de565b60206040518083038186803b158015610d7557600080fd5b505af4158015610d89573d6000803e3d6000fd5b505050506040513d601f19601f82011682018060405250810190610dad9190611115565b604051602001610dc1959493929190611526565b60405160208183030381529060405290509392505050565b606060006002836002610dec91906118ad565b610df69190611857565b67ffffffffffffffff811115610e0f57610e0e611b85565b5b6040519080825280601f01601f191660200182016040528015610e415781602001600182028036833780820191505090505b5090507f300000000000000000000000000000000000000000000000000000000000000081600081518110610e7957610e78611b56565b5b60200101907effffffffffffffffffffffffffffffffffffffffffffffffffffffffffffff1916908160001a9053507f780000000000000000000000000000000000000000000000000000000000000081600181518110610edd57610edc611b56565b5b60200101907effffffffffffffffffffffffffffffffffffffffffffffffffffffffffffff1916908160001a90535060006001846002610f1d91906118ad565b610f279190611857565b90505b6001811115610fc7577f3031323334353637383961626364656600000000000000000000000000000000600f861660108110610f6957610f68611b56565b5b1a60f81b828281518110610f8057610f7f611b56565b5b60200101907effffffffffffffffffffffffffffffffffffffffffffffffffffffffffffff1916908160001a905350600485901c945080610fc090611a8c565b9050610f2a565b506000841461100b576040517f08c379a0000000000000000000000000000000000000000000000000000000008152600401611002906116de565b60405180910390fd5b8091505092915050565b60008135905061102481611de3565b92915050565b60008135905061103981611dfa565b92915050565b60008135905061104e81611e11565b92915050565b60008151905061106381611e11565b92915050565b60008135905061107881611e28565b92915050565b60008135905061108d81611e3f565b92915050565b6000813590506110a281611e4f565b92915050565b600080604083850312156110bf576110be611bb4565b5b60006110cd8582860161102a565b92505060206110de85828601611093565b9150509250929050565b6000602082840312156110fe576110fd611bb4565b5b600061110c8482850161103f565b91505092915050565b60006020828403121561112b5761112a611bb4565b5b600061113984828501611054565b91505092915050565b6000806040838503121561115957611158611bb4565b5b60006111678582860161103f565b925050602061117885828601611015565b9150509250929050565b60008060006060848603121561119b5761119a611bb4565b5b60006111a98682870161103f565b93505060206111ba8682870161102a565b92505060406111cb86828701611093565b9150509250925092565b600080604083850312156111ec576111eb611bb4565b5b60006111fa8582860161103f565b925050602061120b8582860161107e565b9150509250929050565b60006020828403121561122b5761122a611bb4565b5b600061123984828501611069565b91505092915050565b60006020828403121561125857611257611bb4565b5b60006112668482850161107e565b91505092915050565b61127881611a23565b82525050565b6112878161193b565b82525050565b61129e6112998261193b565b611ab6565b82525050565b6112ad8161195f565b82525050565b6112c46112bf8261196b565b611ac8565b82525050565b6112db6112d682611997565b611ad2565b82525050565b6112ea816119c3565b82525050565b6113016112fc826119c3565b611adc565b82525050565b600061131282611814565b61131c818561182a565b935061132c818560208601611a59565b61133581611bb9565b840191505092915050565b600061134b8261181f565b611355818561183b565b9350611365818560208601611a59565b61136e81611bb9565b840191505092915050565b60006113848261181f565b61138e818561184c565b935061139e818560208601611a59565b80840191505092915050565b60006113b760208361183b565b91506113c282611bd7565b602082019050919050565b60006113da601d8361183b565b91506113e582611c00565b602082019050919050565b60006113fd60258361183b565b915061140882611c29565b604082019050919050565b6000611420603d8361183b565b915061142b82611c78565b604082019050919050565b600061144360178361184c565b915061144e82611cc7565b601782019050919050565b600061146660208361183b565b915061147182611cf0565b602082019050919050565b600061148960168361183b565b915061149482611d19565b602082019050919050565b60006114ac60118361184c565b91506114b782611d42565b601182019050919050565b60006114cf60128361183b565b91506114da82611d6b565b602082019050919050565b60006114f2602f8361183b565b91506114fd82611d94565b604082019050919050565b61151181611a19565b82525050565b61152081611a19565b82525050565b600061153282886112ca565b600282019150611542828761128d565b60148201915061155282866112b3565b60018201915061156282856112f0565b60208201915061157282846112f0565b6020820191508190509695505050505050565b600061159082611436565b915061159c8285611379565b91506115a78261149f565b91506115b38284611379565b91508190509392505050565b60006040820190506115d4600083018561127e565b6115e1602083018461127e565b9392505050565b60006060820190506115fd600083018661127e565b61160a60208301856112e1565b6116176040830184611508565b949350505050565b6000604082019050611634600083018561127e565b81810360208301526116468184611307565b90509392505050565b600060208201905061166460008301846112a4565b92915050565b600060208201905061167f60008301846112e1565b92915050565b600060608201905061169a60008301866112e1565b6116a7602083018561126f565b6116b46040830184611508565b949350505050565b600060208201905081810360008301526116d68184611340565b905092915050565b600060208201905081810360008301526116f7816113aa565b9050919050565b60006020820190508181036000830152611717816113cd565b9050919050565b60006020820190508181036000830152611737816113f0565b9050919050565b6000602082019050818103600083015261175781611413565b9050919050565b6000602082019050818103600083015261177781611459565b9050919050565b600060208201905081810360008301526117978161147c565b9050919050565b600060208201905081810360008301526117b7816114c2565b9050919050565b600060208201905081810360008301526117d7816114e5565b9050919050565b60006020820190506117f36000830184611517565b92915050565b600060208201905061180e6000830184611508565b92915050565b600081519050919050565b600081519050919050565b600082825260208201905092915050565b600082825260208201905092915050565b600081905092915050565b600061186282611a19565b915061186d83611a19565b9250827fffffffffffffffffffffffffffffffffffffffffffffffffffffffffffffffff038211156118a2576118a1611af8565b5b828201905092915050565b60006118b882611a19565b91506118c383611a19565b9250817fffffffffffffffffffffffffffffffffffffffffffffffffffffffffffffffff04831182151516156118fc576118fb611af8565b5b828202905092915050565b600061191282611a19565b915061191d83611a19565b9250828210156119305761192f611af8565b5b828203905092915050565b6000611946826119f9565b9050919050565b6000611958826119f9565b9050919050565b60008115159050919050565b60007fff0000000000000000000000000000000000000000000000000000000000000082169050919050565b60007fffff00000000000000000000000000000000000000000000000000000000000082169050919050565b6000819050919050565b60007fffffffff0000000000000000000000000000000000000000000000000000000082169050919050565b600073ffffffffffffffffffffffffffffffffffffffff82169050919050565b6000819050919050565b6000611a2e82611a35565b9050919050565b6000611a4082611a47565b9050919050565b6000611a52826119f9565b9050919050565b60005b83811015611a77578082015181840152602081019050611a5c565b83811115611a86576000848401525b50505050565b6000611a9782611a19565b91506000821415611aab57611aaa611af8565b5b600182039050919050565b6000611ac182611ae6565b9050919050565b6000819050919050565b6000819050919050565b6000819050919050565b6000611af182611bca565b9050919050565b7f4e487b7100000000000000000000000000000000000000000000000000000000600052601160045260246000fd5b7f4e487b7100000000000000000000000000000000000000000000000000000000600052602160045260246000fd5b7f4e487b7100000000000000000000000000000000000000000000000000000000600052603260045260246000fd5b7f4e487b7100000000000000000000000000000000000000000000000000000000600052604160045260246000fd5b600080fd5b6000601f19601f8301169050919050565b60008160601b9050919050565b7f537472696e67733a20686578206c656e67746820696e73756666696369656e74600082015250565b7f4d75737420756e6c6f636b206120706f73697469766520616d6f756e74000000600082015250565b7f56616c7565206f66207472616e73616374696f6e206d75737420626520706f7360008201527f6974697665000000000000000000000000000000000000000000000000000000602082015250565b7f45544820746f6b656e2062616c616e63657320696e73756666696369656e742060008201527f746f2066756c66696c6c2074686520756e6c6f636b2072657175657374000000602082015250565b7f416363657373436f6e74726f6c3a206163636f756e7420000000000000000000600082015250565b7f43616c6c6572206973206e6f7420616e20696e626f756e64206368616e6e656c600082015250565b7f43616c6c657220697320756e617574686f72697a656400000000000000000000600082015250565b7f206973206d697373696e6720726f6c6520000000000000000000000000000000600082015250565b7f496e76616c6964206368616e6e656c2049440000000000000000000000000000600082015250565b7f416363657373436f6e74726f6c3a2063616e206f6e6c792072656e6f756e636560008201527f20726f6c657320666f722073656c660000000000000000000000000000000000602082015250565b611dec8161193b565b8114611df757600080fd5b50565b611e038161194d565b8114611e0e57600080fd5b50565b611e1a816119c3565b8114611e2557600080fd5b50565b611e31816119cd565b8114611e3c57600080fd5b50565b60028110611e4c57600080fd5b50565b611e5881611a19565b8114611e6357600080fd5b5056fea264697066735822122033e3d0d5f0df652c63bb5eedae715493d51b965c4bf7d81fbd2c43e66bddbb3464736f6c63430008060033",
  "immutableReferences": {},
  "source": "// SPDX-License-Identifier: MIT\npragma solidity ^0.8.5;\npragma experimental ABIEncoderV2;\n\nimport \"@openzeppelin/contracts/access/AccessControl.sol\";\nimport \"./RewardSource.sol\";\nimport \"./ScaleCodec.sol\";\nimport \"./OutboundChannel.sol\";\n\nenum ChannelId {Basic, Incentivized}\n\ncontract ETHApp is RewardSource, AccessControl {\n    using ScaleCodec for uint256;\n\n    uint256 public balance;\n\n    mapping(ChannelId => Channel) public channels;\n\n    event Locked(address sender, bytes32 recipient, uint256 amount);\n\n    event Unlocked(bytes32 sender, address recipient, uint256 amount);\n\n    bytes2 constant MINT_CALL = 0x4101;\n\n    bytes32 public constant REWARD_ROLE = keccak256(\"REWARD_ROLE\");\n\n    struct Channel {\n        address inbound;\n        address outbound;\n    }\n\n    bytes32 public constant INBOUND_CHANNEL_ROLE =\n        keccak256(\"INBOUND_CHANNEL_ROLE\");\n\n    constructor(\n        address rewarder,\n        Channel memory _basic,\n        Channel memory _incentivized\n    ) {\n        balance = 0;\n\n        Channel storage c1 = channels[ChannelId.Basic];\n        c1.inbound = _basic.inbound;\n        c1.outbound = _basic.outbound;\n\n        Channel storage c2 = channels[ChannelId.Incentivized];\n        c2.inbound = _incentivized.inbound;\n        c2.outbound = _incentivized.outbound;\n\n        _setupRole(REWARD_ROLE, rewarder);\n        _setupRole(INBOUND_CHANNEL_ROLE, _basic.inbound);\n        _setupRole(INBOUND_CHANNEL_ROLE, _incentivized.inbound);\n    }\n\n    function lock(bytes32 _recipient, ChannelId _channelId) public payable {\n        require(msg.value > 0, \"Value of transaction must be positive\");\n        require(\n            _channelId == ChannelId.Basic ||\n                _channelId == ChannelId.Incentivized,\n            \"Invalid channel ID\"\n        );\n\n        balance = balance + msg.value;\n\n        emit Locked(msg.sender, _recipient, msg.value);\n\n        bytes memory call = encodeCall(msg.sender, _recipient, msg.value);\n\n        OutboundChannel channel =\n            OutboundChannel(channels[_channelId].outbound);\n        channel.submit(msg.sender, call);\n    }\n\n    function unlock(\n        bytes32 _sender,\n        address payable _recipient,\n        uint256 _amount\n    ) public {\n        require(\n            hasRole(INBOUND_CHANNEL_ROLE, msg.sender),\n            \"Caller is not an inbound channel\"\n        );\n        require(_amount > 0, \"Must unlock a positive amount\");\n        require(\n            balance >= _amount,\n            \"ETH token balances insufficient to fulfill the unlock request\"\n        );\n\n        balance = balance - _amount;\n        _recipient.transfer(_amount);\n        emit Unlocked(_sender, _recipient, _amount);\n    }\n\n    // SCALE-encode payload\n    function encodeCall(\n        address _sender,\n        bytes32 _recipient,\n        uint256 _amount\n    ) private pure returns (bytes memory) {\n        return\n            abi.encodePacked(\n                MINT_CALL,\n                _sender,\n                bytes1(0x00), // Encode recipient as MultiAddress::Id\n                _recipient,\n                _amount.encode256()\n            );\n    }\n\n    function reward(address payable _recipient, uint256 _amount)\n        external\n        override\n    {\n        require(hasRole(REWARD_ROLE, msg.sender), \"Caller is unauthorized\");\n        _recipient.transfer(_amount);\n    }\n}\n",
  "sourcePath": "/home/jamie/dev/clients/snowfork/snowbridge/ethereum/contracts/ETHApp.sol",
  "compiler": {
    "name": "solc",
    "version": "0.8.6+commit.11564f7e.Emscripten.clang"
  },
  "schemaVersion": "3.4.1",
  "updatedAt": "2021-07-19T08:57:32.559Z",
  "networkType": "ethereum",
  "devdoc": {
    "kind": "dev",
    "methods": {
      "getRoleAdmin(bytes32)": {
        "details": "Returns the admin role that controls `role`. See {grantRole} and {revokeRole}. To change a role's admin, use {_setRoleAdmin}."
      },
      "grantRole(bytes32,address)": {
        "details": "Grants `role` to `account`. If `account` had not been already granted `role`, emits a {RoleGranted} event. Requirements: - the caller must have ``role``'s admin role."
      },
      "hasRole(bytes32,address)": {
        "details": "Returns `true` if `account` has been granted `role`."
      },
      "renounceRole(bytes32,address)": {
        "details": "Revokes `role` from the calling account. Roles are often managed via {grantRole} and {revokeRole}: this function's purpose is to provide a mechanism for accounts to lose their privileges if they are compromised (such as when a trusted device is misplaced). If the calling account had been granted `role`, emits a {RoleRevoked} event. Requirements: - the caller must be `account`."
      },
      "revokeRole(bytes32,address)": {
        "details": "Revokes `role` from `account`. If `account` had been granted `role`, emits a {RoleRevoked} event. Requirements: - the caller must have ``role``'s admin role."
      },
      "supportsInterface(bytes4)": {
        "details": "See {IERC165-supportsInterface}."
      }
    },
    "version": 1
  },
  "userdoc": {
    "kind": "user",
    "methods": {},
    "version": 1
  }
}