{
  "contractName": "ETHApp",
  "abi": [
    {
      "inputs": [
        {
          "components": [
            {
              "internalType": "address",
              "name": "inbound",
              "type": "address"
            },
            {
              "internalType": "address",
              "name": "outbound",
              "type": "address"
            }
          ],
          "internalType": "struct ETHApp.Channel",
          "name": "_basic",
          "type": "tuple"
        },
        {
          "components": [
            {
              "internalType": "address",
              "name": "inbound",
              "type": "address"
            },
            {
              "internalType": "address",
              "name": "outbound",
              "type": "address"
            }
          ],
          "internalType": "struct ETHApp.Channel",
          "name": "_incentivized",
          "type": "tuple"
        }
      ],
      "stateMutability": "nonpayable",
      "type": "constructor"
    },
    {
      "anonymous": false,
      "inputs": [
        {
          "indexed": false,
          "internalType": "address",
          "name": "sender",
          "type": "address"
        },
        {
          "indexed": false,
          "internalType": "bytes32",
          "name": "recipient",
          "type": "bytes32"
        },
        {
          "indexed": false,
          "internalType": "uint256",
          "name": "amount",
          "type": "uint256"
        }
      ],
      "name": "Locked",
      "type": "event"
    },
    {
      "anonymous": false,
      "inputs": [
        {
          "indexed": false,
          "internalType": "bytes32",
          "name": "sender",
          "type": "bytes32"
        },
        {
          "indexed": false,
          "internalType": "address",
          "name": "recipient",
          "type": "address"
        },
        {
          "indexed": false,
          "internalType": "uint256",
          "name": "amount",
          "type": "uint256"
        }
      ],
      "name": "Unlocked",
      "type": "event"
    },
    {
      "inputs": [],
      "name": "balance",
      "outputs": [
        {
          "internalType": "uint256",
          "name": "",
          "type": "uint256"
        }
      ],
      "stateMutability": "view",
      "type": "function",
      "constant": true
    },
    {
      "inputs": [
        {
          "internalType": "enum ChannelId",
          "name": "",
          "type": "uint8"
        }
      ],
      "name": "channels",
      "outputs": [
        {
          "internalType": "address",
          "name": "inbound",
          "type": "address"
        },
        {
          "internalType": "address",
          "name": "outbound",
          "type": "address"
        }
      ],
      "stateMutability": "view",
      "type": "function",
      "constant": true
    },
    {
      "inputs": [
        {
          "internalType": "bytes32",
          "name": "_recipient",
          "type": "bytes32"
        },
        {
          "internalType": "enum ChannelId",
          "name": "_channelId",
          "type": "uint8"
        }
      ],
      "name": "lock",
      "outputs": [],
      "stateMutability": "payable",
      "type": "function",
      "payable": true
    },
    {
      "inputs": [
        {
          "internalType": "bytes32",
          "name": "_sender",
          "type": "bytes32"
        },
        {
          "internalType": "address payable",
          "name": "_recipient",
          "type": "address"
        },
        {
          "internalType": "uint256",
          "name": "_amount",
          "type": "uint256"
        }
      ],
      "name": "unlock",
      "outputs": [],
      "stateMutability": "nonpayable",
      "type": "function"
    }
  ],
  "bytecode": "0x60806040523480156200001157600080fd5b50604051620010aa380380620010aa83398181016040528101906200003791906200022c565b600080819055506000600160008060018111156200005157fe5b60018111156200005d57fe5b8152602001908152602001600020905082600001518160000160006101000a81548173ffffffffffffffffffffffffffffffffffffffff021916908373ffffffffffffffffffffffffffffffffffffffff16021790555082602001518160010160006101000a81548173ffffffffffffffffffffffffffffffffffffffff021916908373ffffffffffffffffffffffffffffffffffffffff1602179055506000600160006001808111156200010e57fe5b60018111156200011a57fe5b8152602001908152602001600020905082600001518160000160006101000a81548173ffffffffffffffffffffffffffffffffffffffff021916908373ffffffffffffffffffffffffffffffffffffffff16021790555082602001518160010160006101000a81548173ffffffffffffffffffffffffffffffffffffffff021916908373ffffffffffffffffffffffffffffffffffffffff16021790555050505050620002f1565b600081519050620001d381620002d7565b92915050565b600060408284031215620001ec57600080fd5b620001f860406200026d565b905060006200020a84828501620001c2565b60008301525060206200022084828501620001c2565b60208301525092915050565b600080608083850312156200024057600080fd5b60006200025085828601620001d9565b92505060406200026385828601620001d9565b9150509250929050565b6000604051905081810181811067ffffffffffffffff82111715620002975762000296620002d5565b5b8060405250919050565b6000620002ae82620002b5565b9050919050565b600073ffffffffffffffffffffffffffffffffffffffff82169050919050565bfe5b620002e281620002a1565b8114620002ee57600080fd5b50565b610da980620003016000396000f3fe60806040526004361061003f5760003560e01c8063577232f7146100445780636dea30e714610060578063b69ef8a814610089578063ccd34132146100b4575b600080fd5b61005e60048036038101906100599190610719565b6100f2565b005b34801561006c57600080fd5b50610087600480360381019061008291906106ca565b6102d5565b005b34801561009557600080fd5b5061009e6103ff565b6040516100ab9190610b5d565b60405180910390f35b3480156100c057600080fd5b506100db60048036038101906100d69190610755565b610405565b6040516100e9929190610a40565b60405180910390f35b60003411610135576040517f08c379a000000000000000000000000000000000000000000000000000000000815260040161012c90610ae2565b60405180910390fd5b6000600181111561014257fe5b81600181111561014e57fe5b148061016f575060018081111561016157fe5b81600181111561016d57fe5b145b6101ae576040517f08c379a00000000000000000000000000000000000000000000000000000000081526004016101a590610b22565b60405180910390fd5b6101c33460005461046990919063ffffffff16565b6000819055507fcaae0f5e72020d428da73a237d1f9bf162e158dda6d4908769b8b60c095b01f43383346040516101fc93929190610a09565b60405180910390a160006102113384346104f1565b905060006001600084600181111561022557fe5b600181111561023057fe5b815260200190815260200160002060010160009054906101000a900473ffffffffffffffffffffffffffffffffffffffff1690508073ffffffffffffffffffffffffffffffffffffffff1663ef7fa71b836040518263ffffffff1660e01b815260040161029d9190610aa0565b600060405180830381600087803b1580156102b757600080fd5b505af11580156102cb573d6000803e3d6000fd5b5050505050505050565b60008111610318576040517f08c379a000000000000000000000000000000000000000000000000000000000815260040161030f90610ac2565b60405180910390fd5b80600054101561035d576040517f08c379a000000000000000000000000000000000000000000000000000000000815260040161035490610b02565b60405180910390fd5b610372816000546105b590919063ffffffff16565b6000819055508173ffffffffffffffffffffffffffffffffffffffff166108fc829081150290604051600060405180830381858888f193505050501580156103be573d6000803e3d6000fd5b507ff5561ca90e56855f12004e8905a4a47a9fc395858c8a6cc9762c13df547e1e8f8383836040516103f293929190610a69565b60405180910390a1505050565b60005481565b60016020528060005260406000206000915090508060000160009054906101000a900473ffffffffffffffffffffffffffffffffffffffff16908060010160009054906101000a900473ffffffffffffffffffffffffffffffffffffffff16905082565b6000808284019050838110156104e7576040517f08c379a000000000000000000000000000000000000000000000000000000000815260040180806020018281038252601b8152602001807f536166654d6174683a206164646974696f6e206f766572666c6f77000000000081525060200191505060405180910390fd5b8091505092915050565b6060610c0160f01b84600060f81b858573__ScaleCodec____________________________63dfd47e0e90916040518263ffffffff1660e01b81526004016105399190610b42565b60206040518083038186803b15801561055157600080fd5b505af4158015610565573d6000803e3d6000fd5b505050506040513d601f19601f8201168201806040525081019061058991906106a1565b60405160200161059d9594939291906109aa565b60405160208183030381529060405290509392505050565b60008282111561062d576040517f08c379a000000000000000000000000000000000000000000000000000000000815260040180806020018281038252601e8152602001807f536166654d6174683a207375627472616374696f6e206f766572666c6f77000081525060200191505060405180910390fd5b818303905092915050565b60008135905061064781610d1e565b92915050565b60008135905061065c81610d35565b92915050565b60008151905061067181610d35565b92915050565b60008135905061068681610d4c565b92915050565b60008135905061069b81610d5c565b92915050565b6000602082840312156106b357600080fd5b60006106c184828501610662565b91505092915050565b6000806000606084860312156106df57600080fd5b60006106ed8682870161064d565b93505060206106fe86828701610638565b925050604061070f8682870161068c565b9150509250925092565b6000806040838503121561072c57600080fd5b600061073a8582860161064d565b925050602061074b85828601610677565b9150509250929050565b60006020828403121561076757600080fd5b600061077584828501610677565b91505092915050565b61078781610c55565b82525050565b61079681610ba5565b82525050565b6107ad6107a882610ba5565b610cbe565b82525050565b6107c46107bf82610bc9565b610cd0565b82525050565b6107db6107d682610bf5565b610cda565b82525050565b6107ea81610c21565b82525050565b6108016107fc82610c21565b610ce4565b82525050565b600061081282610b78565b61081c8185610b83565b935061082c818560208601610c8b565b61083581610d00565b840191505092915050565b600061084d601d83610b94565b91507f4d75737420756e6c6f636b206120706f73697469766520616d6f756e740000006000830152602082019050919050565b600061088d602583610b94565b91507f56616c7565206f66207472616e73616374696f6e206d75737420626520706f7360008301527f69746976650000000000000000000000000000000000000000000000000000006020830152604082019050919050565b60006108f3603d83610b94565b91507f45544820746f6b656e2062616c616e63657320696e73756666696369656e742060008301527f746f2066756c66696c6c2074686520756e6c6f636b20726571756573740000006020830152604082019050919050565b6000610959601283610b94565b91507f496e76616c6964206368616e6e656c20494400000000000000000000000000006000830152602082019050919050565b61099581610c4b565b82525050565b6109a481610c4b565b82525050565b60006109b682886107ca565b6002820191506109c6828761079c565b6014820191506109d682866107b3565b6001820191506109e682856107f0565b6020820191506109f682846107f0565b6020820191508190509695505050505050565b6000606082019050610a1e600083018661077e565b610a2b60208301856107e1565b610a38604083018461098c565b949350505050565b6000604082019050610a55600083018561078d565b610a62602083018461078d565b9392505050565b6000606082019050610a7e60008301866107e1565b610a8b602083018561077e565b610a98604083018461098c565b949350505050565b60006020820190508181036000830152610aba8184610807565b905092915050565b60006020820190508181036000830152610adb81610840565b9050919050565b60006020820190508181036000830152610afb81610880565b9050919050565b60006020820190508181036000830152610b1b816108e6565b9050919050565b60006020820190508181036000830152610b3b8161094c565b9050919050565b6000602082019050610b57600083018461099b565b92915050565b6000602082019050610b72600083018461098c565b92915050565b600081519050919050565b600082825260208201905092915050565b600082825260208201905092915050565b6000610bb082610c2b565b9050919050565b6000610bc282610c2b565b9050919050565b60007fff0000000000000000000000000000000000000000000000000000000000000082169050919050565b60007fffff00000000000000000000000000000000000000000000000000000000000082169050919050565b6000819050919050565b600073ffffffffffffffffffffffffffffffffffffffff82169050919050565b6000819050919050565b6000610c6082610c67565b9050919050565b6000610c7282610c79565b9050919050565b6000610c8482610c2b565b9050919050565b60005b83811015610ca9578082015181840152602081019050610c8e565b83811115610cb8576000848401525b50505050565b6000610cc982610cee565b9050919050565b6000819050919050565b6000819050919050565b6000819050919050565b6000610cf982610d11565b9050919050565b6000601f19601f8301169050919050565b60008160601b9050919050565b610d2781610bb7565b8114610d3257600080fd5b50565b610d3e81610c21565b8114610d4957600080fd5b50565b60028110610d5957600080fd5b50565b610d6581610c4b565b8114610d7057600080fd5b5056fea26469706673582212209b4a28c8d2ea84bee41e5389375eb6020d2e5f28829e765e38ee3687ed2f2a0364736f6c63430007060033",
  "immutableReferences": {},
  "source": "// SPDX-License-Identifier: MIT\npragma solidity >=0.7.6;\npragma experimental ABIEncoderV2;\n\nimport \"@openzeppelin/contracts/math/SafeMath.sol\";\nimport \"./ScaleCodec.sol\";\nimport \"./OutboundChannel.sol\";\n\nenum ChannelId {Basic, Incentivized}\n\ncontract ETHApp {\n    using SafeMath for uint256;\n    using ScaleCodec for uint256;\n\n    uint256 public balance;\n\n    mapping(ChannelId => Channel) public channels;\n\n    event Locked(address sender, bytes32 recipient, uint256 amount);\n\n    event Unlocked(bytes32 sender, address recipient, uint256 amount);\n\n    bytes2 constant MINT_CALL = 0x0c01;\n\n    struct Channel {\n        address inbound;\n        address outbound;\n    }\n\n    constructor(Channel memory _basic, Channel memory _incentivized) {\n        balance = 0;\n\n        Channel storage c1 = channels[ChannelId.Basic];\n        c1.inbound = _basic.inbound;\n        c1.outbound = _basic.outbound;\n\n        Channel storage c2 = channels[ChannelId.Incentivized];\n        c2.inbound = _incentivized.inbound;\n        c2.outbound = _incentivized.outbound;\n    }\n\n    function lock(bytes32 _recipient, ChannelId _channelId) public payable {\n        require(msg.value > 0, \"Value of transaction must be positive\");\n        require(\n            _channelId == ChannelId.Basic ||\n                _channelId == ChannelId.Incentivized,\n            \"Invalid channel ID\"\n        );\n\n        balance = balance.add(msg.value);\n\n        emit Locked(msg.sender, _recipient, msg.value);\n\n        bytes memory call = encodeCall(msg.sender, _recipient, msg.value);\n\n        OutboundChannel channel = OutboundChannel(channels[_channelId].outbound);\n        channel.submit(call);\n    }\n\n    function unlock(\n        bytes32 _sender,\n        address payable _recipient,\n        uint256 _amount\n    ) public {\n        // TODO: Ensure message sender is a known inbound channel\n        require(_amount > 0, \"Must unlock a positive amount\");\n        require(\n            balance >= _amount,\n            \"ETH token balances insufficient to fulfill the unlock request\"\n        );\n\n        balance = balance.sub(_amount);\n        _recipient.transfer(_amount);\n        emit Unlocked(_sender, _recipient, _amount);\n    }\n\n    function encodeCall(address _sender, bytes32 _recipient, uint256 _amount)\n        private\n        pure\n        returns (bytes memory)\n    {\n        return\n            abi.encodePacked(\n                MINT_CALL,\n                _sender,\n                byte(0x00), // Encode recipient as MultiAddress::Id\n                _recipient,\n                _amount.encode256()\n            );\n    }\n}\n",
  "sourcePath": "/home/ubuntu/aidan/polkadot-ethereum/ethereum/contracts/ETHApp.sol",
  "compiler": {
    "name": "solc",
    "version": "0.7.6+commit.7338295f.Emscripten.clang"
  },
  "schemaVersion": "3.3.3",
  "updatedAt": "2021-02-10T16:30:37.709Z",
  "networkType": "ethereum",
  "devdoc": {
    "kind": "dev",
    "methods": {},
    "version": 1
  },
  "userdoc": {
    "kind": "user",
    "methods": {},
    "version": 1
  }
}