{
  "_format": "hh-sol-artifact-1",
  "contractName": "ETHApp",
  "sourceName": "contracts/ETHApp.sol",
  "abi": [
    {
      "inputs": [
        {
          "internalType": "address",
          "name": "rewarder",
          "type": "address"
        },
        {
          "components": [
            {
              "internalType": "address",
              "name": "inbound",
              "type": "address"
            },
            {
              "internalType": "address",
              "name": "outbound",
              "type": "address"
            }
          ],
          "internalType": "struct ETHApp.Channel",
          "name": "_basic",
          "type": "tuple"
        },
        {
          "components": [
            {
              "internalType": "address",
              "name": "inbound",
              "type": "address"
            },
            {
              "internalType": "address",
              "name": "outbound",
              "type": "address"
            }
          ],
          "internalType": "struct ETHApp.Channel",
          "name": "_incentivized",
          "type": "tuple"
        }
      ],
      "stateMutability": "nonpayable",
      "type": "constructor"
    },
    {
      "anonymous": false,
      "inputs": [
        {
          "indexed": false,
          "internalType": "address",
          "name": "sender",
          "type": "address"
        },
        {
          "indexed": false,
          "internalType": "bytes32",
          "name": "recipient",
          "type": "bytes32"
        },
        {
          "indexed": false,
          "internalType": "uint128",
          "name": "amount",
          "type": "uint128"
        },
        {
          "indexed": false,
          "internalType": "uint32",
          "name": "paraId",
          "type": "uint32"
        },
        {
          "indexed": false,
          "internalType": "uint128",
          "name": "fee",
          "type": "uint128"
        }
      ],
      "name": "Locked",
      "type": "event"
    },
    {
      "anonymous": false,
      "inputs": [
        {
          "indexed": true,
          "internalType": "bytes32",
          "name": "role",
          "type": "bytes32"
        },
        {
          "indexed": true,
          "internalType": "bytes32",
          "name": "previousAdminRole",
          "type": "bytes32"
        },
        {
          "indexed": true,
          "internalType": "bytes32",
          "name": "newAdminRole",
          "type": "bytes32"
        }
      ],
      "name": "RoleAdminChanged",
      "type": "event"
    },
    {
      "anonymous": false,
      "inputs": [
        {
          "indexed": true,
          "internalType": "bytes32",
          "name": "role",
          "type": "bytes32"
        },
        {
          "indexed": true,
          "internalType": "address",
          "name": "account",
          "type": "address"
        },
        {
          "indexed": true,
          "internalType": "address",
          "name": "sender",
          "type": "address"
        }
      ],
      "name": "RoleGranted",
      "type": "event"
    },
    {
      "anonymous": false,
      "inputs": [
        {
          "indexed": true,
          "internalType": "bytes32",
          "name": "role",
          "type": "bytes32"
        },
        {
          "indexed": true,
          "internalType": "address",
          "name": "account",
          "type": "address"
        },
        {
          "indexed": true,
          "internalType": "address",
          "name": "sender",
          "type": "address"
        }
      ],
      "name": "RoleRevoked",
      "type": "event"
    },
    {
      "anonymous": false,
      "inputs": [
        {
          "indexed": false,
          "internalType": "bytes32",
          "name": "sender",
          "type": "bytes32"
        },
        {
          "indexed": false,
          "internalType": "address",
          "name": "recipient",
          "type": "address"
        },
        {
          "indexed": false,
          "internalType": "uint128",
          "name": "amount",
          "type": "uint128"
        }
      ],
      "name": "Unlocked",
      "type": "event"
    },
    {
      "anonymous": false,
      "inputs": [
        {
          "indexed": false,
          "internalType": "address",
          "name": "upgrader",
          "type": "address"
        },
        {
          "components": [
            {
              "internalType": "address",
              "name": "inbound",
              "type": "address"
            },
            {
              "internalType": "address",
              "name": "outbound",
              "type": "address"
            }
          ],
          "indexed": false,
          "internalType": "struct ETHApp.Channel",
          "name": "basic",
          "type": "tuple"
        },
        {
          "components": [
            {
              "internalType": "address",
              "name": "inbound",
              "type": "address"
            },
            {
              "internalType": "address",
              "name": "outbound",
              "type": "address"
            }
          ],
          "indexed": false,
          "internalType": "struct ETHApp.Channel",
          "name": "incentivized",
          "type": "tuple"
        }
      ],
      "name": "Upgraded",
      "type": "event"
    },
    {
      "inputs": [],
      "name": "CHANNEL_UPGRADE_ROLE",
      "outputs": [
        {
          "internalType": "bytes32",
          "name": "",
          "type": "bytes32"
        }
      ],
      "stateMutability": "view",
      "type": "function"
    },
    {
      "inputs": [],
      "name": "DEFAULT_ADMIN_ROLE",
      "outputs": [
        {
          "internalType": "bytes32",
          "name": "",
          "type": "bytes32"
        }
      ],
      "stateMutability": "view",
      "type": "function"
    },
    {
      "inputs": [],
      "name": "INBOUND_CHANNEL_ROLE",
      "outputs": [
        {
          "internalType": "bytes32",
          "name": "",
          "type": "bytes32"
        }
      ],
      "stateMutability": "view",
      "type": "function"
    },
    {
      "inputs": [],
      "name": "REWARD_ROLE",
      "outputs": [
        {
          "internalType": "bytes32",
          "name": "",
          "type": "bytes32"
        }
      ],
      "stateMutability": "view",
      "type": "function"
    },
    {
      "inputs": [
        {
          "internalType": "enum ChannelId",
          "name": "",
          "type": "uint8"
        }
      ],
      "name": "channels",
      "outputs": [
        {
          "internalType": "address",
          "name": "inbound",
          "type": "address"
        },
        {
          "internalType": "address",
          "name": "outbound",
          "type": "address"
        }
      ],
      "stateMutability": "view",
      "type": "function"
    },
    {
      "inputs": [
        {
          "internalType": "bytes32",
          "name": "role",
          "type": "bytes32"
        }
      ],
      "name": "getRoleAdmin",
      "outputs": [
        {
          "internalType": "bytes32",
          "name": "",
          "type": "bytes32"
        }
      ],
      "stateMutability": "view",
      "type": "function"
    },
    {
      "inputs": [
        {
          "internalType": "bytes32",
          "name": "role",
          "type": "bytes32"
        },
        {
          "internalType": "address",
          "name": "account",
          "type": "address"
        }
      ],
      "name": "grantRole",
      "outputs": [],
      "stateMutability": "nonpayable",
      "type": "function"
    },
    {
      "inputs": [
        {
          "internalType": "bytes32",
          "name": "role",
          "type": "bytes32"
        },
        {
          "internalType": "address",
          "name": "account",
          "type": "address"
        }
      ],
      "name": "hasRole",
      "outputs": [
        {
          "internalType": "bool",
          "name": "",
          "type": "bool"
        }
      ],
      "stateMutability": "view",
      "type": "function"
    },
    {
      "inputs": [
        {
          "internalType": "bytes32",
          "name": "_recipient",
          "type": "bytes32"
        },
        {
          "internalType": "enum ChannelId",
          "name": "_channelId",
          "type": "uint8"
        },
        {
          "internalType": "uint32",
          "name": "_paraId",
          "type": "uint32"
        },
        {
          "internalType": "uint128",
          "name": "_fee",
          "type": "uint128"
        }
      ],
      "name": "lock",
      "outputs": [],
      "stateMutability": "payable",
      "type": "function"
    },
    {
      "inputs": [
        {
          "internalType": "bytes32",
          "name": "role",
          "type": "bytes32"
        },
        {
          "internalType": "address",
          "name": "account",
          "type": "address"
        }
      ],
      "name": "renounceRole",
      "outputs": [],
      "stateMutability": "nonpayable",
      "type": "function"
    },
    {
      "inputs": [
        {
          "internalType": "bytes32",
          "name": "role",
          "type": "bytes32"
        },
        {
          "internalType": "address",
          "name": "account",
          "type": "address"
        }
      ],
      "name": "revokeRole",
      "outputs": [],
      "stateMutability": "nonpayable",
      "type": "function"
    },
    {
      "inputs": [
        {
          "internalType": "address payable",
          "name": "_recipient",
          "type": "address"
        },
        {
          "internalType": "uint128",
          "name": "_amount",
          "type": "uint128"
        }
      ],
      "name": "reward",
      "outputs": [],
      "stateMutability": "nonpayable",
      "type": "function"
    },
    {
      "inputs": [
        {
          "internalType": "bytes4",
          "name": "interfaceId",
          "type": "bytes4"
        }
      ],
      "name": "supportsInterface",
      "outputs": [
        {
          "internalType": "bool",
          "name": "",
          "type": "bool"
        }
      ],
      "stateMutability": "view",
      "type": "function"
    },
    {
      "inputs": [
        {
          "internalType": "bytes32",
          "name": "_sender",
          "type": "bytes32"
        },
        {
          "internalType": "address payable",
          "name": "_recipient",
          "type": "address"
        },
        {
          "internalType": "uint128",
          "name": "_amount",
          "type": "uint128"
        }
      ],
      "name": "unlock",
      "outputs": [],
      "stateMutability": "nonpayable",
      "type": "function"
    },
    {
      "inputs": [
        {
          "components": [
            {
              "internalType": "address",
              "name": "inbound",
              "type": "address"
            },
            {
              "internalType": "address",
              "name": "outbound",
              "type": "address"
            }
          ],
          "internalType": "struct ETHApp.Channel",
          "name": "_basic",
          "type": "tuple"
        },
        {
          "components": [
            {
              "internalType": "address",
              "name": "inbound",
              "type": "address"
            },
            {
              "internalType": "address",
              "name": "outbound",
              "type": "address"
            }
          ],
          "internalType": "struct ETHApp.Channel",
          "name": "_incentivized",
          "type": "tuple"
        }
      ],
      "name": "upgrade",
      "outputs": [],
      "stateMutability": "nonpayable",
      "type": "function"
    }
  ],
  "bytecode": "0x60806040523480156200001157600080fd5b506040516200300138038062003001833981810160405281019062000037919062000599565b60006001600080600181111562000053576200005262000688565b5b600181111562000068576200006762000688565b5b8152602001908152602001600020905082600001518160000160006101000a81548173ffffffffffffffffffffffffffffffffffffffff021916908373ffffffffffffffffffffffffffffffffffffffff16021790555082602001518160010160006101000a81548173ffffffffffffffffffffffffffffffffffffffff021916908373ffffffffffffffffffffffffffffffffffffffff16021790555060006001600060018081111562000122576200012162000688565b5b600181111562000137576200013662000688565b5b8152602001908152602001600020905082600001518160000160006101000a81548173ffffffffffffffffffffffffffffffffffffffff021916908373ffffffffffffffffffffffffffffffffffffffff16021790555082602001518160010160006101000a81548173ffffffffffffffffffffffffffffffffffffffff021916908373ffffffffffffffffffffffffffffffffffffffff160217905550620002077f9bac3bf563d906e4c002c9b37dc34326776a9168ece7376a7a577f98c0c99a89336200033460201b60201c565b620002597ff857e99667b61d9feb64d6cb140ba8a8ba3501d58a4940223c8e74c45932fbf47f9bac3bf563d906e4c002c9b37dc34326776a9168ece7376a7a577f98c0c99a896200034a60201b60201c565b6200028b7f9bac3bf563d906e4c002c9b37dc34326776a9168ece7376a7a577f98c0c99a89806200034a60201b60201c565b620002bd7fc002a6b5f9f56101ba6339b1b95d171fadf6e41e005b91c80d686aef7516e759866200033460201b60201c565b620002f37ff857e99667b61d9feb64d6cb140ba8a8ba3501d58a4940223c8e74c45932fbf485600001516200033460201b60201c565b620003297ff857e99667b61d9feb64d6cb140ba8a8ba3501d58a4940223c8e74c45932fbf484600001516200033460201b60201c565b50505050506200071b565b620003468282620003a760201b60201c565b5050565b806200035c836200049860201b60201c565b837fbd79b86ffe0ab8e8776151514217cd7cacd52c909f66475c3af44e129f0b00ff60405160405180910390a480600080848152602001908152602001600020600101819055505050565b620003b98282620004b760201b60201c565b6200049457600160008084815260200190815260200160002060000160008373ffffffffffffffffffffffffffffffffffffffff1673ffffffffffffffffffffffffffffffffffffffff16815260200190815260200160002060006101000a81548160ff021916908315150217905550620004396200052160201b60201c565b73ffffffffffffffffffffffffffffffffffffffff168173ffffffffffffffffffffffffffffffffffffffff16837f2f8788117e7eff1d82e926ec794901d17c78024a50270940304540a733656f0d60405160405180910390a45b5050565b6000806000838152602001908152602001600020600101549050919050565b600080600084815260200190815260200160002060000160008373ffffffffffffffffffffffffffffffffffffffff1673ffffffffffffffffffffffffffffffffffffffff16815260200190815260200160002060009054906101000a900460ff16905092915050565b600033905090565b6000815190506200053a8162000701565b92915050565b600060408284031215620005595762000558620006e6565b5b620005656040620005f5565b90506000620005778482850162000529565b60008301525060206200058d8482850162000529565b60208301525092915050565b600080600060a08486031215620005b557620005b4620006eb565b5b6000620005c58682870162000529565b9350506020620005d88682870162000540565b9250506060620005eb8682870162000540565b9150509250925092565b60006200060162000614565b90506200060f828262000652565b919050565b6000604051905090565b60006200062b8262000632565b9050919050565b600073ffffffffffffffffffffffffffffffffffffffff82169050919050565b6200065d82620006f0565b810181811067ffffffffffffffff821117156200067f576200067e620006b7565b5b80604052505050565b7f4e487b7100000000000000000000000000000000000000000000000000000000600052602160045260246000fd5b7f4e487b7100000000000000000000000000000000000000000000000000000000600052604160045260246000fd5b600080fd5b600080fd5b6000601f19601f8301169050919050565b6200070c816200061e565b81146200071857600080fd5b50565b6128d6806200072b6000396000f3fe6080604052600436106100e85760003560e01c806391d148541161008a578063d547741f11610059578063d547741f146102f8578063e8884f2b14610321578063fdc162291461034c578063fe04396b14610377576100e8565b806391d1485414610227578063a217fddf14610264578063bc0c22a71461028f578063ccd34132146102ba576100e8565b80632f2ff15d116100c65780632f2ff15d146101905780632fde4bc6146101b957806336568abe146101d557806371ac2bb6146101fe576100e8565b806301ffc9a7146100ed5780630d9083731461012a578063248a9ca314610153575b600080fd5b3480156100f957600080fd5b50610114600480360381019061010f9190611924565b6103a0565b6040516101219190611fbc565b60405180910390f35b34801561013657600080fd5b50610151600480360381019061014c9190611790565b61041a565b005b34801561015f57600080fd5b5061017a600480360381019061017591906117fd565b610510565b6040516101879190611fd7565b60405180910390f35b34801561019c57600080fd5b506101b760048036038101906101b2919061182a565b61052f565b005b6101d360048036038101906101ce91906118bd565b610558565b005b3480156101e157600080fd5b506101fc60048036038101906101f7919061182a565b610784565b005b34801561020a57600080fd5b50610225600480360381019061022091906119ab565b610807565b005b34801561023357600080fd5b5061024e6004803603810190610249919061182a565b610b05565b60405161025b9190611fbc565b60405180910390f35b34801561027057600080fd5b50610279610b6f565b6040516102869190611fd7565b60405180910390f35b34801561029b57600080fd5b506102a4610b76565b6040516102b19190611fd7565b60405180910390f35b3480156102c657600080fd5b506102e160048036038101906102dc919061197e565b610b9a565b6040516102ef929190611ed9565b60405180910390f35b34801561030457600080fd5b5061031f600480360381019061031a919061182a565b610bfe565b005b34801561032d57600080fd5b50610336610c27565b6040516103439190611fd7565b60405180910390f35b34801561035857600080fd5b50610361610c4b565b60405161036e9190611fd7565b60405180910390f35b34801561038357600080fd5b5061039e6004803603810190610399919061186a565b610c6f565b005b60007f7965db0b000000000000000000000000000000000000000000000000000000007bffffffffffffffffffffffffffffffffffffffffffffffffffffffff1916827bffffffffffffffffffffffffffffffffffffffffffffffffffffffff19161480610413575061041282610df6565b5b9050919050565b7fc002a6b5f9f56101ba6339b1b95d171fadf6e41e005b91c80d686aef7516e75961044c81610447610e60565b610e68565b60008373ffffffffffffffffffffffffffffffffffffffff16836fffffffffffffffffffffffffffffffff1660405161048490611e8a565b60006040518083038185875af1925050503d80600081146104c1576040519150601f19603f3d011682016040523d82523d6000602084013e6104c6565b606091505b505090508061050a576040517f08c379a0000000000000000000000000000000000000000000000000000000008152600401610501906120cb565b60405180910390fd5b50505050565b6000806000838152602001908152602001600020600101549050919050565b61053882610510565b61054981610544610e60565b610e68565b6105538383610f05565b505050565b6000341161059b576040517f08c379a0000000000000000000000000000000000000000000000000000000008152600401610592906120ab565b60405180910390fd5b600060018111156105af576105ae612547565b5b8360018111156105c2576105c1612547565b5b14806105f157506001808111156105dc576105db612547565b5b8360018111156105ef576105ee612547565b5b145b610630576040517f08c379a0000000000000000000000000000000000000000000000000000000008152600401610627906120eb565b60405180910390fd5b600061063b34610fe5565b90507fd8136e054b7e4c2e91fa21a4a1f25728969c3f5048cab3e771b3bd788bbb505e3386838686604051610674959493929190611f02565b60405180910390a1606060008463ffffffff16141561069f57610698338784611042565b90506106af565b6106ac338784878761113d565b90505b6000600160008760018111156106c8576106c7612547565b5b60018111156106da576106d9612547565b5b815260200190815260200160002060010160009054906101000a900473ffffffffffffffffffffffffffffffffffffffff1690508073ffffffffffffffffffffffffffffffffffffffff166376846edd33846040518363ffffffff1660e01b8152600401610749929190611f55565b600060405180830381600087803b15801561076357600080fd5b505af1158015610777573d6000803e3d6000fd5b5050505050505050505050565b61078c610e60565b73ffffffffffffffffffffffffffffffffffffffff168173ffffffffffffffffffffffffffffffffffffffff16146107f9576040517f08c379a00000000000000000000000000000000000000000000000000000000081526004016107f09061210b565b60405180910390fd5b6108038282611366565b5050565b7f9bac3bf563d906e4c002c9b37dc34326776a9168ece7376a7a577f98c0c99a8961083981610834610e60565b610e68565b60006001600080600181111561085257610851612547565b5b600181111561086457610863612547565b5b8152602001908152602001600020905060006001600060018081111561088d5761088c612547565b5b600181111561089f5761089e612547565b5b815260200190815260200160002090506108fd7ff857e99667b61d9feb64d6cb140ba8a8ba3501d58a4940223c8e74c45932fbf48360000160009054906101000a900473ffffffffffffffffffffffffffffffffffffffff16610bfe565b61094b7ff857e99667b61d9feb64d6cb140ba8a8ba3501d58a4940223c8e74c45932fbf48260000160009054906101000a900473ffffffffffffffffffffffffffffffffffffffff16610bfe565b84600001518260000160006101000a81548173ffffffffffffffffffffffffffffffffffffffff021916908373ffffffffffffffffffffffffffffffffffffffff16021790555084602001518260010160006101000a81548173ffffffffffffffffffffffffffffffffffffffff021916908373ffffffffffffffffffffffffffffffffffffffff16021790555083600001518160000160006101000a81548173ffffffffffffffffffffffffffffffffffffffff021916908373ffffffffffffffffffffffffffffffffffffffff16021790555083602001518160010160006101000a81548173ffffffffffffffffffffffffffffffffffffffff021916908373ffffffffffffffffffffffffffffffffffffffff160217905550610a957ff857e99667b61d9feb64d6cb140ba8a8ba3501d58a4940223c8e74c45932fbf4866000015161052f565b610ac37ff857e99667b61d9feb64d6cb140ba8a8ba3501d58a4940223c8e74c45932fbf4856000015161052f565b7f30f77c97dcde9bb66d94051acfc00bf7cc5b681a05081da244812234f0037490338383604051610af693929190611f85565b60405180910390a15050505050565b600080600084815260200190815260200160002060000160008373ffffffffffffffffffffffffffffffffffffffff1673ffffffffffffffffffffffffffffffffffffffff16815260200190815260200160002060009054906101000a900460ff16905092915050565b6000801b81565b7ff857e99667b61d9feb64d6cb140ba8a8ba3501d58a4940223c8e74c45932fbf481565b60016020528060005260406000206000915090508060000160009054906101000a900473ffffffffffffffffffffffffffffffffffffffff16908060010160009054906101000a900473ffffffffffffffffffffffffffffffffffffffff16905082565b610c0782610510565b610c1881610c13610e60565b610e68565b610c228383611366565b505050565b7fc002a6b5f9f56101ba6339b1b95d171fadf6e41e005b91c80d686aef7516e75981565b7f9bac3bf563d906e4c002c9b37dc34326776a9168ece7376a7a577f98c0c99a8981565b7ff857e99667b61d9feb64d6cb140ba8a8ba3501d58a4940223c8e74c45932fbf4610ca181610c9c610e60565b610e68565b6000826fffffffffffffffffffffffffffffffff1611610cf6576040517f08c379a0000000000000000000000000000000000000000000000000000000008152600401610ced9061206b565b60405180910390fd5b60008373ffffffffffffffffffffffffffffffffffffffff16836fffffffffffffffffffffffffffffffff16604051610d2e90611e8a565b60006040518083038185875af1925050503d8060008114610d6b576040519150601f19603f3d011682016040523d82523d6000602084013e610d70565b606091505b5050905080610db4576040517f08c379a0000000000000000000000000000000000000000000000000000000008152600401610dab906120cb565b60405180910390fd5b7fd46a775a6480eb73bc6e127d684edbd9607e22cfd114edf538d1f5f15110ee77858585604051610de793929190611ff2565b60405180910390a15050505050565b60007f01ffc9a7000000000000000000000000000000000000000000000000000000007bffffffffffffffffffffffffffffffffffffffffffffffffffffffff1916827bffffffffffffffffffffffffffffffffffffffffffffffffffffffff1916149050919050565b600033905090565b610e728282610b05565b610f0157610e978173ffffffffffffffffffffffffffffffffffffffff166014611447565b610ea58360001c6020611447565b604051602001610eb6929190611e9f565b6040516020818303038152906040526040517f08c379a0000000000000000000000000000000000000000000000000000000008152600401610ef89190612029565b60405180910390fd5b5050565b610f0f8282610b05565b610fe157600160008084815260200190815260200160002060000160008373ffffffffffffffffffffffffffffffffffffffff1673ffffffffffffffffffffffffffffffffffffffff16815260200190815260200160002060006101000a81548160ff021916908315150217905550610f86610e60565b73ffffffffffffffffffffffffffffffffffffffff168173ffffffffffffffffffffffffffffffffffffffff16837f2f8788117e7eff1d82e926ec794901d17c78024a50270940304540a733656f0d60405160405180910390a45b5050565b6000700100000000000000000000000000000000821061103a576040517f08c379a00000000000000000000000000000000000000000000000000000000081526004016110319061208b565b60405180910390fd5b819050919050565b606061410160f01b8460405160200161105b9190611d75565b604051602081830303815290604052600060f81b85856fffffffffffffffffffffffffffffffff1673__$7cdc5241ea8d29c91205423c213999ecf3$__638dedf6ee90916040518263ffffffff1660e01b81526004016110bb919061212b565b60206040518083038186803b1580156110d357600080fd5b505af41580156110e7573d6000803e3d6000fd5b505050506040513d601f19601f8201168201806040525081019061110b91906117d0565b600060f81b60405160200161112596959493929190611d90565b60405160208183030381529060405290509392505050565b606061410160f01b866040516020016111569190611d75565b604051602081830303815290604052600060f81b87876fffffffffffffffffffffffffffffffff1673__$7cdc5241ea8d29c91205423c213999ecf3$__638dedf6ee90916040518263ffffffff1660e01b81526004016111b6919061212b565b60206040518083038186803b1580156111ce57600080fd5b505af41580156111e2573d6000803e3d6000fd5b505050506040513d601f19601f8201168201806040525081019061120691906117d0565b600160f81b8863ffffffff1673__$7cdc5241ea8d29c91205423c213999ecf3$__63381f760d90916040518263ffffffff1660e01b815260040161124a9190612146565b60206040518083038186803b15801561126257600080fd5b505af4158015611276573d6000803e3d6000fd5b505050506040513d601f19601f8201168201806040525081019061129a9190611951565b886fffffffffffffffffffffffffffffffff1673__$7cdc5241ea8d29c91205423c213999ecf3$__638dedf6ee90916040518263ffffffff1660e01b81526004016112e5919061212b565b60206040518083038186803b1580156112fd57600080fd5b505af4158015611311573d6000803e3d6000fd5b505050506040513d601f19601f8201168201806040525081019061133591906117d0565b60405160200161134c989796959493929190611dfc565b604051602081830303815290604052905095945050505050565b6113708282610b05565b1561144357600080600084815260200190815260200160002060000160008373ffffffffffffffffffffffffffffffffffffffff1673ffffffffffffffffffffffffffffffffffffffff16815260200190815260200160002060006101000a81548160ff0219169083151502179055506113e8610e60565b73ffffffffffffffffffffffffffffffffffffffff168173ffffffffffffffffffffffffffffffffffffffff16837ff6391f5c32d9c69d2a47ea670b442974b53935d1edc7fd64eb21e047a839171b60405160405180910390a45b5050565b60606000600283600261145a919061222a565b61146491906121d4565b67ffffffffffffffff81111561147d5761147c6125a5565b5b6040519080825280601f01601f1916602001820160405280156114af5781602001600182028036833780820191505090505b5090507f3000000000000000000000000000000000000000000000000000000000000000816000815181106114e7576114e6612576565b5b60200101907effffffffffffffffffffffffffffffffffffffffffffffffffffffffffffff1916908160001a9053507f78000000000000000000000000000000000000000000000000000000000000008160018151811061154b5761154a612576565b5b60200101907effffffffffffffffffffffffffffffffffffffffffffffffffffffffffffff1916908160001a9053506000600184600261158b919061222a565b61159591906121d4565b90505b6001811115611635577f3031323334353637383961626364656600000000000000000000000000000000600f8616601081106115d7576115d6612576565b5b1a60f81b8282815181106115ee576115ed612576565b5b60200101907effffffffffffffffffffffffffffffffffffffffffffffffffffffffffffff1916908160001a905350600485901c94508061162e9061244d565b9050611598565b5060008414611679576040517f08c379a00000000000000000000000000000000000000000000000000000000081526004016116709061204b565b60405180910390fd5b8091505092915050565b600081359050611692816127ef565b92915050565b6000813590506116a781612806565b92915050565b6000815190506116bc8161281d565b92915050565b6000813590506116d181612834565b92915050565b6000813590506116e68161284b565b92915050565b6000815190506116fb8161284b565b92915050565b60008135905061171081612862565b92915050565b60006040828403121561172c5761172b6125d4565b5b6117366040612161565b9050600061174684828501611683565b600083015250602061175a84828501611683565b60208301525092915050565b60008135905061177581612872565b92915050565b60008135905061178a81612889565b92915050565b600080604083850312156117a7576117a66125d9565b5b60006117b585828601611698565b92505060206117c685828601611766565b9150509250929050565b6000602082840312156117e6576117e56125d9565b5b60006117f4848285016116ad565b91505092915050565b600060208284031215611813576118126125d9565b5b6000611821848285016116c2565b91505092915050565b60008060408385031215611841576118406125d9565b5b600061184f858286016116c2565b925050602061186085828601611683565b9150509250929050565b600080600060608486031215611883576118826125d9565b5b6000611891868287016116c2565b93505060206118a286828701611698565b92505060406118b386828701611766565b9150509250925092565b600080600080608085870312156118d7576118d66125d9565b5b60006118e5878288016116c2565b94505060206118f687828801611701565b93505060406119078782880161177b565b925050606061191887828801611766565b91505092959194509250565b60006020828403121561193a576119396125d9565b5b6000611948848285016116d7565b91505092915050565b600060208284031215611967576119666125d9565b5b6000611975848285016116ec565b91505092915050565b600060208284031215611994576119936125d9565b5b60006119a284828501611701565b91505092915050565b600080608083850312156119c2576119c16125d9565b5b60006119d085828601611716565b92505060406119e185828601611716565b9150509250929050565b6119f4816123e4565b82525050565b611a03816122a4565b82525050565b611a12816122a4565b82525050565b611a29611a24826122a4565b6124c2565b82525050565b611a38816122c8565b82525050565b611a4f611a4a82612300565b6124de565b82525050565b611a66611a61826122d4565b6124d4565b82525050565b611a7d611a788261232c565b6124e8565b82525050565b611a8c81612358565b82525050565b611aa3611a9e82612358565b6124f2565b82525050565b611aba611ab582612362565b6124fc565b82525050565b6000611acb82612186565b611ad5818561219c565b9350611ae581856020860161241a565b611aee816125de565b840191505092915050565b6000611b0482612186565b611b0e81856121ad565b9350611b1e81856020860161241a565b80840191505092915050565b6000611b3582612191565b611b3f81856121b8565b9350611b4f81856020860161241a565b611b58816125de565b840191505092915050565b6000611b6e82612191565b611b7881856121c9565b9350611b8881856020860161241a565b80840191505092915050565b6000611ba16020836121b8565b9150611bac82612609565b602082019050919050565b6000611bc4601d836121b8565b9150611bcf82612632565b602082019050919050565b6000611be76027836121b8565b9150611bf28261265b565b604082019050919050565b6000611c0a6025836121b8565b9150611c15826126aa565b604082019050919050565b6000611c2d6014836121b8565b9150611c38826126f9565b602082019050919050565b6000611c506000836121ad565b9150611c5b82612722565b600082019050919050565b6000611c736017836121c9565b9150611c7e82612725565b601782019050919050565b6000611c966011836121c9565b9150611ca18261274e565b601182019050919050565b6000611cb96012836121b8565b9150611cc482612777565b602082019050919050565b6000611cdc602f836121b8565b9150611ce7826127a0565b604082019050919050565b604082016000808301549050611d0781612477565b611d1460008601826119fa565b5060018301549050611d2581612477565b611d3260208601826119fa565b5050505050565b611d428161238e565b82525050565b611d518161238e565b82525050565b611d60816123d4565b82525050565b611d6f816123d4565b82525050565b6000611d818284611a18565b60148201915081905092915050565b6000611d9c8289611a6c565b600282019150611dac8288611af9565b9150611db88287611a55565b600182019150611dc88286611a92565b602082019150611dd88285611a3e565b601082019150611de88284611a55565b600182019150819050979650505050505050565b6000611e08828b611a6c565b600282019150611e18828a611af9565b9150611e248289611a55565b600182019150611e348288611a92565b602082019150611e448287611a3e565b601082019150611e548286611a55565b600182019150611e648285611aa9565b600482019150611e748284611a3e565b6010820191508190509998505050505050505050565b6000611e9582611c43565b9150819050919050565b6000611eaa82611c66565b9150611eb68285611b63565b9150611ec182611c89565b9150611ecd8284611b63565b91508190509392505050565b6000604082019050611eee6000830185611a09565b611efb6020830184611a09565b9392505050565b600060a082019050611f176000830188611a09565b611f246020830187611a83565b611f316040830186611d39565b611f3e6060830185611d57565b611f4b6080830184611d39565b9695505050505050565b6000604082019050611f6a6000830185611a09565b8181036020830152611f7c8184611ac0565b90509392505050565b600060a082019050611f9a6000830186611a09565b611fa76020830185611cf2565b611fb46060830184611cf2565b949350505050565b6000602082019050611fd16000830184611a2f565b92915050565b6000602082019050611fec6000830184611a83565b92915050565b60006060820190506120076000830186611a83565b61201460208301856119eb565b6120216040830184611d39565b949350505050565b600060208201905081810360008301526120438184611b2a565b905092915050565b6000602082019050818103600083015261206481611b94565b9050919050565b6000602082019050818103600083015261208481611bb7565b9050919050565b600060208201905081810360008301526120a481611bda565b9050919050565b600060208201905081810360008301526120c481611bfd565b9050919050565b600060208201905081810360008301526120e481611c20565b9050919050565b6000602082019050818103600083015261210481611cac565b9050919050565b6000602082019050818103600083015261212481611ccf565b9050919050565b60006020820190506121406000830184611d48565b92915050565b600060208201905061215b6000830184611d66565b92915050565b600061216b61217c565b90506121778282612491565b919050565b6000604051905090565b600081519050919050565b600081519050919050565b600082825260208201905092915050565b600081905092915050565b600082825260208201905092915050565b600081905092915050565b60006121df826123ca565b91506121ea836123ca565b9250827fffffffffffffffffffffffffffffffffffffffffffffffffffffffffffffffff0382111561221f5761221e612518565b5b828201905092915050565b6000612235826123ca565b9150612240836123ca565b9250817fffffffffffffffffffffffffffffffffffffffffffffffffffffffffffffffff048311821515161561227957612278612518565b5b828202905092915050565b600073ffffffffffffffffffffffffffffffffffffffff82169050919050565b60006122af826123aa565b9050919050565b60006122c1826123aa565b9050919050565b60008115159050919050565b60007fff0000000000000000000000000000000000000000000000000000000000000082169050919050565b60007fffffffffffffffffffffffffffffffff0000000000000000000000000000000082169050919050565b60007fffff00000000000000000000000000000000000000000000000000000000000082169050919050565b6000819050919050565b60007fffffffff0000000000000000000000000000000000000000000000000000000082169050919050565b60006fffffffffffffffffffffffffffffffff82169050919050565b600073ffffffffffffffffffffffffffffffffffffffff82169050919050565b6000819050919050565b600063ffffffff82169050919050565b60006123ef826123f6565b9050919050565b600061240182612408565b9050919050565b6000612413826123aa565b9050919050565b60005b8381101561243857808201518184015260208101905061241d565b83811115612447576000848401525b50505050565b6000612458826123ca565b9150600082141561246c5761246b612518565b5b600182039050919050565b600061248a612485836125fc565b612284565b9050919050565b61249a826125de565b810181811067ffffffffffffffff821117156124b9576124b86125a5565b5b80604052505050565b60006124cd82612506565b9050919050565b6000819050919050565b6000819050919050565b6000819050919050565b6000819050919050565b6000819050919050565b6000612511826125ef565b9050919050565b7f4e487b7100000000000000000000000000000000000000000000000000000000600052601160045260246000fd5b7f4e487b7100000000000000000000000000000000000000000000000000000000600052602160045260246000fd5b7f4e487b7100000000000000000000000000000000000000000000000000000000600052603260045260246000fd5b7f4e487b7100000000000000000000000000000000000000000000000000000000600052604160045260246000fd5b600080fd5b600080fd5b6000601f19601f8301169050919050565b60008160601b9050919050565b60008160001c9050919050565b7f537472696e67733a20686578206c656e67746820696e73756666696369656e74600082015250565b7f4d75737420756e6c6f636b206120706f73697469766520616d6f756e74000000600082015250565b7f53616665436173743a2076616c756520646f65736e27742066697420696e203160008201527f3238206269747300000000000000000000000000000000000000000000000000602082015250565b7f56616c7565206f66207472616e73616374696f6e206d75737420626520706f7360008201527f6974697665000000000000000000000000000000000000000000000000000000602082015250565b7f556e61626c6520746f2073656e64204574686572000000000000000000000000600082015250565b50565b7f416363657373436f6e74726f6c3a206163636f756e7420000000000000000000600082015250565b7f206973206d697373696e6720726f6c6520000000000000000000000000000000600082015250565b7f496e76616c6964206368616e6e656c2049440000000000000000000000000000600082015250565b7f416363657373436f6e74726f6c3a2063616e206f6e6c792072656e6f756e636560008201527f20726f6c657320666f722073656c660000000000000000000000000000000000602082015250565b6127f8816122a4565b811461280357600080fd5b50565b61280f816122b6565b811461281a57600080fd5b50565b61282681612300565b811461283157600080fd5b50565b61283d81612358565b811461284857600080fd5b50565b61285481612362565b811461285f57600080fd5b50565b6002811061286f57600080fd5b50565b61287b8161238e565b811461288657600080fd5b50565b612892816123d4565b811461289d57600080fd5b5056fea264697066735822122064d5ef340fc75313e772850ec075cd7c3bee38088dfcc7889edf81dc7180bd8264736f6c63430008060033",
  "linkReferences": {
    "contracts/ScaleCodec.sol": {
      "ScaleCodec": [
        {
          "length": 20,
          "start": 6064
        },
        {
          "length": 20,
          "start": 6315
        },
        {
          "length": 20,
          "start": 6463
        },
        {
          "length": 20,
          "start": 6618
        }
      ]
    }
  },
  "deployedLinkReferences": {
    "contracts/ScaleCodec.sol": {
      "ScaleCodec": [
        {
          "length": 20,
          "start": 4229
        },
        {
          "length": 20,
          "start": 4480
        },
        {
          "length": 20,
          "start": 4628
        },
        {
          "length": 20,
          "start": 4783
        }
      ]
    }
  }
}