{
  "_format": "hh-sol-artifact-1",
  "contractName": "ETHApp",
  "sourceName": "contracts/ETHApp.sol",
  "abi": [
    {
      "inputs": [
        {
          "internalType": "address",
          "name": "rewarder",
          "type": "address"
        },
        {
          "components": [
            {
              "internalType": "address",
              "name": "inbound",
              "type": "address"
            },
            {
              "internalType": "address",
              "name": "outbound",
              "type": "address"
            }
          ],
          "internalType": "struct ETHApp.Channel",
          "name": "_basic",
          "type": "tuple"
        },
        {
          "components": [
            {
              "internalType": "address",
              "name": "inbound",
              "type": "address"
            },
            {
              "internalType": "address",
              "name": "outbound",
              "type": "address"
            }
          ],
          "internalType": "struct ETHApp.Channel",
          "name": "_incentivized",
          "type": "tuple"
        }
      ],
      "stateMutability": "nonpayable",
      "type": "constructor"
    },
    {
      "anonymous": false,
      "inputs": [
        {
          "indexed": false,
          "internalType": "address",
          "name": "sender",
          "type": "address"
        },
        {
          "indexed": false,
          "internalType": "bytes32",
          "name": "recipient",
          "type": "bytes32"
        },
        {
          "indexed": false,
          "internalType": "uint256",
          "name": "amount",
          "type": "uint256"
        },
        {
          "indexed": false,
          "internalType": "uint32",
          "name": "paraId",
          "type": "uint32"
        }
      ],
      "name": "Locked",
      "type": "event"
    },
    {
      "anonymous": false,
      "inputs": [
        {
          "indexed": true,
          "internalType": "bytes32",
          "name": "role",
          "type": "bytes32"
        },
        {
          "indexed": true,
          "internalType": "bytes32",
          "name": "previousAdminRole",
          "type": "bytes32"
        },
        {
          "indexed": true,
          "internalType": "bytes32",
          "name": "newAdminRole",
          "type": "bytes32"
        }
      ],
      "name": "RoleAdminChanged",
      "type": "event"
    },
    {
      "anonymous": false,
      "inputs": [
        {
          "indexed": true,
          "internalType": "bytes32",
          "name": "role",
          "type": "bytes32"
        },
        {
          "indexed": true,
          "internalType": "address",
          "name": "account",
          "type": "address"
        },
        {
          "indexed": true,
          "internalType": "address",
          "name": "sender",
          "type": "address"
        }
      ],
      "name": "RoleGranted",
      "type": "event"
    },
    {
      "anonymous": false,
      "inputs": [
        {
          "indexed": true,
          "internalType": "bytes32",
          "name": "role",
          "type": "bytes32"
        },
        {
          "indexed": true,
          "internalType": "address",
          "name": "account",
          "type": "address"
        },
        {
          "indexed": true,
          "internalType": "address",
          "name": "sender",
          "type": "address"
        }
      ],
      "name": "RoleRevoked",
      "type": "event"
    },
    {
      "anonymous": false,
      "inputs": [
        {
          "indexed": false,
          "internalType": "bytes32",
          "name": "sender",
          "type": "bytes32"
        },
        {
          "indexed": false,
          "internalType": "address",
          "name": "recipient",
          "type": "address"
        },
        {
          "indexed": false,
          "internalType": "uint256",
          "name": "amount",
          "type": "uint256"
        }
      ],
      "name": "Unlocked",
      "type": "event"
    },
    {
      "inputs": [],
      "name": "DEFAULT_ADMIN_ROLE",
      "outputs": [
        {
          "internalType": "bytes32",
          "name": "",
          "type": "bytes32"
        }
      ],
      "stateMutability": "view",
      "type": "function"
    },
    {
      "inputs": [],
      "name": "INBOUND_CHANNEL_ROLE",
      "outputs": [
        {
          "internalType": "bytes32",
          "name": "",
          "type": "bytes32"
        }
      ],
      "stateMutability": "view",
      "type": "function"
    },
    {
      "inputs": [],
      "name": "REWARD_ROLE",
      "outputs": [
        {
          "internalType": "bytes32",
          "name": "",
          "type": "bytes32"
        }
      ],
      "stateMutability": "view",
      "type": "function"
    },
    {
      "inputs": [],
      "name": "balance",
      "outputs": [
        {
          "internalType": "uint256",
          "name": "",
          "type": "uint256"
        }
      ],
      "stateMutability": "view",
      "type": "function"
    },
    {
      "inputs": [
        {
          "internalType": "enum ChannelId",
          "name": "",
          "type": "uint8"
        }
      ],
      "name": "channels",
      "outputs": [
        {
          "internalType": "address",
          "name": "inbound",
          "type": "address"
        },
        {
          "internalType": "address",
          "name": "outbound",
          "type": "address"
        }
      ],
      "stateMutability": "view",
      "type": "function"
    },
    {
      "inputs": [
        {
          "internalType": "bytes32",
          "name": "role",
          "type": "bytes32"
        }
      ],
      "name": "getRoleAdmin",
      "outputs": [
        {
          "internalType": "bytes32",
          "name": "",
          "type": "bytes32"
        }
      ],
      "stateMutability": "view",
      "type": "function"
    },
    {
      "inputs": [
        {
          "internalType": "bytes32",
          "name": "role",
          "type": "bytes32"
        },
        {
          "internalType": "address",
          "name": "account",
          "type": "address"
        }
      ],
      "name": "grantRole",
      "outputs": [],
      "stateMutability": "nonpayable",
      "type": "function"
    },
    {
      "inputs": [
        {
          "internalType": "bytes32",
          "name": "role",
          "type": "bytes32"
        },
        {
          "internalType": "address",
          "name": "account",
          "type": "address"
        }
      ],
      "name": "hasRole",
      "outputs": [
        {
          "internalType": "bool",
          "name": "",
          "type": "bool"
        }
      ],
      "stateMutability": "view",
      "type": "function"
    },
    {
      "inputs": [
        {
          "internalType": "bytes32",
          "name": "_recipient",
          "type": "bytes32"
        },
        {
          "internalType": "enum ChannelId",
          "name": "_channelId",
          "type": "uint8"
        },
        {
          "internalType": "uint32",
          "name": "_paraId",
          "type": "uint32"
        }
      ],
      "name": "lock",
      "outputs": [],
      "stateMutability": "payable",
      "type": "function"
    },
    {
      "inputs": [
        {
          "internalType": "bytes32",
          "name": "role",
          "type": "bytes32"
        },
        {
          "internalType": "address",
          "name": "account",
          "type": "address"
        }
      ],
      "name": "renounceRole",
      "outputs": [],
      "stateMutability": "nonpayable",
      "type": "function"
    },
    {
      "inputs": [
        {
          "internalType": "bytes32",
          "name": "role",
          "type": "bytes32"
        },
        {
          "internalType": "address",
          "name": "account",
          "type": "address"
        }
      ],
      "name": "revokeRole",
      "outputs": [],
      "stateMutability": "nonpayable",
      "type": "function"
    },
    {
      "inputs": [
        {
          "internalType": "address payable",
          "name": "_recipient",
          "type": "address"
        },
        {
          "internalType": "uint256",
          "name": "_amount",
          "type": "uint256"
        }
      ],
      "name": "reward",
      "outputs": [],
      "stateMutability": "nonpayable",
      "type": "function"
    },
    {
      "inputs": [
        {
          "internalType": "bytes4",
          "name": "interfaceId",
          "type": "bytes4"
        }
      ],
      "name": "supportsInterface",
      "outputs": [
        {
          "internalType": "bool",
          "name": "",
          "type": "bool"
        }
      ],
      "stateMutability": "view",
      "type": "function"
    },
    {
      "inputs": [
        {
          "internalType": "bytes32",
          "name": "_sender",
          "type": "bytes32"
        },
        {
          "internalType": "address payable",
          "name": "_recipient",
          "type": "address"
        },
        {
          "internalType": "uint256",
          "name": "_amount",
          "type": "uint256"
        }
      ],
      "name": "unlock",
      "outputs": [],
      "stateMutability": "nonpayable",
      "type": "function"
    }
  ],
  "bytecode": "0x60806040523480156200001157600080fd5b50604051620027e9380380620027e983398181016040528101906200003791906200046f565b60006001819055506000600260008060018111156200005b576200005a6200055e565b5b600181111562000070576200006f6200055e565b5b8152602001908152602001600020905082600001518160000160006101000a81548173ffffffffffffffffffffffffffffffffffffffff021916908373ffffffffffffffffffffffffffffffffffffffff16021790555082602001518160010160006101000a81548173ffffffffffffffffffffffffffffffffffffffff021916908373ffffffffffffffffffffffffffffffffffffffff1602179055506000600260006001808111156200012a57620001296200055e565b5b60018111156200013f576200013e6200055e565b5b8152602001908152602001600020905082600001518160000160006101000a81548173ffffffffffffffffffffffffffffffffffffffff021916908373ffffffffffffffffffffffffffffffffffffffff16021790555082602001518160010160006101000a81548173ffffffffffffffffffffffffffffffffffffffff021916908373ffffffffffffffffffffffffffffffffffffffff1602179055506200020f7fc002a6b5f9f56101ba6339b1b95d171fadf6e41e005b91c80d686aef7516e759866200028660201b60201c565b620002457ff857e99667b61d9feb64d6cb140ba8a8ba3501d58a4940223c8e74c45932fbf485600001516200028660201b60201c565b6200027b7ff857e99667b61d9feb64d6cb140ba8a8ba3501d58a4940223c8e74c45932fbf484600001516200028660201b60201c565b5050505050620005f1565b6200029882826200029c60201b60201c565b5050565b620002ae82826200038d60201b60201c565b6200038957600160008084815260200190815260200160002060000160008373ffffffffffffffffffffffffffffffffffffffff1673ffffffffffffffffffffffffffffffffffffffff16815260200190815260200160002060006101000a81548160ff0219169083151502179055506200032e620003f760201b60201c565b73ffffffffffffffffffffffffffffffffffffffff168173ffffffffffffffffffffffffffffffffffffffff16837f2f8788117e7eff1d82e926ec794901d17c78024a50270940304540a733656f0d60405160405180910390a45b5050565b600080600084815260200190815260200160002060000160008373ffffffffffffffffffffffffffffffffffffffff1673ffffffffffffffffffffffffffffffffffffffff16815260200190815260200160002060009054906101000a900460ff16905092915050565b600033905090565b6000815190506200041081620005d7565b92915050565b6000604082840312156200042f576200042e620005bc565b5b6200043b6040620004cb565b905060006200044d84828501620003ff565b60008301525060206200046384828501620003ff565b60208301525092915050565b600080600060a084860312156200048b576200048a620005c1565b5b60006200049b86828701620003ff565b9350506020620004ae8682870162000416565b9250506060620004c18682870162000416565b9150509250925092565b6000620004d7620004ea565b9050620004e5828262000528565b919050565b6000604051905090565b6000620005018262000508565b9050919050565b600073ffffffffffffffffffffffffffffffffffffffff82169050919050565b6200053382620005c6565b810181811067ffffffffffffffff821117156200055557620005546200058d565b5b80604052505050565b7f4e487b7100000000000000000000000000000000000000000000000000000000600052602160045260246000fd5b7f4e487b7100000000000000000000000000000000000000000000000000000000600052604160045260246000fd5b600080fd5b600080fd5b6000601f19601f8301169050919050565b620005e281620004f4565b8114620005ee57600080fd5b50565b6121e880620006016000396000f3fe6080604052600436106100dd5760003560e01c806391d148541161007f578063bc0c22a711610059578063bc0c22a7146102af578063ccd34132146102da578063d547741f14610318578063e8884f2b14610341576100dd565b806391d148541461021c578063a217fddf14610259578063b69ef8a814610284576100dd565b80632583d5d8116100bb5780632583d5d8146101855780632f2ff15d146101a157806336568abe146101ca5780636dea30e7146101f3576100dd565b806301ffc9a7146100e257806321670f221461011f578063248a9ca314610148575b600080fd5b3480156100ee57600080fd5b5061010960048036038101906101049190611439565b61036c565b604051610116919061198a565b60405180910390f35b34801561012b57600080fd5b50610146600480360381019061014191906112b9565b6103e6565b005b34801561015457600080fd5b5061016f600480360381019061016a91906112f9565b6104ca565b60405161017c91906119a5565b60405180910390f35b61019f600480360381019061019a91906113e6565b6104e9565b005b3480156101ad57600080fd5b506101c860048036038101906101c39190611353565b610717565b005b3480156101d657600080fd5b506101f160048036038101906101ec9190611353565b610740565b005b3480156101ff57600080fd5b5061021a60048036038101906102159190611393565b6107c3565b005b34801561022857600080fd5b50610243600480360381019061023e9190611353565b61097f565b604051610250919061198a565b60405180910390f35b34801561026557600080fd5b5061026e6109e9565b60405161027b91906119a5565b60405180910390f35b34801561029057600080fd5b506102996109f0565b6040516102a69190611b14565b60405180910390f35b3480156102bb57600080fd5b506102c46109f6565b6040516102d191906119a5565b60405180910390f35b3480156102e657600080fd5b5061030160048036038101906102fc9190611493565b610a1a565b60405161030f9291906118ec565b60405180910390f35b34801561032457600080fd5b5061033f600480360381019061033a9190611353565b610a7e565b005b34801561034d57600080fd5b50610356610aa7565b60405161036391906119a5565b60405180910390f35b60007f7965db0b000000000000000000000000000000000000000000000000000000007bffffffffffffffffffffffffffffffffffffffffffffffffffffffff1916827bffffffffffffffffffffffffffffffffffffffffffffffffffffffff191614806103df57506103de82610acb565b5b9050919050565b7fc002a6b5f9f56101ba6339b1b95d171fadf6e41e005b91c80d686aef7516e75961041881610413610b35565b610b3d565b60008373ffffffffffffffffffffffffffffffffffffffff168360405161043e9061189d565b60006040518083038185875af1925050503d806000811461047b576040519150601f19603f3d011682016040523d82523d6000602084013e610480565b606091505b50509050806104c4576040517f08c379a00000000000000000000000000000000000000000000000000000000081526004016104bb90611a79565b60405180910390fd5b50505050565b6000806000838152602001908152602001600020600101549050919050565b6000341161052c576040517f08c379a000000000000000000000000000000000000000000000000000000000815260040161052390611a59565b60405180910390fd5b600060018111156105405761053f611e82565b5b82600181111561055357610552611e82565b5b1480610582575060018081111561056d5761056c611e82565b5b8260018111156105805761057f611e82565b5b145b6105c1576040517f08c379a00000000000000000000000000000000000000000000000000000000081526004016105b890611ab9565b60405180910390fd5b346001546105cf9190611b98565b6001819055507f36e9f941c9256956bcbe71e011543dd2e3a0afc18cc7fc30b6fd638c0a0442853384348460405161060a9493929190611915565b60405180910390a1606060008263ffffffff1614156106355761062e338534610bda565b9050610644565b61064133853485610ca4565b90505b60006002600085600181111561065d5761065c611e82565b5b600181111561066f5761066e611e82565b5b815260200190815260200160002060010160009054906101000a900473ffffffffffffffffffffffffffffffffffffffff1690508073ffffffffffffffffffffffffffffffffffffffff166376846edd33846040518363ffffffff1660e01b81526004016106de92919061195a565b600060405180830381600087803b1580156106f857600080fd5b505af115801561070c573d6000803e3d6000fd5b505050505050505050565b610720826104ca565b6107318161072c610b35565b610b3d565b61073b8383610dff565b505050565b610748610b35565b73ffffffffffffffffffffffffffffffffffffffff168173ffffffffffffffffffffffffffffffffffffffff16146107b5576040517f08c379a00000000000000000000000000000000000000000000000000000000081526004016107ac90611ad9565b60405180910390fd5b6107bf8282610edf565b5050565b7ff857e99667b61d9feb64d6cb140ba8a8ba3501d58a4940223c8e74c45932fbf46107f5816107f0610b35565b610b3d565b60008211610838576040517f08c379a000000000000000000000000000000000000000000000000000000000815260040161082f90611a39565b60405180910390fd5b81600154101561087d576040517f08c379a000000000000000000000000000000000000000000000000000000000815260040161087490611a99565b60405180910390fd5b8160015461088b9190611c48565b60018190555060008373ffffffffffffffffffffffffffffffffffffffff16836040516108b79061189d565b60006040518083038185875af1925050503d80600081146108f4576040519150601f19603f3d011682016040523d82523d6000602084013e6108f9565b606091505b505090508061093d576040517f08c379a000000000000000000000000000000000000000000000000000000000815260040161093490611a79565b60405180910390fd5b7ff5561ca90e56855f12004e8905a4a47a9fc395858c8a6cc9762c13df547e1e8f858585604051610970939291906119c0565b60405180910390a15050505050565b600080600084815260200190815260200160002060000160008373ffffffffffffffffffffffffffffffffffffffff1673ffffffffffffffffffffffffffffffffffffffff16815260200190815260200160002060009054906101000a900460ff16905092915050565b6000801b81565b60015481565b7ff857e99667b61d9feb64d6cb140ba8a8ba3501d58a4940223c8e74c45932fbf481565b60026020528060005260406000206000915090508060000160009054906101000a900473ffffffffffffffffffffffffffffffffffffffff16908060010160009054906101000a900473ffffffffffffffffffffffffffffffffffffffff16905082565b610a87826104ca565b610a9881610a93610b35565b610b3d565b610aa28383610edf565b505050565b7fc002a6b5f9f56101ba6339b1b95d171fadf6e41e005b91c80d686aef7516e75981565b60007f01ffc9a7000000000000000000000000000000000000000000000000000000007bffffffffffffffffffffffffffffffffffffffffffffffffffffffff1916827bffffffffffffffffffffffffffffffffffffffffffffffffffffffff1916149050919050565b600033905090565b610b47828261097f565b610bd657610b6c8173ffffffffffffffffffffffffffffffffffffffff166014610fc0565b610b7a8360001c6020610fc0565b604051602001610b8b9291906118b2565b6040516020818303038152906040526040517f08c379a0000000000000000000000000000000000000000000000000000000008152600401610bcd91906119f7565b60405180910390fd5b5050565b606061410160f01b84600060f81b858573__$7cdc5241ea8d29c91205423c213999ecf3$__63dfd47e0e90916040518263ffffffff1660e01b8152600401610c229190611af9565b60206040518083038186803b158015610c3a57600080fd5b505af4158015610c4e573d6000803e3d6000fd5b505050506040513d601f19601f82011682018060405250810190610c729190611326565b600060f81b604051602001610c8c969594939291906117ac565b60405160208183030381529060405290509392505050565b606061410160f01b85600060f81b868673__$7cdc5241ea8d29c91205423c213999ecf3$__63dfd47e0e90916040518263ffffffff1660e01b8152600401610cec9190611af9565b60206040518083038186803b158015610d0457600080fd5b505af4158015610d18573d6000803e3d6000fd5b505050506040513d601f19601f82011682018060405250810190610d3c9190611326565b600160f81b8763ffffffff1673__$7cdc5241ea8d29c91205423c213999ecf3$__63381f760d90916040518263ffffffff1660e01b8152600401610d809190611b2f565b60206040518083038186803b158015610d9857600080fd5b505af4158015610dac573d6000803e3d6000fd5b505050506040513d601f19601f82011682018060405250810190610dd09190611466565b604051602001610de6979695949392919061181c565b6040516020818303038152906040529050949350505050565b610e09828261097f565b610edb57600160008084815260200190815260200160002060000160008373ffffffffffffffffffffffffffffffffffffffff1673ffffffffffffffffffffffffffffffffffffffff16815260200190815260200160002060006101000a81548160ff021916908315150217905550610e80610b35565b73ffffffffffffffffffffffffffffffffffffffff168173ffffffffffffffffffffffffffffffffffffffff16837f2f8788117e7eff1d82e926ec794901d17c78024a50270940304540a733656f0d60405160405180910390a45b5050565b610ee9828261097f565b15610fbc57600080600084815260200190815260200160002060000160008373ffffffffffffffffffffffffffffffffffffffff1673ffffffffffffffffffffffffffffffffffffffff16815260200190815260200160002060006101000a81548160ff021916908315150217905550610f61610b35565b73ffffffffffffffffffffffffffffffffffffffff168173ffffffffffffffffffffffffffffffffffffffff16837ff6391f5c32d9c69d2a47ea670b442974b53935d1edc7fd64eb21e047a839171b60405160405180910390a45b5050565b606060006002836002610fd39190611bee565b610fdd9190611b98565b67ffffffffffffffff811115610ff657610ff5611ee0565b5b6040519080825280601f01601f1916602001820160405280156110285781602001600182028036833780820191505090505b5090507f3000000000000000000000000000000000000000000000000000000000000000816000815181106110605761105f611eb1565b5b60200101907effffffffffffffffffffffffffffffffffffffffffffffffffffffffffffff1916908160001a9053507f7800000000000000000000000000000000000000000000000000000000000000816001815181106110c4576110c3611eb1565b5b60200101907effffffffffffffffffffffffffffffffffffffffffffffffffffffffffffff1916908160001a905350600060018460026111049190611bee565b61110e9190611b98565b90505b60018111156111ae577f3031323334353637383961626364656600000000000000000000000000000000600f8616601081106111505761114f611eb1565b5b1a60f81b82828151811061116757611166611eb1565b5b60200101907effffffffffffffffffffffffffffffffffffffffffffffffffffffffffffff1916908160001a905350600485901c9450806111a790611ddd565b9050611111565b50600084146111f2576040517f08c379a00000000000000000000000000000000000000000000000000000000081526004016111e990611a19565b60405180910390fd5b8091505092915050565b60008135905061120b81612118565b92915050565b6000813590506112208161212f565b92915050565b60008135905061123581612146565b92915050565b60008151905061124a81612146565b92915050565b60008135905061125f8161215d565b92915050565b6000815190506112748161215d565b92915050565b60008135905061128981612174565b92915050565b60008135905061129e81612184565b92915050565b6000813590506112b38161219b565b92915050565b600080604083850312156112d0576112cf611f0f565b5b60006112de85828601611211565b92505060206112ef8582860161128f565b9150509250929050565b60006020828403121561130f5761130e611f0f565b5b600061131d84828501611226565b91505092915050565b60006020828403121561133c5761133b611f0f565b5b600061134a8482850161123b565b91505092915050565b6000806040838503121561136a57611369611f0f565b5b600061137885828601611226565b9250506020611389858286016111fc565b9150509250929050565b6000806000606084860312156113ac576113ab611f0f565b5b60006113ba86828701611226565b93505060206113cb86828701611211565b92505060406113dc8682870161128f565b9150509250925092565b6000806000606084860312156113ff576113fe611f0f565b5b600061140d86828701611226565b935050602061141e8682870161127a565b925050604061142f868287016112a4565b9150509250925092565b60006020828403121561144f5761144e611f0f565b5b600061145d84828501611250565b91505092915050565b60006020828403121561147c5761147b611f0f565b5b600061148a84828501611265565b91505092915050565b6000602082840312156114a9576114a8611f0f565b5b60006114b78482850161127a565b91505092915050565b6114c981611d74565b82525050565b6114d881611c7c565b82525050565b6114ef6114ea82611c7c565b611e07565b82525050565b6114fe81611ca0565b82525050565b61151561151082611cac565b611e19565b82525050565b61152c61152782611cd8565b611e23565b82525050565b61153b81611d04565b82525050565b61155261154d82611d04565b611e2d565b82525050565b61156961156482611d0e565b611e37565b82525050565b600061157a82611b4a565b6115848185611b60565b9350611594818560208601611daa565b61159d81611f14565b840191505092915050565b60006115b382611b55565b6115bd8185611b7c565b93506115cd818560208601611daa565b6115d681611f14565b840191505092915050565b60006115ec82611b55565b6115f68185611b8d565b9350611606818560208601611daa565b80840191505092915050565b600061161f602083611b7c565b915061162a82611f32565b602082019050919050565b6000611642601d83611b7c565b915061164d82611f5b565b602082019050919050565b6000611665602583611b7c565b915061167082611f84565b604082019050919050565b6000611688601483611b7c565b915061169382611fd3565b602082019050919050565b60006116ab603d83611b7c565b91506116b682611ffc565b604082019050919050565b60006116ce600083611b71565b91506116d98261204b565b600082019050919050565b60006116f1601783611b8d565b91506116fc8261204e565b601782019050919050565b6000611714601183611b8d565b915061171f82612077565b601182019050919050565b6000611737601283611b7c565b9150611742826120a0565b602082019050919050565b600061175a602f83611b7c565b9150611765826120c9565b604082019050919050565b61177981611d5a565b82525050565b61178881611d5a565b82525050565b61179781611d64565b82525050565b6117a681611d64565b82525050565b60006117b8828961151b565b6002820191506117c882886114de565b6014820191506117d88287611504565b6001820191506117e88286611541565b6020820191506117f88285611541565b6020820191506118088284611504565b600182019150819050979650505050505050565b6000611828828a61151b565b60028201915061183882896114de565b6014820191506118488288611504565b6001820191506118588287611541565b6020820191506118688286611541565b6020820191506118788285611504565b6001820191506118888284611558565b60048201915081905098975050505050505050565b60006118a8826116c1565b9150819050919050565b60006118bd826116e4565b91506118c982856115e1565b91506118d482611707565b91506118e082846115e1565b91508190509392505050565b600060408201905061190160008301856114cf565b61190e60208301846114cf565b9392505050565b600060808201905061192a60008301876114cf565b6119376020830186611532565b6119446040830185611770565b611951606083018461178e565b95945050505050565b600060408201905061196f60008301856114cf565b8181036020830152611981818461156f565b90509392505050565b600060208201905061199f60008301846114f5565b92915050565b60006020820190506119ba6000830184611532565b92915050565b60006060820190506119d56000830186611532565b6119e260208301856114c0565b6119ef6040830184611770565b949350505050565b60006020820190508181036000830152611a1181846115a8565b905092915050565b60006020820190508181036000830152611a3281611612565b9050919050565b60006020820190508181036000830152611a5281611635565b9050919050565b60006020820190508181036000830152611a7281611658565b9050919050565b60006020820190508181036000830152611a928161167b565b9050919050565b60006020820190508181036000830152611ab28161169e565b9050919050565b60006020820190508181036000830152611ad28161172a565b9050919050565b60006020820190508181036000830152611af28161174d565b9050919050565b6000602082019050611b0e600083018461177f565b92915050565b6000602082019050611b296000830184611770565b92915050565b6000602082019050611b44600083018461179d565b92915050565b600081519050919050565b600081519050919050565b600082825260208201905092915050565b600081905092915050565b600082825260208201905092915050565b600081905092915050565b6000611ba382611d5a565b9150611bae83611d5a565b9250827fffffffffffffffffffffffffffffffffffffffffffffffffffffffffffffffff03821115611be357611be2611e53565b5b828201905092915050565b6000611bf982611d5a565b9150611c0483611d5a565b9250817fffffffffffffffffffffffffffffffffffffffffffffffffffffffffffffffff0483118215151615611c3d57611c3c611e53565b5b828202905092915050565b6000611c5382611d5a565b9150611c5e83611d5a565b925082821015611c7157611c70611e53565b5b828203905092915050565b6000611c8782611d3a565b9050919050565b6000611c9982611d3a565b9050919050565b60008115159050919050565b60007fff0000000000000000000000000000000000000000000000000000000000000082169050919050565b60007fffff00000000000000000000000000000000000000000000000000000000000082169050919050565b6000819050919050565b60007fffffffff0000000000000000000000000000000000000000000000000000000082169050919050565b600073ffffffffffffffffffffffffffffffffffffffff82169050919050565b6000819050919050565b600063ffffffff82169050919050565b6000611d7f82611d86565b9050919050565b6000611d9182611d98565b9050919050565b6000611da382611d3a565b9050919050565b60005b83811015611dc8578082015181840152602081019050611dad565b83811115611dd7576000848401525b50505050565b6000611de882611d5a565b91506000821415611dfc57611dfb611e53565b5b600182039050919050565b6000611e1282611e41565b9050919050565b6000819050919050565b6000819050919050565b6000819050919050565b6000819050919050565b6000611e4c82611f25565b9050919050565b7f4e487b7100000000000000000000000000000000000000000000000000000000600052601160045260246000fd5b7f4e487b7100000000000000000000000000000000000000000000000000000000600052602160045260246000fd5b7f4e487b7100000000000000000000000000000000000000000000000000000000600052603260045260246000fd5b7f4e487b7100000000000000000000000000000000000000000000000000000000600052604160045260246000fd5b600080fd5b6000601f19601f8301169050919050565b60008160601b9050919050565b7f537472696e67733a20686578206c656e67746820696e73756666696369656e74600082015250565b7f4d75737420756e6c6f636b206120706f73697469766520616d6f756e74000000600082015250565b7f56616c7565206f66207472616e73616374696f6e206d75737420626520706f7360008201527f6974697665000000000000000000000000000000000000000000000000000000602082015250565b7f556e61626c6520746f2073656e64204574686572000000000000000000000000600082015250565b7f45544820746f6b656e2062616c616e63657320696e73756666696369656e742060008201527f746f2066756c66696c6c2074686520756e6c6f636b2072657175657374000000602082015250565b50565b7f416363657373436f6e74726f6c3a206163636f756e7420000000000000000000600082015250565b7f206973206d697373696e6720726f6c6520000000000000000000000000000000600082015250565b7f496e76616c6964206368616e6e656c2049440000000000000000000000000000600082015250565b7f416363657373436f6e74726f6c3a2063616e206f6e6c792072656e6f756e636560008201527f20726f6c657320666f722073656c660000000000000000000000000000000000602082015250565b61212181611c7c565b811461212c57600080fd5b50565b61213881611c8e565b811461214357600080fd5b50565b61214f81611d04565b811461215a57600080fd5b50565b61216681611d0e565b811461217157600080fd5b50565b6002811061218157600080fd5b50565b61218d81611d5a565b811461219857600080fd5b50565b6121a481611d64565b81146121af57600080fd5b5056fea2646970667358221220c0edbf26c0fc221fc213b0d58d6627851cff535de556d7920a08fa66612cb5ff64736f6c63430008060033",
  "linkReferences": {
    "contracts/ScaleCodec.sol": {
      "ScaleCodec": [
        {
          "length": 20,
          "start": 4589
        },
        {
          "length": 20,
          "start": 4791
        },
        {
          "length": 20,
          "start": 4939
        }
      ]
    }
  },
  "deployedLinkReferences": {
    "contracts/ScaleCodec.sol": {
      "ScaleCodec": [
        {
          "length": 20,
          "start": 3052
        },
        {
          "length": 20,
          "start": 3254
        },
        {
          "length": 20,
          "start": 3402
        }
      ]
    }
  }
}