{
  "contractName": "ETHApp",
  "abi": [
    {
      "inputs": [
        {
          "components": [
            {
              "internalType": "address",
              "name": "inbound",
              "type": "address"
            },
            {
              "internalType": "address",
              "name": "outbound",
              "type": "address"
            }
          ],
          "internalType": "struct ETHApp.Channel",
          "name": "_basic",
          "type": "tuple"
        },
        {
          "components": [
            {
              "internalType": "address",
              "name": "inbound",
              "type": "address"
            },
            {
              "internalType": "address",
              "name": "outbound",
              "type": "address"
            }
          ],
          "internalType": "struct ETHApp.Channel",
          "name": "_incentivized",
          "type": "tuple"
        }
      ],
      "stateMutability": "nonpayable",
      "type": "constructor"
    },
    {
      "anonymous": false,
      "inputs": [
        {
          "indexed": false,
          "internalType": "address",
          "name": "sender",
          "type": "address"
        },
        {
          "indexed": false,
          "internalType": "bytes32",
          "name": "recipient",
          "type": "bytes32"
        },
        {
          "indexed": false,
          "internalType": "uint256",
          "name": "amount",
          "type": "uint256"
        }
      ],
      "name": "Locked",
      "type": "event"
    },
    {
      "anonymous": false,
      "inputs": [
        {
          "indexed": false,
          "internalType": "bytes32",
          "name": "sender",
          "type": "bytes32"
        },
        {
          "indexed": false,
          "internalType": "address",
          "name": "recipient",
          "type": "address"
        },
        {
          "indexed": false,
          "internalType": "uint256",
          "name": "amount",
          "type": "uint256"
        }
      ],
      "name": "Unlocked",
      "type": "event"
    },
    {
      "inputs": [],
      "name": "balance",
      "outputs": [
        {
          "internalType": "uint256",
          "name": "",
          "type": "uint256"
        }
      ],
      "stateMutability": "view",
      "type": "function",
      "constant": true
    },
    {
      "inputs": [
        {
          "internalType": "enum ChannelId",
          "name": "",
          "type": "uint8"
        }
      ],
      "name": "channels",
      "outputs": [
        {
          "internalType": "address",
          "name": "inbound",
          "type": "address"
        },
        {
          "internalType": "address",
          "name": "outbound",
          "type": "address"
        }
      ],
      "stateMutability": "view",
      "type": "function",
      "constant": true
    },
    {
      "inputs": [
        {
          "internalType": "bytes32",
          "name": "_recipient",
          "type": "bytes32"
        },
        {
          "internalType": "enum ChannelId",
          "name": "_channelId",
          "type": "uint8"
        }
      ],
      "name": "lock",
      "outputs": [],
      "stateMutability": "payable",
      "type": "function",
      "payable": true
    },
    {
      "inputs": [
        {
          "internalType": "bytes32",
          "name": "_sender",
          "type": "bytes32"
        },
        {
          "internalType": "address payable",
          "name": "_recipient",
          "type": "address"
        },
        {
          "internalType": "uint256",
          "name": "_amount",
          "type": "uint256"
        }
      ],
      "name": "unlock",
      "outputs": [],
      "stateMutability": "nonpayable",
      "type": "function"
    }
  ],
  "bytecode": "0x60806040523480156200001157600080fd5b50604051620010ba380380620010ba83398181016040528101906200003791906200022c565b600080819055506000600160008060018111156200005157fe5b60018111156200005d57fe5b8152602001908152602001600020905082600001518160000160006101000a81548173ffffffffffffffffffffffffffffffffffffffff021916908373ffffffffffffffffffffffffffffffffffffffff16021790555082602001518160010160006101000a81548173ffffffffffffffffffffffffffffffffffffffff021916908373ffffffffffffffffffffffffffffffffffffffff1602179055506000600160006001808111156200010e57fe5b60018111156200011a57fe5b8152602001908152602001600020905082600001518160000160006101000a81548173ffffffffffffffffffffffffffffffffffffffff021916908373ffffffffffffffffffffffffffffffffffffffff16021790555082602001518160010160006101000a81548173ffffffffffffffffffffffffffffffffffffffff021916908373ffffffffffffffffffffffffffffffffffffffff16021790555050505050620002f1565b600081519050620001d381620002d7565b92915050565b600060408284031215620001ec57600080fd5b620001f860406200026d565b905060006200020a84828501620001c2565b60008301525060206200022084828501620001c2565b60208301525092915050565b600080608083850312156200024057600080fd5b60006200025085828601620001d9565b92505060406200026385828601620001d9565b9150509250929050565b6000604051905081810181811067ffffffffffffffff82111715620002975762000296620002d5565b5b8060405250919050565b6000620002ae82620002b5565b9050919050565b600073ffffffffffffffffffffffffffffffffffffffff82169050919050565bfe5b620002e281620002a1565b8114620002ee57600080fd5b50565b610db980620003016000396000f3fe60806040526004361061003f5760003560e01c8063577232f7146100445780636dea30e714610060578063b69ef8a814610089578063ccd34132146100b4575b600080fd5b61005e6004803603810190610059919061071b565b6100f2565b005b34801561006c57600080fd5b50610087600480360381019061008291906106cc565b6102d7565b005b34801561009557600080fd5b5061009e610401565b6040516100ab9190610b6d565b60405180910390f35b3480156100c057600080fd5b506100db60048036038101906100d69190610757565b610407565b6040516100e9929190610a72565b60405180910390f35b60003411610135576040517f08c379a000000000000000000000000000000000000000000000000000000000815260040161012c90610af2565b60405180910390fd5b6000600181111561014257fe5b81600181111561014e57fe5b148061016f575060018081111561016157fe5b81600181111561016d57fe5b145b6101ae576040517f08c379a00000000000000000000000000000000000000000000000000000000081526004016101a590610b32565b60405180910390fd5b6101c33460005461046b90919063ffffffff16565b6000819055507fcaae0f5e72020d428da73a237d1f9bf162e158dda6d4908769b8b60c095b01f43383346040516101fc93929190610a0b565b60405180910390a160006102113384346104f3565b905060006001600084600181111561022557fe5b600181111561023057fe5b815260200190815260200160002060010160009054906101000a900473ffffffffffffffffffffffffffffffffffffffff1690508073ffffffffffffffffffffffffffffffffffffffff166376846edd33846040518363ffffffff1660e01b815260040161029f929190610a42565b600060405180830381600087803b1580156102b957600080fd5b505af11580156102cd573d6000803e3d6000fd5b5050505050505050565b6000811161031a576040517f08c379a000000000000000000000000000000000000000000000000000000000815260040161031190610ad2565b60405180910390fd5b80600054101561035f576040517f08c379a000000000000000000000000000000000000000000000000000000000815260040161035690610b12565b60405180910390fd5b610374816000546105b790919063ffffffff16565b6000819055508173ffffffffffffffffffffffffffffffffffffffff166108fc829081150290604051600060405180830381858888f193505050501580156103c0573d6000803e3d6000fd5b507ff5561ca90e56855f12004e8905a4a47a9fc395858c8a6cc9762c13df547e1e8f8383836040516103f493929190610a9b565b60405180910390a1505050565b60005481565b60016020528060005260406000206000915090508060000160009054906101000a900473ffffffffffffffffffffffffffffffffffffffff16908060010160009054906101000a900473ffffffffffffffffffffffffffffffffffffffff16905082565b6000808284019050838110156104e9576040517f08c379a000000000000000000000000000000000000000000000000000000000815260040180806020018281038252601b8152602001807f536166654d6174683a206164646974696f6e206f766572666c6f77000000000081525060200191505060405180910390fd5b8091505092915050565b6060610c0160f01b84600060f81b858573__ScaleCodec____________________________63dfd47e0e90916040518263ffffffff1660e01b815260040161053b9190610b52565b60206040518083038186803b15801561055357600080fd5b505af4158015610567573d6000803e3d6000fd5b505050506040513d601f19601f8201168201806040525081019061058b91906106a3565b60405160200161059f9594939291906109ac565b60405160208183030381529060405290509392505050565b60008282111561062f576040517f08c379a000000000000000000000000000000000000000000000000000000000815260040180806020018281038252601e8152602001807f536166654d6174683a207375627472616374696f6e206f766572666c6f77000081525060200191505060405180910390fd5b818303905092915050565b60008135905061064981610d2e565b92915050565b60008135905061065e81610d45565b92915050565b60008151905061067381610d45565b92915050565b60008135905061068881610d5c565b92915050565b60008135905061069d81610d6c565b92915050565b6000602082840312156106b557600080fd5b60006106c384828501610664565b91505092915050565b6000806000606084860312156106e157600080fd5b60006106ef8682870161064f565b93505060206107008682870161063a565b92505060406107118682870161068e565b9150509250925092565b6000806040838503121561072e57600080fd5b600061073c8582860161064f565b925050602061074d85828601610679565b9150509250929050565b60006020828403121561076957600080fd5b600061077784828501610679565b91505092915050565b61078981610c65565b82525050565b61079881610bb5565b82525050565b6107af6107aa82610bb5565b610cce565b82525050565b6107c66107c182610bd9565b610ce0565b82525050565b6107dd6107d882610c05565b610cea565b82525050565b6107ec81610c31565b82525050565b6108036107fe82610c31565b610cf4565b82525050565b600061081482610b88565b61081e8185610b93565b935061082e818560208601610c9b565b61083781610d10565b840191505092915050565b600061084f601d83610ba4565b91507f4d75737420756e6c6f636b206120706f73697469766520616d6f756e740000006000830152602082019050919050565b600061088f602583610ba4565b91507f56616c7565206f66207472616e73616374696f6e206d75737420626520706f7360008301527f69746976650000000000000000000000000000000000000000000000000000006020830152604082019050919050565b60006108f5603d83610ba4565b91507f45544820746f6b656e2062616c616e63657320696e73756666696369656e742060008301527f746f2066756c66696c6c2074686520756e6c6f636b20726571756573740000006020830152604082019050919050565b600061095b601283610ba4565b91507f496e76616c6964206368616e6e656c20494400000000000000000000000000006000830152602082019050919050565b61099781610c5b565b82525050565b6109a681610c5b565b82525050565b60006109b882886107cc565b6002820191506109c8828761079e565b6014820191506109d882866107b5565b6001820191506109e882856107f2565b6020820191506109f882846107f2565b6020820191508190509695505050505050565b6000606082019050610a206000830186610780565b610a2d60208301856107e3565b610a3a604083018461098e565b949350505050565b6000604082019050610a576000830185610780565b8181036020830152610a698184610809565b90509392505050565b6000604082019050610a87600083018561078f565b610a94602083018461078f565b9392505050565b6000606082019050610ab060008301866107e3565b610abd6020830185610780565b610aca604083018461098e565b949350505050565b60006020820190508181036000830152610aeb81610842565b9050919050565b60006020820190508181036000830152610b0b81610882565b9050919050565b60006020820190508181036000830152610b2b816108e8565b9050919050565b60006020820190508181036000830152610b4b8161094e565b9050919050565b6000602082019050610b67600083018461099d565b92915050565b6000602082019050610b82600083018461098e565b92915050565b600081519050919050565b600082825260208201905092915050565b600082825260208201905092915050565b6000610bc082610c3b565b9050919050565b6000610bd282610c3b565b9050919050565b60007fff0000000000000000000000000000000000000000000000000000000000000082169050919050565b60007fffff00000000000000000000000000000000000000000000000000000000000082169050919050565b6000819050919050565b600073ffffffffffffffffffffffffffffffffffffffff82169050919050565b6000819050919050565b6000610c7082610c77565b9050919050565b6000610c8282610c89565b9050919050565b6000610c9482610c3b565b9050919050565b60005b83811015610cb9578082015181840152602081019050610c9e565b83811115610cc8576000848401525b50505050565b6000610cd982610cfe565b9050919050565b6000819050919050565b6000819050919050565b6000819050919050565b6000610d0982610d21565b9050919050565b6000601f19601f8301169050919050565b60008160601b9050919050565b610d3781610bc7565b8114610d4257600080fd5b50565b610d4e81610c31565b8114610d5957600080fd5b50565b60028110610d6957600080fd5b50565b610d7581610c5b565b8114610d8057600080fd5b5056fea264697066735822122011b6cd182a006ef229d45d445e6f7a2a1d7f5e185a6686dc299f7ee240cbde3264736f6c63430007060033",
  "immutableReferences": {},
  "source": "// SPDX-License-Identifier: MIT\npragma solidity >=0.7.6;\npragma experimental ABIEncoderV2;\n\nimport \"@openzeppelin/contracts/math/SafeMath.sol\";\nimport \"./ScaleCodec.sol\";\nimport \"./OutboundChannel.sol\";\n\nenum ChannelId {Basic, Incentivized}\n\ncontract ETHApp {\n    using SafeMath for uint256;\n    using ScaleCodec for uint256;\n\n    uint256 public balance;\n\n    mapping(ChannelId => Channel) public channels;\n\n    event Locked(address sender, bytes32 recipient, uint256 amount);\n\n    event Unlocked(bytes32 sender, address recipient, uint256 amount);\n\n    bytes2 constant MINT_CALL = 0x0c01;\n\n    struct Channel {\n        address inbound;\n        address outbound;\n    }\n\n    constructor(Channel memory _basic, Channel memory _incentivized) {\n        balance = 0;\n\n        Channel storage c1 = channels[ChannelId.Basic];\n        c1.inbound = _basic.inbound;\n        c1.outbound = _basic.outbound;\n\n        Channel storage c2 = channels[ChannelId.Incentivized];\n        c2.inbound = _incentivized.inbound;\n        c2.outbound = _incentivized.outbound;\n    }\n\n    function lock(bytes32 _recipient, ChannelId _channelId) public payable {\n        require(msg.value > 0, \"Value of transaction must be positive\");\n        require(\n            _channelId == ChannelId.Basic ||\n                _channelId == ChannelId.Incentivized,\n            \"Invalid channel ID\"\n        );\n\n        balance = balance.add(msg.value);\n\n        emit Locked(msg.sender, _recipient, msg.value);\n\n        bytes memory call = encodeCall(msg.sender, _recipient, msg.value);\n\n        OutboundChannel channel =\n            OutboundChannel(channels[_channelId].outbound);\n        channel.submit(msg.sender, call);\n    }\n\n    function unlock(\n        bytes32 _sender,\n        address payable _recipient,\n        uint256 _amount\n    ) public {\n        // TODO: Ensure message sender is a known inbound channel\n        require(_amount > 0, \"Must unlock a positive amount\");\n        require(\n            balance >= _amount,\n            \"ETH token balances insufficient to fulfill the unlock request\"\n        );\n\n        balance = balance.sub(_amount);\n        _recipient.transfer(_amount);\n        emit Unlocked(_sender, _recipient, _amount);\n    }\n\n    // SCALE-encode payload\n    function encodeCall(\n        address _sender,\n        bytes32 _recipient,\n        uint256 _amount\n    ) private pure returns (bytes memory) {\n        return\n            abi.encodePacked(\n                MINT_CALL,\n                _sender,\n                byte(0x00), // Encode recipient as MultiAddress::Id\n                _recipient,\n                _amount.encode256()\n            );\n    }\n}\n",
  "sourcePath": "/home/jamie/dev/crypto/snowfork/polkadot-ethereum/ethereum/contracts/ETHApp.sol",
  "compiler": {
    "name": "solc",
    "version": "0.7.6+commit.7338295f.Emscripten.clang"
  },
  "schemaVersion": "3.2.5",
  "updatedAt": "2021-04-08T14:21:04.470Z",
  "networkType": "ethereum",
  "devdoc": {
    "kind": "dev",
    "methods": {},
    "version": 1
  },
  "userdoc": {
    "kind": "user",
    "methods": {},
    "version": 1
  }
}