{
  "_format": "hh-sol-artifact-1",
  "contractName": "IncentivizedInboundChannel",
  "sourceName": "contracts/IncentivizedInboundChannel.sol",
  "abi": [
    {
      "inputs": [
        {
          "internalType": "contract BeefyLightClient",
          "name": "_beefyLightClient",
          "type": "address"
        }
      ],
      "stateMutability": "nonpayable",
      "type": "constructor"
    },
    {
      "anonymous": false,
      "inputs": [
        {
          "indexed": false,
          "internalType": "uint64",
          "name": "nonce",
          "type": "uint64"
        },
        {
          "indexed": false,
          "internalType": "bool",
          "name": "result",
          "type": "bool"
        }
      ],
      "name": "MessageDispatched",
      "type": "event"
    },
    {
      "anonymous": false,
      "inputs": [
        {
          "indexed": false,
          "internalType": "address",
          "name": "relayer",
          "type": "address"
        },
        {
          "indexed": false,
          "internalType": "uint256",
          "name": "amount",
          "type": "uint256"
        }
      ],
      "name": "RelayerNotRewarded",
      "type": "event"
    },
    {
      "anonymous": false,
      "inputs": [
        {
          "indexed": true,
          "internalType": "bytes32",
          "name": "role",
          "type": "bytes32"
        },
        {
          "indexed": true,
          "internalType": "bytes32",
          "name": "previousAdminRole",
          "type": "bytes32"
        },
        {
          "indexed": true,
          "internalType": "bytes32",
          "name": "newAdminRole",
          "type": "bytes32"
        }
      ],
      "name": "RoleAdminChanged",
      "type": "event"
    },
    {
      "anonymous": false,
      "inputs": [
        {
          "indexed": true,
          "internalType": "bytes32",
          "name": "role",
          "type": "bytes32"
        },
        {
          "indexed": true,
          "internalType": "address",
          "name": "account",
          "type": "address"
        },
        {
          "indexed": true,
          "internalType": "address",
          "name": "sender",
          "type": "address"
        }
      ],
      "name": "RoleGranted",
      "type": "event"
    },
    {
      "anonymous": false,
      "inputs": [
        {
          "indexed": true,
          "internalType": "bytes32",
          "name": "role",
          "type": "bytes32"
        },
        {
          "indexed": true,
          "internalType": "address",
          "name": "account",
          "type": "address"
        },
        {
          "indexed": true,
          "internalType": "address",
          "name": "sender",
          "type": "address"
        }
      ],
      "name": "RoleRevoked",
      "type": "event"
    },
    {
      "inputs": [],
      "name": "CONFIG_UPDATE_ROLE",
      "outputs": [
        {
          "internalType": "bytes32",
          "name": "",
          "type": "bytes32"
        }
      ],
      "stateMutability": "view",
      "type": "function"
    },
    {
      "inputs": [],
      "name": "DEFAULT_ADMIN_ROLE",
      "outputs": [
        {
          "internalType": "bytes32",
          "name": "",
          "type": "bytes32"
        }
      ],
      "stateMutability": "view",
      "type": "function"
    },
    {
      "inputs": [],
      "name": "GAS_BUFFER",
      "outputs": [
        {
          "internalType": "uint256",
          "name": "",
          "type": "uint256"
        }
      ],
      "stateMutability": "view",
      "type": "function"
    },
    {
      "inputs": [],
      "name": "MAX_GAS_PER_MESSAGE",
      "outputs": [
        {
          "internalType": "uint256",
          "name": "",
          "type": "uint256"
        }
      ],
      "stateMutability": "view",
      "type": "function"
    },
    {
      "inputs": [],
      "name": "beefyLightClient",
      "outputs": [
        {
          "internalType": "contract BeefyLightClient",
          "name": "",
          "type": "address"
        }
      ],
      "stateMutability": "view",
      "type": "function"
    },
    {
      "inputs": [
        {
          "internalType": "bytes32",
          "name": "role",
          "type": "bytes32"
        }
      ],
      "name": "getRoleAdmin",
      "outputs": [
        {
          "internalType": "bytes32",
          "name": "",
          "type": "bytes32"
        }
      ],
      "stateMutability": "view",
      "type": "function"
    },
    {
      "inputs": [
        {
          "internalType": "bytes32",
          "name": "role",
          "type": "bytes32"
        },
        {
          "internalType": "address",
          "name": "account",
          "type": "address"
        }
      ],
      "name": "grantRole",
      "outputs": [],
      "stateMutability": "nonpayable",
      "type": "function"
    },
    {
      "inputs": [
        {
          "internalType": "bytes32",
          "name": "role",
          "type": "bytes32"
        },
        {
          "internalType": "address",
          "name": "account",
          "type": "address"
        }
      ],
      "name": "hasRole",
      "outputs": [
        {
          "internalType": "bool",
          "name": "",
          "type": "bool"
        }
      ],
      "stateMutability": "view",
      "type": "function"
    },
    {
      "inputs": [
        {
          "internalType": "address",
          "name": "_configUpdater",
          "type": "address"
        },
        {
          "internalType": "address",
          "name": "_rewardSource",
          "type": "address"
        }
      ],
      "name": "initialize",
      "outputs": [],
      "stateMutability": "nonpayable",
      "type": "function"
    },
    {
      "inputs": [],
      "name": "nonce",
      "outputs": [
        {
          "internalType": "uint64",
          "name": "",
          "type": "uint64"
        }
      ],
      "stateMutability": "view",
      "type": "function"
    },
    {
      "inputs": [
        {
          "internalType": "bytes32",
          "name": "role",
          "type": "bytes32"
        },
        {
          "internalType": "address",
          "name": "account",
          "type": "address"
        }
      ],
      "name": "renounceRole",
      "outputs": [],
      "stateMutability": "nonpayable",
      "type": "function"
    },
    {
      "inputs": [
        {
          "internalType": "bytes32",
          "name": "role",
          "type": "bytes32"
        },
        {
          "internalType": "address",
          "name": "account",
          "type": "address"
        }
      ],
      "name": "revokeRole",
      "outputs": [],
      "stateMutability": "nonpayable",
      "type": "function"
    },
    {
      "inputs": [
        {
          "components": [
            {
              "internalType": "address",
              "name": "target",
              "type": "address"
            },
            {
              "internalType": "uint64",
              "name": "nonce",
              "type": "uint64"
            },
            {
              "internalType": "uint256",
              "name": "fee",
              "type": "uint256"
            },
            {
              "internalType": "bytes",
              "name": "payload",
              "type": "bytes"
            }
          ],
          "internalType": "struct IncentivizedInboundChannel.Message[]",
          "name": "_messages",
          "type": "tuple[]"
        },
        {
          "components": [
            {
              "internalType": "bytes32",
              "name": "parentHash",
              "type": "bytes32"
            },
            {
              "internalType": "uint32",
              "name": "number",
              "type": "uint32"
            },
            {
              "internalType": "bytes32",
              "name": "stateRoot",
              "type": "bytes32"
            },
            {
              "internalType": "bytes32",
              "name": "extrinsicsRoot",
              "type": "bytes32"
            }
          ],
          "internalType": "struct ParachainLightClient.OwnParachainHeadPartial",
          "name": "_ownParachainHeadPartial",
          "type": "tuple"
        },
        {
          "components": [
            {
              "internalType": "uint256",
              "name": "pos",
              "type": "uint256"
            },
            {
              "internalType": "uint256",
              "name": "width",
              "type": "uint256"
            },
            {
              "internalType": "bytes32[]",
              "name": "proof",
              "type": "bytes32[]"
            }
          ],
          "internalType": "struct ParachainLightClient.ParachainHeadProof",
          "name": "_parachainHeadProof",
          "type": "tuple"
        },
        {
          "components": [
            {
              "internalType": "uint32",
              "name": "parentNumber",
              "type": "uint32"
            },
            {
              "internalType": "bytes32",
              "name": "parentHash",
              "type": "bytes32"
            },
            {
              "internalType": "uint64",
              "name": "nextAuthoritySetId",
              "type": "uint64"
            },
            {
              "internalType": "uint32",
              "name": "nextAuthoritySetLen",
              "type": "uint32"
            },
            {
              "internalType": "bytes32",
              "name": "nextAuthoritySetRoot",
              "type": "bytes32"
            }
          ],
          "internalType": "struct ParachainLightClient.BeefyMMRLeafPartial",
          "name": "_beefyMMRLeafPartial",
          "type": "tuple"
        },
        {
          "internalType": "uint256",
          "name": "_beefyMMRLeafIndex",
          "type": "uint256"
        },
        {
          "internalType": "uint256",
          "name": "_beefyMMRLeafCount",
          "type": "uint256"
        },
        {
          "internalType": "bytes32[]",
          "name": "_beefyMMRLeafProof",
          "type": "bytes32[]"
        }
      ],
      "name": "submit",
      "outputs": [],
      "stateMutability": "nonpayable",
      "type": "function"
    },
    {
      "inputs": [
        {
          "internalType": "bytes4",
          "name": "interfaceId",
          "type": "bytes4"
        }
      ],
      "name": "supportsInterface",
      "outputs": [
        {
          "internalType": "bool",
          "name": "",
          "type": "bool"
        }
      ],
      "stateMutability": "view",
      "type": "function"
    }
  ],
  "bytecode": "0x60806040523480156200001157600080fd5b5060405162002b5e38038062002b5e83398181016040528101906200003791906200024e565b6200004c6000801b33620000be60201b60201c565b80600260006101000a81548173ffffffffffffffffffffffffffffffffffffffff021916908373ffffffffffffffffffffffffffffffffffffffff1602179055506000600160006101000a81548167ffffffffffffffff021916908367ffffffffffffffff16021790555050620002e7565b620000d08282620000d460201b60201c565b5050565b620000e68282620001c560201b60201c565b620001c157600160008084815260200190815260200160002060000160008373ffffffffffffffffffffffffffffffffffffffff1673ffffffffffffffffffffffffffffffffffffffff16815260200190815260200160002060006101000a81548160ff021916908315150217905550620001666200022f60201b60201c565b73ffffffffffffffffffffffffffffffffffffffff168173ffffffffffffffffffffffffffffffffffffffff16837f2f8788117e7eff1d82e926ec794901d17c78024a50270940304540a733656f0d60405160405180910390a45b5050565b600080600084815260200190815260200160002060000160008373ffffffffffffffffffffffffffffffffffffffff1673ffffffffffffffffffffffffffffffffffffffff16815260200190815260200160002060009054906101000a900460ff16905092915050565b600033905090565b6000815190506200024881620002cd565b92915050565b600060208284031215620002675762000266620002c8565b5b6000620002778482850162000237565b91505092915050565b60006200028d82620002a8565b9050919050565b6000620002a18262000280565b9050919050565b600073ffffffffffffffffffffffffffffffffffffffff82169050919050565b600080fd5b620002d88162000294565b8114620002e457600080fd5b50565b61286780620002f76000396000f3fe608060405234801561001057600080fd5b50600436106100ea5760003560e01c8063a217fddf1161008c578063affed0e011610066578063affed0e01461024b578063c7e6736014610269578063d547741f14610287578063f36c7ec4146102a3576100ea565b8063a217fddf146101f1578063a2d6c6e51461020f578063af41c33e1461022d576100ea565b806336568abe116100c857806336568abe1461016b578063485cc9551461018757806349bee574146101a357806391d14854146101c1576100ea565b806301ffc9a7146100ef578063248a9ca31461011f5780632f2ff15d1461014f575b600080fd5b6101096004803603810190610104919061167e565b6102bf565b6040516101169190611dbf565b60405180910390f35b610139600480360381019061013491906115e4565b610339565b6040516101469190611dda565b60405180910390f35b6101696004803603810190610164919061163e565b610358565b005b6101856004803603810190610180919061163e565b610381565b005b6101a1600480360381019061019c91906114a2565b610404565b005b6101ab6104cc565b6040516101b89190611f3b565b60405180910390f35b6101db60048036038101906101d6919061163e565b6104d3565b6040516101e89190611dbf565b60405180910390f35b6101f961053d565b6040516102069190611dda565b60405180910390f35b610217610544565b6040516102249190611dda565b60405180910390f35b610235610568565b6040516102429190611e43565b60405180910390f35b61025361058e565b6040516102609190611f8c565b60405180910390f35b6102716105a8565b60405161027e9190611f3b565b60405180910390f35b6102a1600480360381019061029c919061163e565b6105ae565b005b6102bd60048036038101906102b891906114e2565b6105d7565b005b60007f7965db0b000000000000000000000000000000000000000000000000000000007bffffffffffffffffffffffffffffffffffffffffffffffffffffffff1916827bffffffffffffffffffffffffffffffffffffffffffffffffffffffff191614806103325750610331826106af565b5b9050919050565b6000806000838152602001908152602001600020600101549050919050565b61036182610339565b6103728161036d610719565b610721565b61037c83836107be565b505050565b610389610719565b73ffffffffffffffffffffffffffffffffffffffff168173ffffffffffffffffffffffffffffffffffffffff16146103f6576040517f08c379a00000000000000000000000000000000000000000000000000000000081526004016103ed90611f00565b60405180910390fd5b610400828261089e565b5050565b6104116000801b336104d3565b610450576040517f08c379a000000000000000000000000000000000000000000000000000000000815260040161044790611ee0565b60405180910390fd5b61047a7f32e4cdbcd9c00d473129ed98a14e66b6f3434febcbfd293f5af182c102b315f783610358565b80600160086101000a81548173ffffffffffffffffffffffffffffffffffffffff021916908373ffffffffffffffffffffffffffffffffffffffff1602179055506104c86000801b33610381565b5050565b620186a081565b600080600084815260200190815260200160002060000160008373ffffffffffffffffffffffffffffffffffffffff1673ffffffffffffffffffffffffffffffffffffffff16815260200190815260200160002060009054906101000a900460ff16905092915050565b6000801b81565b7f32e4cdbcd9c00d473129ed98a14e66b6f3434febcbfd293f5af182c102b315f781565b600260009054906101000a900473ffffffffffffffffffffffffffffffffffffffff1681565b600160009054906101000a900467ffffffffffffffff1681565b61ea6081565b6105b782610339565b6105c8816105c3610719565b610721565b6105d2838361089e565b505050565b600089896040516020016105ec929190611d9b565b6040516020818303038152906040528051906020012090506106378189898989898989600260009054906101000a900473ffffffffffffffffffffffffffffffffffffffff1661097f565b61ea60620186a08b8b905061064c91906122a9565b6106569190612215565b5a1015610698576040517f08c379a000000000000000000000000000000000000000000000000000000000815260040161068f90611ec0565b60405180910390fd5b6106a3338b8b610a52565b50505050505050505050565b60007f01ffc9a7000000000000000000000000000000000000000000000000000000007bffffffffffffffffffffffffffffffffffffffffffffffffffffffff1916827bffffffffffffffffffffffffffffffffffffffffffffffffffffffff1916149050919050565b600033905090565b61072b82826104d3565b6107ba576107508173ffffffffffffffffffffffffffffffffffffffff166014610dc2565b61075e8360001c6020610dc2565b60405160200161076f929190611d0f565b6040516020818303038152906040526040517f08c379a00000000000000000000000000000000000000000000000000000000081526004016107b19190611e5e565b60405180910390fd5b5050565b6107c882826104d3565b61089a57600160008084815260200190815260200160002060000160008373ffffffffffffffffffffffffffffffffffffffff1673ffffffffffffffffffffffffffffffffffffffff16815260200190815260200160002060006101000a81548160ff02191690831515021790555061083f610719565b73ffffffffffffffffffffffffffffffffffffffff168173ffffffffffffffffffffffffffffffffffffffff16837f2f8788117e7eff1d82e926ec794901d17c78024a50270940304540a733656f0d60405160405180910390a45b5050565b6108a882826104d3565b1561097b57600080600084815260200190815260200160002060000160008373ffffffffffffffffffffffffffffffffffffffff1673ffffffffffffffffffffffffffffffffffffffff16815260200190815260200160002060006101000a81548160ff021916908315150217905550610920610719565b73ffffffffffffffffffffffffffffffffffffffff168173ffffffffffffffffffffffffffffffffffffffff16837ff6391f5c32d9c69d2a47ea670b442974b53935d1edc7fd64eb21e047a839171b60405160405180910390a45b5050565b600061098b898b610ffe565b9050600073__$860624903cbc2e721b1f7f70307ce6b5fe$__6340752949838b600001358c602001358d80604001906109c49190611fd0565b6040518663ffffffff1660e01b81526004016109e4959493929190611df5565b60206040518083038186803b1580156109fc57600080fd5b505af4158015610a10573d6000803e3d6000fd5b505050506040513d601f19601f82011682018060405250810190610a349190611611565b90506000610a428983611079565b9050505050505050505050505050565b6000805b83839050811015610cf05760018060009054906101000a900467ffffffffffffffff16610a83919061226b565b67ffffffffffffffff16848483818110610aa057610a9f612575565b5b9050602002810190610ab29190612096565b6020016020810190610ac49190611732565b67ffffffffffffffff1614610b0e576040517f08c379a0000000000000000000000000000000000000000000000000000000008152600401610b0590611ea0565b60405180910390fd5b60018060009054906101000a900467ffffffffffffffff16610b30919061226b565b600160006101000a81548167ffffffffffffffff021916908367ffffffffffffffff1602179055506000848483818110610b6d57610b6c612575565b5b9050602002810190610b7f9190612096565b6000016020810190610b919190611475565b73ffffffffffffffffffffffffffffffffffffffff166000620186a090878786818110610bc157610bc0612575565b5b9050602002810190610bd39190612096565b8060600190610be29190612033565b604051610bf0929190611cf6565b600060405180830381858888f193505050503d8060008114610c2e576040519150601f19603f3d011682016040523d82523d6000602084013e610c33565b606091505b50509050848483818110610c4a57610c49612575565b5b9050602002810190610c5c9190612096565b6040013583610c6b9190612215565b92507f504b093d860dc827c72a879d052fd8ac6b4c2af80c5f3a634654f172690bf10a858584818110610ca157610ca0612575565b5b9050602002810190610cb39190612096565b6020016020810190610cc59190611732565b82604051610cd4929190611fa7565b60405180910390a1508080610ce8906124d5565b915050610a56565b50600160089054906101000a900473ffffffffffffffffffffffffffffffffffffffff1673ffffffffffffffffffffffffffffffffffffffff166321670f2285836040518363ffffffff1660e01b8152600401610d4e929190611d49565b600060405180830381600087803b158015610d6857600080fd5b505af1925050508015610d79575060015b610dbb577fc2e494a08070a72521abe61eacb25fef7c8dd12aef87e8725d1b9bc31a3a3bad8482604051610dae929190611d72565b60405180910390a1610dbc565b5b50505050565b606060006002836002610dd591906122a9565b610ddf9190612215565b67ffffffffffffffff811115610df857610df76125a4565b5b6040519080825280601f01601f191660200182016040528015610e2a5781602001600182028036833780820191505090505b5090507f300000000000000000000000000000000000000000000000000000000000000081600081518110610e6257610e61612575565b5b60200101907effffffffffffffffffffffffffffffffffffffffffffffffffffffffffffff1916908160001a9053507f780000000000000000000000000000000000000000000000000000000000000081600181518110610ec657610ec5612575565b5b60200101907effffffffffffffffffffffffffffffffffffffffffffffffffffffffffffff1916908160001a90535060006001846002610f0691906122a9565b610f109190612215565b90505b6001811115610fb0577f3031323334353637383961626364656600000000000000000000000000000000600f861660108110610f5257610f51612575565b5b1a60f81b828281518110610f6957610f68612575565b5b60200101907effffffffffffffffffffffffffffffffffffffffffffffffffffffffffffff1916908160001a905350600485901c945080610fa9906124ab565b9050610f13565b5060008414610ff4576040517f08c379a0000000000000000000000000000000000000000000000000000000008152600401610feb90611e80565b60405180910390fd5b8091505092915050565b60006040518060a00160405280846000013581526020018460200160208101906110289190611705565b63ffffffff16815260200184604001358152602001846060013581526020018381525060405160200161105b9190611f20565b60405160208183030381529060405280519060200120905092915050565b60008073__$7cdc5241ea8d29c91205423c213999ecf3$__63381f760d8560000160208101906110a99190611705565b6040518263ffffffff1660e01b81526004016110c59190611f56565b60206040518083038186803b1580156110dd57600080fd5b505af41580156110f1573d6000803e3d6000fd5b505050506040513d601f19601f8201168201806040525081019061111591906116ab565b84602001358473__$7cdc5241ea8d29c91205423c213999ecf3$__63f83d7d5f8860400160208101906111489190611732565b6040518263ffffffff1660e01b81526004016111649190611f71565b60206040518083038186803b15801561117c57600080fd5b505af4158015611190573d6000803e3d6000fd5b505050506040513d601f19601f820116820180604052508101906111b491906116d8565b73__$7cdc5241ea8d29c91205423c213999ecf3$__63381f760d8960600160208101906111e19190611705565b6040518263ffffffff1660e01b81526004016111fd9190611f56565b60206040518083038186803b15801561121557600080fd5b505af4158015611229573d6000803e3d6000fd5b505050506040513d601f19601f8201168201806040525081019061124d91906116ab565b886080013560405160200161126796959493929190611c86565b604051602081830303815290604052905061c10160f01b81604051602001611290929190611c5e565b6040516020818303038152906040528051906020012091505092915050565b6000813590506112be81612790565b92915050565b60008083601f8401126112da576112d96125dd565b5b8235905067ffffffffffffffff8111156112f7576112f66125d8565b5b602083019150836020820283011115611313576113126125f6565b5b9250929050565b60008083601f8401126113305761132f6125dd565b5b8235905067ffffffffffffffff81111561134d5761134c6125d8565b5b602083019150836020820283011115611369576113686125f6565b5b9250929050565b60008135905061137f816127a7565b92915050565b600081519050611394816127a7565b92915050565b6000813590506113a9816127be565b92915050565b6000815190506113be816127be565b92915050565b6000815190506113d3816127d5565b92915050565b600060a082840312156113ef576113ee6125e7565b5b81905092915050565b60006080828403121561140e5761140d6125e7565b5b81905092915050565b60006060828403121561142d5761142c6125e7565b5b81905092915050565b600081359050611445816127ec565b92915050565b60008135905061145a81612803565b92915050565b60008135905061146f8161281a565b92915050565b60006020828403121561148b5761148a61260f565b5b6000611499848285016112af565b91505092915050565b600080604083850312156114b9576114b861260f565b5b60006114c7858286016112af565b92505060206114d8858286016112af565b9150509250929050565b60008060008060008060008060006101c08a8c0312156115055761150461260f565b5b60008a013567ffffffffffffffff81111561152357611522612600565b5b61152f8c828d0161131a565b995099505060206115428c828d016113f8565b97505060a08a013567ffffffffffffffff81111561156357611562612600565b5b61156f8c828d01611417565b96505060c06115808c828d016113d9565b9550506101606115928c828d01611436565b9450506101806115a48c828d01611436565b9350506101a08a013567ffffffffffffffff8111156115c6576115c5612600565b5b6115d28c828d016112c4565b92509250509295985092959850929598565b6000602082840312156115fa576115f961260f565b5b600061160884828501611370565b91505092915050565b6000602082840312156116275761162661260f565b5b600061163584828501611385565b91505092915050565b600080604083850312156116555761165461260f565b5b600061166385828601611370565b9250506020611674858286016112af565b9150509250929050565b6000602082840312156116945761169361260f565b5b60006116a28482850161139a565b91505092915050565b6000602082840312156116c1576116c061260f565b5b60006116cf848285016113af565b91505092915050565b6000602082840312156116ee576116ed61260f565b5b60006116fc848285016113c4565b91505092915050565b60006020828403121561171b5761171a61260f565b5b60006117298482850161144b565b91505092915050565b6000602082840312156117485761174761260f565b5b600061175684828501611460565b91505092915050565b600061176b8383611af9565b905092915050565b61177c8161240f565b82525050565b61178b81612315565b82525050565b61179a81612303565b82525050565b60006117ac83856120eb565b93507f07ffffffffffffffffffffffffffffffffffffffffffffffffffffffffffffff8311156117df576117de612605565b5b6020830292506117f0838584612469565b82840190509392505050565b600061180883856120fc565b93508360208402850161181a846120be565b8060005b8781101561185e57848403895261183582846121bf565b61183f858261175f565b945061184a836120de565b925060208a0199505060018101905061181e565b50829750879450505050509392505050565b61187981612327565b82525050565b61189061188b82612333565b61251e565b82525050565b61189f8161235f565b82525050565b6118ae8161235f565b82525050565b6118bd8161235f565b82525050565b6118d46118cf8261235f565b612528565b82525050565b6118eb6118e682612369565b612532565b82525050565b6119026118fd82612395565b61253c565b82525050565b6000611914838561210d565b9350611921838584612469565b61192a83612614565b840190509392505050565b6000611941838561211e565b935061194e838584612469565b82840190509392505050565b6000611965826120c8565b61196f818561211e565b935061197f818560208601612478565b80840191505092915050565b61199481612421565b82525050565b60006119a5826120d3565b6119af8185612129565b93506119bf818560208601612478565b6119c881612614565b840191505092915050565b60006119de826120d3565b6119e8818561213a565b93506119f8818560208601612478565b80840191505092915050565b6000611a11602083612129565b9150611a1c82612625565b602082019050919050565b6000611a34600d83612129565b9150611a3f8261264e565b602082019050919050565b6000611a57602d83612129565b9150611a6282612677565b604082019050919050565b6000611a7a60178361213a565b9150611a85826126c6565b601782019050919050565b6000611a9d601683612129565b9150611aa8826126ef565b602082019050919050565b6000611ac060118361213a565b9150611acb82612718565b601182019050919050565b6000611ae3602f83612129565b9150611aee82612741565b604082019050919050565b600060808301611b0c6000840184612145565b611b196000860182611791565b50611b2760208401846121fe565b611b346020860182611c31565b50611b4260408401846121e7565b611b4f6040860182611be6565b50611b5d606084018461215c565b8583036060870152611b70838284611908565b925050508091505092915050565b60a082016000820151611b946000850182611896565b506020820151611ba76020850182611c13565b506040820151611bba6040850182611896565b506060820151611bcd6060850182611896565b506080820151611be06080850182611896565b50505050565b611bef816123e1565b82525050565b611bfe816123e1565b82525050565b611c0d816123e1565b82525050565b611c1c816123eb565b82525050565b611c2b816123eb565b82525050565b611c3a816123fb565b82525050565b611c49816123fb565b82525050565b611c58816123fb565b82525050565b6000611c6a828561187f565b600282019150611c7a828461195a565b91508190509392505050565b6000611c9282896118da565b600482019150611ca282886118c3565b602082019150611cb282876118c3565b602082019150611cc282866118f1565b600882019150611cd282856118da565b600482019150611ce282846118c3565b602082019150819050979650505050505050565b6000611d03828486611935565b91508190509392505050565b6000611d1a82611a6d565b9150611d2682856119d3565b9150611d3182611ab3565b9150611d3d82846119d3565b91508190509392505050565b6000604082019050611d5e6000830185611782565b611d6b6020830184611bf5565b9392505050565b6000604082019050611d876000830185611773565b611d946020830184611bf5565b9392505050565b60006020820190508181036000830152611db68184866117fc565b90509392505050565b6000602082019050611dd46000830184611870565b92915050565b6000602082019050611def60008301846118a5565b92915050565b6000608082019050611e0a60008301886118b4565b611e176020830187611c04565b611e246040830186611c04565b8181036060830152611e378184866117a0565b90509695505050505050565b6000602082019050611e58600083018461198b565b92915050565b60006020820190508181036000830152611e78818461199a565b905092915050565b60006020820190508181036000830152611e9981611a04565b9050919050565b60006020820190508181036000830152611eb981611a27565b9050919050565b60006020820190508181036000830152611ed981611a4a565b9050919050565b60006020820190508181036000830152611ef981611a90565b9050919050565b60006020820190508181036000830152611f1981611ad6565b9050919050565b600060a082019050611f356000830184611b7e565b92915050565b6000602082019050611f506000830184611bf5565b92915050565b6000602082019050611f6b6000830184611c22565b92915050565b6000602082019050611f866000830184611c4f565b92915050565b6000602082019050611fa16000830184611c40565b92915050565b6000604082019050611fbc6000830185611c40565b611fc96020830184611870565b9392505050565b60008083356001602003843603038112611fed57611fec6125ec565b5b80840192508235915067ffffffffffffffff82111561200f5761200e6125e2565b5b60208301925060208202360383131561202b5761202a6125fb565b5b509250929050565b600080833560016020038436030381126120505761204f6125ec565b5b80840192508235915067ffffffffffffffff821115612072576120716125e2565b5b60208301925060018202360383131561208e5761208d6125fb565b5b509250929050565b6000823560016080038336030381126120b2576120b16125ec565b5b80830191505092915050565b6000819050919050565b600081519050919050565b600081519050919050565b6000602082019050919050565b600082825260208201905092915050565b600082825260208201905092915050565b600082825260208201905092915050565b600081905092915050565b600082825260208201905092915050565b600081905092915050565b600061215460208401846112af565b905092915050565b600080833560016020038436030381126121795761217861260a565b5b83810192508235915060208301925067ffffffffffffffff8211156121a1576121a06125d3565b5b6001820236038413156121b7576121b66125f1565b5b509250929050565b6000823560016080038336030381126121db576121da61260a565b5b82810191505092915050565b60006121f66020840184611436565b905092915050565b600061220d6020840184611460565b905092915050565b6000612220826123e1565b915061222b836123e1565b9250827fffffffffffffffffffffffffffffffffffffffffffffffffffffffffffffffff038211156122605761225f612546565b5b828201905092915050565b6000612276826123fb565b9150612281836123fb565b92508267ffffffffffffffff0382111561229e5761229d612546565b5b828201905092915050565b60006122b4826123e1565b91506122bf836123e1565b9250817fffffffffffffffffffffffffffffffffffffffffffffffffffffffffffffffff04831182151516156122f8576122f7612546565b5b828202905092915050565b600061230e826123c1565b9050919050565b6000612320826123c1565b9050919050565b60008115159050919050565b60007fffff00000000000000000000000000000000000000000000000000000000000082169050919050565b6000819050919050565b60007fffffffff0000000000000000000000000000000000000000000000000000000082169050919050565b60007fffffffffffffffff00000000000000000000000000000000000000000000000082169050919050565b600073ffffffffffffffffffffffffffffffffffffffff82169050919050565b6000819050919050565b600063ffffffff82169050919050565b600067ffffffffffffffff82169050919050565b600061241a82612445565b9050919050565b600061242c82612433565b9050919050565b600061243e826123c1565b9050919050565b600061245082612457565b9050919050565b6000612462826123c1565b9050919050565b82818337600083830152505050565b60005b8381101561249657808201518184015260208101905061247b565b838111156124a5576000848401525b50505050565b60006124b6826123e1565b915060008214156124ca576124c9612546565b5b600182039050919050565b60006124e0826123e1565b91507fffffffffffffffffffffffffffffffffffffffffffffffffffffffffffffffff82141561251357612512612546565b5b600182019050919050565b6000819050919050565b6000819050919050565b6000819050919050565b6000819050919050565b7f4e487b7100000000000000000000000000000000000000000000000000000000600052601160045260246000fd5b7f4e487b7100000000000000000000000000000000000000000000000000000000600052603260045260246000fd5b7f4e487b7100000000000000000000000000000000000000000000000000000000600052604160045260246000fd5b600080fd5b600080fd5b600080fd5b600080fd5b600080fd5b600080fd5b600080fd5b600080fd5b600080fd5b600080fd5b600080fd5b600080fd5b600080fd5b6000601f19601f8301169050919050565b7f537472696e67733a20686578206c656e67746820696e73756666696369656e74600082015250565b7f696e76616c6964206e6f6e636500000000000000000000000000000000000000600082015250565b7f696e73756666696369656e742067617320666f722064656c6976657279206f6660008201527f20616c6c206d6573736167657300000000000000000000000000000000000000602082015250565b7f416363657373436f6e74726f6c3a206163636f756e7420000000000000000000600082015250565b7f43616c6c657220697320756e617574686f72697a656400000000000000000000600082015250565b7f206973206d697373696e6720726f6c6520000000000000000000000000000000600082015250565b7f416363657373436f6e74726f6c3a2063616e206f6e6c792072656e6f756e636560008201527f20726f6c657320666f722073656c660000000000000000000000000000000000602082015250565b61279981612303565b81146127a457600080fd5b50565b6127b08161235f565b81146127bb57600080fd5b50565b6127c781612369565b81146127d257600080fd5b50565b6127de81612395565b81146127e957600080fd5b50565b6127f5816123e1565b811461280057600080fd5b50565b61280c816123eb565b811461281757600080fd5b50565b612823816123fb565b811461282e57600080fd5b5056fea26469706673582212206a9a4e6c0ec9c8bc1a52144a046aa5d3d9f0fa0357a0ac69a35d9b2b0df03e4264736f6c63430008060033",
  "linkReferences": {
    "contracts/ScaleCodec.sol": {
      "ScaleCodec": [
        {
          "length": 20,
          "start": 4981
        },
        {
          "length": 20,
          "start": 5140
        },
        {
          "length": 20,
          "start": 5293
        }
      ]
    },
    "contracts/utils/MerkleProof.sol": {
      "MerkleProof": [
        {
          "length": 20,
          "start": 3208
        }
      ]
    }
  },
  "deployedLinkReferences": {
    "contracts/ScaleCodec.sol": {
      "ScaleCodec": [
        {
          "length": 20,
          "start": 4222
        },
        {
          "length": 20,
          "start": 4381
        },
        {
          "length": 20,
          "start": 4534
        }
      ]
    },
    "contracts/utils/MerkleProof.sol": {
      "MerkleProof": [
        {
          "length": 20,
          "start": 2449
        }
      ]
    }
  }
}