{
  "contractName": "IncentivizedOutboundChannel",
  "abi": [
    {
      "inputs": [],
      "stateMutability": "nonpayable",
      "type": "constructor"
    },
    {
      "anonymous": false,
      "inputs": [
        {
          "indexed": false,
          "internalType": "uint256",
          "name": "oldFee",
          "type": "uint256"
        },
        {
          "indexed": false,
          "internalType": "uint256",
          "name": "newFee",
          "type": "uint256"
        }
      ],
      "name": "FeeChanged",
      "type": "event"
    },
    {
      "anonymous": false,
      "inputs": [
        {
          "indexed": false,
          "internalType": "address",
          "name": "source",
          "type": "address"
        },
        {
          "indexed": false,
          "internalType": "uint64",
          "name": "nonce",
          "type": "uint64"
        },
        {
          "indexed": false,
          "internalType": "uint256",
          "name": "fee",
          "type": "uint256"
        },
        {
          "indexed": false,
          "internalType": "bytes",
          "name": "payload",
          "type": "bytes"
        }
      ],
      "name": "Message",
      "type": "event"
    },
    {
      "anonymous": false,
      "inputs": [
        {
          "indexed": false,
          "internalType": "address",
          "name": "operator",
          "type": "address"
        },
        {
          "indexed": false,
          "internalType": "address",
          "name": "user",
          "type": "address"
        }
      ],
      "name": "OperatorAuthorized",
      "type": "event"
    },
    {
      "anonymous": false,
      "inputs": [
        {
          "indexed": false,
          "internalType": "address",
          "name": "operator",
          "type": "address"
        },
        {
          "indexed": false,
          "internalType": "address",
          "name": "user",
          "type": "address"
        }
      ],
      "name": "OperatorRevoked",
      "type": "event"
    },
    {
      "anonymous": false,
      "inputs": [
        {
          "indexed": true,
          "internalType": "bytes32",
          "name": "role",
          "type": "bytes32"
        },
        {
          "indexed": true,
          "internalType": "bytes32",
          "name": "previousAdminRole",
          "type": "bytes32"
        },
        {
          "indexed": true,
          "internalType": "bytes32",
          "name": "newAdminRole",
          "type": "bytes32"
        }
      ],
      "name": "RoleAdminChanged",
      "type": "event"
    },
    {
      "anonymous": false,
      "inputs": [
        {
          "indexed": true,
          "internalType": "bytes32",
          "name": "role",
          "type": "bytes32"
        },
        {
          "indexed": true,
          "internalType": "address",
          "name": "account",
          "type": "address"
        },
        {
          "indexed": true,
          "internalType": "address",
          "name": "sender",
          "type": "address"
        }
      ],
      "name": "RoleGranted",
      "type": "event"
    },
    {
      "anonymous": false,
      "inputs": [
        {
          "indexed": true,
          "internalType": "bytes32",
          "name": "role",
          "type": "bytes32"
        },
        {
          "indexed": true,
          "internalType": "address",
          "name": "account",
          "type": "address"
        },
        {
          "indexed": true,
          "internalType": "address",
          "name": "sender",
          "type": "address"
        }
      ],
      "name": "RoleRevoked",
      "type": "event"
    },
    {
      "inputs": [],
      "name": "CONFIG_UPDATE_ROLE",
      "outputs": [
        {
          "internalType": "bytes32",
          "name": "",
          "type": "bytes32"
        }
      ],
      "stateMutability": "view",
      "type": "function",
      "constant": true
    },
    {
      "inputs": [],
      "name": "DEFAULT_ADMIN_ROLE",
      "outputs": [
        {
          "internalType": "bytes32",
          "name": "",
          "type": "bytes32"
        }
      ],
      "stateMutability": "view",
      "type": "function",
      "constant": true
    },
    {
      "inputs": [
        {
          "internalType": "address",
          "name": "operator",
          "type": "address"
        }
      ],
      "name": "authorizeOperator",
      "outputs": [],
      "stateMutability": "nonpayable",
      "type": "function"
    },
    {
      "inputs": [
        {
          "internalType": "bytes32",
          "name": "role",
          "type": "bytes32"
        }
      ],
      "name": "getRoleAdmin",
      "outputs": [
        {
          "internalType": "bytes32",
          "name": "",
          "type": "bytes32"
        }
      ],
      "stateMutability": "view",
      "type": "function",
      "constant": true
    },
    {
      "inputs": [
        {
          "internalType": "bytes32",
          "name": "role",
          "type": "bytes32"
        },
        {
          "internalType": "uint256",
          "name": "index",
          "type": "uint256"
        }
      ],
      "name": "getRoleMember",
      "outputs": [
        {
          "internalType": "address",
          "name": "",
          "type": "address"
        }
      ],
      "stateMutability": "view",
      "type": "function",
      "constant": true
    },
    {
      "inputs": [
        {
          "internalType": "bytes32",
          "name": "role",
          "type": "bytes32"
        }
      ],
      "name": "getRoleMemberCount",
      "outputs": [
        {
          "internalType": "uint256",
          "name": "",
          "type": "uint256"
        }
      ],
      "stateMutability": "view",
      "type": "function",
      "constant": true
    },
    {
      "inputs": [
        {
          "internalType": "bytes32",
          "name": "role",
          "type": "bytes32"
        },
        {
          "internalType": "address",
          "name": "account",
          "type": "address"
        }
      ],
      "name": "grantRole",
      "outputs": [],
      "stateMutability": "nonpayable",
      "type": "function"
    },
    {
      "inputs": [
        {
          "internalType": "bytes32",
          "name": "role",
          "type": "bytes32"
        },
        {
          "internalType": "address",
          "name": "account",
          "type": "address"
        }
      ],
      "name": "hasRole",
      "outputs": [
        {
          "internalType": "bool",
          "name": "",
          "type": "bool"
        }
      ],
      "stateMutability": "view",
      "type": "function",
      "constant": true
    },
    {
      "inputs": [
        {
          "internalType": "address",
          "name": "_operator",
          "type": "address"
        },
        {
          "internalType": "address",
          "name": "_origin",
          "type": "address"
        }
      ],
      "name": "isOperatorFor",
      "outputs": [
        {
          "internalType": "bool",
          "name": "",
          "type": "bool"
        }
      ],
      "stateMutability": "view",
      "type": "function",
      "constant": true
    },
    {
      "inputs": [],
      "name": "nonce",
      "outputs": [
        {
          "internalType": "uint64",
          "name": "",
          "type": "uint64"
        }
      ],
      "stateMutability": "view",
      "type": "function",
      "constant": true
    },
    {
      "inputs": [
        {
          "internalType": "bytes32",
          "name": "role",
          "type": "bytes32"
        },
        {
          "internalType": "address",
          "name": "account",
          "type": "address"
        }
      ],
      "name": "renounceRole",
      "outputs": [],
      "stateMutability": "nonpayable",
      "type": "function"
    },
    {
      "inputs": [
        {
          "internalType": "address",
          "name": "operator",
          "type": "address"
        }
      ],
      "name": "revokeOperator",
      "outputs": [],
      "stateMutability": "nonpayable",
      "type": "function"
    },
    {
      "inputs": [
        {
          "internalType": "bytes32",
          "name": "role",
          "type": "bytes32"
        },
        {
          "internalType": "address",
          "name": "account",
          "type": "address"
        }
      ],
      "name": "revokeRole",
      "outputs": [],
      "stateMutability": "nonpayable",
      "type": "function"
    },
    {
      "inputs": [
        {
          "internalType": "address",
          "name": "_configUpdater",
          "type": "address"
        },
        {
          "internalType": "address",
          "name": "_feeSource",
          "type": "address"
        },
        {
          "internalType": "address[]",
          "name": "defaultOperators",
          "type": "address[]"
        }
      ],
      "name": "initialize",
      "outputs": [],
      "stateMutability": "nonpayable",
      "type": "function"
    },
    {
      "inputs": [
        {
          "internalType": "uint256",
          "name": "_amount",
          "type": "uint256"
        }
      ],
      "name": "setFee",
      "outputs": [],
      "stateMutability": "nonpayable",
      "type": "function"
    },
    {
      "inputs": [
        {
          "internalType": "address",
          "name": "operator",
          "type": "address"
        }
      ],
      "name": "authorizeDefaultOperator",
      "outputs": [],
      "stateMutability": "nonpayable",
      "type": "function"
    },
    {
      "inputs": [
        {
          "internalType": "address",
          "name": "operator",
          "type": "address"
        }
      ],
      "name": "revokeDefaultOperator",
      "outputs": [],
      "stateMutability": "nonpayable",
      "type": "function"
    },
    {
      "inputs": [
        {
          "internalType": "address",
          "name": "feePayer",
          "type": "address"
        },
        {
          "internalType": "bytes",
          "name": "payload",
          "type": "bytes"
        }
      ],
      "name": "submit",
      "outputs": [],
      "stateMutability": "nonpayable",
      "type": "function"
    }
  ],
  "bytecode": "0x60806040523480156200001157600080fd5b50620000276000801b336200002d60201b60201c565b620001c4565b6200003f82826200004360201b60201c565b5050565b620000728160026000858152602001908152602001600020600001620000e760201b62000dbc1790919060201c565b15620000e357620000886200011f60201b60201c565b73ffffffffffffffffffffffffffffffffffffffff168173ffffffffffffffffffffffffffffffffffffffff16837f2f8788117e7eff1d82e926ec794901d17c78024a50270940304540a733656f0d60405160405180910390a45b5050565b600062000117836000018373ffffffffffffffffffffffffffffffffffffffff1660001b6200012760201b60201c565b905092915050565b600033905090565b60006200013b8383620001a160201b60201c565b620001965782600001829080600181540180825580915050600190039060005260206000200160009091909190915055826000018054905083600101600084815260200190815260200160002081905550600190506200019b565b600090505b92915050565b600080836001016000848152602001908152602001600020541415905092915050565b611bff80620001d46000396000f3fe608060405234801561001057600080fd5b50600436106101165760003560e01c8063959b8c3f116100a2578063b742a40411610071578063b742a404146102c9578063ca15c873146102e5578063d547741f14610315578063d95b637114610331578063fad8b32a1461036157610116565b8063959b8c3f14610253578063a217fddf1461026f578063a2d6c6e51461028d578063affed0e0146102ab57610116565b806369fe0e2d116100e957806369fe0e2d1461019f57806376846edd146101bb57806377a24f36146101d75780639010d07c146101f357806391d148541461022357610116565b8063248a9ca31461011b5780632a7534a31461014b5780632f2ff15d1461016757806336568abe14610183575b600080fd5b61013560048036038101906101309190611550565b61037d565b604051610142919061189d565b60405180910390f35b6101656004803603810190610160919061142c565b61039d565b005b610181600480360381019061017c9190611579565b610412565b005b61019d60048036038101906101989190611579565b61049c565b005b6101b960048036038101906101b491906115f1565b610535565b005b6101d560048036038101906101d091906114f8565b6105e3565b005b6101f160048036038101906101ec9190611491565b61075b565b005b61020d600480360381019061020891906115b5565b61085a565b60405161021a91906117c7565b60405180910390f35b61023d60048036038101906102389190611579565b61088c565b60405161024a9190611882565b60405180910390f35b61026d6004803603810190610268919061142c565b6108be565b005b6102776109fd565b604051610284919061189d565b60405180910390f35b610295610a04565b6040516102a2919061189d565b60405180910390f35b6102b3610a28565b6040516102c0919061197c565b60405180910390f35b6102e360048036038101906102de919061142c565b610a42565b005b6102ff60048036038101906102fa9190611550565b610ab7565b60405161030c9190611938565b60405180910390f35b61032f600480360381019061032a9190611579565b610ade565b005b61034b60048036038101906103469190611455565b610b68565b6040516103589190611882565b60405180910390f35b61037b6004803603810190610376919061142c565b610c85565b005b600060026000838152602001908152602001600020600201549050919050565b6103c77f32e4cdbcd9c00d473129ed98a14e66b6f3434febcbfd293f5af182c102b315f73361088c565b610406576040517f08c379a00000000000000000000000000000000000000000000000000000000081526004016103fd90611918565b60405180910390fd5b61040f81610dec565b50565b6104396002600084815260200190815260200160002060020154610434610ee5565b61088c565b61048e576040517f08c379a000000000000000000000000000000000000000000000000000000000815260040180806020018281038252602f815260200180611b3c602f913960400191505060405180910390fd5b6104988282610eed565b5050565b6104a4610ee5565b73ffffffffffffffffffffffffffffffffffffffff168173ffffffffffffffffffffffffffffffffffffffff1614610527576040517f08c379a000000000000000000000000000000000000000000000000000000000815260040180806020018281038252602f815260200180611b9b602f913960400191505060405180910390fd5b6105318282610f81565b5050565b61055f7f32e4cdbcd9c00d473129ed98a14e66b6f3434febcbfd293f5af182c102b315f73361088c565b61059e576040517f08c379a000000000000000000000000000000000000000000000000000000000815260040161059590611918565b60405180910390fd5b7f5fc463da23c1b063e66f9e352006a7fbe8db7223c455dc429e881a2dfe2f94f1600454826040516105d1929190611953565b60405180910390a18060048190555050565b6105ed3384610b68565b61062c576040517f08c379a0000000000000000000000000000000000000000000000000000000008152600401610623906118f8565b60405180910390fd5b600560009054906101000a900473ffffffffffffffffffffffffffffffffffffffff1673ffffffffffffffffffffffffffffffffffffffff16630c86269f846004546040518363ffffffff1660e01b815260040161068b929190611859565b600060405180830381600087803b1580156106a557600080fd5b505af11580156106b9573d6000803e3d6000fd5b505050506001600360009054906101000a900467ffffffffffffffff1601600360006101000a81548167ffffffffffffffff021916908367ffffffffffffffff1602179055507f5e9ae1d7c484f74d554a503aa825e823725531d97e784dd9b1aacdb58d1f707633600360009054906101000a900467ffffffffffffffff16600454858560405161074e9594939291906117e2565b60405180910390a1505050565b6107686000801b3361088c565b6107a7576040517f08c379a000000000000000000000000000000000000000000000000000000000815260040161079e90611918565b60405180910390fd5b81600560006101000a81548173ffffffffffffffffffffffffffffffffffffffff021916908373ffffffffffffffffffffffffffffffffffffffff1602179055506108127f32e4cdbcd9c00d473129ed98a14e66b6f3434febcbfd293f5af182c102b315f784610412565b60005b81518110156108475761083a82828151811061082d57fe5b6020026020010151611015565b8080600101915050610815565b506108556000801b3361049c565b505050565b6000610884826002600086815260200190815260200160002060000161106f90919063ffffffff16565b905092915050565b60006108b6826002600086815260200190815260200160002060000161108990919063ffffffff16565b905092915050565b8073ffffffffffffffffffffffffffffffffffffffff163373ffffffffffffffffffffffffffffffffffffffff16141561092d576040517f08c379a0000000000000000000000000000000000000000000000000000000008152600401610924906118d8565b60405180910390fd5b60018060003373ffffffffffffffffffffffffffffffffffffffff1673ffffffffffffffffffffffffffffffffffffffff16815260200190815260200160002060008373ffffffffffffffffffffffffffffffffffffffff1673ffffffffffffffffffffffffffffffffffffffff16815260200190815260200160002060006101000a81548160ff0219169083151502179055507f4d8c877a9def059a7322c328d7394f8640d101d29c811e10268b9b6125e9025381336040516109f2929190611830565b60405180910390a150565b6000801b81565b7f32e4cdbcd9c00d473129ed98a14e66b6f3434febcbfd293f5af182c102b315f781565b600360009054906101000a900467ffffffffffffffff1681565b610a6c7f32e4cdbcd9c00d473129ed98a14e66b6f3434febcbfd293f5af182c102b315f73361088c565b610aab576040517f08c379a0000000000000000000000000000000000000000000000000000000008152600401610aa290611918565b60405180910390fd5b610ab481611015565b50565b6000610ad7600260008481526020019081526020016000206000016110b9565b9050919050565b610b056002600084815260200190815260200160002060020154610b00610ee5565b61088c565b610b5a576040517f08c379a0000000000000000000000000000000000000000000000000000000008152600401808060200182810382526030815260200180611b6b6030913960400191505060405180910390fd5b610b648282610f81565b5050565b60008173ffffffffffffffffffffffffffffffffffffffff168373ffffffffffffffffffffffffffffffffffffffff161480610bec57506000808473ffffffffffffffffffffffffffffffffffffffff1673ffffffffffffffffffffffffffffffffffffffff16815260200190815260200160002060009054906101000a900460ff165b80610c7d5750600160008373ffffffffffffffffffffffffffffffffffffffff1673ffffffffffffffffffffffffffffffffffffffff16815260200190815260200160002060008473ffffffffffffffffffffffffffffffffffffffff1673ffffffffffffffffffffffffffffffffffffffff16815260200190815260200160002060009054906101000a900460ff165b905092915050565b8073ffffffffffffffffffffffffffffffffffffffff163373ffffffffffffffffffffffffffffffffffffffff161415610cf4576040517f08c379a0000000000000000000000000000000000000000000000000000000008152600401610ceb906118b8565b60405180910390fd5b600160003373ffffffffffffffffffffffffffffffffffffffff1673ffffffffffffffffffffffffffffffffffffffff16815260200190815260200160002060008273ffffffffffffffffffffffffffffffffffffffff1673ffffffffffffffffffffffffffffffffffffffff16815260200190815260200160002060006101000a81549060ff02191690557fa8082fae8d1bd57faeb4dde45721b46afb72c45e72e5deb2a355bd997f6251a98133604051610db1929190611830565b60405180910390a150565b6000610de4836000018373ffffffffffffffffffffffffffffffffffffffff1660001b6110ce565b905092915050565b8073ffffffffffffffffffffffffffffffffffffffff163373ffffffffffffffffffffffffffffffffffffffff161415610e5b576040517f08c379a0000000000000000000000000000000000000000000000000000000008152600401610e52906118b8565b60405180910390fd5b6000808273ffffffffffffffffffffffffffffffffffffffff1673ffffffffffffffffffffffffffffffffffffffff16815260200190815260200160002060006101000a81549060ff02191690557fa8082fae8d1bd57faeb4dde45721b46afb72c45e72e5deb2a355bd997f6251a98133604051610eda929190611830565b60405180910390a150565b600033905090565b610f158160026000858152602001908152602001600020600001610dbc90919063ffffffff16565b15610f7d57610f22610ee5565b73ffffffffffffffffffffffffffffffffffffffff168173ffffffffffffffffffffffffffffffffffffffff16837f2f8788117e7eff1d82e926ec794901d17c78024a50270940304540a733656f0d60405160405180910390a45b5050565b610fa9816002600085815260200190815260200160002060000161113e90919063ffffffff16565b1561101157610fb6610ee5565b73ffffffffffffffffffffffffffffffffffffffff168173ffffffffffffffffffffffffffffffffffffffff16837ff6391f5c32d9c69d2a47ea670b442974b53935d1edc7fd64eb21e047a839171b60405160405180910390a45b5050565b60016000808373ffffffffffffffffffffffffffffffffffffffff1673ffffffffffffffffffffffffffffffffffffffff16815260200190815260200160002060006101000a81548160ff02191690831515021790555050565b600061107e836000018361116e565b60001c905092915050565b60006110b1836000018373ffffffffffffffffffffffffffffffffffffffff1660001b6111f1565b905092915050565b60006110c782600001611214565b9050919050565b60006110da83836111f1565b611133578260000182908060018154018082558091505060019003906000526020600020016000909190919091505582600001805490508360010160008481526020019081526020016000208190555060019050611138565b600090505b92915050565b6000611166836000018373ffffffffffffffffffffffffffffffffffffffff1660001b611225565b905092915050565b6000818360000180549050116111cf576040517f08c379a0000000000000000000000000000000000000000000000000000000008152600401808060200182810382526022815260200180611b1a6022913960400191505060405180910390fd5b8260000182815481106111de57fe5b9060005260206000200154905092915050565b600080836001016000848152602001908152602001600020541415905092915050565b600081600001805490509050919050565b60008083600101600084815260200190815260200160002054905060008114611301576000600182039050600060018660000180549050039050600086600001828154811061127057fe5b906000526020600020015490508087600001848154811061128d57fe5b90600052602060002001819055506001830187600101600083815260200190815260200160002081905550866000018054806112c557fe5b60019003818190600052602060002001600090559055866001016000878152602001908152602001600020600090556001945050505050611307565b60009150505b92915050565b600061132061131b846119c8565b611997565b9050808382526020820190508285602086028201111561133f57600080fd5b60005b8581101561136f57816113558882611379565b845260208401935060208301925050600181019050611342565b5050509392505050565b60008135905061138881611ad4565b92915050565b600082601f83011261139f57600080fd5b81356113af84826020860161130d565b91505092915050565b6000813590506113c781611aeb565b92915050565b60008083601f8401126113df57600080fd5b8235905067ffffffffffffffff8111156113f857600080fd5b60208301915083600182028301111561141057600080fd5b9250929050565b60008135905061142681611b02565b92915050565b60006020828403121561143e57600080fd5b600061144c84828501611379565b91505092915050565b6000806040838503121561146857600080fd5b600061147685828601611379565b925050602061148785828601611379565b9150509250929050565b6000806000606084860312156114a657600080fd5b60006114b486828701611379565b93505060206114c586828701611379565b925050604084013567ffffffffffffffff8111156114e257600080fd5b6114ee8682870161138e565b9150509250925092565b60008060006040848603121561150d57600080fd5b600061151b86828701611379565b935050602084013567ffffffffffffffff81111561153857600080fd5b611544868287016113cd565b92509250509250925092565b60006020828403121561156257600080fd5b6000611570848285016113b8565b91505092915050565b6000806040838503121561158c57600080fd5b600061159a858286016113b8565b92505060206115ab85828601611379565b9150509250929050565b600080604083850312156115c857600080fd5b60006115d6858286016113b8565b92505060206115e785828601611417565b9150509250929050565b60006020828403121561160357600080fd5b600061161184828501611417565b91505092915050565b61162381611a7c565b82525050565b61163281611a16565b82525050565b61164181611a28565b82525050565b61165081611a34565b82525050565b600061166283856119f4565b935061166f838584611ab2565b61167883611ac3565b840190509392505050565b6000611690601983611a05565b91507f5265766f6b696e672073656c66206173206f70657261746f72000000000000006000830152602082019050919050565b60006116d0601c83611a05565b91507f417574686f72697a696e672073656c66206173206f70657261746f72000000006000830152602082019050919050565b6000611710602783611a05565b91507f43616c6c6572206973206e6f7420616e206f70657261746f7220666f7220666560008301527f65207061796572000000000000000000000000000000000000000000000000006020830152604082019050919050565b6000611776601683611a05565b91507f43616c6c657220697320756e617574686f72697a6564000000000000000000006000830152602082019050919050565b6117b281611a5e565b82525050565b6117c181611a68565b82525050565b60006020820190506117dc6000830184611629565b92915050565b60006080820190506117f7600083018861161a565b61180460208301876117b8565b61181160408301866117a9565b8181036060830152611824818486611656565b90509695505050505050565b60006040820190506118456000830185611629565b611852602083018461161a565b9392505050565b600060408201905061186e6000830185611629565b61187b60208301846117a9565b9392505050565b60006020820190506118976000830184611638565b92915050565b60006020820190506118b26000830184611647565b92915050565b600060208201905081810360008301526118d181611683565b9050919050565b600060208201905081810360008301526118f1816116c3565b9050919050565b6000602082019050818103600083015261191181611703565b9050919050565b6000602082019050818103600083015261193181611769565b9050919050565b600060208201905061194d60008301846117a9565b92915050565b600060408201905061196860008301856117a9565b61197560208301846117a9565b9392505050565b600060208201905061199160008301846117b8565b92915050565b6000604051905081810181811067ffffffffffffffff821117156119be576119bd611ac1565b5b8060405250919050565b600067ffffffffffffffff8211156119e3576119e2611ac1565b5b602082029050602081019050919050565b600082825260208201905092915050565b600082825260208201905092915050565b6000611a2182611a3e565b9050919050565b60008115159050919050565b6000819050919050565b600073ffffffffffffffffffffffffffffffffffffffff82169050919050565b6000819050919050565b600067ffffffffffffffff82169050919050565b6000611a8782611a8e565b9050919050565b6000611a9982611aa0565b9050919050565b6000611aab82611a3e565b9050919050565b82818337600083830152505050565bfe5b6000601f19601f8301169050919050565b611add81611a16565b8114611ae857600080fd5b50565b611af481611a34565b8114611aff57600080fd5b50565b611b0b81611a5e565b8114611b1657600080fd5b5056fe456e756d657261626c655365743a20696e646578206f7574206f6620626f756e6473416363657373436f6e74726f6c3a2073656e646572206d75737420626520616e2061646d696e20746f206772616e74416363657373436f6e74726f6c3a2073656e646572206d75737420626520616e2061646d696e20746f207265766f6b65416363657373436f6e74726f6c3a2063616e206f6e6c792072656e6f756e636520726f6c657320666f722073656c66a264697066735822122079bb3ff3937bc53e4f51f2c5a20c022aecf5ad99a41a437ad021a32cbd76c08664736f6c63430007060033",
  "immutableReferences": {},
  "source": "// SPDX-License-Identifier: MIT\npragma solidity >=0.7.6;\npragma experimental ABIEncoderV2;\n\nimport \"@openzeppelin/contracts/access/AccessControl.sol\";\nimport \"./OutboundChannel.sol\";\nimport \"./ChannelAccess.sol\";\nimport \"./FeeSource.sol\";\n\n// IncentivizedOutboundChannel is a channel that sends ordered messages with an increasing nonce. It will have incentivization too.\ncontract IncentivizedOutboundChannel is OutboundChannel, ChannelAccess, AccessControl {\n\n    // Governance contracts will administer using this role.\n    bytes32 public constant CONFIG_UPDATE_ROLE = keccak256(\"CONFIG_UPDATE_ROLE\");\n\n    // Nonce for last submitted message\n    uint64 public nonce;\n\n    uint256 private fee;\n    FeeSource private feeSource;\n\n    event Message(\n        address source,\n        uint64  nonce,\n        uint256 fee,\n        bytes   payload\n    );\n\n    event FeeChanged(\n        uint256 oldFee,\n        uint256 newFee\n    );\n\n    constructor() {\n        _setupRole(DEFAULT_ADMIN_ROLE, msg.sender);\n    }\n\n    // Once-off post-construction call to set initial configuration.\n    function initialize(\n        address _configUpdater,\n        address _feeSource,\n        address[] memory defaultOperators\n    )\n    external {\n        require(hasRole(DEFAULT_ADMIN_ROLE, msg.sender), \"Caller is unauthorized\");\n\n        // Set initial configuration\n        feeSource = FeeSource(_feeSource);\n        grantRole(CONFIG_UPDATE_ROLE, _configUpdater);\n        for (uint i = 0; i < defaultOperators.length; i++) {\n            _authorizeDefaultOperator(defaultOperators[i]);\n        }\n\n        // drop admin privileges\n        renounceRole(DEFAULT_ADMIN_ROLE, msg.sender);\n    }\n\n    // Update message submission fee.\n    function setFee(uint256 _amount) external {\n        require(hasRole(CONFIG_UPDATE_ROLE, msg.sender), \"Caller is unauthorized\");\n        emit FeeChanged(fee, _amount);\n        fee = _amount;\n    }\n\n    // Authorize an operator/app to submit messages for *all* users.\n    function authorizeDefaultOperator(address operator) external {\n        require(hasRole(CONFIG_UPDATE_ROLE, msg.sender), \"Caller is unauthorized\");\n        _authorizeDefaultOperator(operator);\n    }\n\n    // Revoke authorization.\n    function revokeDefaultOperator(address operator) external {\n        require(hasRole(CONFIG_UPDATE_ROLE, msg.sender), \"Caller is unauthorized\");\n        _revokeDefaultOperator(operator);\n    }\n\n    /**\n     * @dev Sends a message across the channel\n     */\n    function submit(address feePayer, bytes calldata payload) external override {\n        require(isOperatorFor(msg.sender, feePayer), \"Caller is not an operator for fee payer\");\n        feeSource.burnFee(feePayer, fee);\n        nonce = nonce + 1;\n        emit Message(msg.sender, nonce, fee, payload);\n    }\n}\n",
  "sourcePath": "/home/jamie/dev/clients/snowfork/polkadot-ethereum/ethereum/contracts/IncentivizedOutboundChannel.sol",
  "compiler": {
    "name": "solc",
    "version": "0.7.6+commit.7338295f.Emscripten.clang"
  },
  "schemaVersion": "3.2.5",
  "updatedAt": "2021-04-12T09:16:36.115Z",
  "networkType": "ethereum",
  "devdoc": {
    "kind": "dev",
    "methods": {
      "getRoleAdmin(bytes32)": {
        "details": "Returns the admin role that controls `role`. See {grantRole} and {revokeRole}. To change a role's admin, use {_setRoleAdmin}."
      },
      "getRoleMember(bytes32,uint256)": {
        "details": "Returns one of the accounts that have `role`. `index` must be a value between 0 and {getRoleMemberCount}, non-inclusive. Role bearers are not sorted in any particular way, and their ordering may change at any point. WARNING: When using {getRoleMember} and {getRoleMemberCount}, make sure you perform all queries on the same block. See the following https://forum.openzeppelin.com/t/iterating-over-elements-on-enumerableset-in-openzeppelin-contracts/2296[forum post] for more information."
      },
      "getRoleMemberCount(bytes32)": {
        "details": "Returns the number of accounts that have `role`. Can be used together with {getRoleMember} to enumerate all bearers of a role."
      },
      "grantRole(bytes32,address)": {
        "details": "Grants `role` to `account`. If `account` had not been already granted `role`, emits a {RoleGranted} event. Requirements: - the caller must have ``role``'s admin role."
      },
      "hasRole(bytes32,address)": {
        "details": "Returns `true` if `account` has been granted `role`."
      },
      "renounceRole(bytes32,address)": {
        "details": "Revokes `role` from the calling account. Roles are often managed via {grantRole} and {revokeRole}: this function's purpose is to provide a mechanism for accounts to lose their privileges if they are compromised (such as when a trusted device is misplaced). If the calling account had been granted `role`, emits a {RoleRevoked} event. Requirements: - the caller must be `account`."
      },
      "revokeRole(bytes32,address)": {
        "details": "Revokes `role` from `account`. If `account` had been granted `role`, emits a {RoleRevoked} event. Requirements: - the caller must have ``role``'s admin role."
      },
      "submit(address,bytes)": {
        "details": "Sends a message across the channel"
      }
    },
    "version": 1
  },
  "userdoc": {
    "kind": "user",
    "methods": {},
    "version": 1
  }
}