{
  "_format": "hh-sol-artifact-1",
  "contractName": "IncentivizedOutboundChannel",
  "sourceName": "contracts/IncentivizedOutboundChannel.sol",
  "abi": [
    {
      "inputs": [],
      "stateMutability": "nonpayable",
      "type": "constructor"
    },
    {
      "anonymous": false,
      "inputs": [
        {
          "indexed": false,
          "internalType": "uint256",
          "name": "oldFee",
          "type": "uint256"
        },
        {
          "indexed": false,
          "internalType": "uint256",
          "name": "newFee",
          "type": "uint256"
        }
      ],
      "name": "FeeChanged",
      "type": "event"
    },
    {
      "anonymous": false,
      "inputs": [
        {
          "indexed": false,
          "internalType": "address",
          "name": "source",
          "type": "address"
        },
        {
          "indexed": false,
          "internalType": "uint64",
          "name": "nonce",
          "type": "uint64"
        },
        {
          "indexed": false,
          "internalType": "uint256",
          "name": "fee",
          "type": "uint256"
        },
        {
          "indexed": false,
          "internalType": "bytes",
          "name": "payload",
          "type": "bytes"
        }
      ],
      "name": "Message",
      "type": "event"
    },
    {
      "anonymous": false,
      "inputs": [
        {
          "indexed": false,
          "internalType": "address",
          "name": "operator",
          "type": "address"
        },
        {
          "indexed": false,
          "internalType": "address",
          "name": "user",
          "type": "address"
        }
      ],
      "name": "OperatorAuthorized",
      "type": "event"
    },
    {
      "anonymous": false,
      "inputs": [
        {
          "indexed": false,
          "internalType": "address",
          "name": "operator",
          "type": "address"
        },
        {
          "indexed": false,
          "internalType": "address",
          "name": "user",
          "type": "address"
        }
      ],
      "name": "OperatorRevoked",
      "type": "event"
    },
    {
      "anonymous": false,
      "inputs": [
        {
          "indexed": true,
          "internalType": "bytes32",
          "name": "role",
          "type": "bytes32"
        },
        {
          "indexed": true,
          "internalType": "bytes32",
          "name": "previousAdminRole",
          "type": "bytes32"
        },
        {
          "indexed": true,
          "internalType": "bytes32",
          "name": "newAdminRole",
          "type": "bytes32"
        }
      ],
      "name": "RoleAdminChanged",
      "type": "event"
    },
    {
      "anonymous": false,
      "inputs": [
        {
          "indexed": true,
          "internalType": "bytes32",
          "name": "role",
          "type": "bytes32"
        },
        {
          "indexed": true,
          "internalType": "address",
          "name": "account",
          "type": "address"
        },
        {
          "indexed": true,
          "internalType": "address",
          "name": "sender",
          "type": "address"
        }
      ],
      "name": "RoleGranted",
      "type": "event"
    },
    {
      "anonymous": false,
      "inputs": [
        {
          "indexed": true,
          "internalType": "bytes32",
          "name": "role",
          "type": "bytes32"
        },
        {
          "indexed": true,
          "internalType": "address",
          "name": "account",
          "type": "address"
        },
        {
          "indexed": true,
          "internalType": "address",
          "name": "sender",
          "type": "address"
        }
      ],
      "name": "RoleRevoked",
      "type": "event"
    },
    {
      "inputs": [],
      "name": "CONFIG_UPDATE_ROLE",
      "outputs": [
        {
          "internalType": "bytes32",
          "name": "",
          "type": "bytes32"
        }
      ],
      "stateMutability": "view",
      "type": "function"
    },
    {
      "inputs": [],
      "name": "DEFAULT_ADMIN_ROLE",
      "outputs": [
        {
          "internalType": "bytes32",
          "name": "",
          "type": "bytes32"
        }
      ],
      "stateMutability": "view",
      "type": "function"
    },
    {
      "inputs": [
        {
          "internalType": "address",
          "name": "operator",
          "type": "address"
        }
      ],
      "name": "authorizeDefaultOperator",
      "outputs": [],
      "stateMutability": "nonpayable",
      "type": "function"
    },
    {
      "inputs": [
        {
          "internalType": "address",
          "name": "operator",
          "type": "address"
        }
      ],
      "name": "authorizeOperator",
      "outputs": [],
      "stateMutability": "nonpayable",
      "type": "function"
    },
    {
      "inputs": [
        {
          "internalType": "bytes32",
          "name": "role",
          "type": "bytes32"
        }
      ],
      "name": "getRoleAdmin",
      "outputs": [
        {
          "internalType": "bytes32",
          "name": "",
          "type": "bytes32"
        }
      ],
      "stateMutability": "view",
      "type": "function"
    },
    {
      "inputs": [
        {
          "internalType": "bytes32",
          "name": "role",
          "type": "bytes32"
        },
        {
          "internalType": "address",
          "name": "account",
          "type": "address"
        }
      ],
      "name": "grantRole",
      "outputs": [],
      "stateMutability": "nonpayable",
      "type": "function"
    },
    {
      "inputs": [
        {
          "internalType": "bytes32",
          "name": "role",
          "type": "bytes32"
        },
        {
          "internalType": "address",
          "name": "account",
          "type": "address"
        }
      ],
      "name": "hasRole",
      "outputs": [
        {
          "internalType": "bool",
          "name": "",
          "type": "bool"
        }
      ],
      "stateMutability": "view",
      "type": "function"
    },
    {
      "inputs": [
        {
          "internalType": "address",
          "name": "_configUpdater",
          "type": "address"
        },
        {
          "internalType": "address",
          "name": "_feeSource",
          "type": "address"
        },
        {
          "internalType": "address[]",
          "name": "defaultOperators",
          "type": "address[]"
        }
      ],
      "name": "initialize",
      "outputs": [],
      "stateMutability": "nonpayable",
      "type": "function"
    },
    {
      "inputs": [
        {
          "internalType": "address",
          "name": "_operator",
          "type": "address"
        },
        {
          "internalType": "address",
          "name": "_origin",
          "type": "address"
        }
      ],
      "name": "isOperatorFor",
      "outputs": [
        {
          "internalType": "bool",
          "name": "",
          "type": "bool"
        }
      ],
      "stateMutability": "view",
      "type": "function"
    },
    {
      "inputs": [],
      "name": "nonce",
      "outputs": [
        {
          "internalType": "uint64",
          "name": "",
          "type": "uint64"
        }
      ],
      "stateMutability": "view",
      "type": "function"
    },
    {
      "inputs": [
        {
          "internalType": "bytes32",
          "name": "role",
          "type": "bytes32"
        },
        {
          "internalType": "address",
          "name": "account",
          "type": "address"
        }
      ],
      "name": "renounceRole",
      "outputs": [],
      "stateMutability": "nonpayable",
      "type": "function"
    },
    {
      "inputs": [
        {
          "internalType": "address",
          "name": "operator",
          "type": "address"
        }
      ],
      "name": "revokeDefaultOperator",
      "outputs": [],
      "stateMutability": "nonpayable",
      "type": "function"
    },
    {
      "inputs": [
        {
          "internalType": "address",
          "name": "operator",
          "type": "address"
        }
      ],
      "name": "revokeOperator",
      "outputs": [],
      "stateMutability": "nonpayable",
      "type": "function"
    },
    {
      "inputs": [
        {
          "internalType": "bytes32",
          "name": "role",
          "type": "bytes32"
        },
        {
          "internalType": "address",
          "name": "account",
          "type": "address"
        }
      ],
      "name": "revokeRole",
      "outputs": [],
      "stateMutability": "nonpayable",
      "type": "function"
    },
    {
      "inputs": [
        {
          "internalType": "uint256",
          "name": "_amount",
          "type": "uint256"
        }
      ],
      "name": "setFee",
      "outputs": [],
      "stateMutability": "nonpayable",
      "type": "function"
    },
    {
      "inputs": [
        {
          "internalType": "address",
          "name": "feePayer",
          "type": "address"
        },
        {
          "internalType": "bytes",
          "name": "payload",
          "type": "bytes"
        }
      ],
      "name": "submit",
      "outputs": [],
      "stateMutability": "nonpayable",
      "type": "function"
    },
    {
      "inputs": [
        {
          "internalType": "bytes4",
          "name": "interfaceId",
          "type": "bytes4"
        }
      ],
      "name": "supportsInterface",
      "outputs": [
        {
          "internalType": "bool",
          "name": "",
          "type": "bool"
        }
      ],
      "stateMutability": "view",
      "type": "function"
    }
  ],
  "bytecode": "0x60806040523480156200001157600080fd5b50620000276000801b336200002d60201b60201c565b620001a8565b6200003f82826200004360201b60201c565b5050565b6200005582826200013560201b60201c565b620001315760016002600084815260200190815260200160002060000160008373ffffffffffffffffffffffffffffffffffffffff1673ffffffffffffffffffffffffffffffffffffffff16815260200190815260200160002060006101000a81548160ff021916908315150217905550620000d6620001a060201b60201c565b73ffffffffffffffffffffffffffffffffffffffff168173ffffffffffffffffffffffffffffffffffffffff16837f2f8788117e7eff1d82e926ec794901d17c78024a50270940304540a733656f0d60405160405180910390a45b5050565b60006002600084815260200190815260200160002060000160008373ffffffffffffffffffffffffffffffffffffffff1673ffffffffffffffffffffffffffffffffffffffff16815260200190815260200160002060009054906101000a900460ff16905092915050565b600033905090565b6120c180620001b86000396000f3fe608060405234801561001057600080fd5b506004361061010b5760003560e01c806391d14854116100a2578063affed0e011610071578063affed0e0146102a0578063b742a404146102be578063d547741f146102da578063d95b6371146102f6578063fad8b32a146103265761010b565b806391d1485414610218578063959b8c3f14610248578063a217fddf14610264578063a2d6c6e5146102825761010b565b806336568abe116100de57806336568abe146101a857806369fe0e2d146101c457806376846edd146101e057806377a24f36146101fc5761010b565b806301ffc9a714610110578063248a9ca3146101405780632a7534a3146101705780632f2ff15d1461018c575b600080fd5b61012a6004803603810190610125919061166b565b610342565b6040516101379190611999565b60405180910390f35b61015a600480360381019061015591906115fe565b6103bc565b60405161016791906119b4565b60405180910390f35b61018a600480360381019061018591906114c2565b6103dc565b005b6101a660048036038101906101a1919061162b565b610451565b005b6101c260048036038101906101bd919061162b565b61047a565b005b6101de60048036038101906101d99190611698565b6104fd565b005b6101fa60048036038101906101f5919061159e565b6105ab565b005b6102166004803603810190610211919061152f565b61072c565b005b610232600480360381019061022d919061162b565b610838565b60405161023f9190611999565b60405180910390f35b610262600480360381019061025d91906114c2565b6108a3565b005b61026c6109e2565b60405161027991906119b4565b60405180910390f35b61028a6109e9565b60405161029791906119b4565b60405180910390f35b6102a8610a0d565b6040516102b59190611ada565b60405180910390f35b6102d860048036038101906102d391906114c2565b610a27565b005b6102f460048036038101906102ef919061162b565b610a9c565b005b610310600480360381019061030b91906114ef565b610ac5565b60405161031d9190611999565b60405180910390f35b610340600480360381019061033b91906114c2565b610be2565b005b60007f7965db0b000000000000000000000000000000000000000000000000000000007bffffffffffffffffffffffffffffffffffffffffffffffffffffffff1916827bffffffffffffffffffffffffffffffffffffffffffffffffffffffff191614806103b557506103b482610d19565b5b9050919050565b600060026000838152602001908152602001600020600101549050919050565b6104067f32e4cdbcd9c00d473129ed98a14e66b6f3434febcbfd293f5af182c102b315f733610838565b610445576040517f08c379a000000000000000000000000000000000000000000000000000000000815260040161043c90611a71565b60405180910390fd5b61044e81610d83565b50565b61045a826103bc565b61046b81610466610e7c565b610e84565b6104758383610f21565b505050565b610482610e7c565b73ffffffffffffffffffffffffffffffffffffffff168173ffffffffffffffffffffffffffffffffffffffff16146104ef576040517f08c379a00000000000000000000000000000000000000000000000000000000081526004016104e690611a91565b60405180910390fd5b6104f98282611002565b5050565b6105277f32e4cdbcd9c00d473129ed98a14e66b6f3434febcbfd293f5af182c102b315f733610838565b610566576040517f08c379a000000000000000000000000000000000000000000000000000000000815260040161055d90611a71565b60405180910390fd5b7f5fc463da23c1b063e66f9e352006a7fbe8db7223c455dc429e881a2dfe2f94f160045482604051610599929190611ab1565b60405180910390a18060048190555050565b6105b53384610ac5565b6105f4576040517f08c379a00000000000000000000000000000000000000000000000000000000081526004016105eb90611a51565b60405180910390fd5b600560009054906101000a900473ffffffffffffffffffffffffffffffffffffffff1673ffffffffffffffffffffffffffffffffffffffff16630c86269f846004546040518363ffffffff1660e01b8152600401610653929190611922565b600060405180830381600087803b15801561066d57600080fd5b505af1158015610681573d6000803e3d6000fd5b505050506001600360009054906101000a900467ffffffffffffffff166106a89190611bd4565b600360006101000a81548167ffffffffffffffff021916908367ffffffffffffffff1602179055507f5e9ae1d7c484f74d554a503aa825e823725531d97e784dd9b1aacdb58d1f707633600360009054906101000a900467ffffffffffffffff16600454858560405161071f95949392919061194b565b60405180910390a1505050565b6107396000801b33610838565b610778576040517f08c379a000000000000000000000000000000000000000000000000000000000815260040161076f90611a71565b60405180910390fd5b81600560006101000a81548173ffffffffffffffffffffffffffffffffffffffff021916908373ffffffffffffffffffffffffffffffffffffffff1602179055506107e37f32e4cdbcd9c00d473129ed98a14e66b6f3434febcbfd293f5af182c102b315f784610451565b60005b81518110156108255761081282828151811061080557610804611e13565b5b60200260200101516110e4565b808061081d90611d9b565b9150506107e6565b506108336000801b3361047a565b505050565b60006002600084815260200190815260200160002060000160008373ffffffffffffffffffffffffffffffffffffffff1673ffffffffffffffffffffffffffffffffffffffff16815260200190815260200160002060009054906101000a900460ff16905092915050565b8073ffffffffffffffffffffffffffffffffffffffff163373ffffffffffffffffffffffffffffffffffffffff161415610912576040517f08c379a000000000000000000000000000000000000000000000000000000000815260040161090990611a31565b60405180910390fd5b60018060003373ffffffffffffffffffffffffffffffffffffffff1673ffffffffffffffffffffffffffffffffffffffff16815260200190815260200160002060008373ffffffffffffffffffffffffffffffffffffffff1673ffffffffffffffffffffffffffffffffffffffff16815260200190815260200160002060006101000a81548160ff0219169083151502179055507f4d8c877a9def059a7322c328d7394f8640d101d29c811e10268b9b6125e9025381336040516109d79291906118f9565b60405180910390a150565b6000801b81565b7f32e4cdbcd9c00d473129ed98a14e66b6f3434febcbfd293f5af182c102b315f781565b600360009054906101000a900467ffffffffffffffff1681565b610a517f32e4cdbcd9c00d473129ed98a14e66b6f3434febcbfd293f5af182c102b315f733610838565b610a90576040517f08c379a0000000000000000000000000000000000000000000000000000000008152600401610a8790611a71565b60405180910390fd5b610a99816110e4565b50565b610aa5826103bc565b610ab681610ab1610e7c565b610e84565b610ac08383611002565b505050565b60008173ffffffffffffffffffffffffffffffffffffffff168373ffffffffffffffffffffffffffffffffffffffff161480610b4957506000808473ffffffffffffffffffffffffffffffffffffffff1673ffffffffffffffffffffffffffffffffffffffff16815260200190815260200160002060009054906101000a900460ff165b80610bda5750600160008373ffffffffffffffffffffffffffffffffffffffff1673ffffffffffffffffffffffffffffffffffffffff16815260200190815260200160002060008473ffffffffffffffffffffffffffffffffffffffff1673ffffffffffffffffffffffffffffffffffffffff16815260200190815260200160002060009054906101000a900460ff165b905092915050565b8073ffffffffffffffffffffffffffffffffffffffff163373ffffffffffffffffffffffffffffffffffffffff161415610c51576040517f08c379a0000000000000000000000000000000000000000000000000000000008152600401610c4890611a11565b60405180910390fd5b600160003373ffffffffffffffffffffffffffffffffffffffff1673ffffffffffffffffffffffffffffffffffffffff16815260200190815260200160002060008273ffffffffffffffffffffffffffffffffffffffff1673ffffffffffffffffffffffffffffffffffffffff16815260200190815260200160002060006101000a81549060ff02191690557fa8082fae8d1bd57faeb4dde45721b46afb72c45e72e5deb2a355bd997f6251a98133604051610d0e9291906118f9565b60405180910390a150565b60007f01ffc9a7000000000000000000000000000000000000000000000000000000007bffffffffffffffffffffffffffffffffffffffffffffffffffffffff1916827bffffffffffffffffffffffffffffffffffffffffffffffffffffffff1916149050919050565b8073ffffffffffffffffffffffffffffffffffffffff163373ffffffffffffffffffffffffffffffffffffffff161415610df2576040517f08c379a0000000000000000000000000000000000000000000000000000000008152600401610de990611a11565b60405180910390fd5b6000808273ffffffffffffffffffffffffffffffffffffffff1673ffffffffffffffffffffffffffffffffffffffff16815260200190815260200160002060006101000a81549060ff02191690557fa8082fae8d1bd57faeb4dde45721b46afb72c45e72e5deb2a355bd997f6251a98133604051610e719291906118f9565b60405180910390a150565b600033905090565b610e8e8282610838565b610f1d57610eb38173ffffffffffffffffffffffffffffffffffffffff16601461113e565b610ec18360001c602061113e565b604051602001610ed29291906118bf565b6040516020818303038152906040526040517f08c379a0000000000000000000000000000000000000000000000000000000008152600401610f1491906119cf565b60405180910390fd5b5050565b610f2b8282610838565b610ffe5760016002600084815260200190815260200160002060000160008373ffffffffffffffffffffffffffffffffffffffff1673ffffffffffffffffffffffffffffffffffffffff16815260200190815260200160002060006101000a81548160ff021916908315150217905550610fa3610e7c565b73ffffffffffffffffffffffffffffffffffffffff168173ffffffffffffffffffffffffffffffffffffffff16837f2f8788117e7eff1d82e926ec794901d17c78024a50270940304540a733656f0d60405160405180910390a45b5050565b61100c8282610838565b156110e05760006002600084815260200190815260200160002060000160008373ffffffffffffffffffffffffffffffffffffffff1673ffffffffffffffffffffffffffffffffffffffff16815260200190815260200160002060006101000a81548160ff021916908315150217905550611085610e7c565b73ffffffffffffffffffffffffffffffffffffffff168173ffffffffffffffffffffffffffffffffffffffff16837ff6391f5c32d9c69d2a47ea670b442974b53935d1edc7fd64eb21e047a839171b60405160405180910390a45b5050565b60016000808373ffffffffffffffffffffffffffffffffffffffff1673ffffffffffffffffffffffffffffffffffffffff16815260200190815260200160002060006101000a81548160ff02191690831515021790555050565b6060600060028360026111519190611c12565b61115b9190611b7e565b67ffffffffffffffff81111561117457611173611e42565b5b6040519080825280601f01601f1916602001820160405280156111a65781602001600182028036833780820191505090505b5090507f3000000000000000000000000000000000000000000000000000000000000000816000815181106111de576111dd611e13565b5b60200101907effffffffffffffffffffffffffffffffffffffffffffffffffffffffffffff1916908160001a9053507f78000000000000000000000000000000000000000000000000000000000000008160018151811061124257611241611e13565b5b60200101907effffffffffffffffffffffffffffffffffffffffffffffffffffffffffffff1916908160001a905350600060018460026112829190611c12565b61128c9190611b7e565b90505b600181111561132c577f3031323334353637383961626364656600000000000000000000000000000000600f8616601081106112ce576112cd611e13565b5b1a60f81b8282815181106112e5576112e4611e13565b5b60200101907effffffffffffffffffffffffffffffffffffffffffffffffffffffffffffff1916908160001a905350600485901c94508061132590611d40565b905061128f565b5060008414611370576040517f08c379a0000000000000000000000000000000000000000000000000000000008152600401611367906119f1565b60405180910390fd5b8091505092915050565b600061138d61138884611b1a565b611af5565b905080838252602082019050828560208602820111156113b0576113af611e7b565b5b60005b858110156113e057816113c688826113ea565b8452602084019350602083019250506001810190506113b3565b5050509392505050565b6000813590506113f98161202f565b92915050565b600082601f83011261141457611413611e76565b5b813561142484826020860161137a565b91505092915050565b60008135905061143c81612046565b92915050565b6000813590506114518161205d565b92915050565b60008083601f84011261146d5761146c611e76565b5b8235905067ffffffffffffffff81111561148a57611489611e71565b5b6020830191508360018202830111156114a6576114a5611e7b565b5b9250929050565b6000813590506114bc81612074565b92915050565b6000602082840312156114d8576114d7611e85565b5b60006114e6848285016113ea565b91505092915050565b6000806040838503121561150657611505611e85565b5b6000611514858286016113ea565b9250506020611525858286016113ea565b9150509250929050565b60008060006060848603121561154857611547611e85565b5b6000611556868287016113ea565b9350506020611567868287016113ea565b925050604084013567ffffffffffffffff81111561158857611587611e80565b5b611594868287016113ff565b9150509250925092565b6000806000604084860312156115b7576115b6611e85565b5b60006115c5868287016113ea565b935050602084013567ffffffffffffffff8111156115e6576115e5611e80565b5b6115f286828701611457565b92509250509250925092565b60006020828403121561161457611613611e85565b5b60006116228482850161142d565b91505092915050565b6000806040838503121561164257611641611e85565b5b60006116508582860161142d565b9250506020611661858286016113ea565b9150509250929050565b60006020828403121561168157611680611e85565b5b600061168f84828501611442565b91505092915050565b6000602082840312156116ae576116ad611e85565b5b60006116bc848285016114ad565b91505092915050565b6116ce81611c6c565b82525050565b6116dd81611c7e565b82525050565b6116ec81611c8a565b82525050565b60006116fe8385611b51565b935061170b838584611cfe565b61171483611e8a565b840190509392505050565b600061172a82611b46565b6117348185611b62565b9350611744818560208601611d0d565b61174d81611e8a565b840191505092915050565b600061176382611b46565b61176d8185611b73565b935061177d818560208601611d0d565b80840191505092915050565b6000611796602083611b62565b91506117a182611e9b565b602082019050919050565b60006117b9601983611b62565b91506117c482611ec4565b602082019050919050565b60006117dc601c83611b62565b91506117e782611eed565b602082019050919050565b60006117ff602783611b62565b915061180a82611f16565b604082019050919050565b6000611822601783611b73565b915061182d82611f65565b601782019050919050565b6000611845601683611b62565b915061185082611f8e565b602082019050919050565b6000611868601183611b73565b915061187382611fb7565b601182019050919050565b600061188b602f83611b62565b915061189682611fe0565b604082019050919050565b6118aa81611ce0565b82525050565b6118b981611cea565b82525050565b60006118ca82611815565b91506118d68285611758565b91506118e18261185b565b91506118ed8284611758565b91508190509392505050565b600060408201905061190e60008301856116c5565b61191b60208301846116c5565b9392505050565b600060408201905061193760008301856116c5565b61194460208301846118a1565b9392505050565b600060808201905061196060008301886116c5565b61196d60208301876118b0565b61197a60408301866118a1565b818103606083015261198d8184866116f2565b90509695505050505050565b60006020820190506119ae60008301846116d4565b92915050565b60006020820190506119c960008301846116e3565b92915050565b600060208201905081810360008301526119e9818461171f565b905092915050565b60006020820190508181036000830152611a0a81611789565b9050919050565b60006020820190508181036000830152611a2a816117ac565b9050919050565b60006020820190508181036000830152611a4a816117cf565b9050919050565b60006020820190508181036000830152611a6a816117f2565b9050919050565b60006020820190508181036000830152611a8a81611838565b9050919050565b60006020820190508181036000830152611aaa8161187e565b9050919050565b6000604082019050611ac660008301856118a1565b611ad360208301846118a1565b9392505050565b6000602082019050611aef60008301846118b0565b92915050565b6000611aff611b10565b9050611b0b8282611d6a565b919050565b6000604051905090565b600067ffffffffffffffff821115611b3557611b34611e42565b5b602082029050602081019050919050565b600081519050919050565b600082825260208201905092915050565b600082825260208201905092915050565b600081905092915050565b6000611b8982611ce0565b9150611b9483611ce0565b9250827fffffffffffffffffffffffffffffffffffffffffffffffffffffffffffffffff03821115611bc957611bc8611de4565b5b828201905092915050565b6000611bdf82611cea565b9150611bea83611cea565b92508267ffffffffffffffff03821115611c0757611c06611de4565b5b828201905092915050565b6000611c1d82611ce0565b9150611c2883611ce0565b9250817fffffffffffffffffffffffffffffffffffffffffffffffffffffffffffffffff0483118215151615611c6157611c60611de4565b5b828202905092915050565b6000611c7782611cc0565b9050919050565b60008115159050919050565b6000819050919050565b60007fffffffff0000000000000000000000000000000000000000000000000000000082169050919050565b600073ffffffffffffffffffffffffffffffffffffffff82169050919050565b6000819050919050565b600067ffffffffffffffff82169050919050565b82818337600083830152505050565b60005b83811015611d2b578082015181840152602081019050611d10565b83811115611d3a576000848401525b50505050565b6000611d4b82611ce0565b91506000821415611d5f57611d5e611de4565b5b600182039050919050565b611d7382611e8a565b810181811067ffffffffffffffff82111715611d9257611d91611e42565b5b80604052505050565b6000611da682611ce0565b91507fffffffffffffffffffffffffffffffffffffffffffffffffffffffffffffffff821415611dd957611dd8611de4565b5b600182019050919050565b7f4e487b7100000000000000000000000000000000000000000000000000000000600052601160045260246000fd5b7f4e487b7100000000000000000000000000000000000000000000000000000000600052603260045260246000fd5b7f4e487b7100000000000000000000000000000000000000000000000000000000600052604160045260246000fd5b600080fd5b600080fd5b600080fd5b600080fd5b600080fd5b6000601f19601f8301169050919050565b7f537472696e67733a20686578206c656e67746820696e73756666696369656e74600082015250565b7f5265766f6b696e672073656c66206173206f70657261746f7200000000000000600082015250565b7f417574686f72697a696e672073656c66206173206f70657261746f7200000000600082015250565b7f43616c6c6572206973206e6f7420616e206f70657261746f7220666f7220666560008201527f6520706179657200000000000000000000000000000000000000000000000000602082015250565b7f416363657373436f6e74726f6c3a206163636f756e7420000000000000000000600082015250565b7f43616c6c657220697320756e617574686f72697a656400000000000000000000600082015250565b7f206973206d697373696e6720726f6c6520000000000000000000000000000000600082015250565b7f416363657373436f6e74726f6c3a2063616e206f6e6c792072656e6f756e636560008201527f20726f6c657320666f722073656c660000000000000000000000000000000000602082015250565b61203881611c6c565b811461204357600080fd5b50565b61204f81611c8a565b811461205a57600080fd5b50565b61206681611c94565b811461207157600080fd5b50565b61207d81611ce0565b811461208857600080fd5b5056fea264697066735822122085cd6a5b60f8095b08517a14bb188efe35ba98547aa2724051073c449950f73164736f6c63430008060033",
  "linkReferences": {},
  "deployedLinkReferences": {}
}