{
  "_format": "hh-sol-artifact-1",
  "contractName": "IncentivizedOutboundChannel",
  "sourceName": "contracts/IncentivizedOutboundChannel.sol",
  "abi": [
    {
      "inputs": [],
      "stateMutability": "nonpayable",
      "type": "constructor"
    },
    {
      "anonymous": false,
      "inputs": [
        {
          "indexed": false,
          "internalType": "uint256",
          "name": "oldFee",
          "type": "uint256"
        },
        {
          "indexed": false,
          "internalType": "uint256",
          "name": "newFee",
          "type": "uint256"
        }
      ],
      "name": "FeeChanged",
      "type": "event"
    },
    {
      "anonymous": false,
      "inputs": [
        {
          "indexed": false,
          "internalType": "address",
          "name": "source",
          "type": "address"
        },
        {
          "indexed": false,
          "internalType": "uint64",
          "name": "nonce",
          "type": "uint64"
        },
        {
          "indexed": false,
          "internalType": "uint256",
          "name": "fee",
          "type": "uint256"
        },
        {
          "indexed": false,
          "internalType": "bytes",
          "name": "payload",
          "type": "bytes"
        }
      ],
      "name": "Message",
      "type": "event"
    },
    {
      "anonymous": false,
      "inputs": [
        {
          "indexed": false,
          "internalType": "address",
          "name": "operator",
          "type": "address"
        },
        {
          "indexed": false,
          "internalType": "address",
          "name": "user",
          "type": "address"
        }
      ],
      "name": "OperatorAuthorized",
      "type": "event"
    },
    {
      "anonymous": false,
      "inputs": [
        {
          "indexed": false,
          "internalType": "address",
          "name": "operator",
          "type": "address"
        },
        {
          "indexed": false,
          "internalType": "address",
          "name": "user",
          "type": "address"
        }
      ],
      "name": "OperatorRevoked",
      "type": "event"
    },
    {
      "anonymous": false,
      "inputs": [
        {
          "indexed": true,
          "internalType": "bytes32",
          "name": "role",
          "type": "bytes32"
        },
        {
          "indexed": true,
          "internalType": "bytes32",
          "name": "previousAdminRole",
          "type": "bytes32"
        },
        {
          "indexed": true,
          "internalType": "bytes32",
          "name": "newAdminRole",
          "type": "bytes32"
        }
      ],
      "name": "RoleAdminChanged",
      "type": "event"
    },
    {
      "anonymous": false,
      "inputs": [
        {
          "indexed": true,
          "internalType": "bytes32",
          "name": "role",
          "type": "bytes32"
        },
        {
          "indexed": true,
          "internalType": "address",
          "name": "account",
          "type": "address"
        },
        {
          "indexed": true,
          "internalType": "address",
          "name": "sender",
          "type": "address"
        }
      ],
      "name": "RoleGranted",
      "type": "event"
    },
    {
      "anonymous": false,
      "inputs": [
        {
          "indexed": true,
          "internalType": "bytes32",
          "name": "role",
          "type": "bytes32"
        },
        {
          "indexed": true,
          "internalType": "address",
          "name": "account",
          "type": "address"
        },
        {
          "indexed": true,
          "internalType": "address",
          "name": "sender",
          "type": "address"
        }
      ],
      "name": "RoleRevoked",
      "type": "event"
    },
    {
      "inputs": [],
      "name": "CONFIG_UPDATE_ROLE",
      "outputs": [
        {
          "internalType": "bytes32",
          "name": "",
          "type": "bytes32"
        }
      ],
      "stateMutability": "view",
      "type": "function"
    },
    {
      "inputs": [],
      "name": "DEFAULT_ADMIN_ROLE",
      "outputs": [
        {
          "internalType": "bytes32",
          "name": "",
          "type": "bytes32"
        }
      ],
      "stateMutability": "view",
      "type": "function"
    },
    {
      "inputs": [
        {
          "internalType": "address",
          "name": "operator",
          "type": "address"
        }
      ],
      "name": "authorizeDefaultOperator",
      "outputs": [],
      "stateMutability": "nonpayable",
      "type": "function"
    },
    {
      "inputs": [
        {
          "internalType": "address",
          "name": "operator",
          "type": "address"
        }
      ],
      "name": "authorizeOperator",
      "outputs": [],
      "stateMutability": "nonpayable",
      "type": "function"
    },
    {
      "inputs": [],
      "name": "fee",
      "outputs": [
        {
          "internalType": "uint256",
          "name": "",
          "type": "uint256"
        }
      ],
      "stateMutability": "view",
      "type": "function"
    },
    {
      "inputs": [],
      "name": "feeSource",
      "outputs": [
        {
          "internalType": "contract FeeSource",
          "name": "",
          "type": "address"
        }
      ],
      "stateMutability": "view",
      "type": "function"
    },
    {
      "inputs": [
        {
          "internalType": "bytes32",
          "name": "role",
          "type": "bytes32"
        }
      ],
      "name": "getRoleAdmin",
      "outputs": [
        {
          "internalType": "bytes32",
          "name": "",
          "type": "bytes32"
        }
      ],
      "stateMutability": "view",
      "type": "function"
    },
    {
      "inputs": [
        {
          "internalType": "bytes32",
          "name": "role",
          "type": "bytes32"
        },
        {
          "internalType": "address",
          "name": "account",
          "type": "address"
        }
      ],
      "name": "grantRole",
      "outputs": [],
      "stateMutability": "nonpayable",
      "type": "function"
    },
    {
      "inputs": [
        {
          "internalType": "bytes32",
          "name": "role",
          "type": "bytes32"
        },
        {
          "internalType": "address",
          "name": "account",
          "type": "address"
        }
      ],
      "name": "hasRole",
      "outputs": [
        {
          "internalType": "bool",
          "name": "",
          "type": "bool"
        }
      ],
      "stateMutability": "view",
      "type": "function"
    },
    {
      "inputs": [
        {
          "internalType": "address",
          "name": "_configUpdater",
          "type": "address"
        },
        {
          "internalType": "address",
          "name": "_feeSource",
          "type": "address"
        },
        {
          "internalType": "address[]",
          "name": "defaultOperators",
          "type": "address[]"
        }
      ],
      "name": "initialize",
      "outputs": [],
      "stateMutability": "nonpayable",
      "type": "function"
    },
    {
      "inputs": [
        {
          "internalType": "address",
          "name": "_operator",
          "type": "address"
        },
        {
          "internalType": "address",
          "name": "_origin",
          "type": "address"
        }
      ],
      "name": "isOperatorFor",
      "outputs": [
        {
          "internalType": "bool",
          "name": "",
          "type": "bool"
        }
      ],
      "stateMutability": "view",
      "type": "function"
    },
    {
      "inputs": [],
      "name": "nonce",
      "outputs": [
        {
          "internalType": "uint64",
          "name": "",
          "type": "uint64"
        }
      ],
      "stateMutability": "view",
      "type": "function"
    },
    {
      "inputs": [
        {
          "internalType": "bytes32",
          "name": "role",
          "type": "bytes32"
        },
        {
          "internalType": "address",
          "name": "account",
          "type": "address"
        }
      ],
      "name": "renounceRole",
      "outputs": [],
      "stateMutability": "nonpayable",
      "type": "function"
    },
    {
      "inputs": [
        {
          "internalType": "address",
          "name": "operator",
          "type": "address"
        }
      ],
      "name": "revokeDefaultOperator",
      "outputs": [],
      "stateMutability": "nonpayable",
      "type": "function"
    },
    {
      "inputs": [
        {
          "internalType": "address",
          "name": "operator",
          "type": "address"
        }
      ],
      "name": "revokeOperator",
      "outputs": [],
      "stateMutability": "nonpayable",
      "type": "function"
    },
    {
      "inputs": [
        {
          "internalType": "bytes32",
          "name": "role",
          "type": "bytes32"
        },
        {
          "internalType": "address",
          "name": "account",
          "type": "address"
        }
      ],
      "name": "revokeRole",
      "outputs": [],
      "stateMutability": "nonpayable",
      "type": "function"
    },
    {
      "inputs": [
        {
          "internalType": "uint256",
          "name": "_amount",
          "type": "uint256"
        }
      ],
      "name": "setFee",
      "outputs": [],
      "stateMutability": "nonpayable",
      "type": "function"
    },
    {
      "inputs": [
        {
          "internalType": "address",
          "name": "feePayer",
          "type": "address"
        },
        {
          "internalType": "bytes",
          "name": "payload",
          "type": "bytes"
        }
      ],
      "name": "submit",
      "outputs": [],
      "stateMutability": "nonpayable",
      "type": "function"
    },
    {
      "inputs": [
        {
          "internalType": "bytes4",
          "name": "interfaceId",
          "type": "bytes4"
        }
      ],
      "name": "supportsInterface",
      "outputs": [
        {
          "internalType": "bool",
          "name": "",
          "type": "bool"
        }
      ],
      "stateMutability": "view",
      "type": "function"
    }
  ],
  "bytecode": "0x60806040523480156200001157600080fd5b50620000276000801b336200002d60201b60201c565b620001a8565b6200003f82826200004360201b60201c565b5050565b6200005582826200013560201b60201c565b620001315760016002600084815260200190815260200160002060000160008373ffffffffffffffffffffffffffffffffffffffff1673ffffffffffffffffffffffffffffffffffffffff16815260200190815260200160002060006101000a81548160ff021916908315150217905550620000d6620001a060201b60201c565b73ffffffffffffffffffffffffffffffffffffffff168173ffffffffffffffffffffffffffffffffffffffff16837f2f8788117e7eff1d82e926ec794901d17c78024a50270940304540a733656f0d60405160405180910390a45b5050565b60006002600084815260200190815260200160002060000160008373ffffffffffffffffffffffffffffffffffffffff1673ffffffffffffffffffffffffffffffffffffffff16815260200190815260200160002060009054906101000a900460ff16905092915050565b600033905090565b61206480620001b86000396000f3fe608060405234801561001057600080fd5b50600436106101215760003560e01c8063959b8c3f116100ad578063b742a40411610071578063b742a404146102f2578063d547741f1461030e578063d95b63711461032a578063ddca3f431461035a578063fad8b32a1461037857610121565b8063959b8c3f1461025e578063a217fddf1461027a578063a2d6c6e514610298578063affed0e0146102b6578063b47a9bfa146102d457610121565b806336568abe116100f457806336568abe146101be57806369fe0e2d146101da57806376846edd146101f657806377a24f361461021257806391d148541461022e57610121565b806301ffc9a714610126578063248a9ca3146101565780632a7534a3146101865780632f2ff15d146101a2575b600080fd5b610140600480360381019061013b9190611611565b610394565b60405161014d919061192b565b60405180910390f35b610170600480360381019061016b91906115a4565b61040e565b60405161017d9190611946565b60405180910390f35b6101a0600480360381019061019b9190611468565b61042e565b005b6101bc60048036038101906101b791906115d1565b61046d565b005b6101d860048036038101906101d391906115d1565b610496565b005b6101f460048036038101906101ef919061163e565b610519565b005b610210600480360381019061020b9190611544565b610591565b005b61022c600480360381019061022791906114d5565b610712565b005b610248600480360381019061024391906115d1565b6107e8565b604051610255919061192b565b60405180910390f35b61027860048036038101906102739190611468565b610853565b005b610282610992565b60405161028f9190611946565b60405180910390f35b6102a0610999565b6040516102ad9190611946565b60405180910390f35b6102be6109bd565b6040516102cb9190611a82565b60405180910390f35b6102dc6109d7565b6040516102e99190611961565b60405180910390f35b61030c60048036038101906103079190611468565b6109fd565b005b610328600480360381019061032391906115d1565b610a3c565b005b610344600480360381019061033f9190611495565b610a65565b604051610351919061192b565b60405180910390f35b610362610b82565b60405161036f9190611a3e565b60405180910390f35b610392600480360381019061038d9190611468565b610b88565b005b60007f7965db0b000000000000000000000000000000000000000000000000000000007bffffffffffffffffffffffffffffffffffffffffffffffffffffffff1916827bffffffffffffffffffffffffffffffffffffffffffffffffffffffff19161480610407575061040682610cbf565b5b9050919050565b600060026000838152602001908152602001600020600101549050919050565b7f32e4cdbcd9c00d473129ed98a14e66b6f3434febcbfd293f5af182c102b315f76104608161045b610d29565b610d31565b61046982610dce565b5050565b6104768261040e565b61048781610482610d29565b610d31565b6104918383610ec7565b505050565b61049e610d29565b73ffffffffffffffffffffffffffffffffffffffff168173ffffffffffffffffffffffffffffffffffffffff161461050b576040517f08c379a000000000000000000000000000000000000000000000000000000000815260040161050290611a1e565b60405180910390fd5b6105158282610fa8565b5050565b7f32e4cdbcd9c00d473129ed98a14e66b6f3434febcbfd293f5af182c102b315f761054b81610546610d29565b610d31565b7f5fc463da23c1b063e66f9e352006a7fbe8db7223c455dc429e881a2dfe2f94f16004548360405161057e929190611a59565b60405180910390a1816004819055505050565b61059b3384610a65565b6105da576040517f08c379a00000000000000000000000000000000000000000000000000000000081526004016105d1906119fe565b60405180910390fd5b600560009054906101000a900473ffffffffffffffffffffffffffffffffffffffff1673ffffffffffffffffffffffffffffffffffffffff16630c86269f846004546040518363ffffffff1660e01b81526004016106399291906118b4565b600060405180830381600087803b15801561065357600080fd5b505af1158015610667573d6000803e3d6000fd5b505050506001600360009054906101000a900467ffffffffffffffff1661068e9190611b7c565b600360006101000a81548167ffffffffffffffff021916908367ffffffffffffffff1602179055507f5e9ae1d7c484f74d554a503aa825e823725531d97e784dd9b1aacdb58d1f707633600360009054906101000a900467ffffffffffffffff1660045485856040516107059594939291906118dd565b60405180910390a1505050565b6000801b61072781610722610d29565b610d31565b82600560006101000a81548173ffffffffffffffffffffffffffffffffffffffff021916908373ffffffffffffffffffffffffffffffffffffffff1602179055506107927f32e4cdbcd9c00d473129ed98a14e66b6f3434febcbfd293f5af182c102b315f78561046d565b60005b82518110156107d4576107c18382815181106107b4576107b3611ddf565b5b602002602001015161108a565b80806107cc90611d67565b915050610795565b506107e26000801b33610496565b50505050565b60006002600084815260200190815260200160002060000160008373ffffffffffffffffffffffffffffffffffffffff1673ffffffffffffffffffffffffffffffffffffffff16815260200190815260200160002060009054906101000a900460ff16905092915050565b8073ffffffffffffffffffffffffffffffffffffffff163373ffffffffffffffffffffffffffffffffffffffff1614156108c2576040517f08c379a00000000000000000000000000000000000000000000000000000000081526004016108b9906119de565b60405180910390fd5b60018060003373ffffffffffffffffffffffffffffffffffffffff1673ffffffffffffffffffffffffffffffffffffffff16815260200190815260200160002060008373ffffffffffffffffffffffffffffffffffffffff1673ffffffffffffffffffffffffffffffffffffffff16815260200190815260200160002060006101000a81548160ff0219169083151502179055507f4d8c877a9def059a7322c328d7394f8640d101d29c811e10268b9b6125e90253813360405161098792919061188b565b60405180910390a150565b6000801b81565b7f32e4cdbcd9c00d473129ed98a14e66b6f3434febcbfd293f5af182c102b315f781565b600360009054906101000a900467ffffffffffffffff1681565b600560009054906101000a900473ffffffffffffffffffffffffffffffffffffffff1681565b7f32e4cdbcd9c00d473129ed98a14e66b6f3434febcbfd293f5af182c102b315f7610a2f81610a2a610d29565b610d31565b610a388261108a565b5050565b610a458261040e565b610a5681610a51610d29565b610d31565b610a608383610fa8565b505050565b60008173ffffffffffffffffffffffffffffffffffffffff168373ffffffffffffffffffffffffffffffffffffffff161480610ae957506000808473ffffffffffffffffffffffffffffffffffffffff1673ffffffffffffffffffffffffffffffffffffffff16815260200190815260200160002060009054906101000a900460ff165b80610b7a5750600160008373ffffffffffffffffffffffffffffffffffffffff1673ffffffffffffffffffffffffffffffffffffffff16815260200190815260200160002060008473ffffffffffffffffffffffffffffffffffffffff1673ffffffffffffffffffffffffffffffffffffffff16815260200190815260200160002060009054906101000a900460ff165b905092915050565b60045481565b8073ffffffffffffffffffffffffffffffffffffffff163373ffffffffffffffffffffffffffffffffffffffff161415610bf7576040517f08c379a0000000000000000000000000000000000000000000000000000000008152600401610bee906119be565b60405180910390fd5b600160003373ffffffffffffffffffffffffffffffffffffffff1673ffffffffffffffffffffffffffffffffffffffff16815260200190815260200160002060008273ffffffffffffffffffffffffffffffffffffffff1673ffffffffffffffffffffffffffffffffffffffff16815260200190815260200160002060006101000a81549060ff02191690557fa8082fae8d1bd57faeb4dde45721b46afb72c45e72e5deb2a355bd997f6251a98133604051610cb492919061188b565b60405180910390a150565b60007f01ffc9a7000000000000000000000000000000000000000000000000000000007bffffffffffffffffffffffffffffffffffffffffffffffffffffffff1916827bffffffffffffffffffffffffffffffffffffffffffffffffffffffff1916149050919050565b600033905090565b610d3b82826107e8565b610dca57610d608173ffffffffffffffffffffffffffffffffffffffff1660146110e4565b610d6e8360001c60206110e4565b604051602001610d7f929190611851565b6040516020818303038152906040526040517f08c379a0000000000000000000000000000000000000000000000000000000008152600401610dc1919061197c565b60405180910390fd5b5050565b8073ffffffffffffffffffffffffffffffffffffffff163373ffffffffffffffffffffffffffffffffffffffff161415610e3d576040517f08c379a0000000000000000000000000000000000000000000000000000000008152600401610e34906119be565b60405180910390fd5b6000808273ffffffffffffffffffffffffffffffffffffffff1673ffffffffffffffffffffffffffffffffffffffff16815260200190815260200160002060006101000a81549060ff02191690557fa8082fae8d1bd57faeb4dde45721b46afb72c45e72e5deb2a355bd997f6251a98133604051610ebc92919061188b565b60405180910390a150565b610ed182826107e8565b610fa45760016002600084815260200190815260200160002060000160008373ffffffffffffffffffffffffffffffffffffffff1673ffffffffffffffffffffffffffffffffffffffff16815260200190815260200160002060006101000a81548160ff021916908315150217905550610f49610d29565b73ffffffffffffffffffffffffffffffffffffffff168173ffffffffffffffffffffffffffffffffffffffff16837f2f8788117e7eff1d82e926ec794901d17c78024a50270940304540a733656f0d60405160405180910390a45b5050565b610fb282826107e8565b156110865760006002600084815260200190815260200160002060000160008373ffffffffffffffffffffffffffffffffffffffff1673ffffffffffffffffffffffffffffffffffffffff16815260200190815260200160002060006101000a81548160ff02191690831515021790555061102b610d29565b73ffffffffffffffffffffffffffffffffffffffff168173ffffffffffffffffffffffffffffffffffffffff16837ff6391f5c32d9c69d2a47ea670b442974b53935d1edc7fd64eb21e047a839171b60405160405180910390a45b5050565b60016000808373ffffffffffffffffffffffffffffffffffffffff1673ffffffffffffffffffffffffffffffffffffffff16815260200190815260200160002060006101000a81548160ff02191690831515021790555050565b6060600060028360026110f79190611bba565b6111019190611b26565b67ffffffffffffffff81111561111a57611119611e0e565b5b6040519080825280601f01601f19166020018201604052801561114c5781602001600182028036833780820191505090505b5090507f30000000000000000000000000000000000000000000000000000000000000008160008151811061118457611183611ddf565b5b60200101907effffffffffffffffffffffffffffffffffffffffffffffffffffffffffffff1916908160001a9053507f7800000000000000000000000000000000000000000000000000000000000000816001815181106111e8576111e7611ddf565b5b60200101907effffffffffffffffffffffffffffffffffffffffffffffffffffffffffffff1916908160001a905350600060018460026112289190611bba565b6112329190611b26565b90505b60018111156112d2577f3031323334353637383961626364656600000000000000000000000000000000600f86166010811061127457611273611ddf565b5b1a60f81b82828151811061128b5761128a611ddf565b5b60200101907effffffffffffffffffffffffffffffffffffffffffffffffffffffffffffff1916908160001a905350600485901c9450806112cb90611d0c565b9050611235565b5060008414611316576040517f08c379a000000000000000000000000000000000000000000000000000000000815260040161130d9061199e565b60405180910390fd5b8091505092915050565b600061133361132e84611ac2565b611a9d565b9050808382526020820190508285602086028201111561135657611355611e47565b5b60005b85811015611386578161136c8882611390565b845260208401935060208301925050600181019050611359565b5050509392505050565b60008135905061139f81611fd2565b92915050565b600082601f8301126113ba576113b9611e42565b5b81356113ca848260208601611320565b91505092915050565b6000813590506113e281611fe9565b92915050565b6000813590506113f781612000565b92915050565b60008083601f84011261141357611412611e42565b5b8235905067ffffffffffffffff8111156114305761142f611e3d565b5b60208301915083600182028301111561144c5761144b611e47565b5b9250929050565b60008135905061146281612017565b92915050565b60006020828403121561147e5761147d611e51565b5b600061148c84828501611390565b91505092915050565b600080604083850312156114ac576114ab611e51565b5b60006114ba85828601611390565b92505060206114cb85828601611390565b9150509250929050565b6000806000606084860312156114ee576114ed611e51565b5b60006114fc86828701611390565b935050602061150d86828701611390565b925050604084013567ffffffffffffffff81111561152e5761152d611e4c565b5b61153a868287016113a5565b9150509250925092565b60008060006040848603121561155d5761155c611e51565b5b600061156b86828701611390565b935050602084013567ffffffffffffffff81111561158c5761158b611e4c565b5b611598868287016113fd565b92509250509250925092565b6000602082840312156115ba576115b9611e51565b5b60006115c8848285016113d3565b91505092915050565b600080604083850312156115e8576115e7611e51565b5b60006115f6858286016113d3565b925050602061160785828601611390565b9150509250929050565b60006020828403121561162757611626611e51565b5b6000611635848285016113e8565b91505092915050565b60006020828403121561165457611653611e51565b5b600061166284828501611453565b91505092915050565b61167481611c14565b82525050565b61168381611c26565b82525050565b61169281611c32565b82525050565b60006116a48385611af9565b93506116b1838584611cca565b6116ba83611e56565b840190509392505050565b6116ce81611ca6565b82525050565b60006116df82611aee565b6116e98185611b0a565b93506116f9818560208601611cd9565b61170281611e56565b840191505092915050565b600061171882611aee565b6117228185611b1b565b9350611732818560208601611cd9565b80840191505092915050565b600061174b602083611b0a565b915061175682611e67565b602082019050919050565b600061176e601983611b0a565b915061177982611e90565b602082019050919050565b6000611791601c83611b0a565b915061179c82611eb9565b602082019050919050565b60006117b4602783611b0a565b91506117bf82611ee2565b604082019050919050565b60006117d7601783611b1b565b91506117e282611f31565b601782019050919050565b60006117fa601183611b1b565b915061180582611f5a565b601182019050919050565b600061181d602f83611b0a565b915061182882611f83565b604082019050919050565b61183c81611c88565b82525050565b61184b81611c92565b82525050565b600061185c826117ca565b9150611868828561170d565b9150611873826117ed565b915061187f828461170d565b91508190509392505050565b60006040820190506118a0600083018561166b565b6118ad602083018461166b565b9392505050565b60006040820190506118c9600083018561166b565b6118d66020830184611833565b9392505050565b60006080820190506118f2600083018861166b565b6118ff6020830187611842565b61190c6040830186611833565b818103606083015261191f818486611698565b90509695505050505050565b6000602082019050611940600083018461167a565b92915050565b600060208201905061195b6000830184611689565b92915050565b600060208201905061197660008301846116c5565b92915050565b6000602082019050818103600083015261199681846116d4565b905092915050565b600060208201905081810360008301526119b78161173e565b9050919050565b600060208201905081810360008301526119d781611761565b9050919050565b600060208201905081810360008301526119f781611784565b9050919050565b60006020820190508181036000830152611a17816117a7565b9050919050565b60006020820190508181036000830152611a3781611810565b9050919050565b6000602082019050611a536000830184611833565b92915050565b6000604082019050611a6e6000830185611833565b611a7b6020830184611833565b9392505050565b6000602082019050611a976000830184611842565b92915050565b6000611aa7611ab8565b9050611ab38282611d36565b919050565b6000604051905090565b600067ffffffffffffffff821115611add57611adc611e0e565b5b602082029050602081019050919050565b600081519050919050565b600082825260208201905092915050565b600082825260208201905092915050565b600081905092915050565b6000611b3182611c88565b9150611b3c83611c88565b9250827fffffffffffffffffffffffffffffffffffffffffffffffffffffffffffffffff03821115611b7157611b70611db0565b5b828201905092915050565b6000611b8782611c92565b9150611b9283611c92565b92508267ffffffffffffffff03821115611baf57611bae611db0565b5b828201905092915050565b6000611bc582611c88565b9150611bd083611c88565b9250817fffffffffffffffffffffffffffffffffffffffffffffffffffffffffffffffff0483118215151615611c0957611c08611db0565b5b828202905092915050565b6000611c1f82611c68565b9050919050565b60008115159050919050565b6000819050919050565b60007fffffffff0000000000000000000000000000000000000000000000000000000082169050919050565b600073ffffffffffffffffffffffffffffffffffffffff82169050919050565b6000819050919050565b600067ffffffffffffffff82169050919050565b6000611cb182611cb8565b9050919050565b6000611cc382611c68565b9050919050565b82818337600083830152505050565b60005b83811015611cf7578082015181840152602081019050611cdc565b83811115611d06576000848401525b50505050565b6000611d1782611c88565b91506000821415611d2b57611d2a611db0565b5b600182039050919050565b611d3f82611e56565b810181811067ffffffffffffffff82111715611d5e57611d5d611e0e565b5b80604052505050565b6000611d7282611c88565b91507fffffffffffffffffffffffffffffffffffffffffffffffffffffffffffffffff821415611da557611da4611db0565b5b600182019050919050565b7f4e487b7100000000000000000000000000000000000000000000000000000000600052601160045260246000fd5b7f4e487b7100000000000000000000000000000000000000000000000000000000600052603260045260246000fd5b7f4e487b7100000000000000000000000000000000000000000000000000000000600052604160045260246000fd5b600080fd5b600080fd5b600080fd5b600080fd5b600080fd5b6000601f19601f8301169050919050565b7f537472696e67733a20686578206c656e67746820696e73756666696369656e74600082015250565b7f5265766f6b696e672073656c66206173206f70657261746f7200000000000000600082015250565b7f417574686f72697a696e672073656c66206173206f70657261746f7200000000600082015250565b7f43616c6c6572206973206e6f7420616e206f70657261746f7220666f7220666560008201527f6520706179657200000000000000000000000000000000000000000000000000602082015250565b7f416363657373436f6e74726f6c3a206163636f756e7420000000000000000000600082015250565b7f206973206d697373696e6720726f6c6520000000000000000000000000000000600082015250565b7f416363657373436f6e74726f6c3a2063616e206f6e6c792072656e6f756e636560008201527f20726f6c657320666f722073656c660000000000000000000000000000000000602082015250565b611fdb81611c14565b8114611fe657600080fd5b50565b611ff281611c32565b8114611ffd57600080fd5b50565b61200981611c3c565b811461201457600080fd5b50565b61202081611c88565b811461202b57600080fd5b5056fea26469706673582212203e5b8fe665e549095dee9eb74438f17bb5eed970d31584bf6f0c0f7561280b5a64736f6c63430008060033",
  "linkReferences": {},
  "deployedLinkReferences": {}
}