{
  "contractName": "MockFeeSource",
  "abi": [
    {
      "inputs": [
        {
          "internalType": "address",
          "name": "",
          "type": "address"
        },
        {
          "internalType": "uint256",
          "name": "_amount",
          "type": "uint256"
        }
      ],
      "name": "burnFee",
      "outputs": [],
      "stateMutability": "pure",
      "type": "function"
    }
  ],
  "bytecode": "0x608060405234801561001057600080fd5b50610221806100206000396000f3fe608060405234801561001057600080fd5b506004361061002b5760003560e01c80630c86269f14610030575b600080fd5b61004a600480360381019061004591906100bf565b61004c565b005b610400811415610091576040517f08c379a000000000000000000000000000000000000000000000000000000000815260040161008890610122565b60405180910390fd5b5050565b6000813590506100a4816101bd565b92915050565b6000813590506100b9816101d4565b92915050565b600080604083850312156100d6576100d561018f565b5b60006100e485828601610095565b92505060206100f5858286016100aa565b9150509250929050565b600061010c601983610142565b915061011782610194565b602082019050919050565b6000602082019050818103600083015261013b816100ff565b9050919050565b600082825260208201905092915050565b600061015e82610165565b9050919050565b600073ffffffffffffffffffffffffffffffffffffffff82169050919050565b6000819050919050565b600080fd5b7f5573657220686173206e6f2066756e647320746f206275726e00000000000000600082015250565b6101c681610153565b81146101d157600080fd5b50565b6101dd81610185565b81146101e857600080fd5b5056fea2646970667358221220a57d5706c282981511373989ef3046302ffe9552f72ee43b1867b0f2af1ff96f64736f6c63430008060033",
  "immutableReferences": {},
  "source": "// SPDX-License-Identifier: MIT\npragma solidity >=0.7.6;\npragma experimental ABIEncoderV2;\n\nimport \"../FeeSource.sol\";\n\ncontract MockFeeSource is FeeSource {\n    function burnFee(address, uint256 _amount) pure external override {\n        // Simulate the case where the user has no funds,\n        require(_amount != 1024, \"User has no funds to burn\");\n    }\n}\n",
  "sourcePath": "/home/jamie/dev/clients/snowfork/snowbridge/ethereum/contracts/test/MockFeeSource.sol",
  "compiler": {
    "name": "solc",
    "version": "0.8.6+commit.11564f7e.Emscripten.clang"
  },
  "schemaVersion": "3.4.1",
  "updatedAt": "2021-07-19T08:57:19.526Z",
  "devdoc": {
    "kind": "dev",
    "methods": {},
    "version": 1
  },
  "userdoc": {
    "kind": "user",
    "methods": {},
    "version": 1
  }
}