{
  "contractName": "MockFeeSource",
  "abi": [
    {
      "inputs": [
        {
          "internalType": "address",
          "name": "",
          "type": "address"
        },
        {
          "internalType": "uint256",
          "name": "_amount",
          "type": "uint256"
        }
      ],
      "name": "burnFee",
      "outputs": [],
      "stateMutability": "pure",
      "type": "function"
    }
  ],
  "bytecode": "0x608060405234801561001057600080fd5b5061020c806100206000396000f3fe608060405234801561001057600080fd5b506004361061002b5760003560e01c80630c86269f14610030575b600080fd5b61004a600480360381019061004591906100bf565b61004c565b005b610400811415610091576040517f08c379a00000000000000000000000000000000000000000000000000000000081526004016100889061013b565b60405180910390fd5b5050565b6000813590506100a4816101a8565b92915050565b6000813590506100b9816101bf565b92915050565b600080604083850312156100d257600080fd5b60006100e085828601610095565b92505060206100f1858286016100aa565b9150509250929050565b600061010860198361015b565b91507f5573657220686173206e6f2066756e647320746f206275726e000000000000006000830152602082019050919050565b60006020820190508181036000830152610154816100fb565b9050919050565b600082825260208201905092915050565b60006101778261017e565b9050919050565b600073ffffffffffffffffffffffffffffffffffffffff82169050919050565b6000819050919050565b6101b18161016c565b81146101bc57600080fd5b50565b6101c88161019e565b81146101d357600080fd5b5056fea264697066735822122027b9f72339569fe2b7d00c4c259176f36cee08643a33ce2e2598a7d309d5092b64736f6c63430007060033",
  "immutableReferences": {},
  "source": "// SPDX-License-Identifier: MIT\npragma solidity >=0.7.6;\npragma experimental ABIEncoderV2;\n\nimport \"../FeeSource.sol\";\n\ncontract MockFeeSource is FeeSource {\n    function burnFee(address, uint256 _amount) pure external override {\n        // Simulate the case where the user has no funds,\n        require(_amount != 1024, \"User has no funds to burn\");\n    }\n}\n",
  "sourcePath": "/home/jamie/dev/clients/snowfork/polkadot-ethereum/ethereum/contracts/test/MockFeeSource.sol",
  "compiler": {
    "name": "solc",
    "version": "0.7.6+commit.7338295f.Emscripten.clang"
  },
  "schemaVersion": "3.2.5",
  "updatedAt": "2021-04-12T08:59:23.084Z",
  "devdoc": {
    "kind": "dev",
    "methods": {},
    "version": 1
  },
  "userdoc": {
    "kind": "user",
    "methods": {},
    "version": 1
  }
}