{
  "_format": "hh-sol-artifact-1",
  "contractName": "ScaleCodec",
  "sourceName": "contracts/ScaleCodec.sol",
  "abi": [
    {
      "inputs": [
        {
          "internalType": "bytes",
          "name": "data",
          "type": "bytes"
        }
      ],
      "name": "decodeUint256",
      "outputs": [
        {
          "internalType": "uint256",
          "name": "",
          "type": "uint256"
        }
      ],
      "stateMutability": "pure",
      "type": "function"
    },
    {
      "inputs": [
        {
          "internalType": "bytes",
          "name": "data",
          "type": "bytes"
        }
      ],
      "name": "decodeUintCompact",
      "outputs": [
        {
          "internalType": "uint256",
          "name": "v",
          "type": "uint256"
        }
      ],
      "stateMutability": "pure",
      "type": "function"
    },
    {
      "inputs": [
        {
          "internalType": "uint128",
          "name": "input",
          "type": "uint128"
        }
      ],
      "name": "encode128",
      "outputs": [
        {
          "internalType": "bytes16",
          "name": "",
          "type": "bytes16"
        }
      ],
      "stateMutability": "pure",
      "type": "function"
    },
    {
      "inputs": [
        {
          "internalType": "uint16",
          "name": "input",
          "type": "uint16"
        }
      ],
      "name": "encode16",
      "outputs": [
        {
          "internalType": "bytes2",
          "name": "",
          "type": "bytes2"
        }
      ],
      "stateMutability": "pure",
      "type": "function"
    },
    {
      "inputs": [
        {
          "internalType": "uint256",
          "name": "input",
          "type": "uint256"
        }
      ],
      "name": "encode256",
      "outputs": [
        {
          "internalType": "bytes32",
          "name": "",
          "type": "bytes32"
        }
      ],
      "stateMutability": "pure",
      "type": "function"
    },
    {
      "inputs": [
        {
          "internalType": "uint32",
          "name": "input",
          "type": "uint32"
        }
      ],
      "name": "encode32",
      "outputs": [
        {
          "internalType": "bytes4",
          "name": "",
          "type": "bytes4"
        }
      ],
      "stateMutability": "pure",
      "type": "function"
    },
    {
      "inputs": [
        {
          "internalType": "uint64",
          "name": "input",
          "type": "uint64"
        }
      ],
      "name": "encode64",
      "outputs": [
        {
          "internalType": "bytes8",
          "name": "",
          "type": "bytes8"
        }
      ],
      "stateMutability": "pure",
      "type": "function"
    }
  ],
  "bytecode": "0x61123d610053600b82828239805160001a607314610046577f4e487b7100000000000000000000000000000000000000000000000000000000600052600060045260246000fd5b30600052607381538281f3fe73000000000000000000000000000000000000000030146080604052600436106100875760003560e01c80638dedf6ee116100655780638dedf6ee1461011c578063a8b871dd1461014c578063dfd47e0e1461017c578063f83d7d5f146101ac57610087565b80631553ce431461008c578063381f760d146100bc5780636d78dc9c146100ec575b600080fd5b6100a660048036038101906100a191906109b1565b6101dc565b6040516100b39190610b20565b60405180910390f35b6100d660048036038101906100d19190610a0b565b6101f1565b6040516100e39190610b56565b60405180910390f35b6101066004803603810190610101919061093b565b610206565b6040516101139190610bcc565b60405180910390f35b61013660048036038101906101319190610984565b6102a2565b6040516101439190610b05565b60405180910390f35b6101666004803603810190610161919061093b565b6102b7565b6040516101739190610bcc565b60405180910390f35b610196600480360381019061019191906109de565b610493565b6040516101a39190610b3b565b60405180910390f35b6101c660048036038101906101c19190610a38565b6104a8565b6040516101d39190610b71565b60405180910390f35b60006101e7826104bd565b60f01b9050919050565b60006101fc826104dc565b60e01b9050919050565b6000806000835190505b6000811115610298576001816102269190610ead565b60086102329190610e53565b600261023e9190610d35565b8460018361024c9190610ead565b8151811061025d5761025c61108c565b5b602001015160f81c60f81b60f81c60ff166102789190610e53565b826102839190610c4e565b9150808061029090611002565b915050610210565b5080915050919050565b60006102ad82610523565b60801b9050919050565b6000806102c5836000610656565b9050600060038216905060008160ff1614156102ef5760028260ff16901c60ff169250505061048e565b60018160ff161415610351576000610308856001610656565b905060008160ff16905060068167ffffffffffffffff16901b905060028460ff16901c60ff16816103399190610ca4565b90508067ffffffffffffffff1694505050505061048e565b60028160ff1614156103ec57600061036a856001610656565b90506000610379866002610656565b90506000610388876003610656565b9050600060088460ff1663ffffffff16901b8660ff16179050600060108460ff1663ffffffff16901b82179050600060188460ff1663ffffffff16901b8217905060028163ffffffff16901c90508063ffffffff169850505050505050505061048e565b60038160ff16141561045057600060028360ff16901c905060208160ff161161044a576040517f08c379a000000000000000000000000000000000000000000000000000000000815260040161044190610b8c565b60405180910390fd5b5061048b565b6040517f08c379a000000000000000000000000000000000000000000000000000000000815260040161048290610bac565b60405180910390fd5b50505b919050565b600061049e82610684565b60001b9050919050565b60006104b3826107d0565b60c01b9050919050565b600081905060088161ffff16901b60088261ffff16901c179050919050565b6000819050600862ff00ff821663ffffffff16901b600863ff00ff00831663ffffffff16901c17905060108163ffffffff16901b60108263ffffffff16901c179050919050565b600081905060086eff00ff00ff00ff00ff00ff00ff00ff82166fffffffffffffffffffffffffffffffff16901b60086fff00ff00ff00ff00ff00ff00ff00ff0083166fffffffffffffffffffffffffffffffff16901c17905060106dffff0000ffff0000ffff0000ffff82166fffffffffffffffffffffffffffffffff16901b60106fffff0000ffff0000ffff0000ffff000083166fffffffffffffffffffffffffffffffff16901c17905060206bffffffff00000000ffffffff82166fffffffffffffffffffffffffffffffff16901b60206fffffffff00000000ffffffff0000000083166fffffffffffffffffffffffffffffffff16901c1790506040816fffffffffffffffffffffffffffffffff16901b6040826fffffffffffffffffffffffffffffffff16901c179050919050565b6000828260ff168151811061066e5761066d61108c565b5b602001015160f81c60f81b60f81c905092915050565b600081905060087eff00ff00ff00ff00ff00ff00ff00ff00ff00ff00ff00ff00ff00ff00ff00ff8216901b60087fff00ff00ff00ff00ff00ff00ff00ff00ff00ff00ff00ff00ff00ff00ff00ff008316901c17905060107dffff0000ffff0000ffff0000ffff0000ffff0000ffff0000ffff0000ffff8216901b60107fffff0000ffff0000ffff0000ffff0000ffff0000ffff0000ffff0000ffff00008316901c17905060207bffffffff00000000ffffffff00000000ffffffff00000000ffffffff8216901b60207fffffffff00000000ffffffff00000000ffffffff00000000ffffffff000000008316901c179050604077ffffffffffffffff0000000000000000ffffffffffffffff8216901b60407fffffffffffffffff0000000000000000ffffffffffffffff00000000000000008316901c179050608081901b608082901c179050919050565b6000819050600866ff00ff00ff00ff821667ffffffffffffffff16901b600867ff00ff00ff00ff00831667ffffffffffffffff16901c179050601065ffff0000ffff821667ffffffffffffffff16901b601067ffff0000ffff0000831667ffffffffffffffff16901c17905060208167ffffffffffffffff16901b60208267ffffffffffffffff16901c179050919050565b600061087561087084610c0c565b610be7565b905082815260208101848484011115610891576108906110ef565b5b61089c848285610ff3565b509392505050565b600082601f8301126108b9576108b86110ea565b5b81356108c9848260208601610862565b91505092915050565b6000813590506108e181611194565b92915050565b6000813590506108f6816111ab565b92915050565b60008135905061090b816111c2565b92915050565b600081359050610920816111d9565b92915050565b600081359050610935816111f0565b92915050565b600060208284031215610951576109506110f9565b5b600082013567ffffffffffffffff81111561096f5761096e6110f4565b5b61097b848285016108a4565b91505092915050565b60006020828403121561099a576109996110f9565b5b60006109a8848285016108d2565b91505092915050565b6000602082840312156109c7576109c66110f9565b5b60006109d5848285016108e7565b91505092915050565b6000602082840312156109f4576109f36110f9565b5b6000610a02848285016108fc565b91505092915050565b600060208284031215610a2157610a206110f9565b5b6000610a2f84828501610911565b91505092915050565b600060208284031215610a4e57610a4d6110f9565b5b6000610a5c84828501610926565b91505092915050565b610a6e81610ee1565b82525050565b610a7d81610f0d565b82525050565b610a8c81610f39565b82525050565b610a9b81610f43565b82525050565b610aaa81610f6f565b82525050565b6000610abd603583610c3d565b9150610ac88261111c565b604082019050919050565b6000610ae0601a83610c3d565b9150610aeb8261116b565b602082019050919050565b610aff81610fc5565b82525050565b6000602082019050610b1a6000830184610a65565b92915050565b6000602082019050610b356000830184610a74565b92915050565b6000602082019050610b506000830184610a83565b92915050565b6000602082019050610b6b6000830184610a92565b92915050565b6000602082019050610b866000830184610aa1565b92915050565b60006020820190508181036000830152610ba581610ab0565b9050919050565b60006020820190508181036000830152610bc581610ad3565b9050919050565b6000602082019050610be16000830184610af6565b92915050565b6000610bf1610c02565b9050610bfd828261102c565b919050565b6000604051905090565b600067ffffffffffffffff821115610c2757610c266110bb565b5b610c30826110fe565b9050602081019050919050565b600082825260208201905092915050565b6000610c5982610fc5565b9150610c6483610fc5565b9250827fffffffffffffffffffffffffffffffffffffffffffffffffffffffffffffffff03821115610c9957610c9861105d565b5b828201905092915050565b6000610caf82610fdf565b9150610cba83610fdf565b92508267ffffffffffffffff03821115610cd757610cd661105d565b5b828201905092915050565b6000808291508390505b6001851115610d2c57808604811115610d0857610d0761105d565b5b6001851615610d175780820291505b8081029050610d258561110f565b9450610cec565b94509492505050565b6000610d4082610fc5565b9150610d4b83610fc5565b9250610d787fffffffffffffffffffffffffffffffffffffffffffffffffffffffffffffffff8484610d80565b905092915050565b600082610d905760019050610e4c565b81610d9e5760009050610e4c565b8160018114610db45760028114610dbe57610ded565b6001915050610e4c565b60ff841115610dd057610dcf61105d565b5b8360020a915084821115610de757610de661105d565b5b50610e4c565b5060208310610133831016604e8410600b8410161715610e225782820a905083811115610e1d57610e1c61105d565b5b610e4c565b610e2f8484846001610ce2565b92509050818404811115610e4657610e4561105d565b5b81810290505b9392505050565b6000610e5e82610fc5565b9150610e6983610fc5565b9250817fffffffffffffffffffffffffffffffffffffffffffffffffffffffffffffffff0483118215151615610ea257610ea161105d565b5b828202905092915050565b6000610eb882610fc5565b9150610ec383610fc5565b925082821015610ed657610ed561105d565b5b828203905092915050565b60007fffffffffffffffffffffffffffffffff0000000000000000000000000000000082169050919050565b60007fffff00000000000000000000000000000000000000000000000000000000000082169050919050565b6000819050919050565b60007fffffffff0000000000000000000000000000000000000000000000000000000082169050919050565b60007fffffffffffffffff00000000000000000000000000000000000000000000000082169050919050565b60006fffffffffffffffffffffffffffffffff82169050919050565b600061ffff82169050919050565b6000819050919050565b600063ffffffff82169050919050565b600067ffffffffffffffff82169050919050565b82818337600083830152505050565b600061100d82610fc5565b915060008214156110215761102061105d565b5b600182039050919050565b611035826110fe565b810181811067ffffffffffffffff82111715611054576110536110bb565b5b80604052505050565b7f4e487b7100000000000000000000000000000000000000000000000000000000600052601160045260246000fd5b7f4e487b7100000000000000000000000000000000000000000000000000000000600052603260045260246000fd5b7f4e487b7100000000000000000000000000000000000000000000000000000000600052604160045260246000fd5b600080fd5b600080fd5b600080fd5b600080fd5b6000601f19601f8301169050919050565b60008160011c9050919050565b7f4e6f7420737570706f727465643a206e756d6265722063616e6e6f742062652060008201527f67726561746572207468616e2033322062797465730000000000000000000000602082015250565b7f436f64652073686f756c6420626520756e726561636861626c65000000000000600082015250565b61119d81610f9b565b81146111a857600080fd5b50565b6111b481610fb7565b81146111bf57600080fd5b50565b6111cb81610fc5565b81146111d657600080fd5b50565b6111e281610fcf565b81146111ed57600080fd5b50565b6111f981610fdf565b811461120457600080fd5b5056fea26469706673582212203ce30ae15a3d0dd23821b2b925f328adacdb6db28780760970165ef49078852b64736f6c63430008060033",
  "linkReferences": {},
  "deployedLinkReferences": {}
}