{
  "contractName": "ScaleCodec",
  "abi": [
    {
      "inputs": [
        {
          "internalType": "bytes",
          "name": "data",
          "type": "bytes"
        }
      ],
      "name": "decodeUint256",
      "outputs": [
        {
          "internalType": "uint256",
          "name": "",
          "type": "uint256"
        }
      ],
      "stateMutability": "pure",
      "type": "function",
      "constant": true
    },
    {
      "inputs": [
        {
          "internalType": "bytes",
          "name": "data",
          "type": "bytes"
        }
      ],
      "name": "decodeUintCompact",
      "outputs": [
        {
          "internalType": "uint256",
          "name": "v",
          "type": "uint256"
        }
      ],
      "stateMutability": "pure",
      "type": "function",
      "constant": true
    },
    {
      "inputs": [
        {
          "internalType": "uint256",
          "name": "input",
          "type": "uint256"
        }
      ],
      "name": "encode256",
      "outputs": [
        {
          "internalType": "bytes32",
          "name": "",
          "type": "bytes32"
        }
      ],
      "stateMutability": "pure",
      "type": "function",
      "constant": true
    },
    {
      "inputs": [
        {
          "internalType": "uint128",
          "name": "input",
          "type": "uint128"
        }
      ],
      "name": "encode128",
      "outputs": [
        {
          "internalType": "bytes16",
          "name": "",
          "type": "bytes16"
        }
      ],
      "stateMutability": "pure",
      "type": "function",
      "constant": true
    },
    {
      "inputs": [
        {
          "internalType": "uint64",
          "name": "input",
          "type": "uint64"
        }
      ],
      "name": "encode64",
      "outputs": [
        {
          "internalType": "bytes8",
          "name": "",
          "type": "bytes8"
        }
      ],
      "stateMutability": "pure",
      "type": "function",
      "constant": true
    },
    {
      "inputs": [
        {
          "internalType": "uint32",
          "name": "input",
          "type": "uint32"
        }
      ],
      "name": "encode32",
      "outputs": [
        {
          "internalType": "bytes4",
          "name": "",
          "type": "bytes4"
        }
      ],
      "stateMutability": "pure",
      "type": "function",
      "constant": true
    },
    {
      "inputs": [
        {
          "internalType": "uint16",
          "name": "input",
          "type": "uint16"
        }
      ],
      "name": "encode16",
      "outputs": [
        {
          "internalType": "bytes2",
          "name": "",
          "type": "bytes2"
        }
      ],
      "stateMutability": "pure",
      "type": "function",
      "constant": true
    }
  ],
  "bytecode": "0x610af0610026600b82828239805160001a60731461001957fe5b30600052607381538281f3fe73000000000000000000000000000000000000000030146080604052600436106100875760003560e01c80638dedf6ee116100655780638dedf6ee14610229578063a8b871dd14610290578063dfd47e0e1461035f578063f83d7d5f146103a157610087565b80631553ce431461008c578063381f760d146100f35780636d78dc9c1461015a575b600080fd5b6100bc600480360360208110156100a257600080fd5b81019080803561ffff169060200190929190505050610408565b60405180827dffffffffffffffffffffffffffffffffffffffffffffffffffffffffffff1916815260200191505060405180910390f35b6101256004803603602081101561010957600080fd5b81019080803563ffffffff16906020019092919050505061041d565b60405180827bffffffffffffffffffffffffffffffffffffffffffffffffffffffff1916815260200191505060405180910390f35b6102136004803603602081101561017057600080fd5b810190808035906020019064010000000081111561018d57600080fd5b82018360208201111561019f57600080fd5b803590602001918460018302840111640100000000831117156101c157600080fd5b91908080601f016020809104026020016040519081016040528093929190818152602001838380828437600081840152601f19601f820116905080830192505050505050509192919290505050610432565b6040518082815260200191505060405180910390f35b6102676004803603602081101561023f57600080fd5b8101908080356fffffffffffffffffffffffffffffffff16906020019092919050505061048c565b60405180826fffffffffffffffffffffffffffffffff1916815260200191505060405180910390f35b610349600480360360208110156102a657600080fd5b81019080803590602001906401000000008111156102c357600080fd5b8201836020820111156102d557600080fd5b803590602001918460018302840111640100000000831117156102f757600080fd5b91908080601f016020809104026020016040519081016040528093929190818152602001838380828437600081840152601f19601f8201169050808301925050505050505091929192905050506104a1565b6040518082815260200191505060405180910390f35b61038b6004803603602081101561037557600080fd5b81019080803590602001909291905050506106bd565b6040518082815260200191505060405180910390f35b6103d7600480360360208110156103b757600080fd5b81019080803567ffffffffffffffff1690602001909291905050506106d2565b604051808277ffffffffffffffffffffffffffffffffffffffffffffffff1916815260200191505060405180910390f35b6000610413826106e7565b60f01b9050919050565b600061042882610706565b60e01b9050919050565b6000806000835190505b6000811115610482576001810360080260020a84600183038151811061045e57fe5b602001015160f81c60f81b60f81c60ff16028201915080806001900391505061043c565b5080915050919050565b60006104978261074d565b60801b9050919050565b6000806104af836000610880565b9050600060038216905060008160ff1614156104d95760028260ff16901c60ff16925050506106b8565b60018160ff1614156105325760006104f2856001610880565b905060008160ff16905060068167ffffffffffffffff16901b905060028460ff16901c60ff16810190508067ffffffffffffffff169450505050506106b8565b60028160ff1614156105cd57600061054b856001610880565b9050600061055a866002610880565b90506000610569876003610880565b9050600060088460ff1663ffffffff16901b8660ff16179050600060108460ff1663ffffffff16901b82179050600060188460ff1663ffffffff16901b8217905060028163ffffffff16901c90508063ffffffff16985050505050505050506106b8565b60038160ff16141561064757600060028360ff16901c905060208160ff1611610641576040517f08c379a0000000000000000000000000000000000000000000000000000000008152600401808060200182810382526035815260200180610a866035913960400191505060405180910390fd5b506106b5565b6040517f08c379a000000000000000000000000000000000000000000000000000000000815260040180806020018281038252601a8152602001807f436f64652073686f756c6420626520756e726561636861626c6500000000000081525060200191505060405180910390fd5b50505b919050565b60006106c8826108a7565b60001b9050919050565b60006106dd826109f3565b60c01b9050919050565b600081905060088161ffff16901b60088261ffff16901c179050919050565b6000819050600862ff00ff821663ffffffff16901b600863ff00ff00831663ffffffff16901c17905060108163ffffffff16901b60108263ffffffff16901c179050919050565b600081905060086eff00ff00ff00ff00ff00ff00ff00ff82166fffffffffffffffffffffffffffffffff16901b60086fff00ff00ff00ff00ff00ff00ff00ff0083166fffffffffffffffffffffffffffffffff16901c17905060106dffff0000ffff0000ffff0000ffff82166fffffffffffffffffffffffffffffffff16901b60106fffff0000ffff0000ffff0000ffff000083166fffffffffffffffffffffffffffffffff16901c17905060206bffffffff00000000ffffffff82166fffffffffffffffffffffffffffffffff16901b60206fffffffff00000000ffffffff0000000083166fffffffffffffffffffffffffffffffff16901c1790506040816fffffffffffffffffffffffffffffffff16901b6040826fffffffffffffffffffffffffffffffff16901c179050919050565b6000828260ff168151811061089157fe5b602001015160f81c60f81b60f81c905092915050565b600081905060087eff00ff00ff00ff00ff00ff00ff00ff00ff00ff00ff00ff00ff00ff00ff00ff8216901b60087fff00ff00ff00ff00ff00ff00ff00ff00ff00ff00ff00ff00ff00ff00ff00ff008316901c17905060107dffff0000ffff0000ffff0000ffff0000ffff0000ffff0000ffff0000ffff8216901b60107fffff0000ffff0000ffff0000ffff0000ffff0000ffff0000ffff0000ffff00008316901c17905060207bffffffff00000000ffffffff00000000ffffffff00000000ffffffff8216901b60207fffffffff00000000ffffffff00000000ffffffff00000000ffffffff000000008316901c179050604077ffffffffffffffff0000000000000000ffffffffffffffff8216901b60407fffffffffffffffff0000000000000000ffffffffffffffff00000000000000008316901c179050608081901b608082901c179050919050565b6000819050600866ff00ff00ff00ff821667ffffffffffffffff16901b600867ff00ff00ff00ff00831667ffffffffffffffff16901c179050601065ffff0000ffff821667ffffffffffffffff16901b601067ffff0000ffff0000831667ffffffffffffffff16901c17905060208167ffffffffffffffff16901b60208267ffffffffffffffff16901c17905091905056fe4e6f7420737570706f727465643a206e756d6265722063616e6e6f742062652067726561746572207468616e203332206279746573a26469706673582212204fb8082eef5224751fd5237061b43160a7efab8188ccf0598db7a43cfcadc2a264736f6c63430007060033",
  "immutableReferences": {},
  "source": "// SPDX-License-Identifier: MIT\npragma solidity >=0.7.6;\n\nlibrary ScaleCodec {\n    // Decodes a SCALE encoded uint256 by converting bytes (bid endian) to little endian format\n    function decodeUint256(bytes memory data) public pure returns (uint256) {\n        uint256 number;\n        for (uint256 i = data.length; i > 0; i--) {\n            number = number + uint256(uint8(data[i - 1])) * (2**(8 * (i - 1)));\n        }\n        return number;\n    }\n\n    // Decodes a SCALE encoded compact unsigned integer\n    function decodeUintCompact(bytes memory data)\n        public\n        pure\n        returns (uint256 v)\n    {\n        uint8 b = readByteAtIndex(data, 0); // read the first byte\n        uint8 mode = b & 3; // bitwise operation\n\n        if (mode == 0) {\n            // [0, 63]\n            return b >> 2; // right shift to remove mode bits\n        } else if (mode == 1) {\n            // [64, 16383]\n            uint8 bb = readByteAtIndex(data, 1); // read the second byte\n            uint64 r = bb; // convert to uint64\n            r <<= 6; // multiply by * 2^6\n            r += b >> 2; // right shift to remove mode bits\n            return r;\n        } else if (mode == 2) {\n            // [16384, 1073741823]\n            uint8 b2 = readByteAtIndex(data, 1); // read the next 3 bytes\n            uint8 b3 = readByteAtIndex(data, 2);\n            uint8 b4 = readByteAtIndex(data, 3);\n\n            uint32 x1 = uint32(b) | (uint32(b2) << 8); // convert to little endian\n            uint32 x2 = x1 | (uint32(b3) << 16);\n            uint32 x3 = x2 | (uint32(b4) << 24);\n\n            x3 >>= 2; // remove the last 2 mode bits\n            return uint256(x3);\n        } else if (mode == 3) {\n            // [1073741824, 4503599627370496]\n            uint8 l = b >> 2; // remove mode bits\n            require(\n                l > 32,\n                \"Not supported: number cannot be greater than 32 bytes\"\n            );\n        } else {\n            revert(\"Code should be unreachable\");\n        }\n    }\n\n    // Read a byte at a specific index and return it as type uint8\n    function readByteAtIndex(bytes memory data, uint8 index)\n        internal\n        pure\n        returns (uint8)\n    {\n        return uint8(data[index]);\n    }\n\n    // Sources:\n    //   * https://ethereum.stackexchange.com/questions/15350/how-to-convert-an-bytes-to-address-in-solidity/50528\n    //   * https://graphics.stanford.edu/~seander/bithacks.html#ReverseParallel\n\n    function reverse256(uint256 input) internal pure returns (uint256 v) {\n        v = input;\n\n        // swap bytes\n        v = ((v & 0xFF00FF00FF00FF00FF00FF00FF00FF00FF00FF00FF00FF00FF00FF00FF00FF00) >> 8) |\n            ((v & 0x00FF00FF00FF00FF00FF00FF00FF00FF00FF00FF00FF00FF00FF00FF00FF00FF) << 8);\n\n        // swap 2-byte long pairs\n        v = ((v & 0xFFFF0000FFFF0000FFFF0000FFFF0000FFFF0000FFFF0000FFFF0000FFFF0000) >> 16) |\n            ((v & 0x0000FFFF0000FFFF0000FFFF0000FFFF0000FFFF0000FFFF0000FFFF0000FFFF) << 16);\n\n        // swap 4-byte long pairs\n        v = ((v & 0xFFFFFFFF00000000FFFFFFFF00000000FFFFFFFF00000000FFFFFFFF00000000) >> 32) |\n            ((v & 0x00000000FFFFFFFF00000000FFFFFFFF00000000FFFFFFFF00000000FFFFFFFF) << 32);\n\n        // swap 8-byte long pairs\n        v = ((v & 0xFFFFFFFFFFFFFFFF0000000000000000FFFFFFFFFFFFFFFF0000000000000000) >> 64) |\n            ((v & 0x0000000000000000FFFFFFFFFFFFFFFF0000000000000000FFFFFFFFFFFFFFFF) << 64);\n\n        // swap 16-byte long pairs\n        v = (v >> 128) | (v << 128);\n    }\n\n    function reverse128(uint128 input) internal pure returns (uint128 v) {\n        v = input;\n\n        // swap bytes\n        v = ((v & 0xFF00FF00FF00FF00FF00FF00FF00FF00) >> 8) |\n            ((v & 0x00FF00FF00FF00FF00FF00FF00FF00FF) << 8);\n\n        // swap 2-byte long pairs\n        v = ((v & 0xFFFF0000FFFF0000FFFF0000FFFF0000) >> 16) |\n            ((v & 0x0000FFFF0000FFFF0000FFFF0000FFFF) << 16);\n\n        // swap 4-byte long pairs\n        v = ((v & 0xFFFFFFFF00000000FFFFFFFF00000000) >> 32) |\n            ((v & 0x00000000FFFFFFFF00000000FFFFFFFF) << 32);\n\n        // swap 8-byte long pairs\n        v = (v >> 64) | (v << 64);\n    }\n\n    function reverse64(uint64 input) internal pure returns (uint64 v) {\n        v = input;\n\n        // swap bytes\n        v = ((v & 0xFF00FF00FF00FF00) >> 8) |\n            ((v & 0x00FF00FF00FF00FF) << 8);\n\n        // swap 2-byte long pairs\n        v = ((v & 0xFFFF0000FFFF0000) >> 16) |\n            ((v & 0x0000FFFF0000FFFF) << 16);\n\n        // swap 4-byte long pairs\n        v = (v >> 32) | (v << 32);\n    }\n\n    function reverse32(uint32 input) internal pure returns (uint32 v) {\n        v = input;\n\n        // swap bytes\n        v = ((v & 0xFF00FF00) >> 8) |\n            ((v & 0x00FF00FF) << 8);\n\n        // swap 2-byte long pairs\n        v = (v >> 16) | (v << 16);\n    }\n\n    function reverse16(uint16 input) internal pure returns (uint16 v) {\n        v = input;\n\n        // swap bytes\n        v = (v >> 8) | (v << 8);\n    }\n\n    function encode256(uint256 input) public pure returns (bytes32) {\n        return bytes32(reverse256(input));\n    }\n\n    function encode128(uint128 input) public pure returns (bytes16) {\n        return bytes16(reverse128(input));\n    }\n\n    function encode64(uint64 input) public pure returns (bytes8) {\n        return bytes8(reverse64(input));\n    }\n\n    function encode32(uint32 input) public pure returns (bytes4) {\n        return bytes4(reverse32(input));\n    }\n\n    function encode16(uint16 input) public pure returns (bytes2) {\n        return bytes2(reverse16(input));\n    }\n}\n",
  "sourcePath": "/home/jamie/dev/clients/snowfork/polkadot-ethereum/ethereum/contracts/ScaleCodec.sol",
  "compiler": {
    "name": "solc",
    "version": "0.7.6+commit.7338295f.Emscripten.clang"
  },
  "schemaVersion": "3.2.5",
  "updatedAt": "2021-04-12T09:16:36.054Z",
  "networkType": "ethereum",
  "devdoc": {
    "kind": "dev",
    "methods": {},
    "version": 1
  },
  "userdoc": {
    "kind": "user",
    "methods": {},
    "version": 1
  }
}