{
  "contractName": "ScaleCodec",
  "abi": [
    {
      "inputs": [
        {
          "internalType": "bytes",
          "name": "data",
          "type": "bytes"
        }
      ],
      "name": "decodeUint256",
      "outputs": [
        {
          "internalType": "uint256",
          "name": "",
          "type": "uint256"
        }
      ],
      "stateMutability": "pure",
      "type": "function",
      "constant": true
    },
    {
      "inputs": [
        {
          "internalType": "bytes",
          "name": "data",
          "type": "bytes"
        }
      ],
      "name": "decodeUintCompact",
      "outputs": [
        {
          "internalType": "uint256",
          "name": "v",
          "type": "uint256"
        }
      ],
      "stateMutability": "pure",
      "type": "function",
      "constant": true
    },
    {
      "inputs": [
        {
          "internalType": "uint256",
          "name": "input",
          "type": "uint256"
        }
      ],
      "name": "encode256",
      "outputs": [
        {
          "internalType": "bytes32",
          "name": "",
          "type": "bytes32"
        }
      ],
      "stateMutability": "pure",
      "type": "function",
      "constant": true
    },
    {
      "inputs": [
        {
          "internalType": "uint128",
          "name": "input",
          "type": "uint128"
        }
      ],
      "name": "encode128",
      "outputs": [
        {
          "internalType": "bytes16",
          "name": "",
          "type": "bytes16"
        }
      ],
      "stateMutability": "pure",
      "type": "function",
      "constant": true
    },
    {
      "inputs": [
        {
          "internalType": "uint64",
          "name": "input",
          "type": "uint64"
        }
      ],
      "name": "encode64",
      "outputs": [
        {
          "internalType": "bytes8",
          "name": "",
          "type": "bytes8"
        }
      ],
      "stateMutability": "pure",
      "type": "function",
      "constant": true
    },
    {
      "inputs": [
        {
          "internalType": "uint32",
          "name": "input",
          "type": "uint32"
        }
      ],
      "name": "encode32",
      "outputs": [
        {
          "internalType": "bytes4",
          "name": "",
          "type": "bytes4"
        }
      ],
      "stateMutability": "pure",
      "type": "function",
      "constant": true
    },
    {
      "inputs": [
        {
          "internalType": "uint16",
          "name": "input",
          "type": "uint16"
        }
      ],
      "name": "encode16",
      "outputs": [
        {
          "internalType": "bytes2",
          "name": "",
          "type": "bytes2"
        }
      ],
      "stateMutability": "pure",
      "type": "function",
      "constant": true
    }
  ],
  "bytecode": "0x61123d610053600b82828239805160001a607314610046577f4e487b7100000000000000000000000000000000000000000000000000000000600052600060045260246000fd5b30600052607381538281f3fe73000000000000000000000000000000000000000030146080604052600436106100875760003560e01c80638dedf6ee116100655780638dedf6ee1461011c578063a8b871dd1461014c578063dfd47e0e1461017c578063f83d7d5f146101ac57610087565b80631553ce431461008c578063381f760d146100bc5780636d78dc9c146100ec575b600080fd5b6100a660048036038101906100a191906109b1565b6101dc565b6040516100b39190610b20565b60405180910390f35b6100d660048036038101906100d19190610a0b565b6101f1565b6040516100e39190610b56565b60405180910390f35b6101066004803603810190610101919061093b565b610206565b6040516101139190610bcc565b60405180910390f35b61013660048036038101906101319190610984565b6102a2565b6040516101439190610b05565b60405180910390f35b6101666004803603810190610161919061093b565b6102b7565b6040516101739190610bcc565b60405180910390f35b610196600480360381019061019191906109de565b610493565b6040516101a39190610b3b565b60405180910390f35b6101c660048036038101906101c19190610a38565b6104a8565b6040516101d39190610b71565b60405180910390f35b60006101e7826104bd565b60f01b9050919050565b60006101fc826104dc565b60e01b9050919050565b6000806000835190505b6000811115610298576001816102269190610ead565b60086102329190610e53565b600261023e9190610d35565b8460018361024c9190610ead565b8151811061025d5761025c61108c565b5b602001015160f81c60f81b60f81c60ff166102789190610e53565b826102839190610c4e565b9150808061029090611002565b915050610210565b5080915050919050565b60006102ad82610523565b60801b9050919050565b6000806102c5836000610656565b9050600060038216905060008160ff1614156102ef5760028260ff16901c60ff169250505061048e565b60018160ff161415610351576000610308856001610656565b905060008160ff16905060068167ffffffffffffffff16901b905060028460ff16901c60ff16816103399190610ca4565b90508067ffffffffffffffff1694505050505061048e565b60028160ff1614156103ec57600061036a856001610656565b90506000610379866002610656565b90506000610388876003610656565b9050600060088460ff1663ffffffff16901b8660ff16179050600060108460ff1663ffffffff16901b82179050600060188460ff1663ffffffff16901b8217905060028163ffffffff16901c90508063ffffffff169850505050505050505061048e565b60038160ff16141561045057600060028360ff16901c905060208160ff161161044a576040517f08c379a000000000000000000000000000000000000000000000000000000000815260040161044190610b8c565b60405180910390fd5b5061048b565b6040517f08c379a000000000000000000000000000000000000000000000000000000000815260040161048290610bac565b60405180910390fd5b50505b919050565b600061049e82610684565b60001b9050919050565b60006104b3826107d0565b60c01b9050919050565b600081905060088161ffff16901b60088261ffff16901c179050919050565b6000819050600862ff00ff821663ffffffff16901b600863ff00ff00831663ffffffff16901c17905060108163ffffffff16901b60108263ffffffff16901c179050919050565b600081905060086eff00ff00ff00ff00ff00ff00ff00ff82166fffffffffffffffffffffffffffffffff16901b60086fff00ff00ff00ff00ff00ff00ff00ff0083166fffffffffffffffffffffffffffffffff16901c17905060106dffff0000ffff0000ffff0000ffff82166fffffffffffffffffffffffffffffffff16901b60106fffff0000ffff0000ffff0000ffff000083166fffffffffffffffffffffffffffffffff16901c17905060206bffffffff00000000ffffffff82166fffffffffffffffffffffffffffffffff16901b60206fffffffff00000000ffffffff0000000083166fffffffffffffffffffffffffffffffff16901c1790506040816fffffffffffffffffffffffffffffffff16901b6040826fffffffffffffffffffffffffffffffff16901c179050919050565b6000828260ff168151811061066e5761066d61108c565b5b602001015160f81c60f81b60f81c905092915050565b600081905060087eff00ff00ff00ff00ff00ff00ff00ff00ff00ff00ff00ff00ff00ff00ff00ff8216901b60087fff00ff00ff00ff00ff00ff00ff00ff00ff00ff00ff00ff00ff00ff00ff00ff008316901c17905060107dffff0000ffff0000ffff0000ffff0000ffff0000ffff0000ffff0000ffff8216901b60107fffff0000ffff0000ffff0000ffff0000ffff0000ffff0000ffff0000ffff00008316901c17905060207bffffffff00000000ffffffff00000000ffffffff00000000ffffffff8216901b60207fffffffff00000000ffffffff00000000ffffffff00000000ffffffff000000008316901c179050604077ffffffffffffffff0000000000000000ffffffffffffffff8216901b60407fffffffffffffffff0000000000000000ffffffffffffffff00000000000000008316901c179050608081901b608082901c179050919050565b6000819050600866ff00ff00ff00ff821667ffffffffffffffff16901b600867ff00ff00ff00ff00831667ffffffffffffffff16901c179050601065ffff0000ffff821667ffffffffffffffff16901b601067ffff0000ffff0000831667ffffffffffffffff16901c17905060208167ffffffffffffffff16901b60208267ffffffffffffffff16901c179050919050565b600061087561087084610c0c565b610be7565b905082815260208101848484011115610891576108906110ef565b5b61089c848285610ff3565b509392505050565b600082601f8301126108b9576108b86110ea565b5b81356108c9848260208601610862565b91505092915050565b6000813590506108e181611194565b92915050565b6000813590506108f6816111ab565b92915050565b60008135905061090b816111c2565b92915050565b600081359050610920816111d9565b92915050565b600081359050610935816111f0565b92915050565b600060208284031215610951576109506110f9565b5b600082013567ffffffffffffffff81111561096f5761096e6110f4565b5b61097b848285016108a4565b91505092915050565b60006020828403121561099a576109996110f9565b5b60006109a8848285016108d2565b91505092915050565b6000602082840312156109c7576109c66110f9565b5b60006109d5848285016108e7565b91505092915050565b6000602082840312156109f4576109f36110f9565b5b6000610a02848285016108fc565b91505092915050565b600060208284031215610a2157610a206110f9565b5b6000610a2f84828501610911565b91505092915050565b600060208284031215610a4e57610a4d6110f9565b5b6000610a5c84828501610926565b91505092915050565b610a6e81610ee1565b82525050565b610a7d81610f0d565b82525050565b610a8c81610f39565b82525050565b610a9b81610f43565b82525050565b610aaa81610f6f565b82525050565b6000610abd603583610c3d565b9150610ac88261111c565b604082019050919050565b6000610ae0601a83610c3d565b9150610aeb8261116b565b602082019050919050565b610aff81610fc5565b82525050565b6000602082019050610b1a6000830184610a65565b92915050565b6000602082019050610b356000830184610a74565b92915050565b6000602082019050610b506000830184610a83565b92915050565b6000602082019050610b6b6000830184610a92565b92915050565b6000602082019050610b866000830184610aa1565b92915050565b60006020820190508181036000830152610ba581610ab0565b9050919050565b60006020820190508181036000830152610bc581610ad3565b9050919050565b6000602082019050610be16000830184610af6565b92915050565b6000610bf1610c02565b9050610bfd828261102c565b919050565b6000604051905090565b600067ffffffffffffffff821115610c2757610c266110bb565b5b610c30826110fe565b9050602081019050919050565b600082825260208201905092915050565b6000610c5982610fc5565b9150610c6483610fc5565b9250827fffffffffffffffffffffffffffffffffffffffffffffffffffffffffffffffff03821115610c9957610c9861105d565b5b828201905092915050565b6000610caf82610fdf565b9150610cba83610fdf565b92508267ffffffffffffffff03821115610cd757610cd661105d565b5b828201905092915050565b6000808291508390505b6001851115610d2c57808604811115610d0857610d0761105d565b5b6001851615610d175780820291505b8081029050610d258561110f565b9450610cec565b94509492505050565b6000610d4082610fc5565b9150610d4b83610fc5565b9250610d787fffffffffffffffffffffffffffffffffffffffffffffffffffffffffffffffff8484610d80565b905092915050565b600082610d905760019050610e4c565b81610d9e5760009050610e4c565b8160018114610db45760028114610dbe57610ded565b6001915050610e4c565b60ff841115610dd057610dcf61105d565b5b8360020a915084821115610de757610de661105d565b5b50610e4c565b5060208310610133831016604e8410600b8410161715610e225782820a905083811115610e1d57610e1c61105d565b5b610e4c565b610e2f8484846001610ce2565b92509050818404811115610e4657610e4561105d565b5b81810290505b9392505050565b6000610e5e82610fc5565b9150610e6983610fc5565b9250817fffffffffffffffffffffffffffffffffffffffffffffffffffffffffffffffff0483118215151615610ea257610ea161105d565b5b828202905092915050565b6000610eb882610fc5565b9150610ec383610fc5565b925082821015610ed657610ed561105d565b5b828203905092915050565b60007fffffffffffffffffffffffffffffffff0000000000000000000000000000000082169050919050565b60007fffff00000000000000000000000000000000000000000000000000000000000082169050919050565b6000819050919050565b60007fffffffff0000000000000000000000000000000000000000000000000000000082169050919050565b60007fffffffffffffffff00000000000000000000000000000000000000000000000082169050919050565b60006fffffffffffffffffffffffffffffffff82169050919050565b600061ffff82169050919050565b6000819050919050565b600063ffffffff82169050919050565b600067ffffffffffffffff82169050919050565b82818337600083830152505050565b600061100d82610fc5565b915060008214156110215761102061105d565b5b600182039050919050565b611035826110fe565b810181811067ffffffffffffffff82111715611054576110536110bb565b5b80604052505050565b7f4e487b7100000000000000000000000000000000000000000000000000000000600052601160045260246000fd5b7f4e487b7100000000000000000000000000000000000000000000000000000000600052603260045260246000fd5b7f4e487b7100000000000000000000000000000000000000000000000000000000600052604160045260246000fd5b600080fd5b600080fd5b600080fd5b600080fd5b6000601f19601f8301169050919050565b60008160011c9050919050565b7f4e6f7420737570706f727465643a206e756d6265722063616e6e6f742062652060008201527f67726561746572207468616e2033322062797465730000000000000000000000602082015250565b7f436f64652073686f756c6420626520756e726561636861626c65000000000000600082015250565b61119d81610f9b565b81146111a857600080fd5b50565b6111b481610fb7565b81146111bf57600080fd5b50565b6111cb81610fc5565b81146111d657600080fd5b50565b6111e281610fcf565b81146111ed57600080fd5b50565b6111f981610fdf565b811461120457600080fd5b5056fea26469706673582212202d3af7d39e0b38b4dc5db41b38b589cdc38641b919fa39e59a057279bb88558864736f6c63430008060033",
  "immutableReferences": {},
  "source": "// SPDX-License-Identifier: MIT\npragma solidity >=0.7.6;\n\nlibrary ScaleCodec {\n    // Decodes a SCALE encoded uint256 by converting bytes (bid endian) to little endian format\n    function decodeUint256(bytes memory data) public pure returns (uint256) {\n        uint256 number;\n        for (uint256 i = data.length; i > 0; i--) {\n            number = number + uint256(uint8(data[i - 1])) * (2**(8 * (i - 1)));\n        }\n        return number;\n    }\n\n    // Decodes a SCALE encoded compact unsigned integer\n    function decodeUintCompact(bytes memory data)\n        public\n        pure\n        returns (uint256 v)\n    {\n        uint8 b = readByteAtIndex(data, 0); // read the first byte\n        uint8 mode = b & 3; // bitwise operation\n\n        if (mode == 0) {\n            // [0, 63]\n            return b >> 2; // right shift to remove mode bits\n        } else if (mode == 1) {\n            // [64, 16383]\n            uint8 bb = readByteAtIndex(data, 1); // read the second byte\n            uint64 r = bb; // convert to uint64\n            r <<= 6; // multiply by * 2^6\n            r += b >> 2; // right shift to remove mode bits\n            return r;\n        } else if (mode == 2) {\n            // [16384, 1073741823]\n            uint8 b2 = readByteAtIndex(data, 1); // read the next 3 bytes\n            uint8 b3 = readByteAtIndex(data, 2);\n            uint8 b4 = readByteAtIndex(data, 3);\n\n            uint32 x1 = uint32(b) | (uint32(b2) << 8); // convert to little endian\n            uint32 x2 = x1 | (uint32(b3) << 16);\n            uint32 x3 = x2 | (uint32(b4) << 24);\n\n            x3 >>= 2; // remove the last 2 mode bits\n            return uint256(x3);\n        } else if (mode == 3) {\n            // [1073741824, 4503599627370496]\n            uint8 l = b >> 2; // remove mode bits\n            require(\n                l > 32,\n                \"Not supported: number cannot be greater than 32 bytes\"\n            );\n        } else {\n            revert(\"Code should be unreachable\");\n        }\n    }\n\n    // Read a byte at a specific index and return it as type uint8\n    function readByteAtIndex(bytes memory data, uint8 index)\n        internal\n        pure\n        returns (uint8)\n    {\n        return uint8(data[index]);\n    }\n\n    // Sources:\n    //   * https://ethereum.stackexchange.com/questions/15350/how-to-convert-an-bytes-to-address-in-solidity/50528\n    //   * https://graphics.stanford.edu/~seander/bithacks.html#ReverseParallel\n\n    function reverse256(uint256 input) internal pure returns (uint256 v) {\n        v = input;\n\n        // swap bytes\n        v = ((v & 0xFF00FF00FF00FF00FF00FF00FF00FF00FF00FF00FF00FF00FF00FF00FF00FF00) >> 8) |\n            ((v & 0x00FF00FF00FF00FF00FF00FF00FF00FF00FF00FF00FF00FF00FF00FF00FF00FF) << 8);\n\n        // swap 2-byte long pairs\n        v = ((v & 0xFFFF0000FFFF0000FFFF0000FFFF0000FFFF0000FFFF0000FFFF0000FFFF0000) >> 16) |\n            ((v & 0x0000FFFF0000FFFF0000FFFF0000FFFF0000FFFF0000FFFF0000FFFF0000FFFF) << 16);\n\n        // swap 4-byte long pairs\n        v = ((v & 0xFFFFFFFF00000000FFFFFFFF00000000FFFFFFFF00000000FFFFFFFF00000000) >> 32) |\n            ((v & 0x00000000FFFFFFFF00000000FFFFFFFF00000000FFFFFFFF00000000FFFFFFFF) << 32);\n\n        // swap 8-byte long pairs\n        v = ((v & 0xFFFFFFFFFFFFFFFF0000000000000000FFFFFFFFFFFFFFFF0000000000000000) >> 64) |\n            ((v & 0x0000000000000000FFFFFFFFFFFFFFFF0000000000000000FFFFFFFFFFFFFFFF) << 64);\n\n        // swap 16-byte long pairs\n        v = (v >> 128) | (v << 128);\n    }\n\n    function reverse128(uint128 input) internal pure returns (uint128 v) {\n        v = input;\n\n        // swap bytes\n        v = ((v & 0xFF00FF00FF00FF00FF00FF00FF00FF00) >> 8) |\n            ((v & 0x00FF00FF00FF00FF00FF00FF00FF00FF) << 8);\n\n        // swap 2-byte long pairs\n        v = ((v & 0xFFFF0000FFFF0000FFFF0000FFFF0000) >> 16) |\n            ((v & 0x0000FFFF0000FFFF0000FFFF0000FFFF) << 16);\n\n        // swap 4-byte long pairs\n        v = ((v & 0xFFFFFFFF00000000FFFFFFFF00000000) >> 32) |\n            ((v & 0x00000000FFFFFFFF00000000FFFFFFFF) << 32);\n\n        // swap 8-byte long pairs\n        v = (v >> 64) | (v << 64);\n    }\n\n    function reverse64(uint64 input) internal pure returns (uint64 v) {\n        v = input;\n\n        // swap bytes\n        v = ((v & 0xFF00FF00FF00FF00) >> 8) |\n            ((v & 0x00FF00FF00FF00FF) << 8);\n\n        // swap 2-byte long pairs\n        v = ((v & 0xFFFF0000FFFF0000) >> 16) |\n            ((v & 0x0000FFFF0000FFFF) << 16);\n\n        // swap 4-byte long pairs\n        v = (v >> 32) | (v << 32);\n    }\n\n    function reverse32(uint32 input) internal pure returns (uint32 v) {\n        v = input;\n\n        // swap bytes\n        v = ((v & 0xFF00FF00) >> 8) |\n            ((v & 0x00FF00FF) << 8);\n\n        // swap 2-byte long pairs\n        v = (v >> 16) | (v << 16);\n    }\n\n    function reverse16(uint16 input) internal pure returns (uint16 v) {\n        v = input;\n\n        // swap bytes\n        v = (v >> 8) | (v << 8);\n    }\n\n    function encode256(uint256 input) public pure returns (bytes32) {\n        return bytes32(reverse256(input));\n    }\n\n    function encode128(uint128 input) public pure returns (bytes16) {\n        return bytes16(reverse128(input));\n    }\n\n    function encode64(uint64 input) public pure returns (bytes8) {\n        return bytes8(reverse64(input));\n    }\n\n    function encode32(uint32 input) public pure returns (bytes4) {\n        return bytes4(reverse32(input));\n    }\n\n    function encode16(uint16 input) public pure returns (bytes2) {\n        return bytes2(reverse16(input));\n    }\n}\n",
  "sourcePath": "/home/jamie/dev/clients/snowfork/snowbridge/ethereum/contracts/ScaleCodec.sol",
  "compiler": {
    "name": "solc",
    "version": "0.8.6+commit.11564f7e.Emscripten.clang"
  },
  "schemaVersion": "3.4.1",
  "updatedAt": "2021-07-19T08:57:31.279Z",
  "networkType": "ethereum",
  "devdoc": {
    "kind": "dev",
    "methods": {},
    "version": 1
  },
  "userdoc": {
    "kind": "user",
    "methods": {},
    "version": 1
  }
}