{
  "contractName": "ScaleCodec",
  "abi": [
    {
      "inputs": [
        {
          "internalType": "bytes",
          "name": "data",
          "type": "bytes"
        }
      ],
      "name": "decodeUint256",
      "outputs": [
        {
          "internalType": "uint256",
          "name": "",
          "type": "uint256"
        }
      ],
      "stateMutability": "pure",
      "type": "function",
      "constant": true
    },
    {
      "inputs": [
        {
          "internalType": "bytes",
          "name": "data",
          "type": "bytes"
        }
      ],
      "name": "decodeUintCompact",
      "outputs": [
        {
          "internalType": "uint256",
          "name": "v",
          "type": "uint256"
        }
      ],
      "stateMutability": "pure",
      "type": "function",
      "constant": true
    }
  ],
  "bytecode": "0x6104eb610026600b82828239805160001a60731461001957fe5b30600052607381538281f3fe73000000000000000000000000000000000000000030146080604052600436106100405760003560e01c80636d78dc9c14610045578063a8b871dd14610114575b600080fd5b6100fe6004803603602081101561005b57600080fd5b810190808035906020019064010000000081111561007857600080fd5b82018360208201111561008a57600080fd5b803590602001918460018302840111640100000000831117156100ac57600080fd5b91908080601f016020809104026020016040519081016040528093929190818152602001838380828437600081840152601f19601f8201169050808301925050505050505091929192905050506101e3565b6040518082815260200191505060405180910390f35b6101cd6004803603602081101561012a57600080fd5b810190808035906020019064010000000081111561014757600080fd5b82018360208201111561015957600080fd5b8035906020019184600183028401116401000000008311171561017b57600080fd5b91908080601f016020809104026020016040519081016040528093929190818152602001838380828437600081840152601f19601f82011690508083019250505050505050919291929050505061023d565b6040518082815260200191505060405180910390f35b6000806000835190505b6000811115610233576001810360080260020a84600183038151811061020f57fe5b602001015160f81c60f81b60f81c60ff1602820191508080600190039150506101ed565b5080915050919050565b60008061024b836000610459565b9050600060038216905060008160ff1614156102755760028260ff16901c60ff1692505050610454565b60018160ff1614156102ce57600061028e856001610459565b905060008160ff16905060068167ffffffffffffffff16901b905060028460ff16901c60ff16810190508067ffffffffffffffff16945050505050610454565b60028160ff1614156103695760006102e7856001610459565b905060006102f6866002610459565b90506000610305876003610459565b9050600060088460ff1663ffffffff16901b8660ff16179050600060108460ff1663ffffffff16901b82179050600060188460ff1663ffffffff16901b8217905060028163ffffffff16901c90508063ffffffff1698505050505050505050610454565b60038160ff1614156103e357600060028360ff16901c905060208160ff16116103dd576040517f08c379a00000000000000000000000000000000000000000000000000000000081526004018080602001828103825260358152602001806104816035913960400191505060405180910390fd5b50610451565b6040517f08c379a000000000000000000000000000000000000000000000000000000000815260040180806020018281038252601a8152602001807f436f64652073686f756c6420626520756e726561636861626c6500000000000081525060200191505060405180910390fd5b50505b919050565b6000828260ff168151811061046a57fe5b602001015160f81c60f81b60f81c90509291505056fe4e6f7420737570706f727465643a206e756d6265722063616e6e6f742062652067726561746572207468616e203332206279746573a2646970667358221220ed5fd3cda8a292aafa807313898a201d3edad44dbd7b3c280b8a5738a435f40464736f6c63430007060033",
  "immutableReferences": {},
  "source": "// SPDX-License-Identifier: MIT\npragma solidity >=0.7.6;\n\nlibrary ScaleCodec {\n    // Decodes a SCALE encoded uint256 by converting bytes (bid endian) to little endian format\n    function decodeUint256(bytes memory data) public pure returns (uint256) {\n        uint256 number;\n        for (uint256 i = data.length; i > 0; i--) {\n            number = number + uint256(uint8(data[i - 1])) * (2**(8 * (i - 1)));\n        }\n        return number;\n    }\n\n    // Decodes a SCALE encoded compact unsigned integer\n    function decodeUintCompact(bytes memory data)\n        public\n        pure\n        returns (uint256 v)\n    {\n        uint8 b = readByteAtIndex(data, 0); // read the first byte\n        uint8 mode = b & 3; // bitwise operation\n\n        if (mode == 0) {\n            // [0, 63]\n            return b >> 2; // right shift to remove mode bits\n        } else if (mode == 1) {\n            // [64, 16383]\n            uint8 bb = readByteAtIndex(data, 1); // read the second byte\n            uint64 r = bb; // convert to uint64\n            r <<= 6; // multiply by * 2^6\n            r += b >> 2; // right shift to remove mode bits\n            return r;\n        } else if (mode == 2) {\n            // [16384, 1073741823]\n            uint8 b2 = readByteAtIndex(data, 1); // read the next 3 bytes\n            uint8 b3 = readByteAtIndex(data, 2);\n            uint8 b4 = readByteAtIndex(data, 3);\n\n            uint32 x1 = uint32(b) | (uint32(b2) << 8); // convert to little endian\n            uint32 x2 = x1 | (uint32(b3) << 16);\n            uint32 x3 = x2 | (uint32(b4) << 24);\n\n            x3 >>= 2; // remove the last 2 mode bits\n            return uint256(x3);\n        } else if (mode == 3) {\n            // [1073741824, 4503599627370496]\n            uint8 l = b >> 2; // remove mode bits\n            require(\n                l > 32,\n                \"Not supported: number cannot be greater than 32 bytes\"\n            );\n        } else {\n            revert(\"Code should be unreachable\");\n        }\n    }\n\n    // Read a byte at a specific index and return it as type uint8\n    function readByteAtIndex(bytes memory data, uint8 index)\n        internal\n        pure\n        returns (uint8)\n    {\n        return uint8(data[index]);\n    }\n\n    function toBytes32LE(uint256 value) internal pure returns (bytes32) {\n        bytes32 b = bytes32(value);\n        bytes32 out;\n        for (uint i = 0; i < 32; i++) {\n            out |= bytes32(b[32 - i - 1] & 0xFF) >> (i * 8);\n        }\n        return out;\n    }\n}\n",
  "sourcePath": "/Users/aidanmusnitzky/code/snowfork/polkadot-ethereum/ethereum/contracts/ScaleCodec.sol",
  "compiler": {
    "name": "solc",
    "version": "0.7.6+commit.7338295f.Emscripten.clang"
  },
  "schemaVersion": "3.3.3",
  "updatedAt": "2021-02-03T12:14:46.019Z",
  "networkType": "ethereum",
  "devdoc": {
    "kind": "dev",
    "methods": {},
    "version": 1
  },
  "userdoc": {
    "kind": "user",
    "methods": {},
    "version": 1
  }
}