{
  "_format": "hh-sol-artifact-1",
  "contractName": "TestToken721Enumerable",
  "sourceName": "contracts/test/TestToken721Enumerable.sol",
  "abi": [
    {
      "inputs": [
        {
          "internalType": "string",
          "name": "_name",
          "type": "string"
        },
        {
          "internalType": "string",
          "name": "_symbol",
          "type": "string"
        }
      ],
      "stateMutability": "nonpayable",
      "type": "constructor"
    },
    {
      "anonymous": false,
      "inputs": [
        {
          "indexed": true,
          "internalType": "address",
          "name": "owner",
          "type": "address"
        },
        {
          "indexed": true,
          "internalType": "address",
          "name": "approved",
          "type": "address"
        },
        {
          "indexed": true,
          "internalType": "uint256",
          "name": "tokenId",
          "type": "uint256"
        }
      ],
      "name": "Approval",
      "type": "event"
    },
    {
      "anonymous": false,
      "inputs": [
        {
          "indexed": true,
          "internalType": "address",
          "name": "owner",
          "type": "address"
        },
        {
          "indexed": true,
          "internalType": "address",
          "name": "operator",
          "type": "address"
        },
        {
          "indexed": false,
          "internalType": "bool",
          "name": "approved",
          "type": "bool"
        }
      ],
      "name": "ApprovalForAll",
      "type": "event"
    },
    {
      "anonymous": false,
      "inputs": [
        {
          "indexed": true,
          "internalType": "address",
          "name": "from",
          "type": "address"
        },
        {
          "indexed": true,
          "internalType": "address",
          "name": "to",
          "type": "address"
        },
        {
          "indexed": true,
          "internalType": "uint256",
          "name": "tokenId",
          "type": "uint256"
        }
      ],
      "name": "Transfer",
      "type": "event"
    },
    {
      "inputs": [
        {
          "internalType": "address",
          "name": "to",
          "type": "address"
        },
        {
          "internalType": "uint256",
          "name": "tokenId",
          "type": "uint256"
        }
      ],
      "name": "approve",
      "outputs": [],
      "stateMutability": "nonpayable",
      "type": "function"
    },
    {
      "inputs": [
        {
          "internalType": "address",
          "name": "owner",
          "type": "address"
        }
      ],
      "name": "balanceOf",
      "outputs": [
        {
          "internalType": "uint256",
          "name": "",
          "type": "uint256"
        }
      ],
      "stateMutability": "view",
      "type": "function"
    },
    {
      "inputs": [
        {
          "internalType": "uint256",
          "name": "tokenId",
          "type": "uint256"
        }
      ],
      "name": "getApproved",
      "outputs": [
        {
          "internalType": "address",
          "name": "",
          "type": "address"
        }
      ],
      "stateMutability": "view",
      "type": "function"
    },
    {
      "inputs": [
        {
          "internalType": "address",
          "name": "owner",
          "type": "address"
        },
        {
          "internalType": "address",
          "name": "operator",
          "type": "address"
        }
      ],
      "name": "isApprovedForAll",
      "outputs": [
        {
          "internalType": "bool",
          "name": "",
          "type": "bool"
        }
      ],
      "stateMutability": "view",
      "type": "function"
    },
    {
      "inputs": [
        {
          "internalType": "address",
          "name": "to",
          "type": "address"
        },
        {
          "internalType": "uint256",
          "name": "tokenId",
          "type": "uint256"
        }
      ],
      "name": "mint",
      "outputs": [],
      "stateMutability": "nonpayable",
      "type": "function"
    },
    {
      "inputs": [],
      "name": "name",
      "outputs": [
        {
          "internalType": "string",
          "name": "",
          "type": "string"
        }
      ],
      "stateMutability": "view",
      "type": "function"
    },
    {
      "inputs": [
        {
          "internalType": "uint256",
          "name": "tokenId",
          "type": "uint256"
        }
      ],
      "name": "ownerOf",
      "outputs": [
        {
          "internalType": "address",
          "name": "",
          "type": "address"
        }
      ],
      "stateMutability": "view",
      "type": "function"
    },
    {
      "inputs": [
        {
          "internalType": "address",
          "name": "from",
          "type": "address"
        },
        {
          "internalType": "address",
          "name": "to",
          "type": "address"
        },
        {
          "internalType": "uint256",
          "name": "tokenId",
          "type": "uint256"
        }
      ],
      "name": "safeTransferFrom",
      "outputs": [],
      "stateMutability": "nonpayable",
      "type": "function"
    },
    {
      "inputs": [
        {
          "internalType": "address",
          "name": "from",
          "type": "address"
        },
        {
          "internalType": "address",
          "name": "to",
          "type": "address"
        },
        {
          "internalType": "uint256",
          "name": "tokenId",
          "type": "uint256"
        },
        {
          "internalType": "bytes",
          "name": "_data",
          "type": "bytes"
        }
      ],
      "name": "safeTransferFrom",
      "outputs": [],
      "stateMutability": "nonpayable",
      "type": "function"
    },
    {
      "inputs": [
        {
          "internalType": "address",
          "name": "operator",
          "type": "address"
        },
        {
          "internalType": "bool",
          "name": "approved",
          "type": "bool"
        }
      ],
      "name": "setApprovalForAll",
      "outputs": [],
      "stateMutability": "nonpayable",
      "type": "function"
    },
    {
      "inputs": [
        {
          "internalType": "bytes4",
          "name": "interfaceId",
          "type": "bytes4"
        }
      ],
      "name": "supportsInterface",
      "outputs": [
        {
          "internalType": "bool",
          "name": "",
          "type": "bool"
        }
      ],
      "stateMutability": "view",
      "type": "function"
    },
    {
      "inputs": [],
      "name": "symbol",
      "outputs": [
        {
          "internalType": "string",
          "name": "",
          "type": "string"
        }
      ],
      "stateMutability": "view",
      "type": "function"
    },
    {
      "inputs": [
        {
          "internalType": "uint256",
          "name": "index",
          "type": "uint256"
        }
      ],
      "name": "tokenByIndex",
      "outputs": [
        {
          "internalType": "uint256",
          "name": "",
          "type": "uint256"
        }
      ],
      "stateMutability": "view",
      "type": "function"
    },
    {
      "inputs": [
        {
          "internalType": "address",
          "name": "owner",
          "type": "address"
        },
        {
          "internalType": "uint256",
          "name": "index",
          "type": "uint256"
        }
      ],
      "name": "tokenOfOwnerByIndex",
      "outputs": [
        {
          "internalType": "uint256",
          "name": "",
          "type": "uint256"
        }
      ],
      "stateMutability": "view",
      "type": "function"
    },
    {
      "inputs": [
        {
          "internalType": "uint256",
          "name": "tokenId",
          "type": "uint256"
        }
      ],
      "name": "tokenURI",
      "outputs": [
        {
          "internalType": "string",
          "name": "",
          "type": "string"
        }
      ],
      "stateMutability": "view",
      "type": "function"
    },
    {
      "inputs": [],
      "name": "totalSupply",
      "outputs": [
        {
          "internalType": "uint256",
          "name": "",
          "type": "uint256"
        }
      ],
      "stateMutability": "view",
      "type": "function"
    },
    {
      "inputs": [
        {
          "internalType": "address",
          "name": "from",
          "type": "address"
        },
        {
          "internalType": "address",
          "name": "to",
          "type": "address"
        },
        {
          "internalType": "uint256",
          "name": "tokenId",
          "type": "uint256"
        }
      ],
      "name": "transferFrom",
      "outputs": [],
      "stateMutability": "nonpayable",
      "type": "function"
    }
  ],
  "bytecode": "0x60806040523480156200001157600080fd5b506040516200321c3803806200321c8339818101604052810190620000379190620001a3565b818181600090805190602001906200005192919062000075565b5080600190805190602001906200006a92919062000075565b5050505050620003ac565b8280546200008390620002bd565b90600052602060002090601f016020900481019282620000a75760008555620000f3565b82601f10620000c257805160ff1916838001178555620000f3565b82800160010185558215620000f3579182015b82811115620000f2578251825591602001919060010190620000d5565b5b50905062000102919062000106565b5090565b5b808211156200012157600081600090555060010162000107565b5090565b60006200013c620001368462000251565b62000228565b9050828152602081018484840111156200015b576200015a6200038c565b5b6200016884828562000287565b509392505050565b600082601f83011262000188576200018762000387565b5b81516200019a84826020860162000125565b91505092915050565b60008060408385031215620001bd57620001bc62000396565b5b600083015167ffffffffffffffff811115620001de57620001dd62000391565b5b620001ec8582860162000170565b925050602083015167ffffffffffffffff81111562000210576200020f62000391565b5b6200021e8582860162000170565b9150509250929050565b60006200023462000247565b9050620002428282620002f3565b919050565b6000604051905090565b600067ffffffffffffffff8211156200026f576200026e62000358565b5b6200027a826200039b565b9050602081019050919050565b60005b83811015620002a75780820151818401526020810190506200028a565b83811115620002b7576000848401525b50505050565b60006002820490506001821680620002d657607f821691505b60208210811415620002ed57620002ec62000329565b5b50919050565b620002fe826200039b565b810181811067ffffffffffffffff8211171562000320576200031f62000358565b5b80604052505050565b7f4e487b7100000000000000000000000000000000000000000000000000000000600052602260045260246000fd5b7f4e487b7100000000000000000000000000000000000000000000000000000000600052604160045260246000fd5b600080fd5b600080fd5b600080fd5b600080fd5b6000601f19601f8301169050919050565b612e6080620003bc6000396000f3fe608060405234801561001057600080fd5b506004361061010b5760003560e01c806342842e0e116100a257806395d89b411161007157806395d89b41146102dc578063a22cb465146102fa578063b88d4fde14610316578063c87b56dd14610332578063e985e9c5146103625761010b565b806342842e0e146102305780634f6ccce71461024c5780636352211e1461027c57806370a08231146102ac5761010b565b806318160ddd116100de57806318160ddd146101aa57806323b872dd146101c85780632f745c59146101e457806340c10f19146102145761010b565b806301ffc9a71461011057806306fdde0314610140578063081812fc1461015e578063095ea7b31461018e575b600080fd5b61012a60048036038101906101259190611ec0565b610392565b60405161013791906122d2565b60405180910390f35b61014861040c565b60405161015591906122ed565b60405180910390f35b61017860048036038101906101739190611f1a565b61049e565b604051610185919061226b565b60405180910390f35b6101a860048036038101906101a39190611e80565b610523565b005b6101b261063b565b6040516101bf919061250f565b60405180910390f35b6101e260048036038101906101dd9190611d6a565b610648565b005b6101fe60048036038101906101f99190611e80565b6106a8565b60405161020b919061250f565b60405180910390f35b61022e60048036038101906102299190611e80565b61074d565b005b61024a60048036038101906102459190611d6a565b61075b565b005b61026660048036038101906102619190611f1a565b61077b565b604051610273919061250f565b60405180910390f35b61029660048036038101906102919190611f1a565b6107ec565b6040516102a3919061226b565b60405180910390f35b6102c660048036038101906102c19190611cfd565b61089e565b6040516102d3919061250f565b60405180910390f35b6102e4610956565b6040516102f191906122ed565b60405180910390f35b610314600480360381019061030f9190611e40565b6109e8565b005b610330600480360381019061032b9190611dbd565b610b69565b005b61034c60048036038101906103479190611f1a565b610bcb565b60405161035991906122ed565b60405180910390f35b61037c60048036038101906103779190611d2a565b610c72565b60405161038991906122d2565b60405180910390f35b60007f780e9d63000000000000000000000000000000000000000000000000000000007bffffffffffffffffffffffffffffffffffffffffffffffffffffffff1916827bffffffffffffffffffffffffffffffffffffffffffffffffffffffff19161480610405575061040482610d06565b5b9050919050565b60606000805461041b90612734565b80601f016020809104026020016040519081016040528092919081815260200182805461044790612734565b80156104945780601f1061046957610100808354040283529160200191610494565b820191906000526020600020905b81548152906001019060200180831161047757829003601f168201915b5050505050905090565b60006104a982610de8565b6104e8576040517f08c379a00000000000000000000000000000000000000000000000000000000081526004016104df9061244f565b60405180910390fd5b6004600083815260200190815260200160002060009054906101000a900473ffffffffffffffffffffffffffffffffffffffff169050919050565b600061052e826107ec565b90508073ffffffffffffffffffffffffffffffffffffffff168373ffffffffffffffffffffffffffffffffffffffff16141561059f576040517f08c379a0000000000000000000000000000000000000000000000000000000008152600401610596906124af565b60405180910390fd5b8073ffffffffffffffffffffffffffffffffffffffff166105be610e54565b73ffffffffffffffffffffffffffffffffffffffff1614806105ed57506105ec816105e7610e54565b610c72565b5b61062c576040517f08c379a0000000000000000000000000000000000000000000000000000000008152600401610623906123cf565b60405180910390fd5b6106368383610e5c565b505050565b6000600880549050905090565b610659610653610e54565b82610f15565b610698576040517f08c379a000000000000000000000000000000000000000000000000000000000815260040161068f906124cf565b60405180910390fd5b6106a3838383610ff3565b505050565b60006106b38361089e565b82106106f4576040517f08c379a00000000000000000000000000000000000000000000000000000000081526004016106eb9061230f565b60405180910390fd5b600660008473ffffffffffffffffffffffffffffffffffffffff1673ffffffffffffffffffffffffffffffffffffffff168152602001908152602001600020600083815260200190815260200160002054905092915050565b610757828261124f565b5050565b61077683838360405180602001604052806000815250610b69565b505050565b600061078561063b565b82106107c6576040517f08c379a00000000000000000000000000000000000000000000000000000000081526004016107bd906124ef565b60405180910390fd5b600882815481106107da576107d96128cd565b5b90600052602060002001549050919050565b6000806002600084815260200190815260200160002060009054906101000a900473ffffffffffffffffffffffffffffffffffffffff169050600073ffffffffffffffffffffffffffffffffffffffff168173ffffffffffffffffffffffffffffffffffffffff161415610895576040517f08c379a000000000000000000000000000000000000000000000000000000000815260040161088c9061240f565b60405180910390fd5b80915050919050565b60008073ffffffffffffffffffffffffffffffffffffffff168273ffffffffffffffffffffffffffffffffffffffff16141561090f576040517f08c379a0000000000000000000000000000000000000000000000000000000008152600401610906906123ef565b60405180910390fd5b600360008373ffffffffffffffffffffffffffffffffffffffff1673ffffffffffffffffffffffffffffffffffffffff168152602001908152602001600020549050919050565b60606001805461096590612734565b80601f016020809104026020016040519081016040528092919081815260200182805461099190612734565b80156109de5780601f106109b3576101008083540402835291602001916109de565b820191906000526020600020905b8154815290600101906020018083116109c157829003601f168201915b5050505050905090565b6109f0610e54565b73ffffffffffffffffffffffffffffffffffffffff168273ffffffffffffffffffffffffffffffffffffffff161415610a5e576040517f08c379a0000000000000000000000000000000000000000000000000000000008152600401610a559061238f565b60405180910390fd5b8060056000610a6b610e54565b73ffffffffffffffffffffffffffffffffffffffff1673ffffffffffffffffffffffffffffffffffffffff16815260200190815260200160002060008473ffffffffffffffffffffffffffffffffffffffff1673ffffffffffffffffffffffffffffffffffffffff16815260200190815260200160002060006101000a81548160ff0219169083151502179055508173ffffffffffffffffffffffffffffffffffffffff16610b18610e54565b73ffffffffffffffffffffffffffffffffffffffff167f17307eab39ab6107e8899845ad3d59bd9653f200f220920489ca2b5937696c3183604051610b5d91906122d2565b60405180910390a35050565b610b7a610b74610e54565b83610f15565b610bb9576040517f08c379a0000000000000000000000000000000000000000000000000000000008152600401610bb0906124cf565b60405180910390fd5b610bc58484848461141d565b50505050565b6060610bd682610de8565b610c15576040517f08c379a0000000000000000000000000000000000000000000000000000000008152600401610c0c9061248f565b60405180910390fd5b6000610c1f611479565b90506000815111610c3f5760405180602001604052806000815250610c6a565b80610c4984611490565b604051602001610c5a929190612247565b6040516020818303038152906040525b915050919050565b6000600560008473ffffffffffffffffffffffffffffffffffffffff1673ffffffffffffffffffffffffffffffffffffffff16815260200190815260200160002060008373ffffffffffffffffffffffffffffffffffffffff1673ffffffffffffffffffffffffffffffffffffffff16815260200190815260200160002060009054906101000a900460ff16905092915050565b60007f80ac58cd000000000000000000000000000000000000000000000000000000007bffffffffffffffffffffffffffffffffffffffffffffffffffffffff1916827bffffffffffffffffffffffffffffffffffffffffffffffffffffffff19161480610dd157507f5b5e139f000000000000000000000000000000000000000000000000000000007bffffffffffffffffffffffffffffffffffffffffffffffffffffffff1916827bffffffffffffffffffffffffffffffffffffffffffffffffffffffff1916145b80610de15750610de0826115f1565b5b9050919050565b60008073ffffffffffffffffffffffffffffffffffffffff166002600084815260200190815260200160002060009054906101000a900473ffffffffffffffffffffffffffffffffffffffff1673ffffffffffffffffffffffffffffffffffffffff1614159050919050565b600033905090565b816004600083815260200190815260200160002060006101000a81548173ffffffffffffffffffffffffffffffffffffffff021916908373ffffffffffffffffffffffffffffffffffffffff160217905550808273ffffffffffffffffffffffffffffffffffffffff16610ecf836107ec565b73ffffffffffffffffffffffffffffffffffffffff167f8c5be1e5ebec7d5bd14f71427d1e84f3dd0314c0f7b2291e5b200ac8c7c3b92560405160405180910390a45050565b6000610f2082610de8565b610f5f576040517f08c379a0000000000000000000000000000000000000000000000000000000008152600401610f56906123af565b60405180910390fd5b6000610f6a836107ec565b90508073ffffffffffffffffffffffffffffffffffffffff168473ffffffffffffffffffffffffffffffffffffffff161480610fd957508373ffffffffffffffffffffffffffffffffffffffff16610fc18461049e565b73ffffffffffffffffffffffffffffffffffffffff16145b80610fea5750610fe98185610c72565b5b91505092915050565b8273ffffffffffffffffffffffffffffffffffffffff16611013826107ec565b73ffffffffffffffffffffffffffffffffffffffff1614611069576040517f08c379a00000000000000000000000000000000000000000000000000000000081526004016110609061246f565b60405180910390fd5b600073ffffffffffffffffffffffffffffffffffffffff168273ffffffffffffffffffffffffffffffffffffffff1614156110d9576040517f08c379a00000000000000000000000000000000000000000000000000000000081526004016110d09061236f565b60405180910390fd5b6110e483838361165b565b6110ef600082610e5c565b6001600360008573ffffffffffffffffffffffffffffffffffffffff1673ffffffffffffffffffffffffffffffffffffffff168152602001908152602001600020600082825461113f919061264a565b925050819055506001600360008473ffffffffffffffffffffffffffffffffffffffff1673ffffffffffffffffffffffffffffffffffffffff168152602001908152602001600020600082825461119691906125c3565b92505081905550816002600083815260200190815260200160002060006101000a81548173ffffffffffffffffffffffffffffffffffffffff021916908373ffffffffffffffffffffffffffffffffffffffff160217905550808273ffffffffffffffffffffffffffffffffffffffff168473ffffffffffffffffffffffffffffffffffffffff167fddf252ad1be2c89b69c2b068fc378daa952ba7f163c4a11628f55a4df523b3ef60405160405180910390a4505050565b600073ffffffffffffffffffffffffffffffffffffffff168273ffffffffffffffffffffffffffffffffffffffff1614156112bf576040517f08c379a00000000000000000000000000000000000000000000000000000000081526004016112b69061242f565b60405180910390fd5b6112c881610de8565b15611308576040517f08c379a00000000000000000000000000000000000000000000000000000000081526004016112ff9061234f565b60405180910390fd5b6113146000838361165b565b6001600360008473ffffffffffffffffffffffffffffffffffffffff1673ffffffffffffffffffffffffffffffffffffffff168152602001908152602001600020600082825461136491906125c3565b92505081905550816002600083815260200190815260200160002060006101000a81548173ffffffffffffffffffffffffffffffffffffffff021916908373ffffffffffffffffffffffffffffffffffffffff160217905550808273ffffffffffffffffffffffffffffffffffffffff16600073ffffffffffffffffffffffffffffffffffffffff167fddf252ad1be2c89b69c2b068fc378daa952ba7f163c4a11628f55a4df523b3ef60405160405180910390a45050565b611428848484610ff3565b6114348484848461176f565b611473576040517f08c379a000000000000000000000000000000000000000000000000000000000815260040161146a9061232f565b60405180910390fd5b50505050565b606060405180602001604052806000815250905090565b606060008214156114d8576040518060400160405280600181526020017f300000000000000000000000000000000000000000000000000000000000000081525090506115ec565b600082905060005b6000821461150a5780806114f390612797565b915050600a826115039190612619565b91506114e0565b60008167ffffffffffffffff811115611526576115256128fc565b5b6040519080825280601f01601f1916602001820160405280156115585781602001600182028036833780820191505090505b5090505b600085146115e557600182611571919061264a565b9150600a8561158091906127e0565b603061158c91906125c3565b60f81b8183815181106115a2576115a16128cd565b5b60200101907effffffffffffffffffffffffffffffffffffffffffffffffffffffffffffff1916908160001a905350600a856115de9190612619565b945061155c565b8093505050505b919050565b60007f01ffc9a7000000000000000000000000000000000000000000000000000000007bffffffffffffffffffffffffffffffffffffffffffffffffffffffff1916827bffffffffffffffffffffffffffffffffffffffffffffffffffffffff1916149050919050565b611666838383611906565b600073ffffffffffffffffffffffffffffffffffffffff168373ffffffffffffffffffffffffffffffffffffffff1614156116a9576116a48161190b565b6116e8565b8173ffffffffffffffffffffffffffffffffffffffff168373ffffffffffffffffffffffffffffffffffffffff16146116e7576116e68382611954565b5b5b600073ffffffffffffffffffffffffffffffffffffffff168273ffffffffffffffffffffffffffffffffffffffff16141561172b5761172681611ac1565b61176a565b8273ffffffffffffffffffffffffffffffffffffffff168273ffffffffffffffffffffffffffffffffffffffff1614611769576117688282611b92565b5b5b505050565b60006117908473ffffffffffffffffffffffffffffffffffffffff16611c11565b156118f9578373ffffffffffffffffffffffffffffffffffffffff1663150b7a026117b9610e54565b8786866040518563ffffffff1660e01b81526004016117db9493929190612286565b602060405180830381600087803b1580156117f557600080fd5b505af192505050801561182657506040513d601f19601f820116820180604052508101906118239190611eed565b60015b6118a9573d8060008114611856576040519150601f19603f3d011682016040523d82523d6000602084013e61185b565b606091505b506000815114156118a1576040517f08c379a00000000000000000000000000000000000000000000000000000000081526004016118989061232f565b60405180910390fd5b805181602001fd5b63150b7a0260e01b7bffffffffffffffffffffffffffffffffffffffffffffffffffffffff1916817bffffffffffffffffffffffffffffffffffffffffffffffffffffffff1916149150506118fe565b600190505b949350505050565b505050565b6008805490506009600083815260200190815260200160002081905550600881908060018154018082558091505060019003906000526020600020016000909190919091505550565b600060016119618461089e565b61196b919061264a565b9050600060076000848152602001908152602001600020549050818114611a50576000600660008673ffffffffffffffffffffffffffffffffffffffff1673ffffffffffffffffffffffffffffffffffffffff168152602001908152602001600020600084815260200190815260200160002054905080600660008773ffffffffffffffffffffffffffffffffffffffff1673ffffffffffffffffffffffffffffffffffffffff168152602001908152602001600020600084815260200190815260200160002081905550816007600083815260200190815260200160002081905550505b6007600084815260200190815260200160002060009055600660008573ffffffffffffffffffffffffffffffffffffffff1673ffffffffffffffffffffffffffffffffffffffff16815260200190815260200160002060008381526020019081526020016000206000905550505050565b60006001600880549050611ad5919061264a565b9050600060096000848152602001908152602001600020549050600060088381548110611b0557611b046128cd565b5b906000526020600020015490508060088381548110611b2757611b266128cd565b5b906000526020600020018190555081600960008381526020019081526020016000208190555060096000858152602001908152602001600020600090556008805480611b7657611b7561289e565b5b6001900381819060005260206000200160009055905550505050565b6000611b9d8361089e565b905081600660008573ffffffffffffffffffffffffffffffffffffffff1673ffffffffffffffffffffffffffffffffffffffff168152602001908152602001600020600083815260200190815260200160002081905550806007600084815260200190815260200160002081905550505050565b600080823b905060008111915050919050565b6000611c37611c328461254f565b61252a565b905082815260208101848484011115611c5357611c52612930565b5b611c5e8482856126f2565b509392505050565b600081359050611c7581612dce565b92915050565b600081359050611c8a81612de5565b92915050565b600081359050611c9f81612dfc565b92915050565b600081519050611cb481612dfc565b92915050565b600082601f830112611ccf57611cce61292b565b5b8135611cdf848260208601611c24565b91505092915050565b600081359050611cf781612e13565b92915050565b600060208284031215611d1357611d1261293a565b5b6000611d2184828501611c66565b91505092915050565b60008060408385031215611d4157611d4061293a565b5b6000611d4f85828601611c66565b9250506020611d6085828601611c66565b9150509250929050565b600080600060608486031215611d8357611d8261293a565b5b6000611d9186828701611c66565b9350506020611da286828701611c66565b9250506040611db386828701611ce8565b9150509250925092565b60008060008060808587031215611dd757611dd661293a565b5b6000611de587828801611c66565b9450506020611df687828801611c66565b9350506040611e0787828801611ce8565b925050606085013567ffffffffffffffff811115611e2857611e27612935565b5b611e3487828801611cba565b91505092959194509250565b60008060408385031215611e5757611e5661293a565b5b6000611e6585828601611c66565b9250506020611e7685828601611c7b565b9150509250929050565b60008060408385031215611e9757611e9661293a565b5b6000611ea585828601611c66565b9250506020611eb685828601611ce8565b9150509250929050565b600060208284031215611ed657611ed561293a565b5b6000611ee484828501611c90565b91505092915050565b600060208284031215611f0357611f0261293a565b5b6000611f1184828501611ca5565b91505092915050565b600060208284031215611f3057611f2f61293a565b5b6000611f3e84828501611ce8565b91505092915050565b611f508161267e565b82525050565b611f5f81612690565b82525050565b6000611f7082612580565b611f7a8185612596565b9350611f8a818560208601612701565b611f938161293f565b840191505092915050565b6000611fa98261258b565b611fb381856125a7565b9350611fc3818560208601612701565b611fcc8161293f565b840191505092915050565b6000611fe28261258b565b611fec81856125b8565b9350611ffc818560208601612701565b80840191505092915050565b6000612015602b836125a7565b915061202082612950565b604082019050919050565b60006120386032836125a7565b91506120438261299f565b604082019050919050565b600061205b601c836125a7565b9150612066826129ee565b602082019050919050565b600061207e6024836125a7565b915061208982612a17565b604082019050919050565b60006120a16019836125a7565b91506120ac82612a66565b602082019050919050565b60006120c4602c836125a7565b91506120cf82612a8f565b604082019050919050565b60006120e76038836125a7565b91506120f282612ade565b604082019050919050565b600061210a602a836125a7565b915061211582612b2d565b604082019050919050565b600061212d6029836125a7565b915061213882612b7c565b604082019050919050565b60006121506020836125a7565b915061215b82612bcb565b602082019050919050565b6000612173602c836125a7565b915061217e82612bf4565b604082019050919050565b60006121966029836125a7565b91506121a182612c43565b604082019050919050565b60006121b9602f836125a7565b91506121c482612c92565b604082019050919050565b60006121dc6021836125a7565b91506121e782612ce1565b604082019050919050565b60006121ff6031836125a7565b915061220a82612d30565b604082019050919050565b6000612222602c836125a7565b915061222d82612d7f565b604082019050919050565b612241816126e8565b82525050565b60006122538285611fd7565b915061225f8284611fd7565b91508190509392505050565b60006020820190506122806000830184611f47565b92915050565b600060808201905061229b6000830187611f47565b6122a86020830186611f47565b6122b56040830185612238565b81810360608301526122c78184611f65565b905095945050505050565b60006020820190506122e76000830184611f56565b92915050565b600060208201905081810360008301526123078184611f9e565b905092915050565b6000602082019050818103600083015261232881612008565b9050919050565b600060208201905081810360008301526123488161202b565b9050919050565b600060208201905081810360008301526123688161204e565b9050919050565b6000602082019050818103600083015261238881612071565b9050919050565b600060208201905081810360008301526123a881612094565b9050919050565b600060208201905081810360008301526123c8816120b7565b9050919050565b600060208201905081810360008301526123e8816120da565b9050919050565b60006020820190508181036000830152612408816120fd565b9050919050565b6000602082019050818103600083015261242881612120565b9050919050565b6000602082019050818103600083015261244881612143565b9050919050565b6000602082019050818103600083015261246881612166565b9050919050565b6000602082019050818103600083015261248881612189565b9050919050565b600060208201905081810360008301526124a8816121ac565b9050919050565b600060208201905081810360008301526124c8816121cf565b9050919050565b600060208201905081810360008301526124e8816121f2565b9050919050565b6000602082019050818103600083015261250881612215565b9050919050565b60006020820190506125246000830184612238565b92915050565b6000612534612545565b90506125408282612766565b919050565b6000604051905090565b600067ffffffffffffffff82111561256a576125696128fc565b5b6125738261293f565b9050602081019050919050565b600081519050919050565b600081519050919050565b600082825260208201905092915050565b600082825260208201905092915050565b600081905092915050565b60006125ce826126e8565b91506125d9836126e8565b9250827fffffffffffffffffffffffffffffffffffffffffffffffffffffffffffffffff0382111561260e5761260d612811565b5b828201905092915050565b6000612624826126e8565b915061262f836126e8565b92508261263f5761263e612840565b5b828204905092915050565b6000612655826126e8565b9150612660836126e8565b92508282101561267357612672612811565b5b828203905092915050565b6000612689826126c8565b9050919050565b60008115159050919050565b60007fffffffff0000000000000000000000000000000000000000000000000000000082169050919050565b600073ffffffffffffffffffffffffffffffffffffffff82169050919050565b6000819050919050565b82818337600083830152505050565b60005b8381101561271f578082015181840152602081019050612704565b8381111561272e576000848401525b50505050565b6000600282049050600182168061274c57607f821691505b602082108114156127605761275f61286f565b5b50919050565b61276f8261293f565b810181811067ffffffffffffffff8211171561278e5761278d6128fc565b5b80604052505050565b60006127a2826126e8565b91507fffffffffffffffffffffffffffffffffffffffffffffffffffffffffffffffff8214156127d5576127d4612811565b5b600182019050919050565b60006127eb826126e8565b91506127f6836126e8565b92508261280657612805612840565b5b828206905092915050565b7f4e487b7100000000000000000000000000000000000000000000000000000000600052601160045260246000fd5b7f4e487b7100000000000000000000000000000000000000000000000000000000600052601260045260246000fd5b7f4e487b7100000000000000000000000000000000000000000000000000000000600052602260045260246000fd5b7f4e487b7100000000000000000000000000000000000000000000000000000000600052603160045260246000fd5b7f4e487b7100000000000000000000000000000000000000000000000000000000600052603260045260246000fd5b7f4e487b7100000000000000000000000000000000000000000000000000000000600052604160045260246000fd5b600080fd5b600080fd5b600080fd5b600080fd5b6000601f19601f8301169050919050565b7f455243373231456e756d657261626c653a206f776e657220696e646578206f7560008201527f74206f6620626f756e6473000000000000000000000000000000000000000000602082015250565b7f4552433732313a207472616e7366657220746f206e6f6e20455243373231526560008201527f63656976657220696d706c656d656e7465720000000000000000000000000000602082015250565b7f4552433732313a20746f6b656e20616c7265616479206d696e74656400000000600082015250565b7f4552433732313a207472616e7366657220746f20746865207a65726f2061646460008201527f7265737300000000000000000000000000000000000000000000000000000000602082015250565b7f4552433732313a20617070726f766520746f2063616c6c657200000000000000600082015250565b7f4552433732313a206f70657261746f7220717565727920666f72206e6f6e657860008201527f697374656e7420746f6b656e0000000000000000000000000000000000000000602082015250565b7f4552433732313a20617070726f76652063616c6c6572206973206e6f74206f7760008201527f6e6572206e6f7220617070726f76656420666f7220616c6c0000000000000000602082015250565b7f4552433732313a2062616c616e636520717565727920666f7220746865207a6560008201527f726f206164647265737300000000000000000000000000000000000000000000602082015250565b7f4552433732313a206f776e657220717565727920666f72206e6f6e657869737460008201527f656e7420746f6b656e0000000000000000000000000000000000000000000000602082015250565b7f4552433732313a206d696e7420746f20746865207a65726f2061646472657373600082015250565b7f4552433732313a20617070726f76656420717565727920666f72206e6f6e657860008201527f697374656e7420746f6b656e0000000000000000000000000000000000000000602082015250565b7f4552433732313a207472616e73666572206f6620746f6b656e2074686174206960008201527f73206e6f74206f776e0000000000000000000000000000000000000000000000602082015250565b7f4552433732314d657461646174613a2055524920717565727920666f72206e6f60008201527f6e6578697374656e7420746f6b656e0000000000000000000000000000000000602082015250565b7f4552433732313a20617070726f76616c20746f2063757272656e74206f776e6560008201527f7200000000000000000000000000000000000000000000000000000000000000602082015250565b7f4552433732313a207472616e736665722063616c6c6572206973206e6f74206f60008201527f776e6572206e6f7220617070726f766564000000000000000000000000000000602082015250565b7f455243373231456e756d657261626c653a20676c6f62616c20696e646578206f60008201527f7574206f6620626f756e64730000000000000000000000000000000000000000602082015250565b612dd78161267e565b8114612de257600080fd5b50565b612dee81612690565b8114612df957600080fd5b50565b612e058161269c565b8114612e1057600080fd5b50565b612e1c816126e8565b8114612e2757600080fd5b5056fea2646970667358221220c8d634bcb37ce630e6999492c9d54267dcdad9819af81ae4295112ed4d96c4fb64736f6c63430008060033",
  "linkReferences": {},
  "deployedLinkReferences": {}
}