{
  "_format": "hh-sol-artifact-1",
  "contractName": "TestToken721",
  "sourceName": "contracts/test/TestToken721.sol",
  "abi": [
    {
      "inputs": [
        {
          "internalType": "string",
          "name": "_name",
          "type": "string"
        },
        {
          "internalType": "string",
          "name": "_symbol",
          "type": "string"
        }
      ],
      "stateMutability": "nonpayable",
      "type": "constructor"
    },
    {
      "anonymous": false,
      "inputs": [
        {
          "indexed": true,
          "internalType": "address",
          "name": "owner",
          "type": "address"
        },
        {
          "indexed": true,
          "internalType": "address",
          "name": "approved",
          "type": "address"
        },
        {
          "indexed": true,
          "internalType": "uint256",
          "name": "tokenId",
          "type": "uint256"
        }
      ],
      "name": "Approval",
      "type": "event"
    },
    {
      "anonymous": false,
      "inputs": [
        {
          "indexed": true,
          "internalType": "address",
          "name": "owner",
          "type": "address"
        },
        {
          "indexed": true,
          "internalType": "address",
          "name": "operator",
          "type": "address"
        },
        {
          "indexed": false,
          "internalType": "bool",
          "name": "approved",
          "type": "bool"
        }
      ],
      "name": "ApprovalForAll",
      "type": "event"
    },
    {
      "anonymous": false,
      "inputs": [
        {
          "indexed": true,
          "internalType": "address",
          "name": "from",
          "type": "address"
        },
        {
          "indexed": true,
          "internalType": "address",
          "name": "to",
          "type": "address"
        },
        {
          "indexed": true,
          "internalType": "uint256",
          "name": "tokenId",
          "type": "uint256"
        }
      ],
      "name": "Transfer",
      "type": "event"
    },
    {
      "inputs": [
        {
          "internalType": "address",
          "name": "to",
          "type": "address"
        },
        {
          "internalType": "uint256",
          "name": "tokenId",
          "type": "uint256"
        }
      ],
      "name": "approve",
      "outputs": [],
      "stateMutability": "nonpayable",
      "type": "function"
    },
    {
      "inputs": [
        {
          "internalType": "address",
          "name": "owner",
          "type": "address"
        }
      ],
      "name": "balanceOf",
      "outputs": [
        {
          "internalType": "uint256",
          "name": "",
          "type": "uint256"
        }
      ],
      "stateMutability": "view",
      "type": "function"
    },
    {
      "inputs": [
        {
          "internalType": "uint256",
          "name": "tokenId",
          "type": "uint256"
        }
      ],
      "name": "getApproved",
      "outputs": [
        {
          "internalType": "address",
          "name": "",
          "type": "address"
        }
      ],
      "stateMutability": "view",
      "type": "function"
    },
    {
      "inputs": [
        {
          "internalType": "address",
          "name": "owner",
          "type": "address"
        },
        {
          "internalType": "address",
          "name": "operator",
          "type": "address"
        }
      ],
      "name": "isApprovedForAll",
      "outputs": [
        {
          "internalType": "bool",
          "name": "",
          "type": "bool"
        }
      ],
      "stateMutability": "view",
      "type": "function"
    },
    {
      "inputs": [
        {
          "internalType": "address",
          "name": "to",
          "type": "address"
        },
        {
          "internalType": "uint256",
          "name": "tokenId",
          "type": "uint256"
        }
      ],
      "name": "mint",
      "outputs": [],
      "stateMutability": "nonpayable",
      "type": "function"
    },
    {
      "inputs": [
        {
          "internalType": "address",
          "name": "to",
          "type": "address"
        },
        {
          "internalType": "uint256",
          "name": "tokenId",
          "type": "uint256"
        },
        {
          "internalType": "string",
          "name": "_tokenURI",
          "type": "string"
        }
      ],
      "name": "mintWithTokenURI",
      "outputs": [],
      "stateMutability": "nonpayable",
      "type": "function"
    },
    {
      "inputs": [],
      "name": "name",
      "outputs": [
        {
          "internalType": "string",
          "name": "",
          "type": "string"
        }
      ],
      "stateMutability": "view",
      "type": "function"
    },
    {
      "inputs": [
        {
          "internalType": "uint256",
          "name": "tokenId",
          "type": "uint256"
        }
      ],
      "name": "ownerOf",
      "outputs": [
        {
          "internalType": "address",
          "name": "",
          "type": "address"
        }
      ],
      "stateMutability": "view",
      "type": "function"
    },
    {
      "inputs": [
        {
          "internalType": "address",
          "name": "from",
          "type": "address"
        },
        {
          "internalType": "address",
          "name": "to",
          "type": "address"
        },
        {
          "internalType": "uint256",
          "name": "tokenId",
          "type": "uint256"
        }
      ],
      "name": "safeTransferFrom",
      "outputs": [],
      "stateMutability": "nonpayable",
      "type": "function"
    },
    {
      "inputs": [
        {
          "internalType": "address",
          "name": "from",
          "type": "address"
        },
        {
          "internalType": "address",
          "name": "to",
          "type": "address"
        },
        {
          "internalType": "uint256",
          "name": "tokenId",
          "type": "uint256"
        },
        {
          "internalType": "bytes",
          "name": "_data",
          "type": "bytes"
        }
      ],
      "name": "safeTransferFrom",
      "outputs": [],
      "stateMutability": "nonpayable",
      "type": "function"
    },
    {
      "inputs": [
        {
          "internalType": "address",
          "name": "operator",
          "type": "address"
        },
        {
          "internalType": "bool",
          "name": "approved",
          "type": "bool"
        }
      ],
      "name": "setApprovalForAll",
      "outputs": [],
      "stateMutability": "nonpayable",
      "type": "function"
    },
    {
      "inputs": [
        {
          "internalType": "bytes4",
          "name": "interfaceId",
          "type": "bytes4"
        }
      ],
      "name": "supportsInterface",
      "outputs": [
        {
          "internalType": "bool",
          "name": "",
          "type": "bool"
        }
      ],
      "stateMutability": "view",
      "type": "function"
    },
    {
      "inputs": [],
      "name": "symbol",
      "outputs": [
        {
          "internalType": "string",
          "name": "",
          "type": "string"
        }
      ],
      "stateMutability": "view",
      "type": "function"
    },
    {
      "inputs": [
        {
          "internalType": "uint256",
          "name": "tokenId",
          "type": "uint256"
        }
      ],
      "name": "tokenURI",
      "outputs": [
        {
          "internalType": "string",
          "name": "",
          "type": "string"
        }
      ],
      "stateMutability": "view",
      "type": "function"
    },
    {
      "inputs": [
        {
          "internalType": "address",
          "name": "from",
          "type": "address"
        },
        {
          "internalType": "address",
          "name": "to",
          "type": "address"
        },
        {
          "internalType": "uint256",
          "name": "tokenId",
          "type": "uint256"
        }
      ],
      "name": "transferFrom",
      "outputs": [],
      "stateMutability": "nonpayable",
      "type": "function"
    }
  ],
  "bytecode": "0x60806040523480156200001157600080fd5b5060405162002f5038038062002f508339818101604052810190620000379190620001a3565b818181600090805190602001906200005192919062000075565b5080600190805190602001906200006a92919062000075565b5050505050620003ac565b8280546200008390620002bd565b90600052602060002090601f016020900481019282620000a75760008555620000f3565b82601f10620000c257805160ff1916838001178555620000f3565b82800160010185558215620000f3579182015b82811115620000f2578251825591602001919060010190620000d5565b5b50905062000102919062000106565b5090565b5b808211156200012157600081600090555060010162000107565b5090565b60006200013c620001368462000251565b62000228565b9050828152602081018484840111156200015b576200015a6200038c565b5b6200016884828562000287565b509392505050565b600082601f83011262000188576200018762000387565b5b81516200019a84826020860162000125565b91505092915050565b60008060408385031215620001bd57620001bc62000396565b5b600083015167ffffffffffffffff811115620001de57620001dd62000391565b5b620001ec8582860162000170565b925050602083015167ffffffffffffffff81111562000210576200020f62000391565b5b6200021e8582860162000170565b9150509250929050565b60006200023462000247565b9050620002428282620002f3565b919050565b6000604051905090565b600067ffffffffffffffff8211156200026f576200026e62000358565b5b6200027a826200039b565b9050602081019050919050565b60005b83811015620002a75780820151818401526020810190506200028a565b83811115620002b7576000848401525b50505050565b60006002820490506001821680620002d657607f821691505b60208210811415620002ed57620002ec62000329565b5b50919050565b620002fe826200039b565b810181811067ffffffffffffffff8211171562000320576200031f62000358565b5b80604052505050565b7f4e487b7100000000000000000000000000000000000000000000000000000000600052602260045260246000fd5b7f4e487b7100000000000000000000000000000000000000000000000000000000600052604160045260246000fd5b600080fd5b600080fd5b600080fd5b600080fd5b6000601f19601f8301169050919050565b612b9480620003bc6000396000f3fe608060405234801561001057600080fd5b50600436106100f55760003560e01c806350bb4e7f11610097578063a22cb46511610066578063a22cb46514610282578063b88d4fde1461029e578063c87b56dd146102ba578063e985e9c5146102ea576100f5565b806350bb4e7f146101e85780636352211e1461020457806370a082311461023457806395d89b4114610264576100f5565b8063095ea7b3116100d3578063095ea7b31461017857806323b872dd1461019457806340c10f19146101b057806342842e0e146101cc576100f5565b806301ffc9a7146100fa57806306fdde031461012a578063081812fc14610148575b600080fd5b610114600480360381019061010f9190611bf2565b61031a565b6040516101219190612004565b60405180910390f35b6101326103fc565b60405161013f919061201f565b60405180910390f35b610162600480360381019061015d9190611c4c565b61048e565b60405161016f9190611f9d565b60405180910390f35b610192600480360381019061018d9190611b43565b610513565b005b6101ae60048036038101906101a99190611a2d565b61062b565b005b6101ca60048036038101906101c59190611b43565b61068b565b005b6101e660048036038101906101e19190611a2d565b610699565b005b61020260048036038101906101fd9190611b83565b6106b9565b005b61021e60048036038101906102199190611c4c565b6106d2565b60405161022b9190611f9d565b60405180910390f35b61024e600480360381019061024991906119c0565b610784565b60405161025b9190612241565b60405180910390f35b61026c61083c565b604051610279919061201f565b60405180910390f35b61029c60048036038101906102979190611b03565b6108ce565b005b6102b860048036038101906102b39190611a80565b610a4f565b005b6102d460048036038101906102cf9190611c4c565b610ab1565b6040516102e1919061201f565b60405180910390f35b61030460048036038101906102ff91906119ed565b610c03565b6040516103119190612004565b60405180910390f35b60007f80ac58cd000000000000000000000000000000000000000000000000000000007bffffffffffffffffffffffffffffffffffffffffffffffffffffffff1916827bffffffffffffffffffffffffffffffffffffffffffffffffffffffff191614806103e557507f5b5e139f000000000000000000000000000000000000000000000000000000007bffffffffffffffffffffffffffffffffffffffffffffffffffffffff1916827bffffffffffffffffffffffffffffffffffffffffffffffffffffffff1916145b806103f557506103f482610c97565b5b9050919050565b60606000805461040b90612497565b80601f016020809104026020016040519081016040528092919081815260200182805461043790612497565b80156104845780601f1061045957610100808354040283529160200191610484565b820191906000526020600020905b81548152906001019060200180831161046757829003601f168201915b5050505050905090565b600061049982610d01565b6104d8576040517f08c379a00000000000000000000000000000000000000000000000000000000081526004016104cf906121a1565b60405180910390fd5b6004600083815260200190815260200160002060009054906101000a900473ffffffffffffffffffffffffffffffffffffffff169050919050565b600061051e826106d2565b90508073ffffffffffffffffffffffffffffffffffffffff168373ffffffffffffffffffffffffffffffffffffffff16141561058f576040517f08c379a000000000000000000000000000000000000000000000000000000000815260040161058690612201565b60405180910390fd5b8073ffffffffffffffffffffffffffffffffffffffff166105ae610d6d565b73ffffffffffffffffffffffffffffffffffffffff1614806105dd57506105dc816105d7610d6d565b610c03565b5b61061c576040517f08c379a0000000000000000000000000000000000000000000000000000000008152600401610613906120e1565b60405180910390fd5b6106268383610d75565b505050565b61063c610636610d6d565b82610e2e565b61067b576040517f08c379a000000000000000000000000000000000000000000000000000000000815260040161067290612221565b60405180910390fd5b610686838383610f0c565b505050565b6106958282611168565b5050565b6106b483838360405180602001604052806000815250610a4f565b505050565b6106c3838361068b565b6106cd8282611336565b505050565b6000806002600084815260200190815260200160002060009054906101000a900473ffffffffffffffffffffffffffffffffffffffff169050600073ffffffffffffffffffffffffffffffffffffffff168173ffffffffffffffffffffffffffffffffffffffff16141561077b576040517f08c379a000000000000000000000000000000000000000000000000000000000815260040161077290612121565b60405180910390fd5b80915050919050565b60008073ffffffffffffffffffffffffffffffffffffffff168273ffffffffffffffffffffffffffffffffffffffff1614156107f5576040517f08c379a00000000000000000000000000000000000000000000000000000000081526004016107ec90612101565b60405180910390fd5b600360008373ffffffffffffffffffffffffffffffffffffffff1673ffffffffffffffffffffffffffffffffffffffff168152602001908152602001600020549050919050565b60606001805461084b90612497565b80601f016020809104026020016040519081016040528092919081815260200182805461087790612497565b80156108c45780601f10610899576101008083540402835291602001916108c4565b820191906000526020600020905b8154815290600101906020018083116108a757829003601f168201915b5050505050905090565b6108d6610d6d565b73ffffffffffffffffffffffffffffffffffffffff168273ffffffffffffffffffffffffffffffffffffffff161415610944576040517f08c379a000000000000000000000000000000000000000000000000000000000815260040161093b906120a1565b60405180910390fd5b8060056000610951610d6d565b73ffffffffffffffffffffffffffffffffffffffff1673ffffffffffffffffffffffffffffffffffffffff16815260200190815260200160002060008473ffffffffffffffffffffffffffffffffffffffff1673ffffffffffffffffffffffffffffffffffffffff16815260200190815260200160002060006101000a81548160ff0219169083151502179055508173ffffffffffffffffffffffffffffffffffffffff166109fe610d6d565b73ffffffffffffffffffffffffffffffffffffffff167f17307eab39ab6107e8899845ad3d59bd9653f200f220920489ca2b5937696c3183604051610a439190612004565b60405180910390a35050565b610a60610a5a610d6d565b83610e2e565b610a9f576040517f08c379a0000000000000000000000000000000000000000000000000000000008152600401610a9690612221565b60405180910390fd5b610aab848484846113aa565b50505050565b6060610abc82610d01565b610afb576040517f08c379a0000000000000000000000000000000000000000000000000000000008152600401610af290612181565b60405180910390fd5b6000600660008481526020019081526020016000208054610b1b90612497565b80601f0160208091040260200160405190810160405280929190818152602001828054610b4790612497565b8015610b945780601f10610b6957610100808354040283529160200191610b94565b820191906000526020600020905b815481529060010190602001808311610b7757829003601f168201915b505050505090506000610ba5611406565b9050600081511415610bbb578192505050610bfe565b600082511115610bf0578082604051602001610bd8929190611f79565b60405160208183030381529060405292505050610bfe565b610bf98461141d565b925050505b919050565b6000600560008473ffffffffffffffffffffffffffffffffffffffff1673ffffffffffffffffffffffffffffffffffffffff16815260200190815260200160002060008373ffffffffffffffffffffffffffffffffffffffff1673ffffffffffffffffffffffffffffffffffffffff16815260200190815260200160002060009054906101000a900460ff16905092915050565b60007f01ffc9a7000000000000000000000000000000000000000000000000000000007bffffffffffffffffffffffffffffffffffffffffffffffffffffffff1916827bffffffffffffffffffffffffffffffffffffffffffffffffffffffff1916149050919050565b60008073ffffffffffffffffffffffffffffffffffffffff166002600084815260200190815260200160002060009054906101000a900473ffffffffffffffffffffffffffffffffffffffff1673ffffffffffffffffffffffffffffffffffffffff1614159050919050565b600033905090565b816004600083815260200190815260200160002060006101000a81548173ffffffffffffffffffffffffffffffffffffffff021916908373ffffffffffffffffffffffffffffffffffffffff160217905550808273ffffffffffffffffffffffffffffffffffffffff16610de8836106d2565b73ffffffffffffffffffffffffffffffffffffffff167f8c5be1e5ebec7d5bd14f71427d1e84f3dd0314c0f7b2291e5b200ac8c7c3b92560405160405180910390a45050565b6000610e3982610d01565b610e78576040517f08c379a0000000000000000000000000000000000000000000000000000000008152600401610e6f906120c1565b60405180910390fd5b6000610e83836106d2565b90508073ffffffffffffffffffffffffffffffffffffffff168473ffffffffffffffffffffffffffffffffffffffff161480610ef257508373ffffffffffffffffffffffffffffffffffffffff16610eda8461048e565b73ffffffffffffffffffffffffffffffffffffffff16145b80610f035750610f028185610c03565b5b91505092915050565b8273ffffffffffffffffffffffffffffffffffffffff16610f2c826106d2565b73ffffffffffffffffffffffffffffffffffffffff1614610f82576040517f08c379a0000000000000000000000000000000000000000000000000000000008152600401610f79906121c1565b60405180910390fd5b600073ffffffffffffffffffffffffffffffffffffffff168273ffffffffffffffffffffffffffffffffffffffff161415610ff2576040517f08c379a0000000000000000000000000000000000000000000000000000000008152600401610fe990612081565b60405180910390fd5b610ffd8383836114c4565b611008600082610d75565b6001600360008573ffffffffffffffffffffffffffffffffffffffff1673ffffffffffffffffffffffffffffffffffffffff168152602001908152602001600020600082825461105891906123ad565b925050819055506001600360008473ffffffffffffffffffffffffffffffffffffffff1673ffffffffffffffffffffffffffffffffffffffff16815260200190815260200160002060008282546110af9190612326565b92505081905550816002600083815260200190815260200160002060006101000a81548173ffffffffffffffffffffffffffffffffffffffff021916908373ffffffffffffffffffffffffffffffffffffffff160217905550808273ffffffffffffffffffffffffffffffffffffffff168473ffffffffffffffffffffffffffffffffffffffff167fddf252ad1be2c89b69c2b068fc378daa952ba7f163c4a11628f55a4df523b3ef60405160405180910390a4505050565b600073ffffffffffffffffffffffffffffffffffffffff168273ffffffffffffffffffffffffffffffffffffffff1614156111d8576040517f08c379a00000000000000000000000000000000000000000000000000000000081526004016111cf90612161565b60405180910390fd5b6111e181610d01565b15611221576040517f08c379a000000000000000000000000000000000000000000000000000000000815260040161121890612061565b60405180910390fd5b61122d600083836114c4565b6001600360008473ffffffffffffffffffffffffffffffffffffffff1673ffffffffffffffffffffffffffffffffffffffff168152602001908152602001600020600082825461127d9190612326565b92505081905550816002600083815260200190815260200160002060006101000a81548173ffffffffffffffffffffffffffffffffffffffff021916908373ffffffffffffffffffffffffffffffffffffffff160217905550808273ffffffffffffffffffffffffffffffffffffffff16600073ffffffffffffffffffffffffffffffffffffffff167fddf252ad1be2c89b69c2b068fc378daa952ba7f163c4a11628f55a4df523b3ef60405160405180910390a45050565b61133f82610d01565b61137e576040517f08c379a000000000000000000000000000000000000000000000000000000000815260040161137590612141565b60405180910390fd5b806006600084815260200190815260200160002090805190602001906113a59291906117d4565b505050565b6113b5848484610f0c565b6113c1848484846114c9565b611400576040517f08c379a00000000000000000000000000000000000000000000000000000000081526004016113f790612041565b60405180910390fd5b50505050565b606060405180602001604052806000815250905090565b606061142882610d01565b611467576040517f08c379a000000000000000000000000000000000000000000000000000000000815260040161145e906121e1565b60405180910390fd5b6000611471611406565b9050600081511161149157604051806020016040528060008152506114bc565b8061149b84611660565b6040516020016114ac929190611f79565b6040516020818303038152906040525b915050919050565b505050565b60006114ea8473ffffffffffffffffffffffffffffffffffffffff166117c1565b15611653578373ffffffffffffffffffffffffffffffffffffffff1663150b7a02611513610d6d565b8786866040518563ffffffff1660e01b81526004016115359493929190611fb8565b602060405180830381600087803b15801561154f57600080fd5b505af192505050801561158057506040513d601f19601f8201168201806040525081019061157d9190611c1f565b60015b611603573d80600081146115b0576040519150601f19603f3d011682016040523d82523d6000602084013e6115b5565b606091505b506000815114156115fb576040517f08c379a00000000000000000000000000000000000000000000000000000000081526004016115f290612041565b60405180910390fd5b805181602001fd5b63150b7a0260e01b7bffffffffffffffffffffffffffffffffffffffffffffffffffffffff1916817bffffffffffffffffffffffffffffffffffffffffffffffffffffffff191614915050611658565b600190505b949350505050565b606060008214156116a8576040518060400160405280600181526020017f300000000000000000000000000000000000000000000000000000000000000081525090506117bc565b600082905060005b600082146116da5780806116c3906124fa565b915050600a826116d3919061237c565b91506116b0565b60008167ffffffffffffffff8111156116f6576116f5612630565b5b6040519080825280601f01601f1916602001820160405280156117285781602001600182028036833780820191505090505b5090505b600085146117b55760018261174191906123ad565b9150600a856117509190612543565b603061175c9190612326565b60f81b81838151811061177257611771612601565b5b60200101907effffffffffffffffffffffffffffffffffffffffffffffffffffffffffffff1916908160001a905350600a856117ae919061237c565b945061172c565b8093505050505b919050565b600080823b905060008111915050919050565b8280546117e090612497565b90600052602060002090601f0160209004810192826118025760008555611849565b82601f1061181b57805160ff1916838001178555611849565b82800160010185558215611849579182015b8281111561184857825182559160200191906001019061182d565b5b509050611856919061185a565b5090565b5b8082111561187357600081600090555060010161185b565b5090565b600061188a61188584612281565b61225c565b9050828152602081018484840111156118a6576118a5612664565b5b6118b1848285612455565b509392505050565b60006118cc6118c7846122b2565b61225c565b9050828152602081018484840111156118e8576118e7612664565b5b6118f3848285612455565b509392505050565b60008135905061190a81612b02565b92915050565b60008135905061191f81612b19565b92915050565b60008135905061193481612b30565b92915050565b60008151905061194981612b30565b92915050565b600082601f8301126119645761196361265f565b5b8135611974848260208601611877565b91505092915050565b600082601f8301126119925761199161265f565b5b81356119a28482602086016118b9565b91505092915050565b6000813590506119ba81612b47565b92915050565b6000602082840312156119d6576119d561266e565b5b60006119e4848285016118fb565b91505092915050565b60008060408385031215611a0457611a0361266e565b5b6000611a12858286016118fb565b9250506020611a23858286016118fb565b9150509250929050565b600080600060608486031215611a4657611a4561266e565b5b6000611a54868287016118fb565b9350506020611a65868287016118fb565b9250506040611a76868287016119ab565b9150509250925092565b60008060008060808587031215611a9a57611a9961266e565b5b6000611aa8878288016118fb565b9450506020611ab9878288016118fb565b9350506040611aca878288016119ab565b925050606085013567ffffffffffffffff811115611aeb57611aea612669565b5b611af78782880161194f565b91505092959194509250565b60008060408385031215611b1a57611b1961266e565b5b6000611b28858286016118fb565b9250506020611b3985828601611910565b9150509250929050565b60008060408385031215611b5a57611b5961266e565b5b6000611b68858286016118fb565b9250506020611b79858286016119ab565b9150509250929050565b600080600060608486031215611b9c57611b9b61266e565b5b6000611baa868287016118fb565b9350506020611bbb868287016119ab565b925050604084013567ffffffffffffffff811115611bdc57611bdb612669565b5b611be88682870161197d565b9150509250925092565b600060208284031215611c0857611c0761266e565b5b6000611c1684828501611925565b91505092915050565b600060208284031215611c3557611c3461266e565b5b6000611c438482850161193a565b91505092915050565b600060208284031215611c6257611c6161266e565b5b6000611c70848285016119ab565b91505092915050565b611c82816123e1565b82525050565b611c91816123f3565b82525050565b6000611ca2826122e3565b611cac81856122f9565b9350611cbc818560208601612464565b611cc581612673565b840191505092915050565b6000611cdb826122ee565b611ce5818561230a565b9350611cf5818560208601612464565b611cfe81612673565b840191505092915050565b6000611d14826122ee565b611d1e818561231b565b9350611d2e818560208601612464565b80840191505092915050565b6000611d4760328361230a565b9150611d5282612684565b604082019050919050565b6000611d6a601c8361230a565b9150611d75826126d3565b602082019050919050565b6000611d8d60248361230a565b9150611d98826126fc565b604082019050919050565b6000611db060198361230a565b9150611dbb8261274b565b602082019050919050565b6000611dd3602c8361230a565b9150611dde82612774565b604082019050919050565b6000611df660388361230a565b9150611e01826127c3565b604082019050919050565b6000611e19602a8361230a565b9150611e2482612812565b604082019050919050565b6000611e3c60298361230a565b9150611e4782612861565b604082019050919050565b6000611e5f602e8361230a565b9150611e6a826128b0565b604082019050919050565b6000611e8260208361230a565b9150611e8d826128ff565b602082019050919050565b6000611ea560318361230a565b9150611eb082612928565b604082019050919050565b6000611ec8602c8361230a565b9150611ed382612977565b604082019050919050565b6000611eeb60298361230a565b9150611ef6826129c6565b604082019050919050565b6000611f0e602f8361230a565b9150611f1982612a15565b604082019050919050565b6000611f3160218361230a565b9150611f3c82612a64565b604082019050919050565b6000611f5460318361230a565b9150611f5f82612ab3565b604082019050919050565b611f738161244b565b82525050565b6000611f858285611d09565b9150611f918284611d09565b91508190509392505050565b6000602082019050611fb26000830184611c79565b92915050565b6000608082019050611fcd6000830187611c79565b611fda6020830186611c79565b611fe76040830185611f6a565b8181036060830152611ff98184611c97565b905095945050505050565b60006020820190506120196000830184611c88565b92915050565b600060208201905081810360008301526120398184611cd0565b905092915050565b6000602082019050818103600083015261205a81611d3a565b9050919050565b6000602082019050818103600083015261207a81611d5d565b9050919050565b6000602082019050818103600083015261209a81611d80565b9050919050565b600060208201905081810360008301526120ba81611da3565b9050919050565b600060208201905081810360008301526120da81611dc6565b9050919050565b600060208201905081810360008301526120fa81611de9565b9050919050565b6000602082019050818103600083015261211a81611e0c565b9050919050565b6000602082019050818103600083015261213a81611e2f565b9050919050565b6000602082019050818103600083015261215a81611e52565b9050919050565b6000602082019050818103600083015261217a81611e75565b9050919050565b6000602082019050818103600083015261219a81611e98565b9050919050565b600060208201905081810360008301526121ba81611ebb565b9050919050565b600060208201905081810360008301526121da81611ede565b9050919050565b600060208201905081810360008301526121fa81611f01565b9050919050565b6000602082019050818103600083015261221a81611f24565b9050919050565b6000602082019050818103600083015261223a81611f47565b9050919050565b60006020820190506122566000830184611f6a565b92915050565b6000612266612277565b905061227282826124c9565b919050565b6000604051905090565b600067ffffffffffffffff82111561229c5761229b612630565b5b6122a582612673565b9050602081019050919050565b600067ffffffffffffffff8211156122cd576122cc612630565b5b6122d682612673565b9050602081019050919050565b600081519050919050565b600081519050919050565b600082825260208201905092915050565b600082825260208201905092915050565b600081905092915050565b60006123318261244b565b915061233c8361244b565b9250827fffffffffffffffffffffffffffffffffffffffffffffffffffffffffffffffff0382111561237157612370612574565b5b828201905092915050565b60006123878261244b565b91506123928361244b565b9250826123a2576123a16125a3565b5b828204905092915050565b60006123b88261244b565b91506123c38361244b565b9250828210156123d6576123d5612574565b5b828203905092915050565b60006123ec8261242b565b9050919050565b60008115159050919050565b60007fffffffff0000000000000000000000000000000000000000000000000000000082169050919050565b600073ffffffffffffffffffffffffffffffffffffffff82169050919050565b6000819050919050565b82818337600083830152505050565b60005b83811015612482578082015181840152602081019050612467565b83811115612491576000848401525b50505050565b600060028204905060018216806124af57607f821691505b602082108114156124c3576124c26125d2565b5b50919050565b6124d282612673565b810181811067ffffffffffffffff821117156124f1576124f0612630565b5b80604052505050565b60006125058261244b565b91507fffffffffffffffffffffffffffffffffffffffffffffffffffffffffffffffff82141561253857612537612574565b5b600182019050919050565b600061254e8261244b565b91506125598361244b565b925082612569576125686125a3565b5b828206905092915050565b7f4e487b7100000000000000000000000000000000000000000000000000000000600052601160045260246000fd5b7f4e487b7100000000000000000000000000000000000000000000000000000000600052601260045260246000fd5b7f4e487b7100000000000000000000000000000000000000000000000000000000600052602260045260246000fd5b7f4e487b7100000000000000000000000000000000000000000000000000000000600052603260045260246000fd5b7f4e487b7100000000000000000000000000000000000000000000000000000000600052604160045260246000fd5b600080fd5b600080fd5b600080fd5b600080fd5b6000601f19601f8301169050919050565b7f4552433732313a207472616e7366657220746f206e6f6e20455243373231526560008201527f63656976657220696d706c656d656e7465720000000000000000000000000000602082015250565b7f4552433732313a20746f6b656e20616c7265616479206d696e74656400000000600082015250565b7f4552433732313a207472616e7366657220746f20746865207a65726f2061646460008201527f7265737300000000000000000000000000000000000000000000000000000000602082015250565b7f4552433732313a20617070726f766520746f2063616c6c657200000000000000600082015250565b7f4552433732313a206f70657261746f7220717565727920666f72206e6f6e657860008201527f697374656e7420746f6b656e0000000000000000000000000000000000000000602082015250565b7f4552433732313a20617070726f76652063616c6c6572206973206e6f74206f7760008201527f6e6572206e6f7220617070726f76656420666f7220616c6c0000000000000000602082015250565b7f4552433732313a2062616c616e636520717565727920666f7220746865207a6560008201527f726f206164647265737300000000000000000000000000000000000000000000602082015250565b7f4552433732313a206f776e657220717565727920666f72206e6f6e657869737460008201527f656e7420746f6b656e0000000000000000000000000000000000000000000000602082015250565b7f45524337323155524953746f726167653a2055524920736574206f66206e6f6e60008201527f6578697374656e7420746f6b656e000000000000000000000000000000000000602082015250565b7f4552433732313a206d696e7420746f20746865207a65726f2061646472657373600082015250565b7f45524337323155524953746f726167653a2055524920717565727920666f722060008201527f6e6f6e6578697374656e7420746f6b656e000000000000000000000000000000602082015250565b7f4552433732313a20617070726f76656420717565727920666f72206e6f6e657860008201527f697374656e7420746f6b656e0000000000000000000000000000000000000000602082015250565b7f4552433732313a207472616e73666572206f6620746f6b656e2074686174206960008201527f73206e6f74206f776e0000000000000000000000000000000000000000000000602082015250565b7f4552433732314d657461646174613a2055524920717565727920666f72206e6f60008201527f6e6578697374656e7420746f6b656e0000000000000000000000000000000000602082015250565b7f4552433732313a20617070726f76616c20746f2063757272656e74206f776e6560008201527f7200000000000000000000000000000000000000000000000000000000000000602082015250565b7f4552433732313a207472616e736665722063616c6c6572206973206e6f74206f60008201527f776e6572206e6f7220617070726f766564000000000000000000000000000000602082015250565b612b0b816123e1565b8114612b1657600080fd5b50565b612b22816123f3565b8114612b2d57600080fd5b50565b612b39816123ff565b8114612b4457600080fd5b50565b612b508161244b565b8114612b5b57600080fd5b5056fea2646970667358221220a3f255538da250613a8b6e63a1b67271f19a955a7e236030949de39d392fca6f64736f6c63430008060033",
  "linkReferences": {},
  "deployedLinkReferences": {}
}