{
  "contractName": "VerifierWeb3",
  "abi": [
    {
      "inputs": [
        {
          "internalType": "address",
          "name": "_operator",
          "type": "address"
        }
      ],
      "stateMutability": "nonpayable",
      "type": "constructor"
    },
    {
      "inputs": [],
      "name": "operator",
      "outputs": [
        {
          "internalType": "address",
          "name": "",
          "type": "address"
        }
      ],
      "stateMutability": "view",
      "type": "function"
    },
    {
      "inputs": [
        {
          "internalType": "bytes32",
          "name": "_hash",
          "type": "bytes32"
        },
        {
          "internalType": "bytes",
          "name": "_signature",
          "type": "bytes"
        }
      ],
      "name": "verify",
      "outputs": [
        {
          "internalType": "bool",
          "name": "",
          "type": "bool"
        }
      ],
      "stateMutability": "view",
      "type": "function"
    },
    {
      "inputs": [
        {
          "internalType": "bytes32",
          "name": "_hash",
          "type": "bytes32"
        },
        {
          "internalType": "bytes",
          "name": "_signature",
          "type": "bytes"
        }
      ],
      "name": "recover",
      "outputs": [
        {
          "internalType": "address",
          "name": "",
          "type": "address"
        }
      ],
      "stateMutability": "pure",
      "type": "function"
    },
    {
      "inputs": [
        {
          "internalType": "bytes32",
          "name": "_message",
          "type": "bytes32"
        }
      ],
      "name": "ethMessageHash",
      "outputs": [
        {
          "internalType": "bytes32",
          "name": "",
          "type": "bytes32"
        }
      ],
      "stateMutability": "pure",
      "type": "function"
    }
  ],
  "bytecode": "0x608060405234801561001057600080fd5b5060405161069f38038061069f8339818101604052602081101561003357600080fd5b8101908080519060200190929190505050806000806101000a81548173ffffffffffffffffffffffffffffffffffffffff021916908373ffffffffffffffffffffffffffffffffffffffff1602179055505061060b806100946000396000f3fe608060405234801561001057600080fd5b506004361061004c5760003560e01c806319045a2514610051578063258ae58214610140578063570ca7351461021b5780635ea6623c1461024f575b600080fd5b6101146004803603604081101561006757600080fd5b81019080803590602001909291908035906020019064010000000081111561008e57600080fd5b8201836020820111156100a057600080fd5b803590602001918460018302840111640100000000831117156100c257600080fd5b91908080601f016020809104026020016040519081016040528093929190818152602001838380828437600081840152601f19601f820116905080830192505050505050509192919290505050610291565b604051808273ffffffffffffffffffffffffffffffffffffffff16815260200191505060405180910390f35b6102036004803603604081101561015657600080fd5b81019080803590602001909291908035906020019064010000000081111561017d57600080fd5b82018360208201111561018f57600080fd5b803590602001918460018302840111640100000000831117156101b157600080fd5b91908080601f016020809104026020016040519081016040528093929190818152602001838380828437600081840152601f19601f8201169050808301925050505050505091929192905050506104a3565b60405180821515815260200191505060405180910390f35b610223610512565b604051808273ffffffffffffffffffffffffffffffffffffffff16815260200191505060405180910390f35b61027b6004803603602081101561026557600080fd5b8101908080359060200190929190505050610536565b6040518082815260200191505060405180910390f35b600060418251146102ed576040517f08c379a000000000000000000000000000000000000000000000000000000000815260040180806020018281038252602281526020018061058f6022913960400191505060405180910390fd5b60008060006020850151925060408501519150606085015160001a9050601b8160ff16101561031d57601b810190505b601b8160ff16141580156103355750601c8160ff1614155b1561038b576040517f08c379a00000000000000000000000000000000000000000000000000000000081526004018080602001828103825260258152602001806105b16025913960400191505060405180910390fd5b600060018783868660405160008152602001604052604051808581526020018460ff1681526020018381526020018281526020019450505050506020604051602081039080840390855afa1580156103e7573d6000803e3d6000fd5b505050602060405103519050600073ffffffffffffffffffffffffffffffffffffffff168173ffffffffffffffffffffffffffffffffffffffff161415610496576040517f08c379a000000000000000000000000000000000000000000000000000000000815260040180806020018281038252601b8152602001807f56657269666965723a20696e76616c6964207369676e6174757265000000000081525060200191505060405180910390fd5b8094505050505092915050565b6000806104b86104b285610536565b84610291565b90508073ffffffffffffffffffffffffffffffffffffffff1660008054906101000a900473ffffffffffffffffffffffffffffffffffffffff1673ffffffffffffffffffffffffffffffffffffffff161491505092915050565b60008054906101000a900473ffffffffffffffffffffffffffffffffffffffff1681565b60008160405160200180807f19457468657265756d205369676e6564204d6573736167653a0a333200000000815250601c0182815260200191505060405160208183030381529060405280519060200120905091905056fe56657269666965723a20696e76616c6964207369676e6174757265206c656e67746856657269666965723a20696e76616c6964207369676e6174757265202776272076616c7565a2646970667358221220667ff109aa8cc06ae5b1eb7438b81cd28dacba56578440f0fe52336e1dc9c80e64736f6c63430007060033",
  "immutableReferences": {},
  "source": "// SPDX-License-Identifier: MIT\npragma solidity >=0.7.6;\n\ncontract VerifierWeb3 {\n    address public operator;\n\n    /**\n     * @dev constructor sets the operator's address\n     * @param _operator address of the contract's operator\n     */\n    constructor(address _operator) {\n        operator = _operator;\n    }\n\n    /**\n     * @dev Verify if a hashed message was signed by the contract's operator\n     * @param _hash bytes32 _hash is hashed message\n     * @param _signature bytes _signature generated when operator signed the hash\n     * @return bool indicating if operator is the signer\n     */\n    function verify(bytes32 _hash, bytes memory _signature)\n        public\n        view\n        returns (bool)\n    {\n        address signer = recover(ethMessageHash(_hash), _signature);\n        return operator == signer;\n    }\n\n    /**\n     * @dev Recover signer address from a message using their signature\n     * @param _hash bytes32 is the signed message\n     * @param _signature bytes is generated by signing a hashed message\n     * @return address recovered from the given hash and signature\n     */\n    function recover(bytes32 _hash, bytes memory _signature)\n        public\n        pure\n        returns (address)\n    {\n        // Check the signature length\n        if (_signature.length != 65) {\n            revert(\"Verifier: invalid signature length\");\n        }\n\n        bytes32 r;\n        bytes32 s;\n        uint8 v;\n\n        // Divide the signature in r, s and v variables\n        // ecrecover takes the signature parameters, and the only way to get them\n        // currently is to use assembly.\n        // solium-disable-next-line security/no-inline-assembly\n        assembly {\n            r := mload(add(_signature, 0x20))\n            s := mload(add(_signature, 0x40))\n            v := byte(0, mload(add(_signature, 0x60)))\n        }\n\n        // Version of signature should be 27 or 28, but 0 and 1 are also possible versions\n        if (v < 27) {\n            v += 27;\n        }\n\n        if (v != 27 && v != 28) {\n            revert(\"Verifier: invalid signature 'v' value\");\n        }\n\n        address signer = ecrecover(_hash, v, r, s);\n        require(signer != address(0), \"Verifier: invalid signature\");\n\n        return signer;\n    }\n\n    /**\n     * @dev prefix a bytes32 value with \"\\x19Ethereum Signed Message:\" and hash the result\n     * @param _message bytes32 is the original, unprefixed message\n     * @return bytes32 is the prefixed, hashed message\n     */\n    function ethMessageHash(bytes32 _message) public pure returns (bytes32) {\n        return\n            keccak256(\n                abi.encodePacked(\"\\x19Ethereum Signed Message:\\n32\", _message)\n            );\n    }\n}\n",
  "sourcePath": "/home/ubuntu/aidan/polkadot-ethereum/ethereum/contracts/test/VerifierWeb3.sol",
  "compiler": {
    "name": "solc",
    "version": "0.7.6+commit.7338295f.Emscripten.clang"
  },
  "schemaVersion": "3.3.3",
  "updatedAt": "2021-02-03T12:19:22.478Z",
  "devdoc": {
    "kind": "dev",
    "methods": {
      "constructor": {
        "details": "constructor sets the operator's address",
        "params": {
          "_operator": "address of the contract's operator"
        }
      },
      "ethMessageHash(bytes32)": {
        "details": "prefix a bytes32 value with \"\\x19Ethereum Signed Message:\" and hash the result",
        "params": {
          "_message": "bytes32 is the original, unprefixed message"
        },
        "returns": {
          "_0": "bytes32 is the prefixed, hashed message"
        }
      },
      "recover(bytes32,bytes)": {
        "details": "Recover signer address from a message using their signature",
        "params": {
          "_hash": "bytes32 is the signed message",
          "_signature": "bytes is generated by signing a hashed message"
        },
        "returns": {
          "_0": "address recovered from the given hash and signature"
        }
      },
      "verify(bytes32,bytes)": {
        "details": "Verify if a hashed message was signed by the contract's operator",
        "params": {
          "_hash": "bytes32 _hash is hashed message",
          "_signature": "bytes _signature generated when operator signed the hash"
        },
        "returns": {
          "_0": "bool indicating if operator is the signer"
        }
      }
    },
    "version": 1
  },
  "userdoc": {
    "kind": "user",
    "methods": {},
    "version": 1
  }
}