{
  "_format": "hh-sol-artifact-1",
  "contractName": "WrappedToken",
  "sourceName": "contracts/WrappedToken.sol",
  "abi": [
    {
      "inputs": [
        {
          "internalType": "string",
          "name": "_name",
          "type": "string"
        },
        {
          "internalType": "string",
          "name": "_symbol",
          "type": "string"
        },
        {
          "internalType": "address[]",
          "name": "_defaultOperators",
          "type": "address[]"
        }
      ],
      "stateMutability": "nonpayable",
      "type": "constructor"
    },
    {
      "anonymous": false,
      "inputs": [
        {
          "indexed": true,
          "internalType": "address",
          "name": "owner",
          "type": "address"
        },
        {
          "indexed": true,
          "internalType": "address",
          "name": "spender",
          "type": "address"
        },
        {
          "indexed": false,
          "internalType": "uint256",
          "name": "value",
          "type": "uint256"
        }
      ],
      "name": "Approval",
      "type": "event"
    },
    {
      "anonymous": false,
      "inputs": [
        {
          "indexed": true,
          "internalType": "address",
          "name": "operator",
          "type": "address"
        },
        {
          "indexed": true,
          "internalType": "address",
          "name": "tokenHolder",
          "type": "address"
        }
      ],
      "name": "AuthorizedOperator",
      "type": "event"
    },
    {
      "anonymous": false,
      "inputs": [
        {
          "indexed": true,
          "internalType": "address",
          "name": "operator",
          "type": "address"
        },
        {
          "indexed": true,
          "internalType": "address",
          "name": "from",
          "type": "address"
        },
        {
          "indexed": false,
          "internalType": "uint256",
          "name": "amount",
          "type": "uint256"
        },
        {
          "indexed": false,
          "internalType": "bytes",
          "name": "data",
          "type": "bytes"
        },
        {
          "indexed": false,
          "internalType": "bytes",
          "name": "operatorData",
          "type": "bytes"
        }
      ],
      "name": "Burned",
      "type": "event"
    },
    {
      "anonymous": false,
      "inputs": [
        {
          "indexed": true,
          "internalType": "address",
          "name": "operator",
          "type": "address"
        },
        {
          "indexed": true,
          "internalType": "address",
          "name": "to",
          "type": "address"
        },
        {
          "indexed": false,
          "internalType": "uint256",
          "name": "amount",
          "type": "uint256"
        },
        {
          "indexed": false,
          "internalType": "bytes",
          "name": "data",
          "type": "bytes"
        },
        {
          "indexed": false,
          "internalType": "bytes",
          "name": "operatorData",
          "type": "bytes"
        }
      ],
      "name": "Minted",
      "type": "event"
    },
    {
      "anonymous": false,
      "inputs": [
        {
          "indexed": true,
          "internalType": "address",
          "name": "previousOwner",
          "type": "address"
        },
        {
          "indexed": true,
          "internalType": "address",
          "name": "newOwner",
          "type": "address"
        }
      ],
      "name": "OwnershipTransferred",
      "type": "event"
    },
    {
      "anonymous": false,
      "inputs": [
        {
          "indexed": true,
          "internalType": "address",
          "name": "operator",
          "type": "address"
        },
        {
          "indexed": true,
          "internalType": "address",
          "name": "tokenHolder",
          "type": "address"
        }
      ],
      "name": "RevokedOperator",
      "type": "event"
    },
    {
      "anonymous": false,
      "inputs": [
        {
          "indexed": true,
          "internalType": "address",
          "name": "operator",
          "type": "address"
        },
        {
          "indexed": true,
          "internalType": "address",
          "name": "from",
          "type": "address"
        },
        {
          "indexed": true,
          "internalType": "address",
          "name": "to",
          "type": "address"
        },
        {
          "indexed": false,
          "internalType": "uint256",
          "name": "amount",
          "type": "uint256"
        },
        {
          "indexed": false,
          "internalType": "bytes",
          "name": "data",
          "type": "bytes"
        },
        {
          "indexed": false,
          "internalType": "bytes",
          "name": "operatorData",
          "type": "bytes"
        }
      ],
      "name": "Sent",
      "type": "event"
    },
    {
      "anonymous": false,
      "inputs": [
        {
          "indexed": true,
          "internalType": "address",
          "name": "from",
          "type": "address"
        },
        {
          "indexed": true,
          "internalType": "address",
          "name": "to",
          "type": "address"
        },
        {
          "indexed": false,
          "internalType": "uint256",
          "name": "value",
          "type": "uint256"
        }
      ],
      "name": "Transfer",
      "type": "event"
    },
    {
      "inputs": [
        {
          "internalType": "address",
          "name": "holder",
          "type": "address"
        },
        {
          "internalType": "address",
          "name": "spender",
          "type": "address"
        }
      ],
      "name": "allowance",
      "outputs": [
        {
          "internalType": "uint256",
          "name": "",
          "type": "uint256"
        }
      ],
      "stateMutability": "view",
      "type": "function"
    },
    {
      "inputs": [
        {
          "internalType": "address",
          "name": "spender",
          "type": "address"
        },
        {
          "internalType": "uint256",
          "name": "value",
          "type": "uint256"
        }
      ],
      "name": "approve",
      "outputs": [
        {
          "internalType": "bool",
          "name": "",
          "type": "bool"
        }
      ],
      "stateMutability": "nonpayable",
      "type": "function"
    },
    {
      "inputs": [
        {
          "internalType": "address",
          "name": "operator",
          "type": "address"
        }
      ],
      "name": "authorizeOperator",
      "outputs": [],
      "stateMutability": "nonpayable",
      "type": "function"
    },
    {
      "inputs": [
        {
          "internalType": "address",
          "name": "tokenHolder",
          "type": "address"
        }
      ],
      "name": "balanceOf",
      "outputs": [
        {
          "internalType": "uint256",
          "name": "",
          "type": "uint256"
        }
      ],
      "stateMutability": "view",
      "type": "function"
    },
    {
      "inputs": [
        {
          "internalType": "address",
          "name": "sender",
          "type": "address"
        },
        {
          "internalType": "uint256",
          "name": "amount",
          "type": "uint256"
        },
        {
          "internalType": "bytes",
          "name": "data",
          "type": "bytes"
        }
      ],
      "name": "burn",
      "outputs": [],
      "stateMutability": "nonpayable",
      "type": "function"
    },
    {
      "inputs": [
        {
          "internalType": "uint256",
          "name": "",
          "type": "uint256"
        },
        {
          "internalType": "bytes",
          "name": "",
          "type": "bytes"
        }
      ],
      "name": "burn",
      "outputs": [],
      "stateMutability": "pure",
      "type": "function"
    },
    {
      "inputs": [],
      "name": "decimals",
      "outputs": [
        {
          "internalType": "uint8",
          "name": "",
          "type": "uint8"
        }
      ],
      "stateMutability": "pure",
      "type": "function"
    },
    {
      "inputs": [],
      "name": "defaultOperators",
      "outputs": [
        {
          "internalType": "address[]",
          "name": "",
          "type": "address[]"
        }
      ],
      "stateMutability": "view",
      "type": "function"
    },
    {
      "inputs": [],
      "name": "granularity",
      "outputs": [
        {
          "internalType": "uint256",
          "name": "",
          "type": "uint256"
        }
      ],
      "stateMutability": "view",
      "type": "function"
    },
    {
      "inputs": [
        {
          "internalType": "address",
          "name": "operator",
          "type": "address"
        },
        {
          "internalType": "address",
          "name": "tokenHolder",
          "type": "address"
        }
      ],
      "name": "isOperatorFor",
      "outputs": [
        {
          "internalType": "bool",
          "name": "",
          "type": "bool"
        }
      ],
      "stateMutability": "view",
      "type": "function"
    },
    {
      "inputs": [
        {
          "internalType": "address",
          "name": "recipient",
          "type": "address"
        },
        {
          "internalType": "uint256",
          "name": "amount",
          "type": "uint256"
        },
        {
          "internalType": "bytes",
          "name": "data",
          "type": "bytes"
        }
      ],
      "name": "mint",
      "outputs": [],
      "stateMutability": "nonpayable",
      "type": "function"
    },
    {
      "inputs": [],
      "name": "name",
      "outputs": [
        {
          "internalType": "string",
          "name": "",
          "type": "string"
        }
      ],
      "stateMutability": "view",
      "type": "function"
    },
    {
      "inputs": [
        {
          "internalType": "address",
          "name": "",
          "type": "address"
        },
        {
          "internalType": "uint256",
          "name": "",
          "type": "uint256"
        },
        {
          "internalType": "bytes",
          "name": "",
          "type": "bytes"
        },
        {
          "internalType": "bytes",
          "name": "",
          "type": "bytes"
        }
      ],
      "name": "operatorBurn",
      "outputs": [],
      "stateMutability": "pure",
      "type": "function"
    },
    {
      "inputs": [
        {
          "internalType": "address",
          "name": "sender",
          "type": "address"
        },
        {
          "internalType": "address",
          "name": "recipient",
          "type": "address"
        },
        {
          "internalType": "uint256",
          "name": "amount",
          "type": "uint256"
        },
        {
          "internalType": "bytes",
          "name": "data",
          "type": "bytes"
        },
        {
          "internalType": "bytes",
          "name": "operatorData",
          "type": "bytes"
        }
      ],
      "name": "operatorSend",
      "outputs": [],
      "stateMutability": "nonpayable",
      "type": "function"
    },
    {
      "inputs": [],
      "name": "owner",
      "outputs": [
        {
          "internalType": "address",
          "name": "",
          "type": "address"
        }
      ],
      "stateMutability": "view",
      "type": "function"
    },
    {
      "inputs": [],
      "name": "renounceOwnership",
      "outputs": [],
      "stateMutability": "nonpayable",
      "type": "function"
    },
    {
      "inputs": [
        {
          "internalType": "address",
          "name": "operator",
          "type": "address"
        }
      ],
      "name": "revokeOperator",
      "outputs": [],
      "stateMutability": "nonpayable",
      "type": "function"
    },
    {
      "inputs": [
        {
          "internalType": "address",
          "name": "recipient",
          "type": "address"
        },
        {
          "internalType": "uint256",
          "name": "amount",
          "type": "uint256"
        },
        {
          "internalType": "bytes",
          "name": "data",
          "type": "bytes"
        }
      ],
      "name": "send",
      "outputs": [],
      "stateMutability": "nonpayable",
      "type": "function"
    },
    {
      "inputs": [],
      "name": "symbol",
      "outputs": [
        {
          "internalType": "string",
          "name": "",
          "type": "string"
        }
      ],
      "stateMutability": "view",
      "type": "function"
    },
    {
      "inputs": [],
      "name": "totalSupply",
      "outputs": [
        {
          "internalType": "uint256",
          "name": "",
          "type": "uint256"
        }
      ],
      "stateMutability": "view",
      "type": "function"
    },
    {
      "inputs": [
        {
          "internalType": "address",
          "name": "recipient",
          "type": "address"
        },
        {
          "internalType": "uint256",
          "name": "amount",
          "type": "uint256"
        }
      ],
      "name": "transfer",
      "outputs": [
        {
          "internalType": "bool",
          "name": "",
          "type": "bool"
        }
      ],
      "stateMutability": "nonpayable",
      "type": "function"
    },
    {
      "inputs": [
        {
          "internalType": "address",
          "name": "holder",
          "type": "address"
        },
        {
          "internalType": "address",
          "name": "recipient",
          "type": "address"
        },
        {
          "internalType": "uint256",
          "name": "amount",
          "type": "uint256"
        }
      ],
      "name": "transferFrom",
      "outputs": [
        {
          "internalType": "bool",
          "name": "",
          "type": "bool"
        }
      ],
      "stateMutability": "nonpayable",
      "type": "function"
    },
    {
      "inputs": [
        {
          "internalType": "address",
          "name": "newOwner",
          "type": "address"
        }
      ],
      "name": "transferOwnership",
      "outputs": [],
      "stateMutability": "nonpayable",
      "type": "function"
    }
  ],
  "bytecode": "0x60806040523480156200001157600080fd5b50604051620040b0380380620040b08339818101604052810190620000379190620005b3565b82828282600290805190602001906200005292919062000331565b5081600390805190602001906200006b92919062000331565b50806004908051906020019062000084929190620003c2565b5060005b81518110156200011d57600160056000848481518110620000ae57620000ad620008ef565b5b602002602001015173ffffffffffffffffffffffffffffffffffffffff1673ffffffffffffffffffffffffffffffffffffffff16815260200190815260200160002060006101000a81548160ff0219169083151502179055508080620001149062000843565b91505062000088565b50731820a4b7618bde71dce8cdc73aab6c95905fad2473ffffffffffffffffffffffffffffffffffffffff166329965a1d307fac7fbab5f54a3ca8194167523c6753bfeb96a445279294b6125b68cce2177054306040518463ffffffff1660e01b815260040162000191939291906200068e565b600060405180830381600087803b158015620001ac57600080fd5b505af1158015620001c1573d6000803e3d6000fd5b50505050731820a4b7618bde71dce8cdc73aab6c95905fad2473ffffffffffffffffffffffffffffffffffffffff166329965a1d307faea199e31a596269b42cdafd93407f14436db6e4cad65417994c2eb37381e05a306040518463ffffffff1660e01b815260040162000238939291906200068e565b600060405180830381600087803b1580156200025357600080fd5b505af115801562000268573d6000803e3d6000fd5b505050505050506000620002816200032960201b60201c565b905080600960006101000a81548173ffffffffffffffffffffffffffffffffffffffff021916908373ffffffffffffffffffffffffffffffffffffffff1602179055508073ffffffffffffffffffffffffffffffffffffffff16600073ffffffffffffffffffffffffffffffffffffffff167f8be0079c531659141344cd1fd0a4f28419497f9722a3daafe3b4186f6b6457e060405160405180910390a35050505062000991565b600033905090565b8280546200033f90620007d7565b90600052602060002090601f016020900481019282620003635760008555620003af565b82601f106200037e57805160ff1916838001178555620003af565b82800160010185558215620003af579182015b82811115620003ae57825182559160200191906001019062000391565b5b509050620003be919062000451565b5090565b8280548282559060005260206000209081019282156200043e579160200282015b828111156200043d5782518260006101000a81548173ffffffffffffffffffffffffffffffffffffffff021916908373ffffffffffffffffffffffffffffffffffffffff16021790555091602001919060010190620003e3565b5b5090506200044d919062000451565b5090565b5b808211156200046c57600081600090555060010162000452565b5090565b6000620004876200048184620006f4565b620006cb565b90508083825260208201905082856020860282011115620004ad57620004ac62000952565b5b60005b85811015620004e15781620004c6888262000536565b845260208401935060208301925050600181019050620004b0565b5050509392505050565b600062000502620004fc8462000723565b620006cb565b90508281526020810184848401111562000521576200052062000957565b5b6200052e848285620007a1565b509392505050565b600081519050620005478162000977565b92915050565b600082601f8301126200056557620005646200094d565b5b81516200057784826020860162000470565b91505092915050565b600082601f8301126200059857620005976200094d565b5b8151620005aa848260208601620004eb565b91505092915050565b600080600060608486031215620005cf57620005ce62000961565b5b600084015167ffffffffffffffff811115620005f057620005ef6200095c565b5b620005fe8682870162000580565b935050602084015167ffffffffffffffff8111156200062257620006216200095c565b5b620006308682870162000580565b925050604084015167ffffffffffffffff8111156200065457620006536200095c565b5b62000662868287016200054d565b9150509250925092565b620006778162000759565b82525050565b62000688816200076d565b82525050565b6000606082019050620006a560008301866200066c565b620006b460208301856200067d565b620006c360408301846200066c565b949350505050565b6000620006d7620006ea565b9050620006e582826200080d565b919050565b6000604051905090565b600067ffffffffffffffff8211156200071257620007116200091e565b5b602082029050602081019050919050565b600067ffffffffffffffff8211156200074157620007406200091e565b5b6200074c8262000966565b9050602081019050919050565b6000620007668262000777565b9050919050565b6000819050919050565b600073ffffffffffffffffffffffffffffffffffffffff82169050919050565b6000819050919050565b60005b83811015620007c1578082015181840152602081019050620007a4565b83811115620007d1576000848401525b50505050565b60006002820490506001821680620007f057607f821691505b60208210811415620008075762000806620008c0565b5b50919050565b620008188262000966565b810181811067ffffffffffffffff821117156200083a57620008396200091e565b5b80604052505050565b6000620008508262000797565b91507fffffffffffffffffffffffffffffffffffffffffffffffffffffffffffffffff82141562000886576200088562000891565b5b600182019050919050565b7f4e487b7100000000000000000000000000000000000000000000000000000000600052601160045260246000fd5b7f4e487b7100000000000000000000000000000000000000000000000000000000600052602260045260246000fd5b7f4e487b7100000000000000000000000000000000000000000000000000000000600052603260045260246000fd5b7f4e487b7100000000000000000000000000000000000000000000000000000000600052604160045260246000fd5b600080fd5b600080fd5b600080fd5b600080fd5b600080fd5b6000601f19601f8301169050919050565b620009828162000759565b81146200098e57600080fd5b50565b61370f80620009a16000396000f3fe608060405234801561001057600080fd5b506004361061014d5760003560e01c80638da5cb5b116100c3578063d95b63711161007c578063d95b63711461037a578063dd62ed3e146103aa578063f2fde38b146103da578063fad8b32a146103f6578063fc673c4f14610412578063fe9d93031461042e5761014d565b80638da5cb5b146102ba57806394d008ef146102d8578063959b8c3f146102f457806395d89b41146103105780639bd9bbc61461032e578063a9059cbb1461034a5761014d565b8063313ce56711610115578063313ce5671461020c57806344d171871461022a578063556f0dc71461024657806362ad1b831461026457806370a0823114610280578063715018a6146102b05761014d565b806306e485381461015257806306fdde0314610170578063095ea7b31461018e57806318160ddd146101be57806323b872dd146101dc575b600080fd5b61015a61044a565b6040516101679190612b6e565b60405180910390f35b6101786104d8565b6040516101859190612bab565b60405180910390f35b6101a860048036038101906101a39190612559565b61056a565b6040516101b59190612b90565b60405180910390f35b6101c661058d565b6040516101d39190612e0d565b60405180910390f35b6101f660048036038101906101f19190612453565b610597565b6040516102039190612b90565b60405180910390f35b6102146107f1565b6040516102219190612e6d565b60405180910390f35b610244600480360381019061023f9190612599565b6107fa565b005b61024e610896565b60405161025b9190612e0d565b60405180910390f35b61027e600480360381019061027991906124a6565b61089f565b005b61029a600480360381019061029591906123b9565b610905565b6040516102a79190612e0d565b60405180910390f35b6102b861094d565b005b6102c2610a8a565b6040516102cf9190612abb565b60405180910390f35b6102f260048036038101906102ed9190612599565b610ab4565b005b61030e600480360381019061030991906123b9565b610b50565b005b610318610db1565b6040516103259190612bab565b60405180910390f35b61034860048036038101906103439190612599565b610e43565b005b610364600480360381019061035f9190612559565b610e6d565b6040516103719190612b90565b60405180910390f35b610394600480360381019061038f9190612413565b610f7b565b6040516103a19190612b90565b60405180910390f35b6103c460048036038101906103bf9190612413565b61112c565b6040516103d19190612e0d565b60405180910390f35b6103f460048036038101906103ef91906123b9565b6111b3565b005b610410600480360381019061040b91906123b9565b61135f565b005b61042c60048036038101906104279190612608565b6115c0565b005b610448600480360381019061044391906126a7565b6115fb565b005b606060048054806020026020016040519081016040528092919081815260200182805480156104ce57602002820191906000526020600020905b8160009054906101000a900473ffffffffffffffffffffffffffffffffffffffff1673ffffffffffffffffffffffffffffffffffffffff1681526020019060010190808311610484575b5050505050905090565b6060600280546104e79061307a565b80601f01602080910402602001604051908101604052809291908181526020018280546105139061307a565b80156105605780601f1061053557610100808354040283529160200191610560565b820191906000526020600020905b81548152906001019060200180831161054357829003601f168201915b5050505050905090565b600080610575611636565b905061058281858561163e565b600191505092915050565b6000600154905090565b60008073ffffffffffffffffffffffffffffffffffffffff168373ffffffffffffffffffffffffffffffffffffffff161415610608576040517f08c379a00000000000000000000000000000000000000000000000000000000081526004016105ff90612d2d565b60405180910390fd5b600073ffffffffffffffffffffffffffffffffffffffff168473ffffffffffffffffffffffffffffffffffffffff161415610678576040517f08c379a000000000000000000000000000000000000000000000000000000000815260040161066f90612d8d565b60405180910390fd5b6000610682611636565b90506106b0818686866040518060200160405280600081525060405180602001604052806000815250611809565b6106dc81868686604051806020016040528060008152506040518060200160405280600081525061197f565b6000600860008773ffffffffffffffffffffffffffffffffffffffff1673ffffffffffffffffffffffffffffffffffffffff16815260200190815260200160002060008373ffffffffffffffffffffffffffffffffffffffff1673ffffffffffffffffffffffffffffffffffffffff168152602001908152602001600020549050838110156107a0576040517f08c379a000000000000000000000000000000000000000000000000000000000815260040161079790612d6d565b60405180910390fd5b6107b6868386846107b19190612fa5565b61163e565b6107e48287878760405180602001604052806000815250604051806020016040528060008152506000611ba2565b6001925050509392505050565b60006012905090565b610802611636565b73ffffffffffffffffffffffffffffffffffffffff16610820610a8a565b73ffffffffffffffffffffffffffffffffffffffff1614610876576040517f08c379a000000000000000000000000000000000000000000000000000000000815260040161086d90612ced565b60405180910390fd5b61089183838360405180602001604052806000815250611d83565b505050565b60006001905090565b6108b06108aa611636565b86610f7b565b6108ef576040517f08c379a00000000000000000000000000000000000000000000000000000000081526004016108e690612d4d565b60405180910390fd5b6108fe85858585856001611fdf565b5050505050565b60008060008373ffffffffffffffffffffffffffffffffffffffff1673ffffffffffffffffffffffffffffffffffffffff168152602001908152602001600020549050919050565b610955611636565b73ffffffffffffffffffffffffffffffffffffffff16610973610a8a565b73ffffffffffffffffffffffffffffffffffffffff16146109c9576040517f08c379a00000000000000000000000000000000000000000000000000000000081526004016109c090612ced565b60405180910390fd5b600073ffffffffffffffffffffffffffffffffffffffff16600960009054906101000a900473ffffffffffffffffffffffffffffffffffffffff1673ffffffffffffffffffffffffffffffffffffffff167f8be0079c531659141344cd1fd0a4f28419497f9722a3daafe3b4186f6b6457e060405160405180910390a36000600960006101000a81548173ffffffffffffffffffffffffffffffffffffffff021916908373ffffffffffffffffffffffffffffffffffffffff160217905550565b6000600960009054906101000a900473ffffffffffffffffffffffffffffffffffffffff16905090565b610abc611636565b73ffffffffffffffffffffffffffffffffffffffff16610ada610a8a565b73ffffffffffffffffffffffffffffffffffffffff1614610b30576040517f08c379a0000000000000000000000000000000000000000000000000000000008152600401610b2790612ced565b60405180910390fd5b610b4b838383604051806020016040528060008152506120ff565b505050565b8073ffffffffffffffffffffffffffffffffffffffff16610b6f611636565b73ffffffffffffffffffffffffffffffffffffffff161415610bc6576040517f08c379a0000000000000000000000000000000000000000000000000000000008152600401610bbd90612c8d565b60405180910390fd5b600560008273ffffffffffffffffffffffffffffffffffffffff1673ffffffffffffffffffffffffffffffffffffffff16815260200190815260200160002060009054906101000a900460ff1615610cb05760076000610c24611636565b73ffffffffffffffffffffffffffffffffffffffff1673ffffffffffffffffffffffffffffffffffffffff16815260200190815260200160002060008273ffffffffffffffffffffffffffffffffffffffff1673ffffffffffffffffffffffffffffffffffffffff16815260200190815260200160002060006101000a81549060ff0219169055610d4d565b600160066000610cbe611636565b73ffffffffffffffffffffffffffffffffffffffff1673ffffffffffffffffffffffffffffffffffffffff16815260200190815260200160002060008373ffffffffffffffffffffffffffffffffffffffff1673ffffffffffffffffffffffffffffffffffffffff16815260200190815260200160002060006101000a81548160ff0219169083151502179055505b610d55611636565b73ffffffffffffffffffffffffffffffffffffffff168173ffffffffffffffffffffffffffffffffffffffff167ff4caeb2d6ca8932a215a353d0703c326ec2d81fc68170f320eb2ab49e9df61f960405160405180910390a350565b606060038054610dc09061307a565b80601f0160208091040260200160405190810160405280929190818152602001828054610dec9061307a565b8015610e395780601f10610e0e57610100808354040283529160200191610e39565b820191906000526020600020905b815481529060010190602001808311610e1c57829003601f168201915b5050505050905090565b610e68610e4e611636565b848484604051806020016040528060008152506001611fdf565b505050565b60008073ffffffffffffffffffffffffffffffffffffffff168373ffffffffffffffffffffffffffffffffffffffff161415610ede576040517f08c379a0000000000000000000000000000000000000000000000000000000008152600401610ed590612d2d565b60405180910390fd5b6000610ee8611636565b9050610f16818286866040518060200160405280600081525060405180602001604052806000815250611809565b610f4281828686604051806020016040528060008152506040518060200160405280600081525061197f565b610f708182868660405180602001604052806000815250604051806020016040528060008152506000611ba2565b600191505092915050565b60008173ffffffffffffffffffffffffffffffffffffffff168373ffffffffffffffffffffffffffffffffffffffff1614806110935750600560008473ffffffffffffffffffffffffffffffffffffffff1673ffffffffffffffffffffffffffffffffffffffff16815260200190815260200160002060009054906101000a900460ff1680156110925750600760008373ffffffffffffffffffffffffffffffffffffffff1673ffffffffffffffffffffffffffffffffffffffff16815260200190815260200160002060008473ffffffffffffffffffffffffffffffffffffffff1673ffffffffffffffffffffffffffffffffffffffff16815260200190815260200160002060009054906101000a900460ff16155b5b806111245750600660008373ffffffffffffffffffffffffffffffffffffffff1673ffffffffffffffffffffffffffffffffffffffff16815260200190815260200160002060008473ffffffffffffffffffffffffffffffffffffffff1673ffffffffffffffffffffffffffffffffffffffff16815260200190815260200160002060009054906101000a900460ff165b905092915050565b6000600860008473ffffffffffffffffffffffffffffffffffffffff1673ffffffffffffffffffffffffffffffffffffffff16815260200190815260200160002060008373ffffffffffffffffffffffffffffffffffffffff1673ffffffffffffffffffffffffffffffffffffffff16815260200190815260200160002054905092915050565b6111bb611636565b73ffffffffffffffffffffffffffffffffffffffff166111d9610a8a565b73ffffffffffffffffffffffffffffffffffffffff161461122f576040517f08c379a000000000000000000000000000000000000000000000000000000000815260040161122690612ced565b60405180910390fd5b600073ffffffffffffffffffffffffffffffffffffffff168173ffffffffffffffffffffffffffffffffffffffff16141561129f576040517f08c379a000000000000000000000000000000000000000000000000000000000815260040161129690612c4d565b60405180910390fd5b8073ffffffffffffffffffffffffffffffffffffffff16600960009054906101000a900473ffffffffffffffffffffffffffffffffffffffff1673ffffffffffffffffffffffffffffffffffffffff167f8be0079c531659141344cd1fd0a4f28419497f9722a3daafe3b4186f6b6457e060405160405180910390a380600960006101000a81548173ffffffffffffffffffffffffffffffffffffffff021916908373ffffffffffffffffffffffffffffffffffffffff16021790555050565b611367611636565b73ffffffffffffffffffffffffffffffffffffffff168173ffffffffffffffffffffffffffffffffffffffff1614156113d5576040517f08c379a00000000000000000000000000000000000000000000000000000000081526004016113cc90612cad565b60405180910390fd5b600560008273ffffffffffffffffffffffffffffffffffffffff1673ffffffffffffffffffffffffffffffffffffffff16815260200190815260200160002060009054906101000a900460ff16156114c857600160076000611435611636565b73ffffffffffffffffffffffffffffffffffffffff1673ffffffffffffffffffffffffffffffffffffffff16815260200190815260200160002060008373ffffffffffffffffffffffffffffffffffffffff1673ffffffffffffffffffffffffffffffffffffffff16815260200190815260200160002060006101000a81548160ff02191690831515021790555061155c565b600660006114d4611636565b73ffffffffffffffffffffffffffffffffffffffff1673ffffffffffffffffffffffffffffffffffffffff16815260200190815260200160002060008273ffffffffffffffffffffffffffffffffffffffff1673ffffffffffffffffffffffffffffffffffffffff16815260200190815260200160002060006101000a81549060ff02191690555b611564611636565b73ffffffffffffffffffffffffffffffffffffffff168173ffffffffffffffffffffffffffffffffffffffff167f50546e66e5f44d728365dc3908c63bc5cfeeab470722c1677e3073a6ac294aa160405160405180910390a350565b6040517f08c379a00000000000000000000000000000000000000000000000000000000081526004016115f290612c0d565b60405180910390fd5b6040517f08c379a000000000000000000000000000000000000000000000000000000000815260040161162d90612c0d565b60405180910390fd5b600033905090565b600073ffffffffffffffffffffffffffffffffffffffff168373ffffffffffffffffffffffffffffffffffffffff1614156116ae576040517f08c379a00000000000000000000000000000000000000000000000000000000081526004016116a590612bcd565b60405180910390fd5b600073ffffffffffffffffffffffffffffffffffffffff168273ffffffffffffffffffffffffffffffffffffffff16141561171e576040517f08c379a000000000000000000000000000000000000000000000000000000000815260040161171590612ded565b60405180910390fd5b80600860008573ffffffffffffffffffffffffffffffffffffffff1673ffffffffffffffffffffffffffffffffffffffff16815260200190815260200160002060008473ffffffffffffffffffffffffffffffffffffffff1673ffffffffffffffffffffffffffffffffffffffff168152602001908152602001600020819055508173ffffffffffffffffffffffffffffffffffffffff168373ffffffffffffffffffffffffffffffffffffffff167f8c5be1e5ebec7d5bd14f71427d1e84f3dd0314c0f7b2291e5b200ac8c7c3b925836040516117fc9190612e0d565b60405180910390a3505050565b6000731820a4b7618bde71dce8cdc73aab6c95905fad2473ffffffffffffffffffffffffffffffffffffffff1663aabbb8ca877f29ddb589b1fb5fc7cf394961c1adf5f8c6454761adf795e67fe149f658abe8956040518363ffffffff1660e01b815260040161187a929190612b45565b60206040518083038186803b15801561189257600080fd5b505afa1580156118a6573d6000803e3d6000fd5b505050506040513d601f19601f820116820180604052508101906118ca91906123e6565b9050600073ffffffffffffffffffffffffffffffffffffffff168173ffffffffffffffffffffffffffffffffffffffff1614611976578073ffffffffffffffffffffffffffffffffffffffff166375ab97828888888888886040518763ffffffff1660e01b815260040161194396959493929190612ad6565b600060405180830381600087803b15801561195d57600080fd5b505af1158015611971573d6000803e3d6000fd5b505050505b50505050505050565b61198b86868686612113565b60008060008773ffffffffffffffffffffffffffffffffffffffff1673ffffffffffffffffffffffffffffffffffffffff16815260200190815260200160002054905083811015611a11576040517f08c379a0000000000000000000000000000000000000000000000000000000008152600401611a0890612c2d565b60405180910390fd5b8381611a1d9190612fa5565b6000808873ffffffffffffffffffffffffffffffffffffffff1673ffffffffffffffffffffffffffffffffffffffff16815260200190815260200160002081905550836000808773ffffffffffffffffffffffffffffffffffffffff1673ffffffffffffffffffffffffffffffffffffffff1681526020019081526020016000206000828254611aad9190612f4f565b925050819055508473ffffffffffffffffffffffffffffffffffffffff168673ffffffffffffffffffffffffffffffffffffffff168873ffffffffffffffffffffffffffffffffffffffff167f06b541ddaa720db2b10a4d0cdac39b8d360425fc073085fac19bc82614677987878787604051611b2c93929190612e28565b60405180910390a48473ffffffffffffffffffffffffffffffffffffffff168673ffffffffffffffffffffffffffffffffffffffff167fddf252ad1be2c89b69c2b068fc378daa952ba7f163c4a11628f55a4df523b3ef86604051611b919190612e0d565b60405180910390a350505050505050565b6000731820a4b7618bde71dce8cdc73aab6c95905fad2473ffffffffffffffffffffffffffffffffffffffff1663aabbb8ca877fb281fc8c12954d22544db45de3159a39272895b169a852b314f9cc762e44c53b6040518363ffffffff1660e01b8152600401611c13929190612b45565b60206040518083038186803b158015611c2b57600080fd5b505afa158015611c3f573d6000803e3d6000fd5b505050506040513d601f19601f82011682018060405250810190611c6391906123e6565b9050600073ffffffffffffffffffffffffffffffffffffffff168173ffffffffffffffffffffffffffffffffffffffff1614611d12578073ffffffffffffffffffffffffffffffffffffffff166223de298989898989896040518763ffffffff1660e01b8152600401611cdb96959493929190612ad6565b600060405180830381600087803b158015611cf557600080fd5b505af1158015611d09573d6000803e3d6000fd5b50505050611d79565b8115611d7857611d378673ffffffffffffffffffffffffffffffffffffffff16612119565b15611d77576040517f08c379a0000000000000000000000000000000000000000000000000000000008152600401611d6e90612d0d565b60405180910390fd5b5b5b5050505050505050565b600073ffffffffffffffffffffffffffffffffffffffff168473ffffffffffffffffffffffffffffffffffffffff161415611df3576040517f08c379a0000000000000000000000000000000000000000000000000000000008152600401611dea90612c6d565b60405180910390fd5b6000611dfd611636565b9050611e0e81866000878787611809565b611e1b8186600087612113565b60008060008773ffffffffffffffffffffffffffffffffffffffff1673ffffffffffffffffffffffffffffffffffffffff16815260200190815260200160002054905084811015611ea1576040517f08c379a0000000000000000000000000000000000000000000000000000000008152600401611e9890612dad565b60405180910390fd5b8481611ead9190612fa5565b6000808873ffffffffffffffffffffffffffffffffffffffff1673ffffffffffffffffffffffffffffffffffffffff168152602001908152602001600020819055508460016000828254611f019190612fa5565b925050819055508573ffffffffffffffffffffffffffffffffffffffff168273ffffffffffffffffffffffffffffffffffffffff167fa78a9be3a7b862d26933ad85fb11d80ef66b8f972d7cbba06621d583943a4098878787604051611f6993929190612e28565b60405180910390a3600073ffffffffffffffffffffffffffffffffffffffff168673ffffffffffffffffffffffffffffffffffffffff167fddf252ad1be2c89b69c2b068fc378daa952ba7f163c4a11628f55a4df523b3ef87604051611fcf9190612e0d565b60405180910390a3505050505050565b600073ffffffffffffffffffffffffffffffffffffffff168673ffffffffffffffffffffffffffffffffffffffff16141561204f576040517f08c379a000000000000000000000000000000000000000000000000000000000815260040161204690612bed565b60405180910390fd5b600073ffffffffffffffffffffffffffffffffffffffff168573ffffffffffffffffffffffffffffffffffffffff1614156120bf576040517f08c379a00000000000000000000000000000000000000000000000000000000081526004016120b690612dcd565b60405180910390fd5b60006120c9611636565b90506120d9818888888888611809565b6120e781888888888861197f565b6120f681888888888888611ba2565b50505050505050565b61210d84848484600161212c565b50505050565b50505050565b600080823b905060008111915050919050565b600073ffffffffffffffffffffffffffffffffffffffff168573ffffffffffffffffffffffffffffffffffffffff16141561219c576040517f08c379a000000000000000000000000000000000000000000000000000000000815260040161219390612ccd565b60405180910390fd5b60006121a6611636565b90506121b58160008888612113565b84600160008282546121c79190612f4f565b92505081905550846000808873ffffffffffffffffffffffffffffffffffffffff1673ffffffffffffffffffffffffffffffffffffffff168152602001908152602001600020600082825461221c9190612f4f565b925050819055506122338160008888888888611ba2565b8573ffffffffffffffffffffffffffffffffffffffff168173ffffffffffffffffffffffffffffffffffffffff167f2fe5be0146f74c5bce36c0b80911af6c7d86ff27e89d5cfa61fc681327954e5d87878760405161229493929190612e28565b60405180910390a38573ffffffffffffffffffffffffffffffffffffffff16600073ffffffffffffffffffffffffffffffffffffffff167fddf252ad1be2c89b69c2b068fc378daa952ba7f163c4a11628f55a4df523b3ef876040516122fa9190612e0d565b60405180910390a3505050505050565b600061231d61231884612ead565b612e88565b9050828152602081018484840111156123395761233861316f565b5b612344848285613038565b509392505050565b60008135905061235b816136ab565b92915050565b600081519050612370816136ab565b92915050565b600082601f83011261238b5761238a61316a565b5b813561239b84826020860161230a565b91505092915050565b6000813590506123b3816136c2565b92915050565b6000602082840312156123cf576123ce613179565b5b60006123dd8482850161234c565b91505092915050565b6000602082840312156123fc576123fb613179565b5b600061240a84828501612361565b91505092915050565b6000806040838503121561242a57612429613179565b5b60006124388582860161234c565b92505060206124498582860161234c565b9150509250929050565b60008060006060848603121561246c5761246b613179565b5b600061247a8682870161234c565b935050602061248b8682870161234c565b925050604061249c868287016123a4565b9150509250925092565b600080600080600060a086880312156124c2576124c1613179565b5b60006124d08882890161234c565b95505060206124e18882890161234c565b94505060406124f2888289016123a4565b935050606086013567ffffffffffffffff81111561251357612512613174565b5b61251f88828901612376565b925050608086013567ffffffffffffffff8111156125405761253f613174565b5b61254c88828901612376565b9150509295509295909350565b600080604083850312156125705761256f613179565b5b600061257e8582860161234c565b925050602061258f858286016123a4565b9150509250929050565b6000806000606084860312156125b2576125b1613179565b5b60006125c08682870161234c565b93505060206125d1868287016123a4565b925050604084013567ffffffffffffffff8111156125f2576125f1613174565b5b6125fe86828701612376565b9150509250925092565b6000806000806080858703121561262257612621613179565b5b60006126308782880161234c565b9450506020612641878288016123a4565b935050604085013567ffffffffffffffff81111561266257612661613174565b5b61266e87828801612376565b925050606085013567ffffffffffffffff81111561268f5761268e613174565b5b61269b87828801612376565b91505092959194509250565b600080604083850312156126be576126bd613179565b5b60006126cc858286016123a4565b925050602083013567ffffffffffffffff8111156126ed576126ec613174565b5b6126f985828601612376565b9150509250929050565b600061270f838361271b565b60208301905092915050565b61272481612fd9565b82525050565b61273381612fd9565b82525050565b600061274482612eee565b61274e8185612f1c565b935061275983612ede565b8060005b8381101561278a5781516127718882612703565b975061277c83612f0f565b92505060018101905061275d565b5085935050505092915050565b6127a081612feb565b82525050565b6127af81612ff7565b82525050565b60006127c082612ef9565b6127ca8185612f2d565b93506127da818560208601613047565b6127e38161317e565b840191505092915050565b60006127f982612f04565b6128038185612f3e565b9350612813818560208601613047565b61281c8161317e565b840191505092915050565b6000612834602583612f3e565b915061283f8261318f565b604082019050919050565b6000612857602283612f3e565b9150612862826131de565b604082019050919050565b600061287a600d83612f3e565b91506128858261322d565b602082019050919050565b600061289d602783612f3e565b91506128a882613256565b604082019050919050565b60006128c0602683612f3e565b91506128cb826132a5565b604082019050919050565b60006128e3602283612f3e565b91506128ee826132f4565b604082019050919050565b6000612906602483612f3e565b915061291182613343565b604082019050919050565b6000612929602183612f3e565b915061293482613392565b604082019050919050565b600061294c602083612f3e565b9150612957826133e1565b602082019050919050565b600061296f602083612f3e565b915061297a8261340a565b602082019050919050565b6000612992604d83612f3e565b915061299d82613433565b606082019050919050565b60006129b5602483612f3e565b91506129c0826134a8565b604082019050919050565b60006129d8602c83612f3e565b91506129e3826134f7565b604082019050919050565b60006129fb602983612f3e565b9150612a0682613546565b604082019050919050565b6000612a1e602683612f3e565b9150612a2982613595565b604082019050919050565b6000612a41602383612f3e565b9150612a4c826135e4565b604082019050919050565b6000612a64602083612f3e565b9150612a6f82613633565b602082019050919050565b6000612a87602383612f3e565b9150612a928261365c565b604082019050919050565b612aa681613021565b82525050565b612ab58161302b565b82525050565b6000602082019050612ad0600083018461272a565b92915050565b600060c082019050612aeb600083018961272a565b612af8602083018861272a565b612b05604083018761272a565b612b126060830186612a9d565b8181036080830152612b2481856127b5565b905081810360a0830152612b3881846127b5565b9050979650505050505050565b6000604082019050612b5a600083018561272a565b612b6760208301846127a6565b9392505050565b60006020820190508181036000830152612b888184612739565b905092915050565b6000602082019050612ba56000830184612797565b92915050565b60006020820190508181036000830152612bc581846127ee565b905092915050565b60006020820190508181036000830152612be681612827565b9050919050565b60006020820190508181036000830152612c068161284a565b9050919050565b60006020820190508181036000830152612c268161286d565b9050919050565b60006020820190508181036000830152612c4681612890565b9050919050565b60006020820190508181036000830152612c66816128b3565b9050919050565b60006020820190508181036000830152612c86816128d6565b9050919050565b60006020820190508181036000830152612ca6816128f9565b9050919050565b60006020820190508181036000830152612cc68161291c565b9050919050565b60006020820190508181036000830152612ce68161293f565b9050919050565b60006020820190508181036000830152612d0681612962565b9050919050565b60006020820190508181036000830152612d2681612985565b9050919050565b60006020820190508181036000830152612d46816129a8565b9050919050565b60006020820190508181036000830152612d66816129cb565b9050919050565b60006020820190508181036000830152612d86816129ee565b9050919050565b60006020820190508181036000830152612da681612a11565b9050919050565b60006020820190508181036000830152612dc681612a34565b9050919050565b60006020820190508181036000830152612de681612a57565b9050919050565b60006020820190508181036000830152612e0681612a7a565b9050919050565b6000602082019050612e226000830184612a9d565b92915050565b6000606082019050612e3d6000830186612a9d565b8181036020830152612e4f81856127b5565b90508181036040830152612e6381846127b5565b9050949350505050565b6000602082019050612e826000830184612aac565b92915050565b6000612e92612ea3565b9050612e9e82826130ac565b919050565b6000604051905090565b600067ffffffffffffffff821115612ec857612ec761313b565b5b612ed18261317e565b9050602081019050919050565b6000819050602082019050919050565b600081519050919050565b600081519050919050565b600081519050919050565b6000602082019050919050565b600082825260208201905092915050565b600082825260208201905092915050565b600082825260208201905092915050565b6000612f5a82613021565b9150612f6583613021565b9250827fffffffffffffffffffffffffffffffffffffffffffffffffffffffffffffffff03821115612f9a57612f996130dd565b5b828201905092915050565b6000612fb082613021565b9150612fbb83613021565b925082821015612fce57612fcd6130dd565b5b828203905092915050565b6000612fe482613001565b9050919050565b60008115159050919050565b6000819050919050565b600073ffffffffffffffffffffffffffffffffffffffff82169050919050565b6000819050919050565b600060ff82169050919050565b82818337600083830152505050565b60005b8381101561306557808201518184015260208101905061304a565b83811115613074576000848401525b50505050565b6000600282049050600182168061309257607f821691505b602082108114156130a6576130a561310c565b5b50919050565b6130b58261317e565b810181811067ffffffffffffffff821117156130d4576130d361313b565b5b80604052505050565b7f4e487b7100000000000000000000000000000000000000000000000000000000600052601160045260246000fd5b7f4e487b7100000000000000000000000000000000000000000000000000000000600052602260045260246000fd5b7f4e487b7100000000000000000000000000000000000000000000000000000000600052604160045260246000fd5b600080fd5b600080fd5b600080fd5b600080fd5b6000601f19601f8301169050919050565b7f4552433737373a20617070726f76652066726f6d20746865207a65726f20616460008201527f6472657373000000000000000000000000000000000000000000000000000000602082015250565b7f4552433737373a2073656e642066726f6d20746865207a65726f20616464726560008201527f7373000000000000000000000000000000000000000000000000000000000000602082015250565b7f6e6f742d737570706f7274656400000000000000000000000000000000000000600082015250565b7f4552433737373a207472616e7366657220616d6f756e7420657863656564732060008201527f62616c616e636500000000000000000000000000000000000000000000000000602082015250565b7f4f776e61626c653a206e6577206f776e657220697320746865207a65726f206160008201527f6464726573730000000000000000000000000000000000000000000000000000602082015250565b7f4552433737373a206275726e2066726f6d20746865207a65726f20616464726560008201527f7373000000000000000000000000000000000000000000000000000000000000602082015250565b7f4552433737373a20617574686f72697a696e672073656c66206173206f70657260008201527f61746f7200000000000000000000000000000000000000000000000000000000602082015250565b7f4552433737373a207265766f6b696e672073656c66206173206f70657261746f60008201527f7200000000000000000000000000000000000000000000000000000000000000602082015250565b7f4552433737373a206d696e7420746f20746865207a65726f2061646472657373600082015250565b7f4f776e61626c653a2063616c6c6572206973206e6f7420746865206f776e6572600082015250565b7f4552433737373a20746f6b656e20726563697069656e7420636f6e747261637460008201527f20686173206e6f20696d706c656d656e74657220666f7220455243373737546f60208201527f6b656e73526563697069656e7400000000000000000000000000000000000000604082015250565b7f4552433737373a207472616e7366657220746f20746865207a65726f2061646460008201527f7265737300000000000000000000000000000000000000000000000000000000602082015250565b7f4552433737373a2063616c6c6572206973206e6f7420616e206f70657261746f60008201527f7220666f7220686f6c6465720000000000000000000000000000000000000000602082015250565b7f4552433737373a207472616e7366657220616d6f756e7420657863656564732060008201527f616c6c6f77616e63650000000000000000000000000000000000000000000000602082015250565b7f4552433737373a207472616e736665722066726f6d20746865207a65726f206160008201527f6464726573730000000000000000000000000000000000000000000000000000602082015250565b7f4552433737373a206275726e20616d6f756e7420657863656564732062616c6160008201527f6e63650000000000000000000000000000000000000000000000000000000000602082015250565b7f4552433737373a2073656e6420746f20746865207a65726f2061646472657373600082015250565b7f4552433737373a20617070726f766520746f20746865207a65726f206164647260008201527f6573730000000000000000000000000000000000000000000000000000000000602082015250565b6136b481612fd9565b81146136bf57600080fd5b50565b6136cb81613021565b81146136d657600080fd5b5056fea2646970667358221220902419d208c58d5dbd5c6faf7995f4b9a670f47dfc0bab38d6785914ef25844c64736f6c63430008060033",
  "linkReferences": {},
  "deployedLinkReferences": {}
}